{
  "_format": "hh-sol-artifact-1",
  "contractName": "Duckies",
  "sourceName": "contracts/Duckies.sol",
  "abi": [
    {
      "inputs": [],
      "stateMutability": "nonpayable",
      "type": "constructor"
    },
    {
      "anonymous": false,
      "inputs": [
        {
          "indexed": true,
          "internalType": "address",
          "name": "owner",
          "type": "address"
        },
        {
          "indexed": true,
          "internalType": "address",
          "name": "spender",
          "type": "address"
        },
        {
          "indexed": false,
          "internalType": "uint256",
          "name": "value",
          "type": "uint256"
        }
      ],
      "name": "Approval",
      "type": "event"
    },
    {
      "anonymous": false,
      "inputs": [
        {
          "indexed": false,
          "internalType": "uint8",
          "name": "version",
          "type": "uint8"
        }
      ],
      "name": "Initialized",
      "type": "event"
    },
    {
      "anonymous": false,
      "inputs": [
        {
          "indexed": true,
          "internalType": "address",
          "name": "previousOwner",
          "type": "address"
        },
        {
          "indexed": true,
          "internalType": "address",
          "name": "newOwner",
          "type": "address"
        }
      ],
      "name": "OwnershipTransferred",
      "type": "event"
    },
    {
      "anonymous": false,
      "inputs": [
        {
          "indexed": false,
          "internalType": "address",
          "name": "account",
          "type": "address"
        }
      ],
      "name": "Paused",
      "type": "event"
    },
    {
      "anonymous": false,
      "inputs": [
        {
          "indexed": true,
          "internalType": "address",
          "name": "from",
          "type": "address"
        },
        {
          "indexed": true,
          "internalType": "address",
          "name": "to",
          "type": "address"
        },
        {
          "indexed": false,
          "internalType": "uint256",
          "name": "value",
          "type": "uint256"
        }
      ],
      "name": "Transfer",
      "type": "event"
    },
    {
      "anonymous": false,
      "inputs": [
        {
          "indexed": false,
          "internalType": "address",
          "name": "account",
          "type": "address"
        }
      ],
      "name": "Unpaused",
      "type": "event"
    },
    {
      "inputs": [
        {
          "internalType": "uint256",
          "name": "",
          "type": "uint256"
        }
      ],
      "name": "_payouts",
      "outputs": [
        {
          "internalType": "uint16",
          "name": "",
          "type": "uint16"
        }
      ],
      "stateMutability": "view",
      "type": "function"
    },
    {
      "inputs": [
        {
          "internalType": "address",
          "name": "owner",
          "type": "address"
        },
        {
          "internalType": "address",
          "name": "spender",
          "type": "address"
        }
      ],
      "name": "allowance",
      "outputs": [
        {
          "internalType": "uint256",
          "name": "",
          "type": "uint256"
        }
      ],
      "stateMutability": "view",
      "type": "function"
    },
    {
      "inputs": [
        {
          "internalType": "address",
          "name": "spender",
          "type": "address"
        },
        {
          "internalType": "uint256",
          "name": "amount",
          "type": "uint256"
        }
      ],
      "name": "approve",
      "outputs": [
        {
          "internalType": "bool",
          "name": "",
          "type": "bool"
        }
      ],
      "stateMutability": "nonpayable",
      "type": "function"
    },
    {
      "inputs": [
        {
          "internalType": "address",
          "name": "account",
          "type": "address"
        }
      ],
      "name": "balanceOf",
      "outputs": [
        {
          "internalType": "uint256",
          "name": "",
          "type": "uint256"
        }
      ],
      "stateMutability": "view",
      "type": "function"
    },
    {
      "inputs": [
        {
          "internalType": "uint256",
          "name": "amount",
          "type": "uint256"
        }
      ],
      "name": "burn",
      "outputs": [],
      "stateMutability": "nonpayable",
      "type": "function"
    },
    {
      "inputs": [
        {
          "internalType": "address",
          "name": "account",
          "type": "address"
        },
        {
          "internalType": "uint256",
          "name": "amount",
          "type": "uint256"
        }
      ],
      "name": "burnFrom",
      "outputs": [],
      "stateMutability": "nonpayable",
      "type": "function"
    },
    {
      "inputs": [],
      "name": "cap",
      "outputs": [
        {
          "internalType": "uint256",
          "name": "",
          "type": "uint256"
        }
      ],
      "stateMutability": "view",
      "type": "function"
    },
    {
      "inputs": [],
      "name": "decimals",
      "outputs": [
        {
          "internalType": "uint8",
          "name": "",
          "type": "uint8"
        }
      ],
      "stateMutability": "view",
      "type": "function"
    },
    {
      "inputs": [
        {
          "internalType": "address",
          "name": "spender",
          "type": "address"
        },
        {
          "internalType": "uint256",
          "name": "subtractedValue",
          "type": "uint256"
        }
      ],
      "name": "decreaseAllowance",
      "outputs": [
        {
          "internalType": "bool",
          "name": "",
          "type": "bool"
        }
      ],
      "stateMutability": "nonpayable",
      "type": "function"
    },
    {
      "inputs": [
        {
          "internalType": "string",
          "name": "bountyID",
          "type": "string"
        }
      ],
      "name": "getAccountBountyLimit",
      "outputs": [
        {
          "internalType": "uint16",
          "name": "",
          "type": "uint16"
        }
      ],
      "stateMutability": "view",
      "type": "function"
    },
    {
      "inputs": [],
      "name": "getAffiliatesCount",
      "outputs": [
        {
          "internalType": "uint8[5]",
          "name": "",
          "type": "uint8[5]"
        }
      ],
      "stateMutability": "view",
      "type": "function"
    },
    {
      "inputs": [
        {
          "internalType": "bytes32",
          "name": "_messageHash",
          "type": "bytes32"
        }
      ],
      "name": "getEthSignedMessageHash",
      "outputs": [
        {
          "internalType": "bytes32",
          "name": "",
          "type": "bytes32"
        }
      ],
      "stateMutability": "pure",
      "type": "function"
    },
    {
      "inputs": [
        {
          "components": [
            {
              "internalType": "string",
              "name": "id",
              "type": "string"
            },
            {
              "internalType": "address",
              "name": "ref",
              "type": "address"
            },
            {
              "internalType": "uint32",
              "name": "amt",
              "type": "uint32"
            },
            {
              "internalType": "uint256",
              "name": "blockExpiration",
              "type": "uint256"
            },
            {
              "internalType": "uint16",
              "name": "limit",
              "type": "uint16"
            }
          ],
          "internalType": "struct Duckies.Message",
          "name": "_message",
          "type": "tuple"
        }
      ],
      "name": "getMessageHash",
      "outputs": [
        {
          "internalType": "bytes32",
          "name": "",
          "type": "bytes32"
        }
      ],
      "stateMutability": "pure",
      "type": "function"
    },
    {
      "inputs": [],
      "name": "getPayouts",
      "outputs": [
        {
          "internalType": "uint16[]",
          "name": "",
          "type": "uint16[]"
        }
      ],
      "stateMutability": "view",
      "type": "function"
    },
    {
      "inputs": [
        {
          "internalType": "address",
          "name": "spender",
          "type": "address"
        },
        {
          "internalType": "uint256",
          "name": "addedValue",
          "type": "uint256"
        }
      ],
      "name": "increaseAllowance",
      "outputs": [
        {
          "internalType": "bool",
          "name": "",
          "type": "bool"
        }
      ],
      "stateMutability": "nonpayable",
      "type": "function"
    },
    {
      "inputs": [
        {
          "internalType": "address",
          "name": "issuer",
          "type": "address"
        }
      ],
      "name": "initialize",
      "outputs": [],
      "stateMutability": "nonpayable",
      "type": "function"
    },
    {
      "inputs": [
        {
          "internalType": "address",
          "name": "to",
          "type": "address"
        },
        {
          "internalType": "uint256",
          "name": "amount",
          "type": "uint256"
        }
      ],
      "name": "mint",
      "outputs": [],
      "stateMutability": "nonpayable",
      "type": "function"
    },
    {
      "inputs": [],
      "name": "name",
      "outputs": [
        {
          "internalType": "string",
          "name": "",
          "type": "string"
        }
      ],
      "stateMutability": "view",
      "type": "function"
    },
    {
      "inputs": [],
      "name": "owner",
      "outputs": [
        {
          "internalType": "address",
          "name": "",
          "type": "address"
        }
      ],
      "stateMutability": "view",
      "type": "function"
    },
    {
      "inputs": [],
      "name": "pause",
      "outputs": [],
      "stateMutability": "nonpayable",
      "type": "function"
    },
    {
      "inputs": [],
      "name": "paused",
      "outputs": [
        {
          "internalType": "bool",
          "name": "",
          "type": "bool"
        }
      ],
      "stateMutability": "view",
      "type": "function"
    },
    {
      "inputs": [
        {
          "internalType": "bytes32",
          "name": "_ethSignedMessageHash",
          "type": "bytes32"
        },
        {
          "internalType": "bytes",
          "name": "_sig",
          "type": "bytes"
        }
      ],
      "name": "recover",
      "outputs": [
        {
          "internalType": "address",
          "name": "",
          "type": "address"
        }
      ],
      "stateMutability": "pure",
      "type": "function"
    },
    {
      "inputs": [],
      "name": "renounceOwnership",
      "outputs": [],
      "stateMutability": "nonpayable",
      "type": "function"
    },
    {
      "inputs": [
        {
          "components": [
            {
              "internalType": "string",
              "name": "id",
              "type": "string"
            },
            {
              "internalType": "address",
              "name": "ref",
              "type": "address"
            },
            {
              "internalType": "uint32",
              "name": "amt",
              "type": "uint32"
            },
            {
              "internalType": "uint256",
              "name": "blockExpiration",
              "type": "uint256"
            },
            {
              "internalType": "uint16",
              "name": "limit",
              "type": "uint16"
            }
          ],
          "internalType": "struct Duckies.Message",
          "name": "_message",
          "type": "tuple"
        },
        {
          "internalType": "bytes",
          "name": "_sig",
          "type": "bytes"
        }
      ],
      "name": "reward",
      "outputs": [],
      "stateMutability": "nonpayable",
      "type": "function"
    },
    {
      "inputs": [
        {
          "internalType": "uint16[5]",
          "name": "payouts",
          "type": "uint16[5]"
        }
      ],
      "name": "setPayouts",
      "outputs": [],
      "stateMutability": "nonpayable",
      "type": "function"
    },
    {
      "inputs": [],
      "name": "symbol",
      "outputs": [
        {
          "internalType": "string",
          "name": "",
          "type": "string"
        }
      ],
      "stateMutability": "view",
      "type": "function"
    },
    {
      "inputs": [],
      "name": "totalSupply",
      "outputs": [
        {
          "internalType": "uint256",
          "name": "",
          "type": "uint256"
        }
      ],
      "stateMutability": "view",
      "type": "function"
    },
    {
      "inputs": [
        {
          "internalType": "address",
          "name": "to",
          "type": "address"
        },
        {
          "internalType": "uint256",
          "name": "amount",
          "type": "uint256"
        }
      ],
      "name": "transfer",
      "outputs": [
        {
          "internalType": "bool",
          "name": "",
          "type": "bool"
        }
      ],
      "stateMutability": "nonpayable",
      "type": "function"
    },
    {
      "inputs": [
        {
          "internalType": "address",
          "name": "from",
          "type": "address"
        },
        {
          "internalType": "address",
          "name": "to",
          "type": "address"
        },
        {
          "internalType": "uint256",
          "name": "amount",
          "type": "uint256"
        }
      ],
      "name": "transferFrom",
      "outputs": [
        {
          "internalType": "bool",
          "name": "",
          "type": "bool"
        }
      ],
      "stateMutability": "nonpayable",
      "type": "function"
    },
    {
      "inputs": [
        {
          "internalType": "address",
          "name": "newOwner",
          "type": "address"
        }
      ],
      "name": "transferOwnership",
      "outputs": [],
      "stateMutability": "nonpayable",
      "type": "function"
    },
    {
      "inputs": [],
      "name": "unpause",
      "outputs": [],
      "stateMutability": "nonpayable",
      "type": "function"
    }
  ],
  "bytecode": "0x60806040523480156200001157600080fd5b50620000226200002860201b60201c565b6200020f565b6200003a60ff6200003d60201b60201c565b50565b60008060019054906101000a900460ff1615620000c75760018260ff161480156200007b575062000079306200014360201b620017371760201c565b155b620000bd576040517f08c379a0000000000000000000000000000000000000000000000000000000008152600401620000b4906200018d565b60405180910390fd5b600090506200013e565b8160ff1660008054906101000a900460ff1660ff16106200011f576040517f08c379a000000000000000000000000000000000000000000000000000000000815260040162000116906200018d565b60405180910390fd5b816000806101000a81548160ff021916908360ff160217905550600190505b919050565b6000808273ffffffffffffffffffffffffffffffffffffffff163b119050919050565b600062000175602e83620001af565b91506200018282620001c0565b604082019050919050565b60006020820190508181036000830152620001a88162000166565b9050919050565b600082825260208201905092915050565b7f496e697469616c697a61626c653a20636f6e747261637420697320616c72656160008201527f647920696e697469616c697a6564000000000000000000000000000000000000602082015250565b614b39806200021f6000396000f3fe608060405234801561001057600080fd5b50600436106101e55760003560e01c80636bf90c841161010f578063a9059cbb116100a2578063f2fde38b11610071578063f2fde38b1461056e578063f6a1100d1461058a578063fa540801146105ba578063fd7452fc146105ea576101e5565b8063a9059cbb146104d6578063c4d66de814610506578063cb1c9c2114610522578063dd62ed3e1461053e576101e5565b80638456cb59116100de5780638456cb59146104605780638da5cb5b1461046a57806395d89b4114610488578063a457c2d7146104a6576101e5565b80636bf90c84146103ec57806370a082311461040a578063715018a61461043a57806379cc679014610444576101e5565b806334c4b14b1161018757806340c10f191161015657806340c10f191461037a57806342966c68146103965780635c975abb146103b25780635ddd8711146103d0576101e5565b806334c4b14b14610304578063355274ea1461032257806339509351146103405780633f4ba83a14610370576101e5565b806318160ddd116101c357806318160ddd1461026857806319045a251461028657806323b872dd146102b6578063313ce567146102e6576101e5565b806306fdde03146101ea578063095ea7b3146102085780631626bb3514610238575b600080fd5b6101f261061a565b6040516101ff9190613a2b565b60405180910390f35b610222600480360381019061021d91906130f6565b6106ac565b60405161022f9190613995565b60405180910390f35b610252600480360381019061024d91906132c6565b6106cf565b60405161025f9190613d4f565b60405180910390f35b610270610707565b60405161027d9190613d6a565b60405180910390f35b6102a0600480360381019061029b9190613184565b610711565b6040516102ad919061393d565b60405180910390f35b6102d060048036038101906102cb91906130a7565b610780565b6040516102dd9190613995565b60405180910390f35b6102ee6107af565b6040516102fb9190613d85565b60405180910390f35b61030c6107b8565b604051610319919061397a565b60405180910390f35b61032a61080b565b6040516103379190613d6a565b60405180910390f35b61035a600480360381019061035591906130f6565b610815565b6040516103679190613995565b60405180910390f35b61037861084c565b005b610394600480360381019061038f91906130f6565b6108d2565b005b6103b060048036038101906103ab91906132c6565b61095c565b005b6103ba6109ec565b6040516103c79190613995565b60405180910390f35b6103ea60048036038101906103e5919061325a565b610a03565b005b6103f4610e96565b6040516104019190613958565b60405180910390f35b610424600480360381019061041f9190613042565b610f16565b6040516104319190613d6a565b60405180910390f35b610442610f5f565b005b61045e600480360381019061045991906130f6565b610fe7565b005b610468611083565b005b610472611109565b60405161047f919061393d565b60405180910390f35b610490611133565b60405161049d9190613a2b565b60405180910390f35b6104c060048036038101906104bb91906130f6565b6111c5565b6040516104cd9190613995565b60405180910390f35b6104f060048036038101906104eb91906130f6565b61123c565b6040516104fd9190613995565b60405180910390f35b610520600480360381019061051b9190613042565b61125f565b005b61053c60048036038101906105379190613132565b611453565b005b6105586004803603810190610553919061306b565b6114e4565b6040516105659190613d6a565b60405180910390f35b61058860048036038101906105839190613042565b61156b565b005b6105a4600480360381019061059f91906131d8565b611663565b6040516105b19190613d4f565b60405180910390f35b6105d460048036038101906105cf919061315b565b6116d7565b6040516105e191906139b0565b60405180910390f35b61060460048036038101906105ff9190613219565b611707565b60405161061191906139b0565b60405180910390f35b606060368054610629906142e5565b80601f0160208091040260200160405190810160405280929190818152602001828054610655906142e5565b80156106a25780601f10610677576101008083540402835291602001916106a2565b820191906000526020600020905b81548152906001019060200180831161068557829003601f168201915b5050505050905090565b6000806106b761175a565b90506106c4818585611762565b600191505092915050565b60ff81815481106106df57600080fd5b9060005260206000209060109182820401919006600202915054906101000a900461ffff1681565b6000603554905090565b6000806000806107208561192d565b9250925092506001868285856040516000815260200160405260405161074994939291906139cb565b6020604051602081039080840390855afa15801561076b573d6000803e3d6000fd5b50505060206040510351935050505092915050565b60008061078b61175a565b9050610798858285611995565b6107a3858585611a21565b60019150509392505050565b60006002905090565b6107c0612c70565b6108063360016040518060a00160405280600060ff168152602001600060ff168152602001600060ff168152602001600060ff168152602001600060ff16815250611ca5565b905090565b6000606554905090565b60008061082061175a565b905061084181858561083285896114e4565b61083c9190613f23565b611762565b600191505092915050565b61085461175a565b73ffffffffffffffffffffffffffffffffffffffff16610872611109565b73ffffffffffffffffffffffffffffffffffffffff16146108c8576040517f08c379a00000000000000000000000000000000000000000000000000000000081526004016108bf90613bed565b60405180910390fd5b6108d0611e70565b565b6108da61175a565b73ffffffffffffffffffffffffffffffffffffffff166108f8611109565b73ffffffffffffffffffffffffffffffffffffffff161461094e576040517f08c379a000000000000000000000000000000000000000000000000000000000815260040161094590613bed565b60405180910390fd5b6109588282611f12565b5050565b61096461175a565b73ffffffffffffffffffffffffffffffffffffffff16610982611109565b73ffffffffffffffffffffffffffffffffffffffff16146109d8576040517f08c379a00000000000000000000000000000000000000000000000000000000081526004016109cf90613bed565b60405180910390fd5b6109e96109e361175a565b82611f7c565b50565b6000609860009054906101000a900460ff16905090565b6000610a0e83611707565b90506000610a1b826116d7565b90508360600151431115610a64576040517f08c379a0000000000000000000000000000000000000000000000000000000008152600401610a5b90613a4d565b60405180910390fd5b60fc60009054906101000a900473ffffffffffffffffffffffffffffffffffffffff1673ffffffffffffffffffffffffffffffffffffffff16610aa78285610711565b73ffffffffffffffffffffffffffffffffffffffff1614610ac757600080fd5b600073ffffffffffffffffffffffffffffffffffffffff16846020015173ffffffffffffffffffffffffffffffffffffffff1614610d1657600073ffffffffffffffffffffffffffffffffffffffff1660fd60003373ffffffffffffffffffffffffffffffffffffffff1673ffffffffffffffffffffffffffffffffffffffff16815260200190815260200160002060009054906101000a900473ffffffffffffffffffffffffffffffffffffffff1673ffffffffffffffffffffffffffffffffffffffff1614610b9757600080fd5b836020015173ffffffffffffffffffffffffffffffffffffffff163373ffffffffffffffffffffffffffffffffffffffff161415610bd457600080fd5b610be2338560200151612155565b610beb57600080fd5b836020015160fd60003373ffffffffffffffffffffffffffffffffffffffff1673ffffffffffffffffffffffffffffffffffffffff16815260200190815260200160002060006101000a81548173ffffffffffffffffffffffffffffffffffffffff021916908373ffffffffffffffffffffffffffffffffffffffff16021790555060fe6000856020015173ffffffffffffffffffffffffffffffffffffffff1673ffffffffffffffffffffffffffffffffffffffff168152602001908152602001600020339080600181540180825580915050600190039060005260206000200160009091909190916101000a81548173ffffffffffffffffffffffffffffffffffffffff021916908373ffffffffffffffffffffffffffffffffffffffff160217905550610de4565b6000846080015161ffff1614610de357836080015161ffff1661010060003373ffffffffffffffffffffffffffffffffffffffff1673ffffffffffffffffffffffffffffffffffffffff1681526020019081526020016000208560000151604051610d819190613900565b908152602001604051809103902060009054906101000a900461ffff1661ffff1610610de2576040517f08c379a0000000000000000000000000000000000000000000000000000000008152600401610dd990613b8d565b60405180910390fd5b5b5b61010060003373ffffffffffffffffffffffffffffffffffffffff1673ffffffffffffffffffffffffffffffffffffffff1681526020019081526020016000208460000151604051610e369190613900565b9081526020016040518091039020600081819054906101000a900461ffff1680929190610e6290614348565b91906101000a81548161ffff021916908361ffff16021790555050610e90846040015163ffffffff1661228d565b50505050565b606060ff805480602002602001604051908101604052809291908181526020018280548015610f0c57602002820191906000526020600020906000905b82829054906101000a900461ffff1661ffff1681526020019060020190602082600101049283019260010382029150808411610ed35790505b5050505050905090565b6000603360008373ffffffffffffffffffffffffffffffffffffffff1673ffffffffffffffffffffffffffffffffffffffff168152602001908152602001600020549050919050565b610f6761175a565b73ffffffffffffffffffffffffffffffffffffffff16610f85611109565b73ffffffffffffffffffffffffffffffffffffffff1614610fdb576040517f08c379a0000000000000000000000000000000000000000000000000000000008152600401610fd290613bed565b60405180910390fd5b610fe56000612500565b565b610fef61175a565b73ffffffffffffffffffffffffffffffffffffffff1661100d611109565b73ffffffffffffffffffffffffffffffffffffffff1614611063576040517f08c379a000000000000000000000000000000000000000000000000000000000815260040161105a90613bed565b60405180910390fd5b6110758261106f61175a565b83611995565b61107f8282611f7c565b5050565b61108b61175a565b73ffffffffffffffffffffffffffffffffffffffff166110a9611109565b73ffffffffffffffffffffffffffffffffffffffff16146110ff576040517f08c379a00000000000000000000000000000000000000000000000000000000081526004016110f690613bed565b60405180910390fd5b6111076125c6565b565b600060ca60009054906101000a900473ffffffffffffffffffffffffffffffffffffffff16905090565b606060378054611142906142e5565b80601f016020809104026020016040519081016040528092919081815260200182805461116e906142e5565b80156111bb5780601f10611190576101008083540402835291602001916111bb565b820191906000526020600020905b81548152906001019060200180831161119e57829003601f168201915b5050505050905090565b6000806111d061175a565b905060006111de82866114e4565b905083811015611223576040517f08c379a000000000000000000000000000000000000000000000000000000000815260040161121a90613ced565b60405180910390fd5b6112308286868403611762565b60019250505092915050565b60008061124761175a565b9050611254818585611a21565b600191505092915050565b600061126b6001612669565b9050801561128f576001600060016101000a81548160ff0219169083151502179055505b6113036040518060400160405280600e81526020017f59656c6c6f77204475636b6965730000000000000000000000000000000000008152506040518060400160405280600581526020017f4455434b5a000000000000000000000000000000000000000000000000000000815250612759565b61132f61130e6107af565b600a61131a9190614034565b64cec0ecb00061132a9190614152565b6127b6565b611337612811565b61133f61286a565b8160fc60006101000a81548173ffffffffffffffffffffffffffffffffffffffff021916908373ffffffffffffffffffffffffffffffffffffffff1602179055506113c96040518060a001604052806101f461ffff168152602001607d61ffff168152602001605061ffff168152602001603261ffff168152602001601461ffff16815250611453565b6113f6336113d56107af565b600a6113e19190614034565b6467607658006113f19190614152565b611f12565b801561144f5760008060016101000a81548160ff0219169083151502179055507f7f26b83ff96e1f2b6a682f133852f6798a09c465da95921460cefb384740249860016040516114469190613a10565b60405180910390a15b5050565b61145b61175a565b73ffffffffffffffffffffffffffffffffffffffff16611479611109565b73ffffffffffffffffffffffffffffffffffffffff16146114cf576040517f08c379a00000000000000000000000000000000000000000000000000000000081526004016114c690613bed565b60405180910390fd5b8060ff9060056114e0929190612c92565b5050565b6000603460008473ffffffffffffffffffffffffffffffffffffffff1673ffffffffffffffffffffffffffffffffffffffff16815260200190815260200160002060008373ffffffffffffffffffffffffffffffffffffffff1673ffffffffffffffffffffffffffffffffffffffff16815260200190815260200160002054905092915050565b61157361175a565b73ffffffffffffffffffffffffffffffffffffffff16611591611109565b73ffffffffffffffffffffffffffffffffffffffff16146115e7576040517f08c379a00000000000000000000000000000000000000000000000000000000081526004016115de90613bed565b60405180910390fd5b600073ffffffffffffffffffffffffffffffffffffffff168173ffffffffffffffffffffffffffffffffffffffff161415611657576040517f08c379a000000000000000000000000000000000000000000000000000000000815260040161164e90613b0d565b60405180910390fd5b61166081612500565b50565b600061010060003373ffffffffffffffffffffffffffffffffffffffff1673ffffffffffffffffffffffffffffffffffffffff168152602001908152602001600020826040516116b39190613900565b908152602001604051809103902060009054906101000a900461ffff169050919050565b6000816040516020016116ea9190613917565b604051602081830303815290604052805190602001209050919050565b60008160405160200161171a9190613d2d565b604051602081830303815290604052805190602001209050919050565b6000808273ffffffffffffffffffffffffffffffffffffffff163b119050919050565b600033905090565b600073ffffffffffffffffffffffffffffffffffffffff168373ffffffffffffffffffffffffffffffffffffffff1614156117d2576040517f08c379a00000000000000000000000000000000000000000000000000000000081526004016117c990613c8d565b60405180910390fd5b600073ffffffffffffffffffffffffffffffffffffffff168273ffffffffffffffffffffffffffffffffffffffff161415611842576040517f08c379a000000000000000000000000000000000000000000000000000000000815260040161183990613b2d565b60405180910390fd5b80603460008573ffffffffffffffffffffffffffffffffffffffff1673ffffffffffffffffffffffffffffffffffffffff16815260200190815260200160002060008473ffffffffffffffffffffffffffffffffffffffff1673ffffffffffffffffffffffffffffffffffffffff168152602001908152602001600020819055508173ffffffffffffffffffffffffffffffffffffffff168373ffffffffffffffffffffffffffffffffffffffff167f8c5be1e5ebec7d5bd14f71427d1e84f3dd0314c0f7b2291e5b200ac8c7c3b925836040516119209190613d6a565b60405180910390a3505050565b60008060006041845114611976576040517f08c379a000000000000000000000000000000000000000000000000000000000815260040161196d90613ccd565b60405180910390fd5b6020840151925060408401519150606084015160001a90509193909250565b60006119a184846114e4565b90507fffffffffffffffffffffffffffffffffffffffffffffffffffffffffffffffff8114611a1b5781811015611a0d576040517f08c379a0000000000000000000000000000000000000000000000000000000008152600401611a0490613b4d565b60405180910390fd5b611a1a8484848403611762565b5b50505050565b600073ffffffffffffffffffffffffffffffffffffffff168373ffffffffffffffffffffffffffffffffffffffff161415611a91576040517f08c379a0000000000000000000000000000000000000000000000000000000008152600401611a8890613c4d565b60405180910390fd5b600073ffffffffffffffffffffffffffffffffffffffff168273ffffffffffffffffffffffffffffffffffffffff161415611b01576040517f08c379a0000000000000000000000000000000000000000000000000000000008152600401611af890613a6d565b60405180910390fd5b611b0c8383836128c3565b6000603360008573ffffffffffffffffffffffffffffffffffffffff1673ffffffffffffffffffffffffffffffffffffffff16815260200190815260200160002054905081811015611b93576040517f08c379a0000000000000000000000000000000000000000000000000000000008152600401611b8a90613b6d565b60405180910390fd5b818103603360008673ffffffffffffffffffffffffffffffffffffffff1673ffffffffffffffffffffffffffffffffffffffff1681526020019081526020016000208190555081603360008573ffffffffffffffffffffffffffffffffffffffff1673ffffffffffffffffffffffffffffffffffffffff1681526020019081526020016000206000828254611c289190613f23565b925050819055508273ffffffffffffffffffffffffffffffffffffffff168473ffffffffffffffffffffffffffffffffffffffff167fddf252ad1be2c89b69c2b068fc378daa952ba7f163c4a11628f55a4df523b3ef84604051611c8c9190613d6a565b60405180910390a3611c9f84848461291b565b50505050565b611cad612c70565b60058361ffff1611611e6657600060fe60008673ffffffffffffffffffffffffffffffffffffffff1673ffffffffffffffffffffffffffffffffffffffff168152602001908152602001600020805480602002602001604051908101604052809291908181526020018280548015611d7a57602002820191906000526020600020905b8160009054906101000a900473ffffffffffffffffffffffffffffffffffffffff1673ffffffffffffffffffffffffffffffffffffffff1681526020019060010190808311611d30575b50505050509050805183600186611d9191906141ac565b61ffff1660058110611dcc577f4e487b7100000000000000000000000000000000000000000000000000000000600052603260045260246000fd5b60200201818151611ddd9190613f79565b91509060ff16908160ff168152505060005b8151811015611e6357611e4f828281518110611e34577f4e487b7100000000000000000000000000000000000000000000000000000000600052603260045260246000fd5b6020026020010151600187611e499190613eeb565b86611ca5565b508080611e5b90614373565b915050611def565b50505b8190509392505050565b611e786109ec565b611eb7576040517f08c379a0000000000000000000000000000000000000000000000000000000008152600401611eae90613aad565b60405180910390fd5b6000609860006101000a81548160ff0219169083151502179055507f5db9ee0a495bf2e6ff9c91a7834c1ba4fdd244a5e8aa4e537bd38aeae4b073aa611efb61175a565b604051611f08919061393d565b60405180910390a1565b611f1a61080b565b81611f23610707565b611f2d9190613f23565b1115611f6e576040517f08c379a0000000000000000000000000000000000000000000000000000000008152600401611f6590613c6d565b60405180910390fd5b611f788282612920565b5050565b600073ffffffffffffffffffffffffffffffffffffffff168273ffffffffffffffffffffffffffffffffffffffff161415611fec576040517f08c379a0000000000000000000000000000000000000000000000000000000008152600401611fe390613c0d565b60405180910390fd5b611ff8826000836128c3565b6000603360008473ffffffffffffffffffffffffffffffffffffffff1673ffffffffffffffffffffffffffffffffffffffff1681526020019081526020016000205490508181101561207f576040517f08c379a000000000000000000000000000000000000000000000000000000000815260040161207690613acd565b60405180910390fd5b818103603360008573ffffffffffffffffffffffffffffffffffffffff1673ffffffffffffffffffffffffffffffffffffffff1681526020019081526020016000208190555081603560008282546120d791906141e0565b92505081905550600073ffffffffffffffffffffffffffffffffffffffff168373ffffffffffffffffffffffffffffffffffffffff167fddf252ad1be2c89b69c2b068fc378daa952ba7f163c4a11628f55a4df523b3ef8460405161213c9190613d6a565b60405180910390a36121508360008461291b565b505050565b60008060019050600083905060005b60058160ff161015612281578573ffffffffffffffffffffffffffffffffffffffff1660fd60008473ffffffffffffffffffffffffffffffffffffffff1673ffffffffffffffffffffffffffffffffffffffff16815260200190815260200160002060009054906101000a900473ffffffffffffffffffffffffffffffffffffffff1673ffffffffffffffffffffffffffffffffffffffff16141561220c5760009250612281565b60fd60008373ffffffffffffffffffffffffffffffffffffffff1673ffffffffffffffffffffffffffffffffffffffff16815260200190815260200160002060009054906101000a900473ffffffffffffffffffffffffffffffffffffffff1691508080612279906143bc565b915050612164565b50819250505092915050565b600073ffffffffffffffffffffffffffffffffffffffff163373ffffffffffffffffffffffffffffffffffffffff1614156122fd576040517f08c379a00000000000000000000000000000000000000000000000000000000081526004016122f490613aed565b60405180910390fd5b60008111612340576040517f08c379a000000000000000000000000000000000000000000000000000000000815260040161233790613c2d565b60405180910390fd5b61234a3382611f12565b600060fd60003373ffffffffffffffffffffffffffffffffffffffff1673ffffffffffffffffffffffffffffffffffffffff16815260200190815260200160002060009054906101000a900473ffffffffffffffffffffffffffffffffffffffff16905060005b60ff805490508160ff1610156124fb57600073ffffffffffffffffffffffffffffffffffffffff168273ffffffffffffffffffffffffffffffffffffffff1614156123fb576124fb565b6000606460ff8360ff168154811061243c577f4e487b7100000000000000000000000000000000000000000000000000000000600052603260045260246000fd5b90600052602060002090601091828204019190066002029054906101000a900461ffff1661ffff168561246f9190614152565b6124799190613fb0565b90506124858382611f12565b60fd60008473ffffffffffffffffffffffffffffffffffffffff1673ffffffffffffffffffffffffffffffffffffffff16815260200190815260200160002060009054906101000a900473ffffffffffffffffffffffffffffffffffffffff1692505080806124f3906143bc565b9150506123b1565b505050565b600060ca60009054906101000a900473ffffffffffffffffffffffffffffffffffffffff1690508160ca60006101000a81548173ffffffffffffffffffffffffffffffffffffffff021916908373ffffffffffffffffffffffffffffffffffffffff1602179055508173ffffffffffffffffffffffffffffffffffffffff168173ffffffffffffffffffffffffffffffffffffffff167f8be0079c531659141344cd1fd0a4f28419497f9722a3daafe3b4186f6b6457e060405160405180910390a35050565b6125ce6109ec565b1561260e576040517f08c379a000000000000000000000000000000000000000000000000000000000815260040161260590613bad565b60405180910390fd5b6001609860006101000a81548160ff0219169083151502179055507f62e78cea01bee320cd4e420270b5ea74000d11b0c9f74754ebdbfc544b05a25861265261175a565b60405161265f919061393d565b60405180910390a1565b60008060019054906101000a900460ff16156126e05760018260ff16148015612698575061269630611737565b155b6126d7576040517f08c379a00000000000000000000000000000000000000000000000000000000081526004016126ce90613bcd565b60405180910390fd5b60009050612754565b8160ff1660008054906101000a900460ff1660ff1610612735576040517f08c379a000000000000000000000000000000000000000000000000000000000815260040161272c90613bcd565b60405180910390fd5b816000806101000a81548160ff021916908360ff160217905550600190505b919050565b600060019054906101000a900460ff166127a8576040517f08c379a000000000000000000000000000000000000000000000000000000000815260040161279f90613cad565b60405180910390fd5b6127b28282612a81565b5050565b600060019054906101000a900460ff16612805576040517f08c379a00000000000000000000000000000000000000000000000000000000081526004016127fc90613cad565b60405180910390fd5b61280e81612b02565b50565b600060019054906101000a900460ff16612860576040517f08c379a000000000000000000000000000000000000000000000000000000000815260040161285790613cad565b60405180910390fd5b612868612b9e565b565b600060019054906101000a900460ff166128b9576040517f08c379a00000000000000000000000000000000000000000000000000000000081526004016128b090613cad565b60405180910390fd5b6128c1612c0a565b565b6128cb6109ec565b1561290b576040517f08c379a000000000000000000000000000000000000000000000000000000000815260040161290290613bad565b60405180910390fd5b612916838383612c6b565b505050565b505050565b600073ffffffffffffffffffffffffffffffffffffffff168273ffffffffffffffffffffffffffffffffffffffff161415612990576040517f08c379a000000000000000000000000000000000000000000000000000000000815260040161298790613d0d565b60405180910390fd5b61299c600083836128c3565b80603560008282546129ae9190613f23565b9250508190555080603360008473ffffffffffffffffffffffffffffffffffffffff1673ffffffffffffffffffffffffffffffffffffffff1681526020019081526020016000206000828254612a049190613f23565b925050819055508173ffffffffffffffffffffffffffffffffffffffff16600073ffffffffffffffffffffffffffffffffffffffff167fddf252ad1be2c89b69c2b068fc378daa952ba7f163c4a11628f55a4df523b3ef83604051612a699190613d6a565b60405180910390a3612a7d6000838361291b565b5050565b600060019054906101000a900460ff16612ad0576040517f08c379a0000000000000000000000000000000000000000000000000000000008152600401612ac790613cad565b60405180910390fd5b8160369080519060200190612ae6929190612d3c565b508060379080519060200190612afd929190612d3c565b505050565b600060019054906101000a900460ff16612b51576040517f08c379a0000000000000000000000000000000000000000000000000000000008152600401612b4890613cad565b60405180910390fd5b60008111612b94576040517f08c379a0000000000000000000000000000000000000000000000000000000008152600401612b8b90613a8d565b60405180910390fd5b8060658190555050565b600060019054906101000a900460ff16612bed576040517f08c379a0000000000000000000000000000000000000000000000000000000008152600401612be490613cad565b60405180910390fd5b6000609860006101000a81548160ff021916908315150217905550565b600060019054906101000a900460ff16612c59576040517f08c379a0000000000000000000000000000000000000000000000000000000008152600401612c5090613cad565b60405180910390fd5b612c69612c6461175a565b612500565b565b505050565b6040518060a00160405280600590602082028036833780820191505090505090565b82805482825590600052602060002090600f01601090048101928215612d2b5791602002820160005b83821115612cfb57835183826101000a81548161ffff021916908361ffff1602179055509260200192600201602081600101049283019260010302612cbb565b8015612d295782816101000a81549061ffff0219169055600201602081600101049283019260010302612cfb565b505b509050612d389190612dc2565b5090565b828054612d48906142e5565b90600052602060002090601f016020900481019282612d6a5760008555612db1565b82601f10612d8357805160ff1916838001178555612db1565b82800160010185558215612db1579182015b82811115612db0578251825591602001919060010190612d95565b5b509050612dbe9190612dc2565b5090565b5b80821115612ddb576000816000905550600101612dc3565b5090565b6000612df2612ded84613dc5565b613da0565b90508082856020860282011115612e0857600080fd5b60005b85811015612e385781612e1e8882613003565b845260208401935060208301925050600181019050612e0b565b5050509392505050565b6000612e55612e5084613deb565b613da0565b905082815260208101848484011115612e6d57600080fd5b612e788482856142a3565b509392505050565b6000612e93612e8e84613e1c565b613da0565b905082815260208101848484011115612eab57600080fd5b612eb68482856142a3565b509392505050565b600081359050612ecd81614a90565b92915050565b600082601f830112612ee457600080fd5b6005612ef1848285612ddf565b91505092915050565b600081359050612f0981614aa7565b92915050565b600082601f830112612f2057600080fd5b8135612f30848260208601612e42565b91505092915050565b600082601f830112612f4a57600080fd5b8135612f5a848260208601612e80565b91505092915050565b600060a08284031215612f7557600080fd5b612f7f60a0613da0565b9050600082013567ffffffffffffffff811115612f9b57600080fd5b612fa784828501612f39565b6000830152506020612fbb84828501612ebe565b6020830152506040612fcf8482850161302d565b6040830152506060612fe384828501613018565b6060830152506080612ff784828501613003565b60808301525092915050565b60008135905061301281614abe565b92915050565b60008135905061302781614ad5565b92915050565b60008135905061303c81614aec565b92915050565b60006020828403121561305457600080fd5b600061306284828501612ebe565b91505092915050565b6000806040838503121561307e57600080fd5b600061308c85828601612ebe565b925050602061309d85828601612ebe565b9150509250929050565b6000806000606084860312156130bc57600080fd5b60006130ca86828701612ebe565b93505060206130db86828701612ebe565b92505060406130ec86828701613018565b9150509250925092565b6000806040838503121561310957600080fd5b600061311785828601612ebe565b925050602061312885828601613018565b9150509250929050565b600060a0828403121561314457600080fd5b600061315284828501612ed3565b91505092915050565b60006020828403121561316d57600080fd5b600061317b84828501612efa565b91505092915050565b6000806040838503121561319757600080fd5b60006131a585828601612efa565b925050602083013567ffffffffffffffff8111156131c257600080fd5b6131ce85828601612f0f565b9150509250929050565b6000602082840312156131ea57600080fd5b600082013567ffffffffffffffff81111561320457600080fd5b61321084828501612f39565b91505092915050565b60006020828403121561322b57600080fd5b600082013567ffffffffffffffff81111561324557600080fd5b61325184828501612f63565b91505092915050565b6000806040838503121561326d57600080fd5b600083013567ffffffffffffffff81111561328757600080fd5b61329385828601612f63565b925050602083013567ffffffffffffffff8111156132b057600080fd5b6132bc85828601612f0f565b9150509250929050565b6000602082840312156132d857600080fd5b60006132e684828501613018565b91505092915050565b60006132fb8383613897565b60208301905092915050565b600061331383836138e2565b60208301905092915050565b61332881614214565b82525050565b61333781614214565b82525050565b600061334882613e67565b6133528185613ea2565b935061335d83613e4d565b8060005b8381101561338e57815161337588826132ef565b975061338083613e88565b925050600181019050613361565b5085935050505092915050565b6133a481613e72565b6133ae8184613eb3565b92506133b982613e5d565b8060005b838110156133ea5781516133d18782613307565b96506133dc83613e95565b9250506001810190506133bd565b505050505050565b6133fb81614226565b82525050565b61340a81614232565b82525050565b61342161341c82614232565b6143e6565b82525050565b61343081614291565b82525050565b600061344182613e7d565b61344b8185613ebe565b935061345b8185602086016142b2565b613464816144ac565b840191505092915050565b600061347a82613e7d565b6134848185613ecf565b93506134948185602086016142b2565b61349d816144ac565b840191505092915050565b60006134b382613e7d565b6134bd8185613ee0565b93506134cd8185602086016142b2565b80840191505092915050565b60006134e6601283613ecf565b91506134f1826144ca565b602082019050919050565b6000613509602383613ecf565b9150613514826144f3565b604082019050919050565b600061352c601583613ecf565b915061353782614542565b602082019050919050565b600061354f601483613ecf565b915061355a8261456b565b602082019050919050565b6000613572602283613ecf565b915061357d82614594565b604082019050919050565b6000613595601c83613ee0565b91506135a0826145e3565b601c82019050919050565b60006135b8602183613ecf565b91506135c38261460c565b604082019050919050565b60006135db602683613ecf565b91506135e68261465b565b604082019050919050565b60006135fe602283613ecf565b9150613609826146aa565b604082019050919050565b6000613621601d83613ecf565b915061362c826146f9565b602082019050919050565b6000613644602683613ecf565b915061364f82614722565b604082019050919050565b6000613667602083613ecf565b915061367282614771565b602082019050919050565b600061368a601083613ecf565b91506136958261479a565b602082019050919050565b60006136ad602e83613ecf565b91506136b8826147c3565b604082019050919050565b60006136d0602083613ecf565b91506136db82614812565b602082019050919050565b60006136f3602183613ecf565b91506136fe8261483b565b604082019050919050565b6000613716602683613ecf565b91506137218261488a565b604082019050919050565b6000613739602583613ecf565b9150613744826148d9565b604082019050919050565b600061375c601983613ecf565b915061376782614928565b602082019050919050565b600061377f602483613ecf565b915061378a82614951565b604082019050919050565b60006137a2602b83613ecf565b91506137ad826149a0565b604082019050919050565b60006137c5601883613ecf565b91506137d0826149ef565b602082019050919050565b60006137e8602583613ecf565b91506137f382614a18565b604082019050919050565b600061380b601f83613ecf565b915061381682614a67565b602082019050919050565b600060a083016000830151848203600086015261383e8282613436565b9150506020830151613853602086018261331f565b50604083015161386660408601826138d3565b50606083015161387960608601826138b5565b50608083015161388c6080860182613897565b508091505092915050565b6138a08161423c565b82525050565b6138af8161423c565b82525050565b6138be8161426a565b82525050565b6138cd8161426a565b82525050565b6138dc81614274565b82525050565b6138eb81614284565b82525050565b6138fa81614284565b82525050565b600061390c82846134a8565b915081905092915050565b600061392282613588565b915061392e8284613410565b60208201915081905092915050565b6000602082019050613952600083018461332e565b92915050565b60006020820190508181036000830152613972818461333d565b905092915050565b600060a08201905061398f600083018461339b565b92915050565b60006020820190506139aa60008301846133f2565b92915050565b60006020820190506139c56000830184613401565b92915050565b60006080820190506139e06000830187613401565b6139ed60208301866138f1565b6139fa6040830185613401565b613a076060830184613401565b95945050505050565b6000602082019050613a256000830184613427565b92915050565b60006020820190508181036000830152613a45818461346f565b905092915050565b60006020820190508181036000830152613a66816134d9565b9050919050565b60006020820190508181036000830152613a86816134fc565b9050919050565b60006020820190508181036000830152613aa68161351f565b9050919050565b60006020820190508181036000830152613ac681613542565b9050919050565b60006020820190508181036000830152613ae681613565565b9050919050565b60006020820190508181036000830152613b06816135ab565b9050919050565b60006020820190508181036000830152613b26816135ce565b9050919050565b60006020820190508181036000830152613b46816135f1565b9050919050565b60006020820190508181036000830152613b6681613614565b9050919050565b60006020820190508181036000830152613b8681613637565b9050919050565b60006020820190508181036000830152613ba68161365a565b9050919050565b60006020820190508181036000830152613bc68161367d565b9050919050565b60006020820190508181036000830152613be6816136a0565b9050919050565b60006020820190508181036000830152613c06816136c3565b9050919050565b60006020820190508181036000830152613c26816136e6565b9050919050565b60006020820190508181036000830152613c4681613709565b9050919050565b60006020820190508181036000830152613c668161372c565b9050919050565b60006020820190508181036000830152613c868161374f565b9050919050565b60006020820190508181036000830152613ca681613772565b9050919050565b60006020820190508181036000830152613cc681613795565b9050919050565b60006020820190508181036000830152613ce6816137b8565b9050919050565b60006020820190508181036000830152613d06816137db565b9050919050565b60006020820190508181036000830152613d26816137fe565b9050919050565b60006020820190508181036000830152613d478184613821565b905092915050565b6000602082019050613d6460008301846138a6565b92915050565b6000602082019050613d7f60008301846138c4565b92915050565b6000602082019050613d9a60008301846138f1565b92915050565b6000613daa613dbb565b9050613db68282614317565b919050565b6000604051905090565b600067ffffffffffffffff821115613de057613ddf61447d565b5b602082029050919050565b600067ffffffffffffffff821115613e0657613e0561447d565b5b613e0f826144ac565b9050602081019050919050565b600067ffffffffffffffff821115613e3757613e3661447d565b5b613e40826144ac565b9050602081019050919050565b6000819050602082019050919050565b6000819050919050565b600081519050919050565b600060059050919050565b600081519050919050565b6000602082019050919050565b6000602082019050919050565b600082825260208201905092915050565b600081905092915050565b600082825260208201905092915050565b600082825260208201905092915050565b600081905092915050565b6000613ef68261423c565b9150613f018361423c565b92508261ffff03821115613f1857613f176143f0565b5b828201905092915050565b6000613f2e8261426a565b9150613f398361426a565b9250827fffffffffffffffffffffffffffffffffffffffffffffffffffffffffffffffff03821115613f6e57613f6d6143f0565b5b828201905092915050565b6000613f8482614284565b9150613f8f83614284565b92508260ff03821115613fa557613fa46143f0565b5b828201905092915050565b6000613fbb8261426a565b9150613fc68361426a565b925082613fd657613fd561441f565b5b828204905092915050565b6000808291508390505b600185111561402b57808604811115614007576140066143f0565b5b60018516156140165780820291505b8081029050614024856144bd565b9450613feb565b94509492505050565b600061403f8261426a565b915061404a83614284565b92506140777fffffffffffffffffffffffffffffffffffffffffffffffffffffffffffffffff848461407f565b905092915050565b60008261408f576001905061414b565b8161409d576000905061414b565b81600181146140b357600281146140bd576140ec565b600191505061414b565b60ff8411156140cf576140ce6143f0565b5b8360020a9150848211156140e6576140e56143f0565b5b5061414b565b5060208310610133831016604e8410600b84101617156141215782820a90508381111561411c5761411b6143f0565b5b61414b565b61412e8484846001613fe1565b92509050818404811115614145576141446143f0565b5b81810290505b9392505050565b600061415d8261426a565b91506141688361426a565b9250817fffffffffffffffffffffffffffffffffffffffffffffffffffffffffffffffff04831182151516156141a1576141a06143f0565b5b828202905092915050565b60006141b78261423c565b91506141c28361423c565b9250828210156141d5576141d46143f0565b5b828203905092915050565b60006141eb8261426a565b91506141f68361426a565b925082821015614209576142086143f0565b5b828203905092915050565b600061421f8261424a565b9050919050565b60008115159050919050565b6000819050919050565b600061ffff82169050919050565b600073ffffffffffffffffffffffffffffffffffffffff82169050919050565b6000819050919050565b600063ffffffff82169050919050565b600060ff82169050919050565b600061429c82614284565b9050919050565b82818337600083830152505050565b60005b838110156142d05780820151818401526020810190506142b5565b838111156142df576000848401525b50505050565b600060028204905060018216806142fd57607f821691505b602082108114156143115761431061444e565b5b50919050565b614320826144ac565b810181811067ffffffffffffffff8211171561433f5761433e61447d565b5b80604052505050565b60006143538261423c565b915061ffff821415614368576143676143f0565b5b600182019050919050565b600061437e8261426a565b91507fffffffffffffffffffffffffffffffffffffffffffffffffffffffffffffffff8214156143b1576143b06143f0565b5b600182019050919050565b60006143c782614284565b915060ff8214156143db576143da6143f0565b5b600182019050919050565b6000819050919050565b7f4e487b7100000000000000000000000000000000000000000000000000000000600052601160045260246000fd5b7f4e487b7100000000000000000000000000000000000000000000000000000000600052601260045260246000fd5b7f4e487b7100000000000000000000000000000000000000000000000000000000600052602260045260246000fd5b7f4e487b7100000000000000000000000000000000000000000000000000000000600052604160045260246000fd5b6000601f19601f8301169050919050565b60008160011c9050919050565b7f4d65737361676520697320657870697265640000000000000000000000000000600082015250565b7f45524332303a207472616e7366657220746f20746865207a65726f206164647260008201527f6573730000000000000000000000000000000000000000000000000000000000602082015250565b7f45524332304361707065643a2063617020697320300000000000000000000000600082015250565b7f5061757361626c653a206e6f7420706175736564000000000000000000000000600082015250565b7f45524332303a206275726e20616d6f756e7420657863656564732062616c616e60008201527f6365000000000000000000000000000000000000000000000000000000000000602082015250565b7f19457468657265756d205369676e6564204d6573736167653a0a333200000000600082015250565b7f45524332303a2072657761726420746f20746865207a65726f2061646472657360008201527f7300000000000000000000000000000000000000000000000000000000000000602082015250565b7f4f776e61626c653a206e6577206f776e657220697320746865207a65726f206160008201527f6464726573730000000000000000000000000000000000000000000000000000602082015250565b7f45524332303a20617070726f766520746f20746865207a65726f20616464726560008201527f7373000000000000000000000000000000000000000000000000000000000000602082015250565b7f45524332303a20696e73756666696369656e7420616c6c6f77616e6365000000600082015250565b7f45524332303a207472616e7366657220616d6f756e742065786365656473206260008201527f616c616e63650000000000000000000000000000000000000000000000000000602082015250565b7f4c696d6974206f66207468697320626f756e7479206973206578636565646564600082015250565b7f5061757361626c653a2070617573656400000000000000000000000000000000600082015250565b7f496e697469616c697a61626c653a20636f6e747261637420697320616c72656160008201527f647920696e697469616c697a6564000000000000000000000000000000000000602082015250565b7f4f776e61626c653a2063616c6c6572206973206e6f7420746865206f776e6572600082015250565b7f45524332303a206275726e2066726f6d20746865207a65726f2061646472657360008201527f7300000000000000000000000000000000000000000000000000000000000000602082015250565b7f45524332303a20616d6f756e74206d757374206265206869676865722074686160008201527f6e207a65726f0000000000000000000000000000000000000000000000000000602082015250565b7f45524332303a207472616e736665722066726f6d20746865207a65726f20616460008201527f6472657373000000000000000000000000000000000000000000000000000000602082015250565b7f45524332304361707065643a2063617020657863656564656400000000000000600082015250565b7f45524332303a20617070726f76652066726f6d20746865207a65726f2061646460008201527f7265737300000000000000000000000000000000000000000000000000000000602082015250565b7f496e697469616c697a61626c653a20636f6e7472616374206973206e6f74206960008201527f6e697469616c697a696e67000000000000000000000000000000000000000000602082015250565b7f696e76616c6964207369676e6174757265206c656e6774680000000000000000600082015250565b7f45524332303a2064656372656173656420616c6c6f77616e63652062656c6f7760008201527f207a65726f000000000000000000000000000000000000000000000000000000602082015250565b7f45524332303a206d696e7420746f20746865207a65726f206164647265737300600082015250565b614a9981614214565b8114614aa457600080fd5b50565b614ab081614232565b8114614abb57600080fd5b50565b614ac78161423c565b8114614ad257600080fd5b50565b614ade8161426a565b8114614ae957600080fd5b50565b614af581614274565b8114614b0057600080fd5b5056fea264697066735822122011b2cdea4b4a181e931f7bf4f08cfbf1391d5469b99f16a1d15e79ff2823518064736f6c63430008040033",
  "linkReferences": {},
  "deployedLinkReferences": {}
}