{
  "_format": "hh-sol-artifact-1",
  "contractName": "Duckies",
  "sourceName": "contracts/Duckies.sol",
  "abi": [
    {
      "inputs": [],
      "stateMutability": "nonpayable",
      "type": "constructor"
    },
    {
      "anonymous": false,
      "inputs": [
        {
          "indexed": true,
          "internalType": "address",
          "name": "owner",
          "type": "address"
        },
        {
          "indexed": true,
          "internalType": "address",
          "name": "spender",
          "type": "address"
        },
        {
          "indexed": false,
          "internalType": "uint256",
          "name": "value",
          "type": "uint256"
        }
      ],
      "name": "Approval",
      "type": "event"
    },
    {
      "anonymous": false,
      "inputs": [
        {
          "indexed": false,
          "internalType": "uint8",
          "name": "version",
          "type": "uint8"
        }
      ],
      "name": "Initialized",
      "type": "event"
    },
    {
      "anonymous": false,
      "inputs": [
        {
          "indexed": true,
          "internalType": "address",
          "name": "previousOwner",
          "type": "address"
        },
        {
          "indexed": true,
          "internalType": "address",
          "name": "newOwner",
          "type": "address"
        }
      ],
      "name": "OwnershipTransferred",
      "type": "event"
    },
    {
      "anonymous": false,
      "inputs": [
        {
          "indexed": false,
          "internalType": "address",
          "name": "account",
          "type": "address"
        }
      ],
      "name": "Paused",
      "type": "event"
    },
    {
      "anonymous": false,
      "inputs": [
        {
          "indexed": true,
          "internalType": "address",
          "name": "from",
          "type": "address"
        },
        {
          "indexed": true,
          "internalType": "address",
          "name": "to",
          "type": "address"
        },
        {
          "indexed": false,
          "internalType": "uint256",
          "name": "value",
          "type": "uint256"
        }
      ],
      "name": "Transfer",
      "type": "event"
    },
    {
      "anonymous": false,
      "inputs": [
        {
          "indexed": false,
          "internalType": "address",
          "name": "account",
          "type": "address"
        }
      ],
      "name": "Unpaused",
      "type": "event"
    },
    {
      "inputs": [
        {
          "internalType": "uint256",
          "name": "",
          "type": "uint256"
        }
      ],
      "name": "_payouts",
      "outputs": [
        {
          "internalType": "uint16",
          "name": "",
          "type": "uint16"
        }
      ],
      "stateMutability": "view",
      "type": "function"
    },
    {
      "inputs": [
        {
          "internalType": "address",
          "name": "owner",
          "type": "address"
        },
        {
          "internalType": "address",
          "name": "spender",
          "type": "address"
        }
      ],
      "name": "allowance",
      "outputs": [
        {
          "internalType": "uint256",
          "name": "",
          "type": "uint256"
        }
      ],
      "stateMutability": "view",
      "type": "function"
    },
    {
      "inputs": [
        {
          "internalType": "address",
          "name": "spender",
          "type": "address"
        },
        {
          "internalType": "uint256",
          "name": "amount",
          "type": "uint256"
        }
      ],
      "name": "approve",
      "outputs": [
        {
          "internalType": "bool",
          "name": "",
          "type": "bool"
        }
      ],
      "stateMutability": "nonpayable",
      "type": "function"
    },
    {
      "inputs": [
        {
          "internalType": "address",
          "name": "account",
          "type": "address"
        }
      ],
      "name": "balanceOf",
      "outputs": [
        {
          "internalType": "uint256",
          "name": "",
          "type": "uint256"
        }
      ],
      "stateMutability": "view",
      "type": "function"
    },
    {
      "inputs": [
        {
          "internalType": "uint256",
          "name": "amount",
          "type": "uint256"
        }
      ],
      "name": "burn",
      "outputs": [],
      "stateMutability": "nonpayable",
      "type": "function"
    },
    {
      "inputs": [
        {
          "internalType": "address",
          "name": "account",
          "type": "address"
        },
        {
          "internalType": "uint256",
          "name": "amount",
          "type": "uint256"
        }
      ],
      "name": "burnFrom",
      "outputs": [],
      "stateMutability": "nonpayable",
      "type": "function"
    },
    {
      "inputs": [],
      "name": "cap",
      "outputs": [
        {
          "internalType": "uint256",
          "name": "",
          "type": "uint256"
        }
      ],
      "stateMutability": "view",
      "type": "function"
    },
    {
      "inputs": [],
      "name": "decimals",
      "outputs": [
        {
          "internalType": "uint8",
          "name": "",
          "type": "uint8"
        }
      ],
      "stateMutability": "view",
      "type": "function"
    },
    {
      "inputs": [
        {
          "internalType": "address",
          "name": "spender",
          "type": "address"
        },
        {
          "internalType": "uint256",
          "name": "subtractedValue",
          "type": "uint256"
        }
      ],
      "name": "decreaseAllowance",
      "outputs": [
        {
          "internalType": "bool",
          "name": "",
          "type": "bool"
        }
      ],
      "stateMutability": "nonpayable",
      "type": "function"
    },
    {
      "inputs": [],
      "name": "getAffiliatesCount",
      "outputs": [
        {
          "internalType": "uint8[5]",
          "name": "",
          "type": "uint8[5]"
        }
      ],
      "stateMutability": "view",
      "type": "function"
    },
    {
      "inputs": [
        {
          "internalType": "bytes32",
          "name": "_messageHash",
          "type": "bytes32"
        }
      ],
      "name": "getEthSignedMessageHash",
      "outputs": [
        {
          "internalType": "bytes32",
          "name": "",
          "type": "bytes32"
        }
      ],
      "stateMutability": "pure",
      "type": "function"
    },
    {
      "inputs": [
        {
          "components": [
            {
              "internalType": "string",
              "name": "id",
              "type": "string"
            },
            {
              "internalType": "address",
              "name": "ref",
              "type": "address"
            },
            {
              "internalType": "uint32",
              "name": "amt",
              "type": "uint32"
            }
          ],
          "internalType": "struct Duckies.Message",
          "name": "_message",
          "type": "tuple"
        }
      ],
      "name": "getMessageHash",
      "outputs": [
        {
          "internalType": "bytes32",
          "name": "",
          "type": "bytes32"
        }
      ],
      "stateMutability": "pure",
      "type": "function"
    },
    {
      "inputs": [],
      "name": "getPayouts",
      "outputs": [
        {
          "internalType": "uint16[]",
          "name": "",
          "type": "uint16[]"
        }
      ],
      "stateMutability": "view",
      "type": "function"
    },
    {
      "inputs": [
        {
          "internalType": "address",
          "name": "spender",
          "type": "address"
        },
        {
          "internalType": "uint256",
          "name": "addedValue",
          "type": "uint256"
        }
      ],
      "name": "increaseAllowance",
      "outputs": [
        {
          "internalType": "bool",
          "name": "",
          "type": "bool"
        }
      ],
      "stateMutability": "nonpayable",
      "type": "function"
    },
    {
      "inputs": [
        {
          "internalType": "address",
          "name": "issuer",
          "type": "address"
        }
      ],
      "name": "initialize",
      "outputs": [],
      "stateMutability": "nonpayable",
      "type": "function"
    },
    {
      "inputs": [
        {
          "internalType": "address",
          "name": "to",
          "type": "address"
        },
        {
          "internalType": "uint256",
          "name": "amount",
          "type": "uint256"
        }
      ],
      "name": "mint",
      "outputs": [],
      "stateMutability": "nonpayable",
      "type": "function"
    },
    {
      "inputs": [],
      "name": "name",
      "outputs": [
        {
          "internalType": "string",
          "name": "",
          "type": "string"
        }
      ],
      "stateMutability": "view",
      "type": "function"
    },
    {
      "inputs": [],
      "name": "owner",
      "outputs": [
        {
          "internalType": "address",
          "name": "",
          "type": "address"
        }
      ],
      "stateMutability": "view",
      "type": "function"
    },
    {
      "inputs": [],
      "name": "pause",
      "outputs": [],
      "stateMutability": "nonpayable",
      "type": "function"
    },
    {
      "inputs": [],
      "name": "paused",
      "outputs": [
        {
          "internalType": "bool",
          "name": "",
          "type": "bool"
        }
      ],
      "stateMutability": "view",
      "type": "function"
    },
    {
      "inputs": [
        {
          "internalType": "bytes32",
          "name": "_ethSignedMessageHash",
          "type": "bytes32"
        },
        {
          "internalType": "bytes",
          "name": "_sig",
          "type": "bytes"
        }
      ],
      "name": "recover",
      "outputs": [
        {
          "internalType": "address",
          "name": "",
          "type": "address"
        }
      ],
      "stateMutability": "pure",
      "type": "function"
    },
    {
      "inputs": [],
      "name": "renounceOwnership",
      "outputs": [],
      "stateMutability": "nonpayable",
      "type": "function"
    },
    {
      "inputs": [
        {
          "components": [
            {
              "internalType": "string",
              "name": "id",
              "type": "string"
            },
            {
              "internalType": "address",
              "name": "ref",
              "type": "address"
            },
            {
              "internalType": "uint32",
              "name": "amt",
              "type": "uint32"
            }
          ],
          "internalType": "struct Duckies.Message",
          "name": "_message",
          "type": "tuple"
        },
        {
          "internalType": "bytes",
          "name": "_sig",
          "type": "bytes"
        }
      ],
      "name": "reward",
      "outputs": [],
      "stateMutability": "nonpayable",
      "type": "function"
    },
    {
      "inputs": [
        {
          "internalType": "uint16[5]",
          "name": "payouts",
          "type": "uint16[5]"
        }
      ],
      "name": "setPayouts",
      "outputs": [],
      "stateMutability": "nonpayable",
      "type": "function"
    },
    {
      "inputs": [],
      "name": "symbol",
      "outputs": [
        {
          "internalType": "string",
          "name": "",
          "type": "string"
        }
      ],
      "stateMutability": "view",
      "type": "function"
    },
    {
      "inputs": [],
      "name": "totalSupply",
      "outputs": [
        {
          "internalType": "uint256",
          "name": "",
          "type": "uint256"
        }
      ],
      "stateMutability": "view",
      "type": "function"
    },
    {
      "inputs": [
        {
          "internalType": "address",
          "name": "to",
          "type": "address"
        },
        {
          "internalType": "uint256",
          "name": "amount",
          "type": "uint256"
        }
      ],
      "name": "transfer",
      "outputs": [
        {
          "internalType": "bool",
          "name": "",
          "type": "bool"
        }
      ],
      "stateMutability": "nonpayable",
      "type": "function"
    },
    {
      "inputs": [
        {
          "internalType": "address",
          "name": "from",
          "type": "address"
        },
        {
          "internalType": "address",
          "name": "to",
          "type": "address"
        },
        {
          "internalType": "uint256",
          "name": "amount",
          "type": "uint256"
        }
      ],
      "name": "transferFrom",
      "outputs": [
        {
          "internalType": "bool",
          "name": "",
          "type": "bool"
        }
      ],
      "stateMutability": "nonpayable",
      "type": "function"
    },
    {
      "inputs": [
        {
          "internalType": "address",
          "name": "newOwner",
          "type": "address"
        }
      ],
      "name": "transferOwnership",
      "outputs": [],
      "stateMutability": "nonpayable",
      "type": "function"
    },
    {
      "inputs": [],
      "name": "unpause",
      "outputs": [],
      "stateMutability": "nonpayable",
      "type": "function"
    }
  ],
  "bytecode": "0x60806040523480156200001157600080fd5b50620000226200002860201b60201c565b6200020f565b6200003a60ff6200003d60201b60201c565b50565b60008060019054906101000a900460ff1615620000c75760018260ff161480156200007b575062000079306200014360201b620015ed1760201c565b155b620000bd576040517f08c379a0000000000000000000000000000000000000000000000000000000008152600401620000b4906200018d565b60405180910390fd5b600090506200013e565b8160ff1660008054906101000a900460ff1660ff16106200011f576040517f08c379a000000000000000000000000000000000000000000000000000000000815260040162000116906200018d565b60405180910390fd5b816000806101000a81548160ff021916908360ff160217905550600190505b919050565b6000808273ffffffffffffffffffffffffffffffffffffffff163b119050919050565b600062000175602e83620001af565b91506200018282620001c0565b604082019050919050565b60006020820190508181036000830152620001a88162000166565b9050919050565b600082825260208201905092915050565b7f496e697469616c697a61626c653a20636f6e747261637420697320616c72656160008201527f647920696e697469616c697a6564000000000000000000000000000000000000602082015250565b614782806200021f6000396000f3fe608060405234801561001057600080fd5b50600436106101da5760003560e01c806370a082311161010457806395d89b41116100a2578063cb1c9c2111610071578063cb1c9c2114610547578063dd62ed3e14610563578063f2fde38b14610593578063fa540801146105af576101da565b806395d89b41146104ad578063a457c2d7146104cb578063a9059cbb146104fb578063c4d66de81461052b576101da565b80637fd316b9116100de5780637fd316b9146104395780638456cb59146104555780638da5cb5b1461045f5780638f9560181461047d576101da565b806370a08231146103e3578063715018a61461041357806379cc67901461041d576101da565b806334c4b14b1161017c57806340c10f191161014b57806340c10f191461036f57806342966c681461038b5780635c975abb146103a75780636bf90c84146103c5576101da565b806334c4b14b146102f9578063355274ea1461031757806339509351146103355780633f4ba83a14610365576101da565b806318160ddd116101b857806318160ddd1461025d57806319045a251461027b57806323b872dd146102ab578063313ce567146102db576101da565b806306fdde03146101df578063095ea7b3146101fd5780631626bb351461022d575b600080fd5b6101e76105df565b6040516101f491906136e8565b60405180910390f35b61021760048036038101906102129190612e4c565b610671565b6040516102249190613652565b60405180910390f35b61024760048036038101906102429190612fdb565b610694565b60405161025491906139ec565b60405180910390f35b6102656106cc565b6040516102729190613a07565b60405180910390f35b61029560048036038101906102909190612eda565b6106d6565b6040516102a291906135fa565b60405180910390f35b6102c560048036038101906102c09190612dfd565b610745565b6040516102d29190613652565b60405180910390f35b6102e3610774565b6040516102f09190613a22565b60405180910390f35b61030161077d565b60405161030e9190613637565b60405180910390f35b61031f6107d0565b60405161032c9190613a07565b60405180910390f35b61034f600480360381019061034a9190612e4c565b6107da565b60405161035c9190613652565b60405180910390f35b61036d610811565b005b61038960048036038101906103849190612e4c565b610897565b005b6103a560048036038101906103a09190612fdb565b610921565b005b6103af6109b1565b6040516103bc9190613652565b60405180910390f35b6103cd6109c8565b6040516103da9190613615565b60405180910390f35b6103fd60048036038101906103f89190612d98565b610a48565b60405161040a9190613a07565b60405180910390f35b61041b610a91565b005b61043760048036038101906104329190612e4c565b610b19565b005b610453600480360381019061044e9190612f6f565b610bb5565b005b61045d610fab565b005b610467611031565b60405161047491906135fa565b60405180910390f35b61049760048036038101906104929190612f2e565b61105b565b6040516104a4919061366d565b60405180910390f35b6104b561108b565b6040516104c291906136e8565b60405180910390f35b6104e560048036038101906104e09190612e4c565b61111d565b6040516104f29190613652565b60405180910390f35b61051560048036038101906105109190612e4c565b611194565b6040516105229190613652565b60405180910390f35b61054560048036038101906105409190612d98565b6111b7565b005b610561600480360381019061055c9190612e88565b6113ad565b005b61057d60048036038101906105789190612dc1565b61143e565b60405161058a9190613a07565b60405180910390f35b6105ad60048036038101906105a89190612d98565b6114c5565b005b6105c960048036038101906105c49190612eb1565b6115bd565b6040516105d6919061366d565b60405180910390f35b6060603680546105ee90613f82565b80601f016020809104026020016040519081016040528092919081815260200182805461061a90613f82565b80156106675780601f1061063c57610100808354040283529160200191610667565b820191906000526020600020905b81548152906001019060200180831161064a57829003601f168201915b5050505050905090565b60008061067c611610565b9050610689818585611618565b600191505092915050565b60ff81815481106106a457600080fd5b9060005260206000209060109182820401919006600202915054906101000a900461ffff1681565b6000603554905090565b6000806000806106e5856117e3565b9250925092506001868285856040516000815260200160405260405161070e9493929190613688565b6020604051602081039080840390855afa158015610730573d6000803e3d6000fd5b50505060206040510351935050505092915050565b600080610750611610565b905061075d85828561184b565b6107688585856118d7565b60019150509392505050565b60006012905090565b6107856129ee565b6107cb3360016040518060a00160405280600060ff168152602001600060ff168152602001600060ff168152602001600060ff168152602001600060ff16815250611b5b565b905090565b6000606554905090565b6000806107e5611610565b90506108068185856107f7858961143e565b6108019190613bc0565b611618565b600191505092915050565b610819611610565b73ffffffffffffffffffffffffffffffffffffffff16610837611031565b73ffffffffffffffffffffffffffffffffffffffff161461088d576040517f08c379a00000000000000000000000000000000000000000000000000000000081526004016108849061388a565b60405180910390fd5b610895611d26565b565b61089f611610565b73ffffffffffffffffffffffffffffffffffffffff166108bd611031565b73ffffffffffffffffffffffffffffffffffffffff1614610913576040517f08c379a000000000000000000000000000000000000000000000000000000000815260040161090a9061388a565b60405180910390fd5b61091d8282611dc8565b5050565b610929611610565b73ffffffffffffffffffffffffffffffffffffffff16610947611031565b73ffffffffffffffffffffffffffffffffffffffff161461099d576040517f08c379a00000000000000000000000000000000000000000000000000000000081526004016109949061388a565b60405180910390fd5b6109ae6109a8611610565b82611e32565b50565b6000609860009054906101000a900460ff16905090565b606060ff805480602002602001604051908101604052809291908181526020018280548015610a3e57602002820191906000526020600020906000905b82829054906101000a900461ffff1661ffff1681526020019060020190602082600101049283019260010382029150808411610a055790505b5050505050905090565b6000603360008373ffffffffffffffffffffffffffffffffffffffff1673ffffffffffffffffffffffffffffffffffffffff168152602001908152602001600020549050919050565b610a99611610565b73ffffffffffffffffffffffffffffffffffffffff16610ab7611031565b73ffffffffffffffffffffffffffffffffffffffff1614610b0d576040517f08c379a0000000000000000000000000000000000000000000000000000000008152600401610b049061388a565b60405180910390fd5b610b17600061200b565b565b610b21611610565b73ffffffffffffffffffffffffffffffffffffffff16610b3f611031565b73ffffffffffffffffffffffffffffffffffffffff1614610b95576040517f08c379a0000000000000000000000000000000000000000000000000000000008152600401610b8c9061388a565b60405180910390fd5b610ba782610ba1611610565b8361184b565b610bb18282611e32565b5050565b6000610bc08361105b565b90506000610bcd826115bd565b905060fc60009054906101000a900473ffffffffffffffffffffffffffffffffffffffff1673ffffffffffffffffffffffffffffffffffffffff16610c1282856106d6565b73ffffffffffffffffffffffffffffffffffffffff1614610c3257600080fd5b600073ffffffffffffffffffffffffffffffffffffffff16846020015173ffffffffffffffffffffffffffffffffffffffff1614610e6a57600073ffffffffffffffffffffffffffffffffffffffff1660fd60003373ffffffffffffffffffffffffffffffffffffffff1673ffffffffffffffffffffffffffffffffffffffff16815260200190815260200160002060009054906101000a900473ffffffffffffffffffffffffffffffffffffffff1673ffffffffffffffffffffffffffffffffffffffff1614610d0257600080fd5b836020015173ffffffffffffffffffffffffffffffffffffffff163373ffffffffffffffffffffffffffffffffffffffff161415610d3f57600080fd5b836020015160fd60003373ffffffffffffffffffffffffffffffffffffffff1673ffffffffffffffffffffffffffffffffffffffff16815260200190815260200160002060006101000a81548173ffffffffffffffffffffffffffffffffffffffff021916908373ffffffffffffffffffffffffffffffffffffffff16021790555060fe6000856020015173ffffffffffffffffffffffffffffffffffffffff1673ffffffffffffffffffffffffffffffffffffffff168152602001908152602001600020339080600181540180825580915050600190039060005260206000200160009091909190916101000a81548173ffffffffffffffffffffffffffffffffffffffff021916908373ffffffffffffffffffffffffffffffffffffffff160217905550610f92565b6101008460000151604051610e7f91906135bd565b908152602001604051809103902060003373ffffffffffffffffffffffffffffffffffffffff1673ffffffffffffffffffffffffffffffffffffffff16815260200190815260200160002060009054906101000a900460ff1615610f18576040517f08c379a0000000000000000000000000000000000000000000000000000000008152600401610f0f9061386a565b60405180910390fd5b60016101008560000151604051610f2f91906135bd565b908152602001604051809103902060003373ffffffffffffffffffffffffffffffffffffffff1673ffffffffffffffffffffffffffffffffffffffff16815260200190815260200160002060006101000a81548160ff0219169083151502179055505b610fa5846040015163ffffffff166120d1565b50505050565b610fb3611610565b73ffffffffffffffffffffffffffffffffffffffff16610fd1611031565b73ffffffffffffffffffffffffffffffffffffffff1614611027576040517f08c379a000000000000000000000000000000000000000000000000000000000815260040161101e9061388a565b60405180910390fd5b61102f612344565b565b600060ca60009054906101000a900473ffffffffffffffffffffffffffffffffffffffff16905090565b60008160405160200161106e91906139ca565b604051602081830303815290604052805190602001209050919050565b60606037805461109a90613f82565b80601f01602080910402602001604051908101604052809291908181526020018280546110c690613f82565b80156111135780601f106110e857610100808354040283529160200191611113565b820191906000526020600020905b8154815290600101906020018083116110f657829003601f168201915b5050505050905090565b600080611128611610565b90506000611136828661143e565b90508381101561117b576040517f08c379a00000000000000000000000000000000000000000000000000000000081526004016111729061398a565b60405180910390fd5b6111888286868403611618565b60019250505092915050565b60008061119f611610565b90506111ac8185856118d7565b600191505092915050565b60006111c360016123e7565b905080156111e7576001600060016101000a81548160ff0219169083151502179055505b61125b6040518060400160405280600e81526020017f59656c6c6f77204475636b6965730000000000000000000000000000000000008152506040518060400160405280600581526020017f4455434b5a0000000000000000000000000000000000000000000000000000008152506124d7565b611288611266610774565b600a6112729190613cd1565b6550c35c74c0006112839190613def565b612534565b61129061258f565b6112986125e8565b8160fc60006101000a81548173ffffffffffffffffffffffffffffffffffffffff021916908373ffffffffffffffffffffffffffffffffffffffff1602179055506113226040518060a001604052806101f461ffff168152602001607d61ffff168152602001605061ffff168152602001603261ffff168152602001601461ffff168152506113ad565b6113503361132e610774565b600a61133a9190613cd1565b652861ae3a600061134b9190613def565b611dc8565b80156113a95760008060016101000a81548160ff0219169083151502179055507f7f26b83ff96e1f2b6a682f133852f6798a09c465da95921460cefb384740249860016040516113a091906136cd565b60405180910390a15b5050565b6113b5611610565b73ffffffffffffffffffffffffffffffffffffffff166113d3611031565b73ffffffffffffffffffffffffffffffffffffffff1614611429576040517f08c379a00000000000000000000000000000000000000000000000000000000081526004016114209061388a565b60405180910390fd5b8060ff90600561143a929190612a10565b5050565b6000603460008473ffffffffffffffffffffffffffffffffffffffff1673ffffffffffffffffffffffffffffffffffffffff16815260200190815260200160002060008373ffffffffffffffffffffffffffffffffffffffff1673ffffffffffffffffffffffffffffffffffffffff16815260200190815260200160002054905092915050565b6114cd611610565b73ffffffffffffffffffffffffffffffffffffffff166114eb611031565b73ffffffffffffffffffffffffffffffffffffffff1614611541576040517f08c379a00000000000000000000000000000000000000000000000000000000081526004016115389061388a565b60405180910390fd5b600073ffffffffffffffffffffffffffffffffffffffff168173ffffffffffffffffffffffffffffffffffffffff1614156115b1576040517f08c379a00000000000000000000000000000000000000000000000000000000081526004016115a8906137aa565b60405180910390fd5b6115ba8161200b565b50565b6000816040516020016115d091906135d4565b604051602081830303815290604052805190602001209050919050565b6000808273ffffffffffffffffffffffffffffffffffffffff163b119050919050565b600033905090565b600073ffffffffffffffffffffffffffffffffffffffff168373ffffffffffffffffffffffffffffffffffffffff161415611688576040517f08c379a000000000000000000000000000000000000000000000000000000000815260040161167f9061392a565b60405180910390fd5b600073ffffffffffffffffffffffffffffffffffffffff168273ffffffffffffffffffffffffffffffffffffffff1614156116f8576040517f08c379a00000000000000000000000000000000000000000000000000000000081526004016116ef906137ca565b60405180910390fd5b80603460008573ffffffffffffffffffffffffffffffffffffffff1673ffffffffffffffffffffffffffffffffffffffff16815260200190815260200160002060008473ffffffffffffffffffffffffffffffffffffffff1673ffffffffffffffffffffffffffffffffffffffff168152602001908152602001600020819055508173ffffffffffffffffffffffffffffffffffffffff168373ffffffffffffffffffffffffffffffffffffffff167f8c5be1e5ebec7d5bd14f71427d1e84f3dd0314c0f7b2291e5b200ac8c7c3b925836040516117d69190613a07565b60405180910390a3505050565b6000806000604184511461182c576040517f08c379a00000000000000000000000000000000000000000000000000000000081526004016118239061396a565b60405180910390fd5b6020840151925060408401519150606084015160001a90509193909250565b6000611857848461143e565b90507fffffffffffffffffffffffffffffffffffffffffffffffffffffffffffffffff81146118d157818110156118c3576040517f08c379a00000000000000000000000000000000000000000000000000000000081526004016118ba906137ea565b60405180910390fd5b6118d08484848403611618565b5b50505050565b600073ffffffffffffffffffffffffffffffffffffffff168373ffffffffffffffffffffffffffffffffffffffff161415611947576040517f08c379a000000000000000000000000000000000000000000000000000000000815260040161193e906138ea565b60405180910390fd5b600073ffffffffffffffffffffffffffffffffffffffff168273ffffffffffffffffffffffffffffffffffffffff1614156119b7576040517f08c379a00000000000000000000000000000000000000000000000000000000081526004016119ae9061370a565b60405180910390fd5b6119c2838383612641565b6000603360008573ffffffffffffffffffffffffffffffffffffffff1673ffffffffffffffffffffffffffffffffffffffff16815260200190815260200160002054905081811015611a49576040517f08c379a0000000000000000000000000000000000000000000000000000000008152600401611a409061380a565b60405180910390fd5b818103603360008673ffffffffffffffffffffffffffffffffffffffff1673ffffffffffffffffffffffffffffffffffffffff1681526020019081526020016000208190555081603360008573ffffffffffffffffffffffffffffffffffffffff1673ffffffffffffffffffffffffffffffffffffffff1681526020019081526020016000206000828254611ade9190613bc0565b925050819055508273ffffffffffffffffffffffffffffffffffffffff168473ffffffffffffffffffffffffffffffffffffffff167fddf252ad1be2c89b69c2b068fc378daa952ba7f163c4a11628f55a4df523b3ef84604051611b429190613a07565b60405180910390a3611b55848484612699565b50505050565b611b636129ee565b60058361ffff1611611d1c57600060fe60008673ffffffffffffffffffffffffffffffffffffffff1673ffffffffffffffffffffffffffffffffffffffff168152602001908152602001600020805480602002602001604051908101604052809291908181526020018280548015611c3057602002820191906000526020600020905b8160009054906101000a900473ffffffffffffffffffffffffffffffffffffffff1673ffffffffffffffffffffffffffffffffffffffff1681526020019060010190808311611be6575b50505050509050805183600186611c479190613e49565b61ffff1660058110611c82577f4e487b7100000000000000000000000000000000000000000000000000000000600052603260045260246000fd5b60200201818151611c939190613c16565b91509060ff16908160ff168152505060005b8151811015611d1957611d05828281518110611cea577f4e487b7100000000000000000000000000000000000000000000000000000000600052603260045260246000fd5b6020026020010151600187611cff9190613b88565b86611b5b565b508080611d1190613fe5565b915050611ca5565b50505b8190509392505050565b611d2e6109b1565b611d6d576040517f08c379a0000000000000000000000000000000000000000000000000000000008152600401611d649061374a565b60405180910390fd5b6000609860006101000a81548160ff0219169083151502179055507f5db9ee0a495bf2e6ff9c91a7834c1ba4fdd244a5e8aa4e537bd38aeae4b073aa611db1611610565b604051611dbe91906135fa565b60405180910390a1565b611dd06107d0565b81611dd96106cc565b611de39190613bc0565b1115611e24576040517f08c379a0000000000000000000000000000000000000000000000000000000008152600401611e1b9061390a565b60405180910390fd5b611e2e828261269e565b5050565b600073ffffffffffffffffffffffffffffffffffffffff168273ffffffffffffffffffffffffffffffffffffffff161415611ea2576040517f08c379a0000000000000000000000000000000000000000000000000000000008152600401611e99906138aa565b60405180910390fd5b611eae82600083612641565b6000603360008473ffffffffffffffffffffffffffffffffffffffff1673ffffffffffffffffffffffffffffffffffffffff16815260200190815260200160002054905081811015611f35576040517f08c379a0000000000000000000000000000000000000000000000000000000008152600401611f2c9061376a565b60405180910390fd5b818103603360008573ffffffffffffffffffffffffffffffffffffffff1673ffffffffffffffffffffffffffffffffffffffff168152602001908152602001600020819055508160356000828254611f8d9190613e7d565b92505081905550600073ffffffffffffffffffffffffffffffffffffffff168373ffffffffffffffffffffffffffffffffffffffff167fddf252ad1be2c89b69c2b068fc378daa952ba7f163c4a11628f55a4df523b3ef84604051611ff29190613a07565b60405180910390a361200683600084612699565b505050565b600060ca60009054906101000a900473ffffffffffffffffffffffffffffffffffffffff1690508160ca60006101000a81548173ffffffffffffffffffffffffffffffffffffffff021916908373ffffffffffffffffffffffffffffffffffffffff1602179055508173ffffffffffffffffffffffffffffffffffffffff168173ffffffffffffffffffffffffffffffffffffffff167f8be0079c531659141344cd1fd0a4f28419497f9722a3daafe3b4186f6b6457e060405160405180910390a35050565b600073ffffffffffffffffffffffffffffffffffffffff163373ffffffffffffffffffffffffffffffffffffffff161415612141576040517f08c379a00000000000000000000000000000000000000000000000000000000081526004016121389061378a565b60405180910390fd5b60008111612184576040517f08c379a000000000000000000000000000000000000000000000000000000000815260040161217b906138ca565b60405180910390fd5b61218e3382611dc8565b600060fd60003373ffffffffffffffffffffffffffffffffffffffff1673ffffffffffffffffffffffffffffffffffffffff16815260200190815260200160002060009054906101000a900473ffffffffffffffffffffffffffffffffffffffff16905060005b60ff805490508160ff16101561233f57600073ffffffffffffffffffffffffffffffffffffffff168273ffffffffffffffffffffffffffffffffffffffff16141561223f5761233f565b6000606460ff8360ff1681548110612280577f4e487b7100000000000000000000000000000000000000000000000000000000600052603260045260246000fd5b90600052602060002090601091828204019190066002029054906101000a900461ffff1661ffff16856122b39190613def565b6122bd9190613c4d565b90506122c98382611dc8565b60fd60008473ffffffffffffffffffffffffffffffffffffffff1673ffffffffffffffffffffffffffffffffffffffff16815260200190815260200160002060009054906101000a900473ffffffffffffffffffffffffffffffffffffffff1692505080806123379061402e565b9150506121f5565b505050565b61234c6109b1565b1561238c576040517f08c379a00000000000000000000000000000000000000000000000000000000081526004016123839061382a565b60405180910390fd5b6001609860006101000a81548160ff0219169083151502179055507f62e78cea01bee320cd4e420270b5ea74000d11b0c9f74754ebdbfc544b05a2586123d0611610565b6040516123dd91906135fa565b60405180910390a1565b60008060019054906101000a900460ff161561245e5760018260ff161480156124165750612414306115ed565b155b612455576040517f08c379a000000000000000000000000000000000000000000000000000000000815260040161244c9061384a565b60405180910390fd5b600090506124d2565b8160ff1660008054906101000a900460ff1660ff16106124b3576040517f08c379a00000000000000000000000000000000000000000000000000000000081526004016124aa9061384a565b60405180910390fd5b816000806101000a81548160ff021916908360ff160217905550600190505b919050565b600060019054906101000a900460ff16612526576040517f08c379a000000000000000000000000000000000000000000000000000000000815260040161251d9061394a565b60405180910390fd5b61253082826127ff565b5050565b600060019054906101000a900460ff16612583576040517f08c379a000000000000000000000000000000000000000000000000000000000815260040161257a9061394a565b60405180910390fd5b61258c81612880565b50565b600060019054906101000a900460ff166125de576040517f08c379a00000000000000000000000000000000000000000000000000000000081526004016125d59061394a565b60405180910390fd5b6125e661291c565b565b600060019054906101000a900460ff16612637576040517f08c379a000000000000000000000000000000000000000000000000000000000815260040161262e9061394a565b60405180910390fd5b61263f612988565b565b6126496109b1565b15612689576040517f08c379a00000000000000000000000000000000000000000000000000000000081526004016126809061382a565b60405180910390fd5b6126948383836129e9565b505050565b505050565b600073ffffffffffffffffffffffffffffffffffffffff168273ffffffffffffffffffffffffffffffffffffffff16141561270e576040517f08c379a0000000000000000000000000000000000000000000000000000000008152600401612705906139aa565b60405180910390fd5b61271a60008383612641565b806035600082825461272c9190613bc0565b9250508190555080603360008473ffffffffffffffffffffffffffffffffffffffff1673ffffffffffffffffffffffffffffffffffffffff16815260200190815260200160002060008282546127829190613bc0565b925050819055508173ffffffffffffffffffffffffffffffffffffffff16600073ffffffffffffffffffffffffffffffffffffffff167fddf252ad1be2c89b69c2b068fc378daa952ba7f163c4a11628f55a4df523b3ef836040516127e79190613a07565b60405180910390a36127fb60008383612699565b5050565b600060019054906101000a900460ff1661284e576040517f08c379a00000000000000000000000000000000000000000000000000000000081526004016128459061394a565b60405180910390fd5b8160369080519060200190612864929190612aba565b50806037908051906020019061287b929190612aba565b505050565b600060019054906101000a900460ff166128cf576040517f08c379a00000000000000000000000000000000000000000000000000000000081526004016128c69061394a565b60405180910390fd5b60008111612912576040517f08c379a00000000000000000000000000000000000000000000000000000000081526004016129099061372a565b60405180910390fd5b8060658190555050565b600060019054906101000a900460ff1661296b576040517f08c379a00000000000000000000000000000000000000000000000000000000081526004016129629061394a565b60405180910390fd5b6000609860006101000a81548160ff021916908315150217905550565b600060019054906101000a900460ff166129d7576040517f08c379a00000000000000000000000000000000000000000000000000000000081526004016129ce9061394a565b60405180910390fd5b6129e76129e2611610565b61200b565b565b505050565b6040518060a00160405280600590602082028036833780820191505090505090565b82805482825590600052602060002090600f01601090048101928215612aa95791602002820160005b83821115612a7957835183826101000a81548161ffff021916908361ffff1602179055509260200192600201602081600101049283019260010302612a39565b8015612aa75782816101000a81549061ffff0219169055600201602081600101049283019260010302612a79565b505b509050612ab69190612b40565b5090565b828054612ac690613f82565b90600052602060002090601f016020900481019282612ae85760008555612b2f565b82601f10612b0157805160ff1916838001178555612b2f565b82800160010185558215612b2f579182015b82811115612b2e578251825591602001919060010190612b13565b5b509050612b3c9190612b40565b5090565b5b80821115612b59576000816000905550600101612b41565b5090565b6000612b70612b6b84613a62565b613a3d565b90508082856020860282011115612b8657600080fd5b60005b85811015612bb65781612b9c8882612d59565b845260208401935060208301925050600181019050612b89565b5050509392505050565b6000612bd3612bce84613a88565b613a3d565b905082815260208101848484011115612beb57600080fd5b612bf6848285613f40565b509392505050565b6000612c11612c0c84613ab9565b613a3d565b905082815260208101848484011115612c2957600080fd5b612c34848285613f40565b509392505050565b600081359050612c4b816146d9565b92915050565b600082601f830112612c6257600080fd5b6005612c6f848285612b5d565b91505092915050565b600081359050612c87816146f0565b92915050565b600082601f830112612c9e57600080fd5b8135612cae848260208601612bc0565b91505092915050565b600082601f830112612cc857600080fd5b8135612cd8848260208601612bfe565b91505092915050565b600060608284031215612cf357600080fd5b612cfd6060613a3d565b9050600082013567ffffffffffffffff811115612d1957600080fd5b612d2584828501612cb7565b6000830152506020612d3984828501612c3c565b6020830152506040612d4d84828501612d83565b60408301525092915050565b600081359050612d6881614707565b92915050565b600081359050612d7d8161471e565b92915050565b600081359050612d9281614735565b92915050565b600060208284031215612daa57600080fd5b6000612db884828501612c3c565b91505092915050565b60008060408385031215612dd457600080fd5b6000612de285828601612c3c565b9250506020612df385828601612c3c565b9150509250929050565b600080600060608486031215612e1257600080fd5b6000612e2086828701612c3c565b9350506020612e3186828701612c3c565b9250506040612e4286828701612d6e565b9150509250925092565b60008060408385031215612e5f57600080fd5b6000612e6d85828601612c3c565b9250506020612e7e85828601612d6e565b9150509250929050565b600060a08284031215612e9a57600080fd5b6000612ea884828501612c51565b91505092915050565b600060208284031215612ec357600080fd5b6000612ed184828501612c78565b91505092915050565b60008060408385031215612eed57600080fd5b6000612efb85828601612c78565b925050602083013567ffffffffffffffff811115612f1857600080fd5b612f2485828601612c8d565b9150509250929050565b600060208284031215612f4057600080fd5b600082013567ffffffffffffffff811115612f5a57600080fd5b612f6684828501612ce1565b91505092915050565b60008060408385031215612f8257600080fd5b600083013567ffffffffffffffff811115612f9c57600080fd5b612fa885828601612ce1565b925050602083013567ffffffffffffffff811115612fc557600080fd5b612fd185828601612c8d565b9150509250929050565b600060208284031215612fed57600080fd5b6000612ffb84828501612d6e565b91505092915050565b60006130108383613563565b60208301905092915050565b6000613028838361359f565b60208301905092915050565b61303d81613eb1565b82525050565b61304c81613eb1565b82525050565b600061305d82613b04565b6130678185613b3f565b935061307283613aea565b8060005b838110156130a357815161308a8882613004565b975061309583613b25565b925050600181019050613076565b5085935050505092915050565b6130b981613b0f565b6130c38184613b50565b92506130ce82613afa565b8060005b838110156130ff5781516130e6878261301c565b96506130f183613b32565b9250506001810190506130d2565b505050505050565b61311081613ec3565b82525050565b61311f81613ecf565b82525050565b61313661313182613ecf565b614058565b82525050565b61314581613f2e565b82525050565b600061315682613b1a565b6131608185613b5b565b9350613170818560208601613f4f565b6131798161411e565b840191505092915050565b600061318f82613b1a565b6131998185613b6c565b93506131a9818560208601613f4f565b6131b28161411e565b840191505092915050565b60006131c882613b1a565b6131d28185613b7d565b93506131e2818560208601613f4f565b80840191505092915050565b60006131fb602383613b6c565b91506132068261413c565b604082019050919050565b600061321e601583613b6c565b91506132298261418b565b602082019050919050565b6000613241601483613b6c565b915061324c826141b4565b602082019050919050565b6000613264602283613b6c565b915061326f826141dd565b604082019050919050565b6000613287601c83613b7d565b91506132928261422c565b601c82019050919050565b60006132aa602183613b6c565b91506132b582614255565b604082019050919050565b60006132cd602683613b6c565b91506132d8826142a4565b604082019050919050565b60006132f0602283613b6c565b91506132fb826142f3565b604082019050919050565b6000613313601d83613b6c565b915061331e82614342565b602082019050919050565b6000613336602683613b6c565b91506133418261436b565b604082019050919050565b6000613359601083613b6c565b9150613364826143ba565b602082019050919050565b600061337c602e83613b6c565b9150613387826143e3565b604082019050919050565b600061339f601e83613b6c565b91506133aa82614432565b602082019050919050565b60006133c2602083613b6c565b91506133cd8261445b565b602082019050919050565b60006133e5602183613b6c565b91506133f082614484565b604082019050919050565b6000613408602683613b6c565b9150613413826144d3565b604082019050919050565b600061342b602583613b6c565b915061343682614522565b604082019050919050565b600061344e601983613b6c565b915061345982614571565b602082019050919050565b6000613471602483613b6c565b915061347c8261459a565b604082019050919050565b6000613494602b83613b6c565b915061349f826145e9565b604082019050919050565b60006134b7601883613b6c565b91506134c282614638565b602082019050919050565b60006134da602583613b6c565b91506134e582614661565b604082019050919050565b60006134fd601f83613b6c565b9150613508826146b0565b602082019050919050565b60006060830160008301518482036000860152613530828261314b565b91505060208301516135456020860182613034565b5060408301516135586040860182613590565b508091505092915050565b61356c81613ed9565b82525050565b61357b81613ed9565b82525050565b61358a81613f07565b82525050565b61359981613f11565b82525050565b6135a881613f21565b82525050565b6135b781613f21565b82525050565b60006135c982846131bd565b915081905092915050565b60006135df8261327a565b91506135eb8284613125565b60208201915081905092915050565b600060208201905061360f6000830184613043565b92915050565b6000602082019050818103600083015261362f8184613052565b905092915050565b600060a08201905061364c60008301846130b0565b92915050565b60006020820190506136676000830184613107565b92915050565b60006020820190506136826000830184613116565b92915050565b600060808201905061369d6000830187613116565b6136aa60208301866135ae565b6136b76040830185613116565b6136c46060830184613116565b95945050505050565b60006020820190506136e2600083018461313c565b92915050565b600060208201905081810360008301526137028184613184565b905092915050565b60006020820190508181036000830152613723816131ee565b9050919050565b6000602082019050818103600083015261374381613211565b9050919050565b6000602082019050818103600083015261376381613234565b9050919050565b6000602082019050818103600083015261378381613257565b9050919050565b600060208201905081810360008301526137a38161329d565b9050919050565b600060208201905081810360008301526137c3816132c0565b9050919050565b600060208201905081810360008301526137e3816132e3565b9050919050565b6000602082019050818103600083015261380381613306565b9050919050565b6000602082019050818103600083015261382381613329565b9050919050565b600060208201905081810360008301526138438161334c565b9050919050565b600060208201905081810360008301526138638161336f565b9050919050565b6000602082019050818103600083015261388381613392565b9050919050565b600060208201905081810360008301526138a3816133b5565b9050919050565b600060208201905081810360008301526138c3816133d8565b9050919050565b600060208201905081810360008301526138e3816133fb565b9050919050565b600060208201905081810360008301526139038161341e565b9050919050565b6000602082019050818103600083015261392381613441565b9050919050565b6000602082019050818103600083015261394381613464565b9050919050565b6000602082019050818103600083015261396381613487565b9050919050565b60006020820190508181036000830152613983816134aa565b9050919050565b600060208201905081810360008301526139a3816134cd565b9050919050565b600060208201905081810360008301526139c3816134f0565b9050919050565b600060208201905081810360008301526139e48184613513565b905092915050565b6000602082019050613a016000830184613572565b92915050565b6000602082019050613a1c6000830184613581565b92915050565b6000602082019050613a3760008301846135ae565b92915050565b6000613a47613a58565b9050613a538282613fb4565b919050565b6000604051905090565b600067ffffffffffffffff821115613a7d57613a7c6140ef565b5b602082029050919050565b600067ffffffffffffffff821115613aa357613aa26140ef565b5b613aac8261411e565b9050602081019050919050565b600067ffffffffffffffff821115613ad457613ad36140ef565b5b613add8261411e565b9050602081019050919050565b6000819050602082019050919050565b6000819050919050565b600081519050919050565b600060059050919050565b600081519050919050565b6000602082019050919050565b6000602082019050919050565b600082825260208201905092915050565b600081905092915050565b600082825260208201905092915050565b600082825260208201905092915050565b600081905092915050565b6000613b9382613ed9565b9150613b9e83613ed9565b92508261ffff03821115613bb557613bb4614062565b5b828201905092915050565b6000613bcb82613f07565b9150613bd683613f07565b9250827fffffffffffffffffffffffffffffffffffffffffffffffffffffffffffffffff03821115613c0b57613c0a614062565b5b828201905092915050565b6000613c2182613f21565b9150613c2c83613f21565b92508260ff03821115613c4257613c41614062565b5b828201905092915050565b6000613c5882613f07565b9150613c6383613f07565b925082613c7357613c72614091565b5b828204905092915050565b6000808291508390505b6001851115613cc857808604811115613ca457613ca3614062565b5b6001851615613cb35780820291505b8081029050613cc18561412f565b9450613c88565b94509492505050565b6000613cdc82613f07565b9150613ce783613f21565b9250613d147fffffffffffffffffffffffffffffffffffffffffffffffffffffffffffffffff8484613d1c565b905092915050565b600082613d2c5760019050613de8565b81613d3a5760009050613de8565b8160018114613d505760028114613d5a57613d89565b6001915050613de8565b60ff841115613d6c57613d6b614062565b5b8360020a915084821115613d8357613d82614062565b5b50613de8565b5060208310610133831016604e8410600b8410161715613dbe5782820a905083811115613db957613db8614062565b5b613de8565b613dcb8484846001613c7e565b92509050818404811115613de257613de1614062565b5b81810290505b9392505050565b6000613dfa82613f07565b9150613e0583613f07565b9250817fffffffffffffffffffffffffffffffffffffffffffffffffffffffffffffffff0483118215151615613e3e57613e3d614062565b5b828202905092915050565b6000613e5482613ed9565b9150613e5f83613ed9565b925082821015613e7257613e71614062565b5b828203905092915050565b6000613e8882613f07565b9150613e9383613f07565b925082821015613ea657613ea5614062565b5b828203905092915050565b6000613ebc82613ee7565b9050919050565b60008115159050919050565b6000819050919050565b600061ffff82169050919050565b600073ffffffffffffffffffffffffffffffffffffffff82169050919050565b6000819050919050565b600063ffffffff82169050919050565b600060ff82169050919050565b6000613f3982613f21565b9050919050565b82818337600083830152505050565b60005b83811015613f6d578082015181840152602081019050613f52565b83811115613f7c576000848401525b50505050565b60006002820490506001821680613f9a57607f821691505b60208210811415613fae57613fad6140c0565b5b50919050565b613fbd8261411e565b810181811067ffffffffffffffff82111715613fdc57613fdb6140ef565b5b80604052505050565b6000613ff082613f07565b91507fffffffffffffffffffffffffffffffffffffffffffffffffffffffffffffffff82141561402357614022614062565b5b600182019050919050565b600061403982613f21565b915060ff82141561404d5761404c614062565b5b600182019050919050565b6000819050919050565b7f4e487b7100000000000000000000000000000000000000000000000000000000600052601160045260246000fd5b7f4e487b7100000000000000000000000000000000000000000000000000000000600052601260045260246000fd5b7f4e487b7100000000000000000000000000000000000000000000000000000000600052602260045260246000fd5b7f4e487b7100000000000000000000000000000000000000000000000000000000600052604160045260246000fd5b6000601f19601f8301169050919050565b60008160011c9050919050565b7f45524332303a207472616e7366657220746f20746865207a65726f206164647260008201527f6573730000000000000000000000000000000000000000000000000000000000602082015250565b7f45524332304361707065643a2063617020697320300000000000000000000000600082015250565b7f5061757361626c653a206e6f7420706175736564000000000000000000000000600082015250565b7f45524332303a206275726e20616d6f756e7420657863656564732062616c616e60008201527f6365000000000000000000000000000000000000000000000000000000000000602082015250565b7f19457468657265756d205369676e6564204d6573736167653a0a333200000000600082015250565b7f45524332303a2072657761726420746f20746865207a65726f2061646472657360008201527f7300000000000000000000000000000000000000000000000000000000000000602082015250565b7f4f776e61626c653a206e6577206f776e657220697320746865207a65726f206160008201527f6464726573730000000000000000000000000000000000000000000000000000602082015250565b7f45524332303a20617070726f766520746f20746865207a65726f20616464726560008201527f7373000000000000000000000000000000000000000000000000000000000000602082015250565b7f45524332303a20696e73756666696369656e7420616c6c6f77616e6365000000600082015250565b7f45524332303a207472616e7366657220616d6f756e742065786365656473206260008201527f616c616e63650000000000000000000000000000000000000000000000000000602082015250565b7f5061757361626c653a2070617573656400000000000000000000000000000000600082015250565b7f496e697469616c697a61626c653a20636f6e747261637420697320616c72656160008201527f647920696e697469616c697a6564000000000000000000000000000000000000602082015250565b7f4163636f756e7420616c726561647920676f7420746865207265776172640000600082015250565b7f4f776e61626c653a2063616c6c6572206973206e6f7420746865206f776e6572600082015250565b7f45524332303a206275726e2066726f6d20746865207a65726f2061646472657360008201527f7300000000000000000000000000000000000000000000000000000000000000602082015250565b7f45524332303a20616d6f756e74206d757374206265206869676865722074686160008201527f6e207a65726f0000000000000000000000000000000000000000000000000000602082015250565b7f45524332303a207472616e736665722066726f6d20746865207a65726f20616460008201527f6472657373000000000000000000000000000000000000000000000000000000602082015250565b7f45524332304361707065643a2063617020657863656564656400000000000000600082015250565b7f45524332303a20617070726f76652066726f6d20746865207a65726f2061646460008201527f7265737300000000000000000000000000000000000000000000000000000000602082015250565b7f496e697469616c697a61626c653a20636f6e7472616374206973206e6f74206960008201527f6e697469616c697a696e67000000000000000000000000000000000000000000602082015250565b7f696e76616c6964207369676e6174757265206c656e6774680000000000000000600082015250565b7f45524332303a2064656372656173656420616c6c6f77616e63652062656c6f7760008201527f207a65726f000000000000000000000000000000000000000000000000000000602082015250565b7f45524332303a206d696e7420746f20746865207a65726f206164647265737300600082015250565b6146e281613eb1565b81146146ed57600080fd5b50565b6146f981613ecf565b811461470457600080fd5b50565b61471081613ed9565b811461471b57600080fd5b50565b61472781613f07565b811461473257600080fd5b50565b61473e81613f11565b811461474957600080fd5b5056fea2646970667358221220c38d9a06af43eb2aceab5ac80de00d5b1a84db3a68ecc97050b3cbd20fbd606b64736f6c63430008040033",
  "linkReferences": {},
  "deployedLinkReferences": {}
}