{
  "_format": "hh-sol-artifact-1",
  "contractName": "Duckies",
  "sourceName": "contracts/Duckies.sol",
  "abi": [
    {
      "inputs": [],
      "stateMutability": "nonpayable",
      "type": "constructor"
    },
    {
      "anonymous": false,
      "inputs": [
        {
          "indexed": true,
          "internalType": "address",
          "name": "owner",
          "type": "address"
        },
        {
          "indexed": true,
          "internalType": "address",
          "name": "spender",
          "type": "address"
        },
        {
          "indexed": false,
          "internalType": "uint256",
          "name": "value",
          "type": "uint256"
        }
      ],
      "name": "Approval",
      "type": "event"
    },
    {
      "anonymous": false,
      "inputs": [
        {
          "indexed": false,
          "internalType": "uint8",
          "name": "version",
          "type": "uint8"
        }
      ],
      "name": "Initialized",
      "type": "event"
    },
    {
      "anonymous": false,
      "inputs": [
        {
          "indexed": false,
          "internalType": "address",
          "name": "account",
          "type": "address"
        }
      ],
      "name": "Paused",
      "type": "event"
    },
    {
      "anonymous": false,
      "inputs": [
        {
          "indexed": true,
          "internalType": "bytes32",
          "name": "role",
          "type": "bytes32"
        },
        {
          "indexed": true,
          "internalType": "bytes32",
          "name": "previousAdminRole",
          "type": "bytes32"
        },
        {
          "indexed": true,
          "internalType": "bytes32",
          "name": "newAdminRole",
          "type": "bytes32"
        }
      ],
      "name": "RoleAdminChanged",
      "type": "event"
    },
    {
      "anonymous": false,
      "inputs": [
        {
          "indexed": true,
          "internalType": "bytes32",
          "name": "role",
          "type": "bytes32"
        },
        {
          "indexed": true,
          "internalType": "address",
          "name": "account",
          "type": "address"
        },
        {
          "indexed": true,
          "internalType": "address",
          "name": "sender",
          "type": "address"
        }
      ],
      "name": "RoleGranted",
      "type": "event"
    },
    {
      "anonymous": false,
      "inputs": [
        {
          "indexed": true,
          "internalType": "bytes32",
          "name": "role",
          "type": "bytes32"
        },
        {
          "indexed": true,
          "internalType": "address",
          "name": "account",
          "type": "address"
        },
        {
          "indexed": true,
          "internalType": "address",
          "name": "sender",
          "type": "address"
        }
      ],
      "name": "RoleRevoked",
      "type": "event"
    },
    {
      "anonymous": false,
      "inputs": [
        {
          "indexed": true,
          "internalType": "address",
          "name": "from",
          "type": "address"
        },
        {
          "indexed": true,
          "internalType": "address",
          "name": "to",
          "type": "address"
        },
        {
          "indexed": false,
          "internalType": "uint256",
          "name": "value",
          "type": "uint256"
        }
      ],
      "name": "Transfer",
      "type": "event"
    },
    {
      "anonymous": false,
      "inputs": [
        {
          "indexed": false,
          "internalType": "address",
          "name": "account",
          "type": "address"
        }
      ],
      "name": "Unpaused",
      "type": "event"
    },
    {
      "inputs": [],
      "name": "ACCOUNT_BANNED_ROLE",
      "outputs": [
        {
          "internalType": "bytes32",
          "name": "",
          "type": "bytes32"
        }
      ],
      "stateMutability": "view",
      "type": "function"
    },
    {
      "inputs": [],
      "name": "ACCOUNT_LOCKED_ROLE",
      "outputs": [
        {
          "internalType": "bytes32",
          "name": "",
          "type": "bytes32"
        }
      ],
      "stateMutability": "view",
      "type": "function"
    },
    {
      "inputs": [],
      "name": "BANNER_ROLE",
      "outputs": [
        {
          "internalType": "bytes32",
          "name": "",
          "type": "bytes32"
        }
      ],
      "stateMutability": "view",
      "type": "function"
    },
    {
      "inputs": [],
      "name": "DEFAULT_ADMIN_ROLE",
      "outputs": [
        {
          "internalType": "bytes32",
          "name": "",
          "type": "bytes32"
        }
      ],
      "stateMutability": "view",
      "type": "function"
    },
    {
      "inputs": [],
      "name": "LOCKER_ROLE",
      "outputs": [
        {
          "internalType": "bytes32",
          "name": "",
          "type": "bytes32"
        }
      ],
      "stateMutability": "view",
      "type": "function"
    },
    {
      "inputs": [],
      "name": "MINTER_ROLE",
      "outputs": [
        {
          "internalType": "bytes32",
          "name": "",
          "type": "bytes32"
        }
      ],
      "stateMutability": "view",
      "type": "function"
    },
    {
      "inputs": [],
      "name": "PAUSER_ROLE",
      "outputs": [
        {
          "internalType": "bytes32",
          "name": "",
          "type": "bytes32"
        }
      ],
      "stateMutability": "view",
      "type": "function"
    },
    {
      "inputs": [
        {
          "internalType": "uint256",
          "name": "",
          "type": "uint256"
        }
      ],
      "name": "_payouts",
      "outputs": [
        {
          "internalType": "uint16",
          "name": "",
          "type": "uint16"
        }
      ],
      "stateMutability": "view",
      "type": "function"
    },
    {
      "inputs": [
        {
          "internalType": "address",
          "name": "owner",
          "type": "address"
        },
        {
          "internalType": "address",
          "name": "spender",
          "type": "address"
        }
      ],
      "name": "allowance",
      "outputs": [
        {
          "internalType": "uint256",
          "name": "",
          "type": "uint256"
        }
      ],
      "stateMutability": "view",
      "type": "function"
    },
    {
      "inputs": [
        {
          "internalType": "address",
          "name": "spender",
          "type": "address"
        },
        {
          "internalType": "uint256",
          "name": "amount",
          "type": "uint256"
        }
      ],
      "name": "approve",
      "outputs": [
        {
          "internalType": "bool",
          "name": "",
          "type": "bool"
        }
      ],
      "stateMutability": "nonpayable",
      "type": "function"
    },
    {
      "inputs": [
        {
          "internalType": "address",
          "name": "account",
          "type": "address"
        }
      ],
      "name": "balanceOf",
      "outputs": [
        {
          "internalType": "uint256",
          "name": "",
          "type": "uint256"
        }
      ],
      "stateMutability": "view",
      "type": "function"
    },
    {
      "inputs": [
        {
          "internalType": "address",
          "name": "account",
          "type": "address"
        }
      ],
      "name": "ban",
      "outputs": [],
      "stateMutability": "nonpayable",
      "type": "function"
    },
    {
      "inputs": [
        {
          "internalType": "address",
          "name": "account",
          "type": "address"
        }
      ],
      "name": "banTree",
      "outputs": [],
      "stateMutability": "nonpayable",
      "type": "function"
    },
    {
      "inputs": [
        {
          "internalType": "address",
          "name": "account",
          "type": "address"
        }
      ],
      "name": "bannedBalanceOf",
      "outputs": [
        {
          "internalType": "uint256",
          "name": "",
          "type": "uint256"
        }
      ],
      "stateMutability": "view",
      "type": "function"
    },
    {
      "inputs": [
        {
          "internalType": "uint256",
          "name": "amount",
          "type": "uint256"
        }
      ],
      "name": "burn",
      "outputs": [],
      "stateMutability": "nonpayable",
      "type": "function"
    },
    {
      "inputs": [
        {
          "internalType": "address",
          "name": "account",
          "type": "address"
        },
        {
          "internalType": "uint256",
          "name": "amount",
          "type": "uint256"
        }
      ],
      "name": "burnFrom",
      "outputs": [],
      "stateMutability": "nonpayable",
      "type": "function"
    },
    {
      "inputs": [],
      "name": "cap",
      "outputs": [
        {
          "internalType": "uint256",
          "name": "",
          "type": "uint256"
        }
      ],
      "stateMutability": "view",
      "type": "function"
    },
    {
      "inputs": [
        {
          "components": [
            {
              "components": [
                {
                  "internalType": "string",
                  "name": "id",
                  "type": "string"
                },
                {
                  "internalType": "address",
                  "name": "ref",
                  "type": "address"
                },
                {
                  "internalType": "uint32",
                  "name": "amt",
                  "type": "uint32"
                },
                {
                  "internalType": "uint256",
                  "name": "blockExpiration",
                  "type": "uint256"
                },
                {
                  "internalType": "uint16",
                  "name": "limit",
                  "type": "uint16"
                }
              ],
              "internalType": "struct Duckies.Message",
              "name": "message",
              "type": "tuple"
            },
            {
              "internalType": "bytes",
              "name": "signature",
              "type": "bytes"
            }
          ],
          "internalType": "struct Duckies.Reward[]",
          "name": "rewards",
          "type": "tuple[]"
        }
      ],
      "name": "claimRewards",
      "outputs": [],
      "stateMutability": "nonpayable",
      "type": "function"
    },
    {
      "inputs": [],
      "name": "decimals",
      "outputs": [
        {
          "internalType": "uint8",
          "name": "",
          "type": "uint8"
        }
      ],
      "stateMutability": "view",
      "type": "function"
    },
    {
      "inputs": [
        {
          "internalType": "address",
          "name": "spender",
          "type": "address"
        },
        {
          "internalType": "uint256",
          "name": "subtractedValue",
          "type": "uint256"
        }
      ],
      "name": "decreaseAllowance",
      "outputs": [
        {
          "internalType": "bool",
          "name": "",
          "type": "bool"
        }
      ],
      "stateMutability": "nonpayable",
      "type": "function"
    },
    {
      "inputs": [
        {
          "internalType": "string",
          "name": "bountyID",
          "type": "string"
        }
      ],
      "name": "getAccountBountyLimit",
      "outputs": [
        {
          "internalType": "uint16",
          "name": "",
          "type": "uint16"
        }
      ],
      "stateMutability": "view",
      "type": "function"
    },
    {
      "inputs": [],
      "name": "getAffiliatesCount",
      "outputs": [
        {
          "internalType": "uint8[5]",
          "name": "",
          "type": "uint8[5]"
        }
      ],
      "stateMutability": "view",
      "type": "function"
    },
    {
      "inputs": [
        {
          "internalType": "bytes32",
          "name": "_messageHash",
          "type": "bytes32"
        }
      ],
      "name": "getEthSignedMessageHash",
      "outputs": [
        {
          "internalType": "bytes32",
          "name": "",
          "type": "bytes32"
        }
      ],
      "stateMutability": "pure",
      "type": "function"
    },
    {
      "inputs": [
        {
          "components": [
            {
              "internalType": "string",
              "name": "id",
              "type": "string"
            },
            {
              "internalType": "address",
              "name": "ref",
              "type": "address"
            },
            {
              "internalType": "uint32",
              "name": "amt",
              "type": "uint32"
            },
            {
              "internalType": "uint256",
              "name": "blockExpiration",
              "type": "uint256"
            },
            {
              "internalType": "uint16",
              "name": "limit",
              "type": "uint16"
            }
          ],
          "internalType": "struct Duckies.Message",
          "name": "_message",
          "type": "tuple"
        }
      ],
      "name": "getMessageHash",
      "outputs": [
        {
          "internalType": "bytes32",
          "name": "",
          "type": "bytes32"
        }
      ],
      "stateMutability": "pure",
      "type": "function"
    },
    {
      "inputs": [],
      "name": "getPayouts",
      "outputs": [
        {
          "internalType": "uint16[]",
          "name": "",
          "type": "uint16[]"
        }
      ],
      "stateMutability": "view",
      "type": "function"
    },
    {
      "inputs": [
        {
          "internalType": "bytes32",
          "name": "role",
          "type": "bytes32"
        }
      ],
      "name": "getRoleAdmin",
      "outputs": [
        {
          "internalType": "bytes32",
          "name": "",
          "type": "bytes32"
        }
      ],
      "stateMutability": "view",
      "type": "function"
    },
    {
      "inputs": [
        {
          "internalType": "bytes32",
          "name": "role",
          "type": "bytes32"
        },
        {
          "internalType": "uint256",
          "name": "index",
          "type": "uint256"
        }
      ],
      "name": "getRoleMember",
      "outputs": [
        {
          "internalType": "address",
          "name": "",
          "type": "address"
        }
      ],
      "stateMutability": "view",
      "type": "function"
    },
    {
      "inputs": [
        {
          "internalType": "bytes32",
          "name": "role",
          "type": "bytes32"
        }
      ],
      "name": "getRoleMemberCount",
      "outputs": [
        {
          "internalType": "uint256",
          "name": "",
          "type": "uint256"
        }
      ],
      "stateMutability": "view",
      "type": "function"
    },
    {
      "inputs": [
        {
          "internalType": "bytes32",
          "name": "role",
          "type": "bytes32"
        },
        {
          "internalType": "address",
          "name": "account",
          "type": "address"
        }
      ],
      "name": "grantRole",
      "outputs": [],
      "stateMutability": "nonpayable",
      "type": "function"
    },
    {
      "inputs": [
        {
          "internalType": "bytes32",
          "name": "role",
          "type": "bytes32"
        },
        {
          "internalType": "address",
          "name": "account",
          "type": "address"
        }
      ],
      "name": "hasRole",
      "outputs": [
        {
          "internalType": "bool",
          "name": "",
          "type": "bool"
        }
      ],
      "stateMutability": "view",
      "type": "function"
    },
    {
      "inputs": [
        {
          "internalType": "address",
          "name": "spender",
          "type": "address"
        },
        {
          "internalType": "uint256",
          "name": "addedValue",
          "type": "uint256"
        }
      ],
      "name": "increaseAllowance",
      "outputs": [
        {
          "internalType": "bool",
          "name": "",
          "type": "bool"
        }
      ],
      "stateMutability": "nonpayable",
      "type": "function"
    },
    {
      "inputs": [
        {
          "internalType": "address",
          "name": "issuer",
          "type": "address"
        }
      ],
      "name": "initialize",
      "outputs": [],
      "stateMutability": "nonpayable",
      "type": "function"
    },
    {
      "inputs": [
        {
          "internalType": "address",
          "name": "account",
          "type": "address"
        }
      ],
      "name": "lock",
      "outputs": [],
      "stateMutability": "nonpayable",
      "type": "function"
    },
    {
      "inputs": [
        {
          "internalType": "address",
          "name": "account",
          "type": "address"
        }
      ],
      "name": "lockTree",
      "outputs": [],
      "stateMutability": "nonpayable",
      "type": "function"
    },
    {
      "inputs": [
        {
          "internalType": "address",
          "name": "to",
          "type": "address"
        },
        {
          "internalType": "uint256",
          "name": "amount",
          "type": "uint256"
        }
      ],
      "name": "mint",
      "outputs": [],
      "stateMutability": "nonpayable",
      "type": "function"
    },
    {
      "inputs": [],
      "name": "name",
      "outputs": [
        {
          "internalType": "string",
          "name": "",
          "type": "string"
        }
      ],
      "stateMutability": "view",
      "type": "function"
    },
    {
      "inputs": [],
      "name": "pause",
      "outputs": [],
      "stateMutability": "nonpayable",
      "type": "function"
    },
    {
      "inputs": [],
      "name": "paused",
      "outputs": [
        {
          "internalType": "bool",
          "name": "",
          "type": "bool"
        }
      ],
      "stateMutability": "view",
      "type": "function"
    },
    {
      "inputs": [
        {
          "internalType": "bytes32",
          "name": "_ethSignedMessageHash",
          "type": "bytes32"
        },
        {
          "internalType": "bytes",
          "name": "_sig",
          "type": "bytes"
        }
      ],
      "name": "recover",
      "outputs": [
        {
          "internalType": "address",
          "name": "",
          "type": "address"
        }
      ],
      "stateMutability": "pure",
      "type": "function"
    },
    {
      "inputs": [
        {
          "internalType": "bytes32",
          "name": "role",
          "type": "bytes32"
        },
        {
          "internalType": "address",
          "name": "account",
          "type": "address"
        }
      ],
      "name": "renounceRole",
      "outputs": [],
      "stateMutability": "nonpayable",
      "type": "function"
    },
    {
      "inputs": [
        {
          "internalType": "bytes32",
          "name": "role",
          "type": "bytes32"
        },
        {
          "internalType": "address",
          "name": "account",
          "type": "address"
        }
      ],
      "name": "revokeRole",
      "outputs": [],
      "stateMutability": "nonpayable",
      "type": "function"
    },
    {
      "inputs": [
        {
          "components": [
            {
              "internalType": "string",
              "name": "id",
              "type": "string"
            },
            {
              "internalType": "address",
              "name": "ref",
              "type": "address"
            },
            {
              "internalType": "uint32",
              "name": "amt",
              "type": "uint32"
            },
            {
              "internalType": "uint256",
              "name": "blockExpiration",
              "type": "uint256"
            },
            {
              "internalType": "uint16",
              "name": "limit",
              "type": "uint16"
            }
          ],
          "internalType": "struct Duckies.Message",
          "name": "_message",
          "type": "tuple"
        },
        {
          "internalType": "bytes",
          "name": "_sig",
          "type": "bytes"
        }
      ],
      "name": "reward",
      "outputs": [],
      "stateMutability": "nonpayable",
      "type": "function"
    },
    {
      "inputs": [
        {
          "internalType": "uint16[5]",
          "name": "payouts",
          "type": "uint16[5]"
        }
      ],
      "name": "setPayouts",
      "outputs": [],
      "stateMutability": "nonpayable",
      "type": "function"
    },
    {
      "inputs": [
        {
          "internalType": "bytes4",
          "name": "interfaceId",
          "type": "bytes4"
        }
      ],
      "name": "supportsInterface",
      "outputs": [
        {
          "internalType": "bool",
          "name": "",
          "type": "bool"
        }
      ],
      "stateMutability": "view",
      "type": "function"
    },
    {
      "inputs": [],
      "name": "symbol",
      "outputs": [
        {
          "internalType": "string",
          "name": "",
          "type": "string"
        }
      ],
      "stateMutability": "view",
      "type": "function"
    },
    {
      "inputs": [],
      "name": "totalSupply",
      "outputs": [
        {
          "internalType": "uint256",
          "name": "",
          "type": "uint256"
        }
      ],
      "stateMutability": "view",
      "type": "function"
    },
    {
      "inputs": [
        {
          "internalType": "address",
          "name": "to",
          "type": "address"
        },
        {
          "internalType": "uint256",
          "name": "amount",
          "type": "uint256"
        }
      ],
      "name": "transfer",
      "outputs": [
        {
          "internalType": "bool",
          "name": "",
          "type": "bool"
        }
      ],
      "stateMutability": "nonpayable",
      "type": "function"
    },
    {
      "inputs": [
        {
          "internalType": "address",
          "name": "from",
          "type": "address"
        },
        {
          "internalType": "address",
          "name": "to",
          "type": "address"
        },
        {
          "internalType": "uint256",
          "name": "amount",
          "type": "uint256"
        }
      ],
      "name": "transferFrom",
      "outputs": [
        {
          "internalType": "bool",
          "name": "",
          "type": "bool"
        }
      ],
      "stateMutability": "nonpayable",
      "type": "function"
    },
    {
      "inputs": [
        {
          "internalType": "address",
          "name": "account",
          "type": "address"
        }
      ],
      "name": "unban",
      "outputs": [],
      "stateMutability": "nonpayable",
      "type": "function"
    },
    {
      "inputs": [
        {
          "internalType": "address",
          "name": "account",
          "type": "address"
        }
      ],
      "name": "unbanTree",
      "outputs": [],
      "stateMutability": "nonpayable",
      "type": "function"
    },
    {
      "inputs": [
        {
          "internalType": "address",
          "name": "account",
          "type": "address"
        }
      ],
      "name": "unlock",
      "outputs": [],
      "stateMutability": "nonpayable",
      "type": "function"
    },
    {
      "inputs": [
        {
          "internalType": "address",
          "name": "account",
          "type": "address"
        }
      ],
      "name": "unlockTree",
      "outputs": [],
      "stateMutability": "nonpayable",
      "type": "function"
    },
    {
      "inputs": [],
      "name": "unpause",
      "outputs": [],
      "stateMutability": "nonpayable",
      "type": "function"
    }
  ],
  "bytecode": "0x60806040523480156200001157600080fd5b506200001c62000022565b620000e4565b600054610100900460ff16156200008f5760405162461bcd60e51b815260206004820152602760248201527f496e697469616c697a61626c653a20636f6e747261637420697320696e697469604482015266616c697a696e6760c81b606482015260840160405180910390fd5b60005460ff9081161015620000e2576000805460ff191660ff9081179091556040519081527f7f26b83ff96e1f2b6a682f133852f6798a09c465da95921460cefb38474024989060200160405180910390a15b565b613cae80620000f46000396000f3fe608060405234801561001057600080fd5b50600436106103275760003560e01c806379cc6790116101b8578063ca15c87311610104578063edb5c61f116100a2578063f690d9731161007c578063f690d97314610740578063f6a1100d14610755578063fa54080114610768578063fd7452fc1461077b57600080fd5b8063edb5c61f146106ee578063f362136714610718578063f435f5a71461072d57600080fd5b8063d547741f116100de578063d547741f146106a0578063db43e412146106b3578063dd62ed3e146106c6578063e63ab1e9146106d957600080fd5b8063ca15c87314610653578063cb1c9c2114610666578063d53913931461067957600080fd5b806397c3ccd811610171578063a9059cbb1161014b578063a9059cbb14610607578063b70280c01461061a578063b9f145571461062d578063c4d66de81461064057600080fd5b806397c3ccd8146105d9578063a217fddf146105ec578063a457c2d7146105f457600080fd5b806379cc6790146105695780637e236c731461057c5780638456cb59146105a35780639010d07c146105ab57806391d14854146105be57806395d89b41146105d157600080fd5b806334c4b14b1161027757806342966c68116102305780635c975abb1161020a5780635c975abb1461050c5780635ddd8711146105185780636bf90c841461052b57806370a082311461054057600080fd5b806342966c68146104d35780634f8ea66d146104e6578063541e6cde146104f957600080fd5b806334c4b14b14610474578063355274ea1461048957806336568abe1461049257806339509351146104a55780633f4ba83a146104b857806340c10f19146104c057600080fd5b80631f652c52116102e45780632f2ff15d116102be5780632f2ff15d1461042a5780632f6c493c1461043f578063313ce5671461045257806332751ee61461046157600080fd5b80631f652c52146103df57806323b872dd146103f4578063248a9ca31461040757600080fd5b806301ffc9a71461032c57806306fdde0314610354578063095ea7b3146103695780631626bb351461037c57806318160ddd146103a257806319045a25146103b4575b600080fd5b61033f61033a36600461359a565b61078e565b60405190151581526020015b60405180910390f35b61035c6107b9565b60405161034b91906137b7565b61033f610377366004613385565b61084b565b61038f61038a3660046134fa565b610863565b60405161ffff909116815260200161034b565b60cb545b60405190815260200161034b565b6103c76103c2366004613534565b61089c565b6040516001600160a01b03909116815260200161034b565b6103a6600080516020613bf983398151915281565b61033f61040236600461334a565b61091b565b6103a66104153660046134fa565b60009081526065602052604090206001015490565b61043d610438366004613512565b61093f565b005b61043d61044d3660046132fe565b610969565b6040516002815260200161034b565b61043d61046f3660046133ae565b61098e565b61047c610a1d565b60405161034b919061378c565b6101c4546103a6565b61043d6104a0366004613512565b610a63565b61033f6104b3366004613385565b610ae2565b61043d610b04565b61043d6104ce366004613385565b610b8e565b61043d6104e13660046134fa565b610c27565b61043d6104f43660046132fe565b610c34565b61043d6105073660046132fe565b610c7b565b61012d5460ff1661033f565b61043d610526366004613630565b610cc2565b610533610f59565b60405161034b9190613744565b6103a661054e3660046132fe565b6001600160a01b0316600090815260c9602052604090205490565b61043d610577366004613385565b610fd9565b6103a67f7c92c7af6324a2c13a1dd9148025a24e09219a825c512a2ce65b6493c791bfa181565b61043d610fee565b6103c76105b9366004613579565b611074565b61033f6105cc366004613512565b611093565b61035c6110be565b61043d6105e73660046132fe565b6110cd565b6103a6600081565b61033f610602366004613385565b6110ee565b61033f610615366004613385565b611169565b61043d6106283660046132fe565b611177565b61043d61063b3660046132fe565b6111be565b61043d61064e3660046132fe565b6111df565b6103a66106613660046134fa565b6113f1565b61043d610674366004613470565b611408565b6103a67f9f2df0fed2c77648de5860a4cc508cd0818c85b8b8a1ab4ceeef8d981c8956a681565b61043d6106ae366004613512565b611421565b61043d6106c13660046132fe565b611446565b6103a66106d4366004613318565b61148d565b6103a6600080516020613c3983398151915281565b6103a66106fc3660046132fe565b6001600160a01b031660009081526101c3602052604090205490565b6103a6600080516020613c5983398151915281565b61043d61073b3660046132fe565b6114b8565b6103a6600080516020613c1983398151915281565b61038f6107633660046135c2565b6114d9565b6103a66107763660046134fa565b611511565b6103a66107893660046135fd565b611565565b60006001600160e01b03198216635a05180f60e01b14806107b357506107b382611578565b92915050565b606060cc80546107c890613b34565b80601f01602080910402602001604051908101604052809291908181526020018280546107f490613b34565b80156108415780601f1061081657610100808354040283529160200191610841565b820191906000526020600020905b81548152906001019060200180831161082457829003601f168201915b5050505050905090565b6000336108598185856115ad565b5060019392505050565b6101fa818154811061087457600080fd5b9060005260206000209060109182820401919006600202915054906101000a900461ffff1681565b6000806000806108ab856116d1565b6040805160008152602081018083528b905260ff8316918101919091526060810184905260808101839052929550909350915060019060a0016020604051602081039080840390855afa158015610906573d6000803e3d6000fd5b5050604051601f190151979650505050505050565b600033610929858285611745565b6109348585856117bf565b506001949350505050565b60008281526065602052604090206001015461095a81611998565b61096483836119a2565b505050565b600080516020613c5983398151915261098181611998565b61098a826119c4565b5050565b610996611a02565b60005b81518160ff16101561098a57610a0b828260ff16815181106109cb57634e487b7160e01b600052603260045260246000fd5b602002602001015160000151838360ff16815181106109fa57634e487b7160e01b600052603260045260246000fd5b602002602001015160200151610cc2565b80610a1581613bac565b915050610999565b610a25612fe0565b6040805160a081018252600080825260208201819052918101829052606081018290526080810191909152610a5e903390600190611a49565b905090565b6001600160a01b0381163314610ad85760405162461bcd60e51b815260206004820152602f60248201527f416363657373436f6e74726f6c3a2063616e206f6e6c792072656e6f756e636560448201526e103937b632b9903337b91039b2b63360891b60648201526084015b60405180910390fd5b61098a8282611b7f565b600033610859818585610af5838361148d565b610aff919061394d565b6115ad565b610b1c600080516020613c3983398151915233611093565b610b845760405162461bcd60e51b815260206004820152603360248201527f45524332304d696e7465725061757365723a206d75737420686176652070617560448201527273657220726f6c6520746f20756e706175736560681b6064820152608401610acf565b610b8c611ba1565b565b610bb87f9f2df0fed2c77648de5860a4cc508cd0818c85b8b8a1ab4ceeef8d981c8956a633611093565b610c1d5760405162461bcd60e51b815260206004820152603060248201527f45524332304d696e7465725061757365723a206d7573742068617665206d696e60448201526f1d195c881c9bdb19481d1bc81b5a5b9d60821b6064820152608401610acf565b61098a8282611bf4565b610c313382611bfe565b50565b600080516020613c59833981519152610c4c81611998565b6001600160a01b038216610c725760405162461bcd60e51b8152600401610acf906137ca565b61098a82611d58565b600080516020613c59833981519152610c9381611998565b6001600160a01b038216610cb95760405162461bcd60e51b8152600401610acf906137ca565b61098a82611e30565b610cca611a02565b6000610cd583611565565b90506000610ce282611511565b90508360600151431115610d2d5760405162461bcd60e51b815260206004820152601260248201527113595cdcd859d9481a5cc8195e1c1a5c995960721b6044820152606401610acf565b6101f7546001600160a01b0316610d44828561089c565b6001600160a01b031614610d5757600080fd5b60208401516001600160a01b031615610e47573360009081526101f860205260409020546001600160a01b031615610d8e57600080fd5b83602001516001600160a01b0316336001600160a01b03161415610db157600080fd5b610dbf338560200151611f08565b610dc857600080fd5b3360009081526101f9602052604090205415610de357600080fd5b602080850180513360008181526101f88552604080822080546001600160a01b039586166001600160a01b031991821617909155945190931681526101f9855291822080546001810182559083529390912090920180549091169091179055610ee3565b608084015161ffff1615610ee35760808401513360009081526101fb6020526040908190208651915161ffff909316929091610e82916136b3565b9081526040519081900360200190205461ffff1610610ee35760405162461bcd60e51b815260206004820181905260248201527f4c696d6974206f66207468697320626f756e74792069732065786365656465646044820152606401610acf565b610ef6846040015163ffffffff16611f7b565b3360009081526101fb602052604090819020855191519091610f17916136b3565b908152604051908190036020019020805461ffff16906000610f3883613b6f565b91906101000a81548161ffff021916908361ffff1602179055505050505050565b60606101fa80548060200260200160405190810160405280929190818152602001828054801561084157602002820191906000526020600020906000905b82829054906101000a900461ffff1661ffff1681526020019060020190602082600101049283019260010382029150808411610f975790505050505050905090565b610fe4823383611745565b61098a8282611bfe565b611006600080516020613c3983398151915233611093565b61106c5760405162461bcd60e51b815260206004820152603160248201527f45524332304d696e7465725061757365723a206d75737420686176652070617560448201527073657220726f6c6520746f20706175736560781b6064820152608401610acf565b610b8c6121e1565b600082815260976020526040812061108c908361221f565b9392505050565b60009182526065602090815260408084206001600160a01b0393909316845291905290205460ff1690565b606060cd80546107c890613b34565b600080516020613c198339815191526110e581611998565b61098a8261222b565b600033816110fc828661148d565b90508381101561115c5760405162461bcd60e51b815260206004820152602560248201527f45524332303a2064656372656173656420616c6c6f77616e63652062656c6f77604482015264207a65726f60d81b6064820152608401610acf565b61093482868684036115ad565b6000336108598185856117bf565b600080516020613c1983398151915261118f81611998565b6001600160a01b0382166111b55760405162461bcd60e51b8152600401610acf906137ca565b61098a826122b9565b600080516020613c198339815191526111d681611998565b61098a82612391565b600054610100900460ff16158080156111ff5750600054600160ff909116105b806112195750303b158015611219575060005460ff166001145b61127c5760405162461bcd60e51b815260206004820152602e60248201527f496e697469616c697a61626c653a20636f6e747261637420697320616c72656160448201526d191e481a5b9a5d1a585b1a5e995960921b6064820152608401610acf565b6000805460ff19166001179055801561129f576000805461ff0019166101001790555b6112ee6040518060400160405280600e81526020016d59656c6c6f77204475636b69657360901b815250604051806040016040528060078152602001664455434b49455360c81b815250612412565b6112f83333612455565b61131b6113076002600a6139ed565b6113169064cec0ecb000613a98565b612486565b6101f780546001600160a01b0319166001600160a01b0384161790556040805160a0810182526101f48152607d6020820152605091810191909152603260608201526014608082015261136d90611408565b6113a83361137d6002600a6139ed565b606461138f64cec0ecb0006014613a98565b611399919061398a565b6113a39190613a98565b611bf4565b801561098a576000805461ff0019169055604051600181527f7f26b83ff96e1f2b6a682f133852f6798a09c465da95921460cefb38474024989060200160405180910390a15050565b60008181526097602052604081206107b3906124b6565b600061141381611998565b6109646101fa836005612ffe565b60008281526065602052604090206001015461143c81611998565b6109648383611b7f565b600080516020613c1983398151915261145e81611998565b6001600160a01b0382166114845760405162461bcd60e51b8152600401610acf906137ca565b61098a826124c0565b6001600160a01b03918216600090815260ca6020908152604080832093909416825291909152205490565b600080516020613c598339815191526114d081611998565b61098a82612598565b3360009081526101fb602052604080822090516114f79084906136b3565b9081526040519081900360200190205461ffff1692915050565b6040517f19457468657265756d205369676e6564204d6573736167653a0a3332000000006020820152603c8101829052600090605c015b604051602081830303815290604052805190602001209050919050565b6000816040516020016115489190613894565b60006001600160e01b03198216637965db0b60e01b14806107b357506301ffc9a760e01b6001600160e01b03198316146107b3565b6001600160a01b03831661160f5760405162461bcd60e51b8152602060048201526024808201527f45524332303a20617070726f76652066726f6d20746865207a65726f206164646044820152637265737360e01b6064820152608401610acf565b6001600160a01b0382166116705760405162461bcd60e51b815260206004820152602260248201527f45524332303a20617070726f766520746f20746865207a65726f206164647265604482015261737360f01b6064820152608401610acf565b6001600160a01b03838116600081815260ca602090815260408083209487168084529482529182902085905590518481527f8c5be1e5ebec7d5bd14f71427d1e84f3dd0314c0f7b2291e5b200ac8c7c3b925910160405180910390a3505050565b600080600083516041146117275760405162461bcd60e51b815260206004820152601860248201527f696e76616c6964207369676e6174757265206c656e67746800000000000000006044820152606401610acf565b50505060208101516040820151606090920151909260009190911a90565b6000611751848461148d565b905060001981146117b957818110156117ac5760405162461bcd60e51b815260206004820152601d60248201527f45524332303a20696e73756666696369656e7420616c6c6f77616e63650000006044820152606401610acf565b6117b984848484036115ad565b50505050565b6001600160a01b0383166118235760405162461bcd60e51b815260206004820152602560248201527f45524332303a207472616e736665722066726f6d20746865207a65726f206164604482015264647265737360d81b6064820152608401610acf565b6001600160a01b0382166118855760405162461bcd60e51b815260206004820152602360248201527f45524332303a207472616e7366657220746f20746865207a65726f206164647260448201526265737360e81b6064820152608401610acf565b6118908383836125d6565b6001600160a01b038316600090815260c96020526040902054818110156119085760405162461bcd60e51b815260206004820152602660248201527f45524332303a207472616e7366657220616d6f756e7420657863656564732062604482015265616c616e636560d01b6064820152608401610acf565b6001600160a01b03808516600090815260c9602052604080822085850390559185168152908120805484929061193f90849061394d565b92505081905550826001600160a01b0316846001600160a01b03167fddf252ad1be2c89b69c2b068fc378daa952ba7f163c4a11628f55a4df523b3ef8460405161198b91815260200190565b60405180910390a36117b9565b610c3181336125e1565b6119ac8282612645565b600082815260976020526040902061096490826126cb565b6001600160a01b0381166119ea5760405162461bcd60e51b8152600401610acf9061384a565b610c31600080516020613bf983398151915282611b7f565b61012d5460ff1615610b8c5760405162461bcd60e51b815260206004820152601060248201526f14185d5cd8589b194e881c185d5cd95960821b6044820152606401610acf565b611a51612fe0565b60058361ffff1611611b78576001600160a01b03841660009081526101f96020908152604080832080548251818502810185019093528083529192909190830182828015611ac857602002820191906000526020600020905b81546001600160a01b03168152600190910190602001808311611aaa575b50505050509050805183600186611adf9190613ab7565b61ffff1660058110611b0157634e487b7160e01b600052603260045260246000fd5b60200201818151611b129190613965565b60ff1690525060005b8151811015611b7557611b62828281518110611b4757634e487b7160e01b600052603260045260246000fd5b6020026020010151866001611b5c9190613927565b86611a49565b5080611b6d81613b91565b915050611b1b565b50505b5092915050565b611b8982826126e0565b60008281526097602052604090206109649082612747565b611ba961275c565b61012d805460ff191690557f5db9ee0a495bf2e6ff9c91a7834c1ba4fdd244a5e8aa4e537bd38aeae4b073aa335b6040516001600160a01b03909116815260200160405180910390a1565b61098a82826127a6565b6001600160a01b038216611c5e5760405162461bcd60e51b815260206004820152602160248201527f45524332303a206275726e2066726f6d20746865207a65726f206164647265736044820152607360f81b6064820152608401610acf565b611c6a826000836125d6565b6001600160a01b038216600090815260c9602052604090205481811015611cde5760405162461bcd60e51b815260206004820152602260248201527f45524332303a206275726e20616d6f756e7420657863656564732062616c616e604482015261636560f01b6064820152608401610acf565b6001600160a01b038316600090815260c960205260408120838303905560cb8054849290611d0d908490613ada565b90915550506040518281526000906001600160a01b038516907fddf252ad1be2c89b69c2b068fc378daa952ba7f163c4a11628f55a4df523b3ef9060200160405180910390a3505050565b6001600160a01b03811615610c3157611d7081612598565b6001600160a01b03811660009081526101f96020908152604080832080548251818502810185019093528083529192909190830182828015611ddb57602002820191906000526020600020905b81546001600160a01b03168152600190910190602001808311611dbd575b5050505050905060005b815181101561096457611e1e828281518110611e1157634e487b7160e01b600052603260045260246000fd5b6020026020010151611d58565b80611e2881613b91565b915050611de5565b6001600160a01b03811615610c3157611e48816119c4565b6001600160a01b03811660009081526101f96020908152604080832080548251818502810185019093528083529192909190830182828015611eb357602002820191906000526020600020905b81546001600160a01b03168152600190910190602001808311611e95575b5050505050905060005b815181101561096457611ef6828281518110611ee957634e487b7160e01b600052603260045260246000fd5b6020026020010151611e30565b80611f0081613b91565b915050611ebd565b600081815b60058160ff161015610934576001600160a01b0382811660009081526101f8602052604090205481169086161415611f4a576000925050506107b3565b6001600160a01b0391821660009081526101f860205260409020549091169080611f7381613bac565b915050611f0d565b33611fd45760405162461bcd60e51b815260206004820152602360248201527f4455434b4945533a2072657761726420746f20746865207a65726f206164647260448201526265737360e81b6064820152608401610acf565b600081116120355760405162461bcd60e51b815260206004820152602860248201527f4455434b4945533a20616d6f756e74206d75737420626520686967686572207460448201526768616e207a65726f60c01b6064820152608401610acf565b61204d600080516020613bf983398151915233611093565b1561209a5760405162461bcd60e51b815260206004820152601a60248201527f4455434b4945533a206163636f756e74206973206c6f636b65640000000000006044820152606401610acf565b6120a43382611bf4565b3360009081526101f860205260408120546001600160a01b0316905b6101fa5460ff82161015610964576120e6600080516020613bf983398151915283611093565b156121335760405162461bcd60e51b815260206004820152601e60248201527f4455434b4945533a207265666572726572287329206973206c6f636b656400006044820152606401610acf565b6001600160a01b03821661214657505050565b600060646101fa8360ff168154811061216f57634e487b7160e01b600052603260045260246000fd5b6000918252602090912060108204015461219991600f166002026101000a900461ffff1686613a98565b6121a3919061398a565b90506121af8382611bf4565b506001600160a01b0391821660009081526101f8602052604090205490911690806121d981613bac565b9150506120c0565b6121e9611a02565b61012d805460ff191660011790557f62e78cea01bee320cd4e420270b5ea74000d11b0c9f74754ebdbfc544b05a258611bd73390565b600061108c8383612816565b6001600160a01b0381166122515760405162461bcd60e51b8152600401610acf9061384a565b61225a81612598565b6122847f7c92c7af6324a2c13a1dd9148025a24e09219a825c512a2ce65b6493c791bfa1826119a2565b6001600160a01b038116600090815260c960209081526040808320546101c390925290912080548201905561098a8282611bfe565b6001600160a01b03811615610c31576122d18161222b565b6001600160a01b03811660009081526101f9602090815260408083208054825181850281018501909352808352919290919083018282801561233c57602002820191906000526020600020905b81546001600160a01b0316815260019091019060200180831161231e575b5050505050905060005b81518110156109645761237f82828151811061237257634e487b7160e01b600052603260045260246000fd5b60200260200101516122b9565b8061238981613b91565b915050612346565b6001600160a01b0381166123b75760405162461bcd60e51b8152600401610acf9061384a565b6123c0816119c4565b6123ea7f7c92c7af6324a2c13a1dd9148025a24e09219a825c512a2ce65b6493c791bfa182611b7f565b6001600160a01b03811660009081526101c360205260408120805491905561098a8282611bf4565b600054610100900460ff166124395760405162461bcd60e51b8152600401610acf906137ff565b612443828261284e565b61244b61289c565b61098a82826128d0565b600054610100900460ff1661247c5760405162461bcd60e51b8152600401610acf906137ff565b61098a8282612944565b600054610100900460ff166124ad5760405162461bcd60e51b8152600401610acf906137ff565b610c318161299b565b60006107b3825490565b6001600160a01b03811615610c31576124d881612391565b6001600160a01b03811660009081526101f9602090815260408083208054825181850281018501909352808352919290919083018282801561254357602002820191906000526020600020905b81546001600160a01b03168152600190910190602001808311612525575b5050505050905060005b81518110156109645761258682828151811061257957634e487b7160e01b600052603260045260246000fd5b60200260200101516124c0565b8061259081613b91565b91505061254d565b6001600160a01b0381166125be5760405162461bcd60e51b8152600401610acf9061384a565b610c31600080516020613bf9833981519152826119a2565b610964838383612a10565b6125eb8282611093565b61098a57612603816001600160a01b03166014612b30565b61260e836020612b30565b60405160200161261f9291906136cf565b60408051601f198184030181529082905262461bcd60e51b8252610acf916004016137b7565b61264f8282611093565b61098a5760008281526065602090815260408083206001600160a01b03851684529091529020805460ff191660011790556126873390565b6001600160a01b0316816001600160a01b0316837f2f8788117e7eff1d82e926ec794901d17c78024a50270940304540a733656f0d60405160405180910390a45050565b600061108c836001600160a01b038416612d12565b6126ea8282611093565b1561098a5760008281526065602090815260408083206001600160a01b0385168085529252808320805460ff1916905551339285917ff6391f5c32d9c69d2a47ea670b442974b53935d1edc7fd64eb21e047a839171b9190a45050565b600061108c836001600160a01b038416612d61565b61012d5460ff16610b8c5760405162461bcd60e51b815260206004820152601460248201527314185d5cd8589b194e881b9bdd081c185d5cd95960621b6044820152606401610acf565b6101c454816127b460cb5490565b6127be919061394d565b111561280c5760405162461bcd60e51b815260206004820152601960248201527f45524332304361707065643a20636170206578636565646564000000000000006044820152606401610acf565b61098a8282612e7e565b600082600001828154811061283b57634e487b7160e01b600052603260045260246000fd5b9060005260206000200154905092915050565b600054610100900460ff166128755760405162461bcd60e51b8152600401610acf906137ff565b81516128889060cc9060208501906130a7565b5080516109649060cd9060208401906130a7565b600054610100900460ff166128c35760405162461bcd60e51b8152600401610acf906137ff565b61012d805460ff19169055565b600054610100900460ff166128f75760405162461bcd60e51b8152600401610acf906137ff565b612902600033612f69565b61292c7f9f2df0fed2c77648de5860a4cc508cd0818c85b8b8a1ab4ceeef8d981c8956a633612f69565b61098a600080516020613c3983398151915233612f69565b600054610100900460ff1661296b5760405162461bcd60e51b8152600401610acf906137ff565b612983600080516020613c5983398151915283612f69565b61098a600080516020613c1983398151915282612f69565b600054610100900460ff166129c25760405162461bcd60e51b8152600401610acf906137ff565b60008111612a0a5760405162461bcd60e51b8152602060048201526015602482015274045524332304361707065643a20636170206973203605c1b6044820152606401610acf565b6101c455565b6001600160a01b03831615801590612a3057506001600160a01b03821615155b15612b2557612a4d600080516020613bf983398151915284611093565b15612aae5760405162461bcd60e51b815260206004820152602b60248201527f45524332304c6f636b657242616e6e65723a206066726f6d60206163636f756e60448201526a1d081a5cc81b1bd8dad95960aa1b6064820152608401610acf565b612ac6600080516020613bf983398151915283611093565b15612b255760405162461bcd60e51b815260206004820152602960248201527f45524332304c6f636b657242616e6e65723a2060746f60206163636f756e74206044820152681a5cc81b1bd8dad95960ba1b6064820152608401610acf565b610964838383612f73565b60606000612b3f836002613a98565b612b4a90600261394d565b67ffffffffffffffff811115612b7057634e487b7160e01b600052604160045260246000fd5b6040519080825280601f01601f191660200182016040528015612b9a576020820181803683370190505b509050600360fc1b81600081518110612bc357634e487b7160e01b600052603260045260246000fd5b60200101906001600160f81b031916908160001a905350600f60fb1b81600181518110612c0057634e487b7160e01b600052603260045260246000fd5b60200101906001600160f81b031916908160001a9053506000612c24846002613a98565b612c2f90600161394d565b90505b6001811115612cc3576f181899199a1a9b1b9c1cb0b131b232b360811b85600f1660108110612c7157634e487b7160e01b600052603260045260246000fd5b1a60f81b828281518110612c9557634e487b7160e01b600052603260045260246000fd5b60200101906001600160f81b031916908160001a90535060049490941c93612cbc81613b1d565b9050612c32565b50831561108c5760405162461bcd60e51b815260206004820181905260248201527f537472696e67733a20686578206c656e67746820696e73756666696369656e746044820152606401610acf565b6000818152600183016020526040812054612d59575081546001818101845560008481526020808220909301849055845484825282860190935260409020919091556107b3565b5060006107b3565b60008181526001830160205260408120548015612e74576000612d85600183613ada565b8554909150600090612d9990600190613ada565b9050818114612e1a576000866000018281548110612dc757634e487b7160e01b600052603260045260246000fd5b9060005260206000200154905080876000018481548110612df857634e487b7160e01b600052603260045260246000fd5b6000918252602080832090910192909255918252600188019052604090208390555b8554869080612e3957634e487b7160e01b600052603160045260246000fd5b6001900381819060005260206000200160009055905585600101600086815260200190815260200160002060009055600193505050506107b3565b60009150506107b3565b6001600160a01b038216612ed45760405162461bcd60e51b815260206004820152601f60248201527f45524332303a206d696e7420746f20746865207a65726f2061646472657373006044820152606401610acf565b612ee0600083836125d6565b8060cb6000828254612ef2919061394d565b90915550506001600160a01b038216600090815260c9602052604081208054839290612f1f90849061394d565b90915550506040518181526001600160a01b038316906000907fddf252ad1be2c89b69c2b068fc378daa952ba7f163c4a11628f55a4df523b3ef9060200160405180910390a35050565b61098a82826119a2565b61096483838361012d5460ff16156109645760405162461bcd60e51b815260206004820152602a60248201527f45524332305061757361626c653a20746f6b656e207472616e736665722077686044820152691a5b19481c185d5cd95960b21b6064820152608401610acf565b6040518060a001604052806005906020820280368337509192915050565b82805482825590600052602060002090600f016010900481019282156130975791602002820160005b8382111561306757835183826101000a81548161ffff021916908361ffff1602179055509260200192600201602081600101049283019260010302613027565b80156130955782816101000a81549061ffff0219169055600201602081600101049283019260010302613067565b505b506130a392915061311b565b5090565b8280546130b390613b34565b90600052602060002090601f0160209004810192826130d55760008555613097565b82601f106130ee57805160ff1916838001178555613097565b82800160010185558215613097579182015b82811115613097578251825591602001919060010190613100565b5b808211156130a3576000815560010161311c565b80356001600160a01b038116811461314757600080fd5b919050565b600082601f83011261315c578081fd5b813567ffffffffffffffff81111561317657613176613be2565b613189601f8201601f19166020016138f6565b81815284602083860101111561319d578283fd5b816020850160208301379081016020019190915292915050565b600060a082840312156131c8578081fd5b60405160a0810167ffffffffffffffff82821081831117156131ec576131ec613be2565b81604052829350843591508082111561320457600080fd5b506132118582860161314c565b82525061322060208401613130565b6020820152604083013563ffffffff8116811461323c57600080fd5b604082015260608381013590820152613257608084016132ec565b60808201525092915050565b600060408284031215613274578081fd5b6040516040810167ffffffffffffffff828210818311171561329857613298613be2565b8160405282935084359150808211156132b057600080fd5b6132bc868387016131b7565b835260208501359150808211156132d257600080fd5b506132df8582860161314c565b6020830152505092915050565b803561ffff8116811461314757600080fd5b60006020828403121561330f578081fd5b61108c82613130565b6000806040838503121561332a578081fd5b61333383613130565b915061334160208401613130565b90509250929050565b60008060006060848603121561335e578081fd5b61336784613130565b925061337560208501613130565b9150604084013590509250925092565b60008060408385031215613397578182fd5b6133a083613130565b946020939093013593505050565b600060208083850312156133c0578182fd5b823567ffffffffffffffff808211156133d7578384fd5b818501915085601f8301126133ea578384fd5b8135818111156133fc576133fc613be2565b8060051b61340b8582016138f6565b8281528581019085870183870188018b1015613425578889fd5b8893505b848410156134625780358681111561343f57898afd5b61344d8c8a838b0101613263565b84525060019390930192918701918701613429565b509998505050505050505050565b600060a08284031215613481578081fd5b82601f83011261348f578081fd5b60405160a0810181811067ffffffffffffffff821117156134b2576134b2613be2565b604052808360a081018610156134c6578384fd5b835b60058110156134ef576134da826132ec565b835260209283019291909101906001016134c8565b509195945050505050565b60006020828403121561350b578081fd5b5035919050565b60008060408385031215613524578182fd5b8235915061334160208401613130565b60008060408385031215613546578182fd5b82359150602083013567ffffffffffffffff811115613563578182fd5b61356f8582860161314c565b9150509250929050565b6000806040838503121561358b578182fd5b50508035926020909101359150565b6000602082840312156135ab578081fd5b81356001600160e01b03198116811461108c578182fd5b6000602082840312156135d3578081fd5b813567ffffffffffffffff8111156135e9578182fd5b6135f58482850161314c565b949350505050565b60006020828403121561360e578081fd5b813567ffffffffffffffff811115613624578182fd5b6135f5848285016131b7565b60008060408385031215613642578182fd5b823567ffffffffffffffff80821115613659578384fd5b613665868387016131b7565b9350602085013591508082111561367a578283fd5b5061356f8582860161314c565b6000815180845261369f816020860160208601613af1565b601f01601f19169290920160200192915050565b600082516136c5818460208701613af1565b9190910192915050565b7f416363657373436f6e74726f6c3a206163636f756e7420000000000000000000815260008351613707816017850160208801613af1565b7001034b99036b4b9b9b4b733903937b6329607d1b6017918401918201528351613738816028840160208801613af1565b01602801949350505050565b6020808252825182820181905260009190848201906040850190845b8181101561378057835161ffff1683529284019291840191600101613760565b50909695505050505050565b60a08101818360005b6005811015611b7557815160ff16835260209283019290910190600101613795565b60208152600061108c6020830184613687565b6020808252818101527f4455434b4945533a206163636f756e74206973207a65726f2061646472657373604082015260600190565b6020808252602b908201527f496e697469616c697a61626c653a20636f6e7472616374206973206e6f74206960408201526a6e697469616c697a696e6760a81b606082015260800190565b6020808252602a908201527f45524332304c6f636b657242616e6e65723a206163636f756e74206973207a65604082015269726f206164647265737360b01b606082015260800190565b602081526000825160a060208401526138b060c0840182613687565b905060018060a01b03602085015116604084015263ffffffff60408501511660608401526060840151608084015261ffff60808501511660a08401528091505092915050565b604051601f8201601f1916810167ffffffffffffffff8111828210171561391f5761391f613be2565b604052919050565b600061ffff80831681851680830382111561394457613944613bcc565b01949350505050565b6000821982111561396057613960613bcc565b500190565b600060ff821660ff84168060ff0382111561398257613982613bcc565b019392505050565b6000826139a557634e487b7160e01b81526012600452602481fd5b500490565b600181815b808511156139e55781600019048211156139cb576139cb613bcc565b808516156139d857918102915b93841c93908002906139af565b509250929050565b600061108c60ff841683600082613a06575060016107b3565b81613a13575060006107b3565b8160018114613a295760028114613a3357613a4f565b60019150506107b3565b60ff841115613a4457613a44613bcc565b50506001821b6107b3565b5060208310610133831016604e8410600b8410161715613a72575081810a6107b3565b613a7c83836139aa565b8060001904821115613a9057613a90613bcc565b029392505050565b6000816000190483118215151615613ab257613ab2613bcc565b500290565b600061ffff83811690831681811015613ad257613ad2613bcc565b039392505050565b600082821015613aec57613aec613bcc565b500390565b60005b83811015613b0c578181015183820152602001613af4565b838111156117b95750506000910152565b600081613b2c57613b2c613bcc565b506000190190565b600181811c90821680613b4857607f821691505b60208210811415613b6957634e487b7160e01b600052602260045260246000fd5b50919050565b600061ffff80831681811415613b8757613b87613bcc565b6001019392505050565b6000600019821415613ba557613ba5613bcc565b5060010190565b600060ff821660ff811415613bc357613bc3613bcc565b60010192915050565b634e487b7160e01b600052601160045260246000fd5b634e487b7160e01b600052604160045260246000fdfeefec8c9290f3700db397438cebf84f280e9f801d402f8ecadb92669ef70f3f638661ae67c9d50f67dbb173ad6369dd93ae94918083bd986295c3ac4e3822f0b865d7a28e3265b37a6474929f336521b332c1681b933f6cb9f3376673440d862aaf9a8bb3cbd6b84fbccefa71ff73e26e798553c6914585a84886212a46a90279a2646970667358221220d3594c49ed561065fc74f2161d7bcc10c34840b03d6957174a6801cbb66aff2364736f6c63430008040033",
  "linkReferences": {},
  "deployedLinkReferences": {}
}