{
  "_format": "hh-sol-artifact-1",
  "contractName": "Duckies",
  "sourceName": "contracts/Duckies.sol",
  "abi": [
    {
      "inputs": [],
      "stateMutability": "nonpayable",
      "type": "constructor"
    },
    {
      "anonymous": false,
      "inputs": [
        {
          "indexed": true,
          "internalType": "address",
          "name": "owner",
          "type": "address"
        },
        {
          "indexed": true,
          "internalType": "address",
          "name": "spender",
          "type": "address"
        },
        {
          "indexed": false,
          "internalType": "uint256",
          "name": "value",
          "type": "uint256"
        }
      ],
      "name": "Approval",
      "type": "event"
    },
    {
      "anonymous": false,
      "inputs": [
        {
          "indexed": false,
          "internalType": "uint8",
          "name": "version",
          "type": "uint8"
        }
      ],
      "name": "Initialized",
      "type": "event"
    },
    {
      "anonymous": false,
      "inputs": [
        {
          "indexed": true,
          "internalType": "address",
          "name": "previousOwner",
          "type": "address"
        },
        {
          "indexed": true,
          "internalType": "address",
          "name": "newOwner",
          "type": "address"
        }
      ],
      "name": "OwnershipTransferred",
      "type": "event"
    },
    {
      "anonymous": false,
      "inputs": [
        {
          "indexed": false,
          "internalType": "address",
          "name": "account",
          "type": "address"
        }
      ],
      "name": "Paused",
      "type": "event"
    },
    {
      "anonymous": false,
      "inputs": [
        {
          "indexed": true,
          "internalType": "address",
          "name": "from",
          "type": "address"
        },
        {
          "indexed": true,
          "internalType": "address",
          "name": "to",
          "type": "address"
        },
        {
          "indexed": false,
          "internalType": "uint256",
          "name": "value",
          "type": "uint256"
        }
      ],
      "name": "Transfer",
      "type": "event"
    },
    {
      "anonymous": false,
      "inputs": [
        {
          "indexed": false,
          "internalType": "address",
          "name": "account",
          "type": "address"
        }
      ],
      "name": "Unpaused",
      "type": "event"
    },
    {
      "inputs": [
        {
          "internalType": "uint256",
          "name": "",
          "type": "uint256"
        }
      ],
      "name": "_bountyPayouts",
      "outputs": [
        {
          "internalType": "uint8",
          "name": "",
          "type": "uint8"
        }
      ],
      "stateMutability": "view",
      "type": "function"
    },
    {
      "inputs": [
        {
          "internalType": "uint256",
          "name": "",
          "type": "uint256"
        }
      ],
      "name": "_referralPayouts",
      "outputs": [
        {
          "internalType": "uint16",
          "name": "",
          "type": "uint16"
        }
      ],
      "stateMutability": "view",
      "type": "function"
    },
    {
      "inputs": [
        {
          "internalType": "address",
          "name": "owner",
          "type": "address"
        },
        {
          "internalType": "address",
          "name": "spender",
          "type": "address"
        }
      ],
      "name": "allowance",
      "outputs": [
        {
          "internalType": "uint256",
          "name": "",
          "type": "uint256"
        }
      ],
      "stateMutability": "view",
      "type": "function"
    },
    {
      "inputs": [
        {
          "internalType": "address",
          "name": "spender",
          "type": "address"
        },
        {
          "internalType": "uint256",
          "name": "amount",
          "type": "uint256"
        }
      ],
      "name": "approve",
      "outputs": [
        {
          "internalType": "bool",
          "name": "",
          "type": "bool"
        }
      ],
      "stateMutability": "nonpayable",
      "type": "function"
    },
    {
      "inputs": [
        {
          "internalType": "address",
          "name": "account",
          "type": "address"
        }
      ],
      "name": "balanceOf",
      "outputs": [
        {
          "internalType": "uint256",
          "name": "",
          "type": "uint256"
        }
      ],
      "stateMutability": "view",
      "type": "function"
    },
    {
      "inputs": [
        {
          "internalType": "uint256",
          "name": "amount",
          "type": "uint256"
        }
      ],
      "name": "burn",
      "outputs": [],
      "stateMutability": "nonpayable",
      "type": "function"
    },
    {
      "inputs": [
        {
          "internalType": "address",
          "name": "account",
          "type": "address"
        },
        {
          "internalType": "uint256",
          "name": "amount",
          "type": "uint256"
        }
      ],
      "name": "burnFrom",
      "outputs": [],
      "stateMutability": "nonpayable",
      "type": "function"
    },
    {
      "inputs": [],
      "name": "cap",
      "outputs": [
        {
          "internalType": "uint256",
          "name": "",
          "type": "uint256"
        }
      ],
      "stateMutability": "view",
      "type": "function"
    },
    {
      "inputs": [
        {
          "components": [
            {
              "components": [
                {
                  "internalType": "string",
                  "name": "id",
                  "type": "string"
                },
                {
                  "internalType": "address",
                  "name": "ref",
                  "type": "address"
                },
                {
                  "internalType": "uint32",
                  "name": "amt",
                  "type": "uint32"
                },
                {
                  "internalType": "uint256",
                  "name": "blockExpiration",
                  "type": "uint256"
                },
                {
                  "internalType": "uint16",
                  "name": "limit",
                  "type": "uint16"
                }
              ],
              "internalType": "struct Duckies.Message",
              "name": "message",
              "type": "tuple"
            },
            {
              "internalType": "bytes",
              "name": "signature",
              "type": "bytes"
            }
          ],
          "internalType": "struct Duckies.Reward[]",
          "name": "rewards",
          "type": "tuple[]"
        }
      ],
      "name": "claimRewards",
      "outputs": [],
      "stateMutability": "nonpayable",
      "type": "function"
    },
    {
      "inputs": [],
      "name": "decimals",
      "outputs": [
        {
          "internalType": "uint8",
          "name": "",
          "type": "uint8"
        }
      ],
      "stateMutability": "view",
      "type": "function"
    },
    {
      "inputs": [
        {
          "internalType": "address",
          "name": "spender",
          "type": "address"
        },
        {
          "internalType": "uint256",
          "name": "subtractedValue",
          "type": "uint256"
        }
      ],
      "name": "decreaseAllowance",
      "outputs": [
        {
          "internalType": "bool",
          "name": "",
          "type": "bool"
        }
      ],
      "stateMutability": "nonpayable",
      "type": "function"
    },
    {
      "inputs": [
        {
          "internalType": "string",
          "name": "bountyID",
          "type": "string"
        }
      ],
      "name": "getAccountBountyLimit",
      "outputs": [
        {
          "internalType": "uint16",
          "name": "",
          "type": "uint16"
        }
      ],
      "stateMutability": "view",
      "type": "function"
    },
    {
      "inputs": [],
      "name": "getAffiliatesCount",
      "outputs": [
        {
          "internalType": "uint8[5]",
          "name": "",
          "type": "uint8[5]"
        }
      ],
      "stateMutability": "view",
      "type": "function"
    },
    {
      "inputs": [],
      "name": "getBountyPayouts",
      "outputs": [
        {
          "internalType": "uint8[]",
          "name": "",
          "type": "uint8[]"
        }
      ],
      "stateMutability": "view",
      "type": "function"
    },
    {
      "inputs": [
        {
          "internalType": "bytes32",
          "name": "_messageHash",
          "type": "bytes32"
        }
      ],
      "name": "getEthSignedMessageHash",
      "outputs": [
        {
          "internalType": "bytes32",
          "name": "",
          "type": "bytes32"
        }
      ],
      "stateMutability": "pure",
      "type": "function"
    },
    {
      "inputs": [
        {
          "components": [
            {
              "internalType": "string",
              "name": "id",
              "type": "string"
            },
            {
              "internalType": "address",
              "name": "ref",
              "type": "address"
            },
            {
              "internalType": "uint32",
              "name": "amt",
              "type": "uint32"
            },
            {
              "internalType": "uint256",
              "name": "blockExpiration",
              "type": "uint256"
            },
            {
              "internalType": "uint16",
              "name": "limit",
              "type": "uint16"
            }
          ],
          "internalType": "struct Duckies.Message",
          "name": "_message",
          "type": "tuple"
        }
      ],
      "name": "getMessageHash",
      "outputs": [
        {
          "internalType": "bytes32",
          "name": "",
          "type": "bytes32"
        }
      ],
      "stateMutability": "pure",
      "type": "function"
    },
    {
      "inputs": [],
      "name": "getReferralPayouts",
      "outputs": [
        {
          "internalType": "uint16[]",
          "name": "",
          "type": "uint16[]"
        }
      ],
      "stateMutability": "view",
      "type": "function"
    },
    {
      "inputs": [
        {
          "internalType": "address",
          "name": "spender",
          "type": "address"
        },
        {
          "internalType": "uint256",
          "name": "addedValue",
          "type": "uint256"
        }
      ],
      "name": "increaseAllowance",
      "outputs": [
        {
          "internalType": "bool",
          "name": "",
          "type": "bool"
        }
      ],
      "stateMutability": "nonpayable",
      "type": "function"
    },
    {
      "inputs": [
        {
          "internalType": "address",
          "name": "issuer",
          "type": "address"
        }
      ],
      "name": "initialize",
      "outputs": [],
      "stateMutability": "nonpayable",
      "type": "function"
    },
    {
      "inputs": [
        {
          "internalType": "address",
          "name": "to",
          "type": "address"
        },
        {
          "internalType": "uint256",
          "name": "amount",
          "type": "uint256"
        }
      ],
      "name": "mint",
      "outputs": [],
      "stateMutability": "nonpayable",
      "type": "function"
    },
    {
      "inputs": [],
      "name": "name",
      "outputs": [
        {
          "internalType": "string",
          "name": "",
          "type": "string"
        }
      ],
      "stateMutability": "view",
      "type": "function"
    },
    {
      "inputs": [],
      "name": "owner",
      "outputs": [
        {
          "internalType": "address",
          "name": "",
          "type": "address"
        }
      ],
      "stateMutability": "view",
      "type": "function"
    },
    {
      "inputs": [],
      "name": "pause",
      "outputs": [],
      "stateMutability": "nonpayable",
      "type": "function"
    },
    {
      "inputs": [],
      "name": "paused",
      "outputs": [
        {
          "internalType": "bool",
          "name": "",
          "type": "bool"
        }
      ],
      "stateMutability": "view",
      "type": "function"
    },
    {
      "inputs": [
        {
          "internalType": "bytes32",
          "name": "_ethSignedMessageHash",
          "type": "bytes32"
        },
        {
          "internalType": "bytes",
          "name": "_sig",
          "type": "bytes"
        }
      ],
      "name": "recover",
      "outputs": [
        {
          "internalType": "address",
          "name": "",
          "type": "address"
        }
      ],
      "stateMutability": "pure",
      "type": "function"
    },
    {
      "inputs": [],
      "name": "renounceOwnership",
      "outputs": [],
      "stateMutability": "nonpayable",
      "type": "function"
    },
    {
      "inputs": [
        {
          "components": [
            {
              "internalType": "string",
              "name": "id",
              "type": "string"
            },
            {
              "internalType": "address",
              "name": "ref",
              "type": "address"
            },
            {
              "internalType": "uint32",
              "name": "amt",
              "type": "uint32"
            },
            {
              "internalType": "uint256",
              "name": "blockExpiration",
              "type": "uint256"
            },
            {
              "internalType": "uint16",
              "name": "limit",
              "type": "uint16"
            }
          ],
          "internalType": "struct Duckies.Message",
          "name": "_message",
          "type": "tuple"
        },
        {
          "internalType": "bytes",
          "name": "_sig",
          "type": "bytes"
        }
      ],
      "name": "reward",
      "outputs": [],
      "stateMutability": "nonpayable",
      "type": "function"
    },
    {
      "inputs": [
        {
          "internalType": "uint8[5]",
          "name": "payouts",
          "type": "uint8[5]"
        }
      ],
      "name": "setBountyPayouts",
      "outputs": [],
      "stateMutability": "nonpayable",
      "type": "function"
    },
    {
      "inputs": [
        {
          "internalType": "uint16[5]",
          "name": "payouts",
          "type": "uint16[5]"
        }
      ],
      "name": "setReferralPayouts",
      "outputs": [],
      "stateMutability": "nonpayable",
      "type": "function"
    },
    {
      "inputs": [],
      "name": "symbol",
      "outputs": [
        {
          "internalType": "string",
          "name": "",
          "type": "string"
        }
      ],
      "stateMutability": "view",
      "type": "function"
    },
    {
      "inputs": [],
      "name": "totalSupply",
      "outputs": [
        {
          "internalType": "uint256",
          "name": "",
          "type": "uint256"
        }
      ],
      "stateMutability": "view",
      "type": "function"
    },
    {
      "inputs": [
        {
          "internalType": "address",
          "name": "to",
          "type": "address"
        },
        {
          "internalType": "uint256",
          "name": "amount",
          "type": "uint256"
        }
      ],
      "name": "transfer",
      "outputs": [
        {
          "internalType": "bool",
          "name": "",
          "type": "bool"
        }
      ],
      "stateMutability": "nonpayable",
      "type": "function"
    },
    {
      "inputs": [
        {
          "internalType": "address",
          "name": "from",
          "type": "address"
        },
        {
          "internalType": "address",
          "name": "to",
          "type": "address"
        },
        {
          "internalType": "uint256",
          "name": "amount",
          "type": "uint256"
        }
      ],
      "name": "transferFrom",
      "outputs": [
        {
          "internalType": "bool",
          "name": "",
          "type": "bool"
        }
      ],
      "stateMutability": "nonpayable",
      "type": "function"
    },
    {
      "inputs": [
        {
          "internalType": "address",
          "name": "newOwner",
          "type": "address"
        }
      ],
      "name": "transferOwnership",
      "outputs": [],
      "stateMutability": "nonpayable",
      "type": "function"
    },
    {
      "inputs": [],
      "name": "unpause",
      "outputs": [],
      "stateMutability": "nonpayable",
      "type": "function"
    }
  ],
  "bytecode": "0x60806040523480156200001157600080fd5b50620000226200002860201b60201c565b6200020f565b6200003a60ff6200003d60201b60201c565b50565b60008060019054906101000a900460ff1615620000c75760018260ff161480156200007b575062000079306200014360201b62001a921760201c565b155b620000bd576040517f08c379a0000000000000000000000000000000000000000000000000000000008152600401620000b4906200018d565b60405180910390fd5b600090506200013e565b8160ff1660008054906101000a900460ff1660ff16106200011f576040517f08c379a000000000000000000000000000000000000000000000000000000000815260040162000116906200018d565b60405180910390fd5b816000806101000a81548160ff021916908360ff160217905550600190505b919050565b6000808273ffffffffffffffffffffffffffffffffffffffff163b119050919050565b600062000175602e83620001af565b91506200018282620001c0565b604082019050919050565b60006020820190508181036000830152620001a88162000166565b9050919050565b600082825260208201905092915050565b7f496e697469616c697a61626c653a20636f6e747261637420697320616c72656160008201527f647920696e697469616c697a6564000000000000000000000000000000000000602082015250565b6154ff806200021f6000396000f3fe608060405234801561001057600080fd5b50600436106102115760003560e01c806370a0823111610125578063c4d66de8116100ad578063f2fde38b1161007c578063f2fde38b146105f0578063f6a1100d1461060c578063fa5408011461063c578063fd5851151461066c578063fd7452fc1461069c57610211565b8063c4d66de81461056a578063dcb5f89f14610586578063dd62ed3e146105a4578063ef55a69b146105d457610211565b80638da5cb5b116100f45780638da5cb5b146104b257806395d89b41146104d0578063a457c2d7146104ee578063a9059cbb1461051e578063b8386e571461054e57610211565b806370a0823114610452578063715018a61461048257806379cc67901461048c5780638456cb59146104a857610211565b806332751ee6116101a85780633f4ba83a116101775780633f4ba83a146103d657806340c10f19146103e057806342966c68146103fc5780635c975abb146104185780635ddd87111461043657610211565b806332751ee61461034e57806334c4b14b1461036a578063355274ea1461038857806339509351146103a657610211565b806318160ddd116101e457806318160ddd146102b257806319045a25146102d057806323b872dd14610300578063313ce5671461033057610211565b806306fdde0314610216578063095ea7b3146102345780630d924b4614610264578063165c68fa14610282575b600080fd5b61021e6106cc565b60405161022b919061434f565b60405180910390f35b61024e60048036038101906102499190613930565b61075e565b60405161025b91906142b9565b60405180910390f35b61026c610781565b604051610279919061425a565b60405180910390f35b61029c60048036038101906102979190613b6a565b610801565b6040516102a991906146a9565b60405180910390f35b6102ba610836565b6040516102c7919061468e565b60405180910390f35b6102ea60048036038101906102e59190613a28565b610840565b6040516102f7919061423f565b60405180910390f35b61031a600480360381019061031591906138e1565b6108af565b60405161032791906142b9565b60405180910390f35b6103386108de565b60405161034591906146a9565b60405180910390f35b6103686004803603810190610363919061396c565b6108e7565b005b6103726109a5565b60405161037f919061427c565b60405180910390f35b6103906109f8565b60405161039d919061468e565b60405180910390f35b6103c060048036038101906103bb9190613930565b610a02565b6040516103cd91906142b9565b60405180910390f35b6103de610a39565b005b6103fa60048036038101906103f59190613930565b610abf565b005b61041660048036038101906104119190613b6a565b610b49565b005b610420610bd9565b60405161042d91906142b9565b60405180910390f35b610450600480360381019061044b9190613afe565b610bf0565b005b61046c6004803603810190610467919061387c565b6110e5565b604051610479919061468e565b60405180910390f35b61048a61112e565b005b6104a660048036038101906104a19190613930565b6111b6565b005b6104b0611252565b005b6104ba6112d8565b6040516104c7919061423f565b60405180910390f35b6104d8611302565b6040516104e5919061434f565b60405180910390f35b61050860048036038101906105039190613930565b611394565b60405161051591906142b9565b60405180910390f35b61053860048036038101906105339190613930565b61140b565b60405161054591906142b9565b60405180910390f35b610568600480360381019061056391906139ad565b61142e565b005b610584600480360381019061057f919061387c565b6114bf565b005b61058e6116f6565b60405161059b9190614297565b60405180910390f35b6105be60048036038101906105b991906138a5565b611775565b6040516105cb919061468e565b60405180910390f35b6105ee60048036038101906105e991906139d6565b6117fc565b005b61060a6004803603810190610605919061387c565b61188e565b005b61062660048036038101906106219190613a7c565b611986565b6040516106339190614673565b60405180910390f35b610656600480360381019061065191906139ff565b6119fa565b60405161066391906142d4565b60405180910390f35b61068660048036038101906106819190613b6a565b611a2a565b6040516106939190614673565b60405180910390f35b6106b660048036038101906106b19190613abd565b611a62565b6040516106c391906142d4565b60405180910390f35b6060603680546106db90614c94565b80601f016020809104026020016040519081016040528092919081815260200182805461070790614c94565b80156107545780601f1061072957610100808354040283529160200191610754565b820191906000526020600020905b81548152906001019060200180831161073757829003601f168201915b5050505050905090565b600080610769611ab5565b9050610776818585611abd565b600191505092915050565b606060ff8054806020026020016040519081016040528092919081815260200182805480156107f757602002820191906000526020600020906000905b82829054906101000a900461ffff1661ffff16815260200190600201906020826001010492830192600103820291508084116107be5790505b5050505050905090565b610100818154811061081257600080fd5b9060005260206000209060209182820401919006915054906101000a900460ff1681565b6000603554905090565b60008060008061084f85611c88565b9250925092506001868285856040516000815260200160405260405161087894939291906142ef565b6020604051602081039080840390855afa15801561089a573d6000803e3d6000fd5b50505060206040510351935050505092915050565b6000806108ba611ab5565b90506108c7858285611cf0565b6108d2858585611d7c565b60019150509392505050565b60006002905090565b60005b81518160ff1610156109a15761098e828260ff1681518110610935577f4e487b7100000000000000000000000000000000000000000000000000000000600052603260045260246000fd5b602002602001015160000151838360ff168151811061097d577f4e487b7100000000000000000000000000000000000000000000000000000000600052603260045260246000fd5b602002602001015160200151610bf0565b808061099990614d6b565b9150506108ea565b5050565b6109ad613238565b6109f33360016040518060a00160405280600060ff168152602001600060ff168152602001600060ff168152602001600060ff168152602001600060ff16815250612000565b905090565b6000606554905090565b600080610a0d611ab5565b9050610a2e818585610a1f8589611775565b610a2991906148d2565b611abd565b600191505092915050565b610a41611ab5565b73ffffffffffffffffffffffffffffffffffffffff16610a5f6112d8565b73ffffffffffffffffffffffffffffffffffffffff1614610ab5576040517f08c379a0000000000000000000000000000000000000000000000000000000008152600401610aac90614511565b60405180910390fd5b610abd6121cb565b565b610ac7611ab5565b73ffffffffffffffffffffffffffffffffffffffff16610ae56112d8565b73ffffffffffffffffffffffffffffffffffffffff1614610b3b576040517f08c379a0000000000000000000000000000000000000000000000000000000008152600401610b3290614511565b60405180910390fd5b610b45828261226d565b5050565b610b51611ab5565b73ffffffffffffffffffffffffffffffffffffffff16610b6f6112d8565b73ffffffffffffffffffffffffffffffffffffffff1614610bc5576040517f08c379a0000000000000000000000000000000000000000000000000000000008152600401610bbc90614511565b60405180910390fd5b610bd6610bd0611ab5565b826122d7565b50565b6000609860009054906101000a900460ff16905090565b6000610bfb83611a62565b90506000610c08826119fa565b90508360600151431115610c51576040517f08c379a0000000000000000000000000000000000000000000000000000000008152600401610c4890614371565b60405180910390fd5b60fc60009054906101000a900473ffffffffffffffffffffffffffffffffffffffff1673ffffffffffffffffffffffffffffffffffffffff16610c948285610840565b73ffffffffffffffffffffffffffffffffffffffff1614610cb457600080fd5b600073ffffffffffffffffffffffffffffffffffffffff16846020015173ffffffffffffffffffffffffffffffffffffffff1614610f6557600073ffffffffffffffffffffffffffffffffffffffff1660fd60003373ffffffffffffffffffffffffffffffffffffffff1673ffffffffffffffffffffffffffffffffffffffff16815260200190815260200160002060009054906101000a900473ffffffffffffffffffffffffffffffffffffffff1673ffffffffffffffffffffffffffffffffffffffff1614610d8457600080fd5b836020015173ffffffffffffffffffffffffffffffffffffffff163373ffffffffffffffffffffffffffffffffffffffff161415610dc157600080fd5b610dcf3385602001516124b0565b610dd857600080fd5b600060fe60003373ffffffffffffffffffffffffffffffffffffffff1673ffffffffffffffffffffffffffffffffffffffff1681526020019081526020016000208054905014610e2757600080fd5b836020015160fd60003373ffffffffffffffffffffffffffffffffffffffff1673ffffffffffffffffffffffffffffffffffffffff16815260200190815260200160002060006101000a81548173ffffffffffffffffffffffffffffffffffffffff021916908373ffffffffffffffffffffffffffffffffffffffff16021790555060fe6000856020015173ffffffffffffffffffffffffffffffffffffffff1673ffffffffffffffffffffffffffffffffffffffff168152602001908152602001600020339080600181540180825580915050600190039060005260206000200160009091909190916101000a81548173ffffffffffffffffffffffffffffffffffffffff021916908373ffffffffffffffffffffffffffffffffffffffff160217905550610f60846040015163ffffffff166125e5565b611046565b6000846080015161ffff161461103257836080015161ffff1661010160003373ffffffffffffffffffffffffffffffffffffffff1673ffffffffffffffffffffffffffffffffffffffff1681526020019081526020016000208560000151604051610fd09190614202565b908152602001604051809103902060009054906101000a900461ffff1661ffff1610611031576040517f08c379a0000000000000000000000000000000000000000000000000000000008152600401611028906144b1565b60405180910390fd5b5b611045846040015163ffffffff16612858565b5b61010160003373ffffffffffffffffffffffffffffffffffffffff1673ffffffffffffffffffffffffffffffffffffffff16815260200190815260200160002084600001516040516110989190614202565b9081526020016040518091039020600081819054906101000a900461ffff16809291906110c490614cf7565b91906101000a81548161ffff021916908361ffff1602179055505050505050565b6000603360008373ffffffffffffffffffffffffffffffffffffffff1673ffffffffffffffffffffffffffffffffffffffff168152602001908152602001600020549050919050565b611136611ab5565b73ffffffffffffffffffffffffffffffffffffffff166111546112d8565b73ffffffffffffffffffffffffffffffffffffffff16146111aa576040517f08c379a00000000000000000000000000000000000000000000000000000000081526004016111a190614511565b60405180910390fd5b6111b46000612ac8565b565b6111be611ab5565b73ffffffffffffffffffffffffffffffffffffffff166111dc6112d8565b73ffffffffffffffffffffffffffffffffffffffff1614611232576040517f08c379a000000000000000000000000000000000000000000000000000000000815260040161122990614511565b60405180910390fd5b6112448261123e611ab5565b83611cf0565b61124e82826122d7565b5050565b61125a611ab5565b73ffffffffffffffffffffffffffffffffffffffff166112786112d8565b73ffffffffffffffffffffffffffffffffffffffff16146112ce576040517f08c379a00000000000000000000000000000000000000000000000000000000081526004016112c590614511565b60405180910390fd5b6112d6612b8e565b565b600060ca60009054906101000a900473ffffffffffffffffffffffffffffffffffffffff16905090565b60606037805461131190614c94565b80601f016020809104026020016040519081016040528092919081815260200182805461133d90614c94565b801561138a5780601f1061135f5761010080835404028352916020019161138a565b820191906000526020600020905b81548152906001019060200180831161136d57829003601f168201915b5050505050905090565b60008061139f611ab5565b905060006113ad8286611775565b9050838110156113f2576040517f08c379a00000000000000000000000000000000000000000000000000000000081526004016113e990614611565b60405180910390fd5b6113ff8286868403611abd565b60019250505092915050565b600080611416611ab5565b9050611423818585611d7c565b600191505092915050565b611436611ab5565b73ffffffffffffffffffffffffffffffffffffffff166114546112d8565b73ffffffffffffffffffffffffffffffffffffffff16146114aa576040517f08c379a00000000000000000000000000000000000000000000000000000000081526004016114a190614511565b60405180910390fd5b8060ff9060056114bb92919061325a565b5050565b60006114cb6001612c31565b905080156114ef576001600060016101000a81548160ff0219169083151502179055505b6115636040518060400160405280600e81526020017f59656c6c6f77204475636b6965730000000000000000000000000000000000008152506040518060400160405280600581526020017f4455434b5a000000000000000000000000000000000000000000000000000000815250612d21565b61158f61156e6108de565b600a61157a91906149e3565b64cec0ecb00061158a9190614b01565b612d7e565b611597612dd9565b61159f612e32565b8160fc60006101000a81548173ffffffffffffffffffffffffffffffffffffffff021916908373ffffffffffffffffffffffffffffffffffffffff1602179055506116296040518060a001604052806101f461ffff168152602001607d61ffff168152602001605061ffff168152602001603261ffff168152602001601461ffff1681525061142e565b61166c6040518060a00160405280603260ff168152602001601960ff168152602001600f60ff168152602001600a60ff168152602001600560ff168152506117fc565b611699336116786108de565b600a61168491906149e3565b6467607658006116949190614b01565b61226d565b80156116f25760008060016101000a81548160ff0219169083151502179055507f7f26b83ff96e1f2b6a682f133852f6798a09c465da95921460cefb384740249860016040516116e99190614334565b60405180910390a15b5050565b606061010080548060200260200160405190810160405280929190818152602001828054801561176b57602002820191906000526020600020906000905b82829054906101000a900460ff1660ff16815260200190600101906020826000010492830192600103820291508084116117345790505b5050505050905090565b6000603460008473ffffffffffffffffffffffffffffffffffffffff1673ffffffffffffffffffffffffffffffffffffffff16815260200190815260200160002060008373ffffffffffffffffffffffffffffffffffffffff1673ffffffffffffffffffffffffffffffffffffffff16815260200190815260200160002054905092915050565b611804611ab5565b73ffffffffffffffffffffffffffffffffffffffff166118226112d8565b73ffffffffffffffffffffffffffffffffffffffff1614611878576040517f08c379a000000000000000000000000000000000000000000000000000000000815260040161186f90614511565b60405180910390fd5b8061010090600561188a929190613304565b5050565b611896611ab5565b73ffffffffffffffffffffffffffffffffffffffff166118b46112d8565b73ffffffffffffffffffffffffffffffffffffffff161461190a576040517f08c379a000000000000000000000000000000000000000000000000000000000815260040161190190614511565b60405180910390fd5b600073ffffffffffffffffffffffffffffffffffffffff168173ffffffffffffffffffffffffffffffffffffffff16141561197a576040517f08c379a000000000000000000000000000000000000000000000000000000000815260040161197190614431565b60405180910390fd5b61198381612ac8565b50565b600061010160003373ffffffffffffffffffffffffffffffffffffffff1673ffffffffffffffffffffffffffffffffffffffff168152602001908152602001600020826040516119d69190614202565b908152602001604051809103902060009054906101000a900461ffff169050919050565b600081604051602001611a0d9190614219565b604051602081830303815290604052805190602001209050919050565b60ff8181548110611a3a57600080fd5b9060005260206000209060109182820401919006600202915054906101000a900461ffff1681565b600081604051602001611a759190614651565b604051602081830303815290604052805190602001209050919050565b6000808273ffffffffffffffffffffffffffffffffffffffff163b119050919050565b600033905090565b600073ffffffffffffffffffffffffffffffffffffffff168373ffffffffffffffffffffffffffffffffffffffff161415611b2d576040517f08c379a0000000000000000000000000000000000000000000000000000000008152600401611b24906145b1565b60405180910390fd5b600073ffffffffffffffffffffffffffffffffffffffff168273ffffffffffffffffffffffffffffffffffffffff161415611b9d576040517f08c379a0000000000000000000000000000000000000000000000000000000008152600401611b9490614451565b60405180910390fd5b80603460008573ffffffffffffffffffffffffffffffffffffffff1673ffffffffffffffffffffffffffffffffffffffff16815260200190815260200160002060008473ffffffffffffffffffffffffffffffffffffffff1673ffffffffffffffffffffffffffffffffffffffff168152602001908152602001600020819055508173ffffffffffffffffffffffffffffffffffffffff168373ffffffffffffffffffffffffffffffffffffffff167f8c5be1e5ebec7d5bd14f71427d1e84f3dd0314c0f7b2291e5b200ac8c7c3b92583604051611c7b919061468e565b60405180910390a3505050565b60008060006041845114611cd1576040517f08c379a0000000000000000000000000000000000000000000000000000000008152600401611cc8906145f1565b60405180910390fd5b6020840151925060408401519150606084015160001a90509193909250565b6000611cfc8484611775565b90507fffffffffffffffffffffffffffffffffffffffffffffffffffffffffffffffff8114611d765781811015611d68576040517f08c379a0000000000000000000000000000000000000000000000000000000008152600401611d5f90614471565b60405180910390fd5b611d758484848403611abd565b5b50505050565b600073ffffffffffffffffffffffffffffffffffffffff168373ffffffffffffffffffffffffffffffffffffffff161415611dec576040517f08c379a0000000000000000000000000000000000000000000000000000000008152600401611de390614571565b60405180910390fd5b600073ffffffffffffffffffffffffffffffffffffffff168273ffffffffffffffffffffffffffffffffffffffff161415611e5c576040517f08c379a0000000000000000000000000000000000000000000000000000000008152600401611e5390614391565b60405180910390fd5b611e67838383612e8b565b6000603360008573ffffffffffffffffffffffffffffffffffffffff1673ffffffffffffffffffffffffffffffffffffffff16815260200190815260200160002054905081811015611eee576040517f08c379a0000000000000000000000000000000000000000000000000000000008152600401611ee590614491565b60405180910390fd5b818103603360008673ffffffffffffffffffffffffffffffffffffffff1673ffffffffffffffffffffffffffffffffffffffff1681526020019081526020016000208190555081603360008573ffffffffffffffffffffffffffffffffffffffff1673ffffffffffffffffffffffffffffffffffffffff1681526020019081526020016000206000828254611f8391906148d2565b925050819055508273ffffffffffffffffffffffffffffffffffffffff168473ffffffffffffffffffffffffffffffffffffffff167fddf252ad1be2c89b69c2b068fc378daa952ba7f163c4a11628f55a4df523b3ef84604051611fe7919061468e565b60405180910390a3611ffa848484612ee3565b50505050565b612008613238565b60058361ffff16116121c157600060fe60008673ffffffffffffffffffffffffffffffffffffffff1673ffffffffffffffffffffffffffffffffffffffff1681526020019081526020016000208054806020026020016040519081016040528092919081815260200182805480156120d557602002820191906000526020600020905b8160009054906101000a900473ffffffffffffffffffffffffffffffffffffffff1673ffffffffffffffffffffffffffffffffffffffff168152602001906001019080831161208b575b505050505090508051836001866120ec9190614b5b565b61ffff1660058110612127577f4e487b7100000000000000000000000000000000000000000000000000000000600052603260045260246000fd5b602002018181516121389190614928565b91509060ff16908160ff168152505060005b81518110156121be576121aa82828151811061218f577f4e487b7100000000000000000000000000000000000000000000000000000000600052603260045260246000fd5b60200260200101516001876121a4919061489a565b86612000565b5080806121b690614d22565b91505061214a565b50505b8190509392505050565b6121d3610bd9565b612212576040517f08c379a0000000000000000000000000000000000000000000000000000000008152600401612209906143d1565b60405180910390fd5b6000609860006101000a81548160ff0219169083151502179055507f5db9ee0a495bf2e6ff9c91a7834c1ba4fdd244a5e8aa4e537bd38aeae4b073aa612256611ab5565b604051612263919061423f565b60405180910390a1565b6122756109f8565b8161227e610836565b61228891906148d2565b11156122c9576040517f08c379a00000000000000000000000000000000000000000000000000000000081526004016122c090614591565b60405180910390fd5b6122d38282612ee8565b5050565b600073ffffffffffffffffffffffffffffffffffffffff168273ffffffffffffffffffffffffffffffffffffffff161415612347576040517f08c379a000000000000000000000000000000000000000000000000000000000815260040161233e90614531565b60405180910390fd5b61235382600083612e8b565b6000603360008473ffffffffffffffffffffffffffffffffffffffff1673ffffffffffffffffffffffffffffffffffffffff168152602001908152602001600020549050818110156123da576040517f08c379a00000000000000000000000000000000000000000000000000000000081526004016123d1906143f1565b60405180910390fd5b818103603360008573ffffffffffffffffffffffffffffffffffffffff1673ffffffffffffffffffffffffffffffffffffffff1681526020019081526020016000208190555081603560008282546124329190614b8f565b92505081905550600073ffffffffffffffffffffffffffffffffffffffff168373ffffffffffffffffffffffffffffffffffffffff167fddf252ad1be2c89b69c2b068fc378daa952ba7f163c4a11628f55a4df523b3ef84604051612497919061468e565b60405180910390a36124ab83600084612ee3565b505050565b60008082905060005b60058160ff1610156125d8578473ffffffffffffffffffffffffffffffffffffffff1660fd60008473ffffffffffffffffffffffffffffffffffffffff1673ffffffffffffffffffffffffffffffffffffffff16815260200190815260200160002060009054906101000a900473ffffffffffffffffffffffffffffffffffffffff1673ffffffffffffffffffffffffffffffffffffffff161415612563576000925050506125df565b60fd60008373ffffffffffffffffffffffffffffffffffffffff1673ffffffffffffffffffffffffffffffffffffffff16815260200190815260200160002060009054906101000a900473ffffffffffffffffffffffffffffffffffffffff16915080806125d090614d6b565b9150506124b9565b5060019150505b92915050565b600073ffffffffffffffffffffffffffffffffffffffff163373ffffffffffffffffffffffffffffffffffffffff161415612655576040517f08c379a000000000000000000000000000000000000000000000000000000000815260040161264c90614411565b60405180910390fd5b60008111612698576040517f08c379a000000000000000000000000000000000000000000000000000000000815260040161268f90614551565b60405180910390fd5b6126a2338261226d565b600060fd60003373ffffffffffffffffffffffffffffffffffffffff1673ffffffffffffffffffffffffffffffffffffffff16815260200190815260200160002060009054906101000a900473ffffffffffffffffffffffffffffffffffffffff16905060005b60ff805490508160ff16101561285357600073ffffffffffffffffffffffffffffffffffffffff168273ffffffffffffffffffffffffffffffffffffffff16141561275357612853565b6000606460ff8360ff1681548110612794577f4e487b7100000000000000000000000000000000000000000000000000000000600052603260045260246000fd5b90600052602060002090601091828204019190066002029054906101000a900461ffff1661ffff16856127c79190614b01565b6127d1919061495f565b90506127dd838261226d565b60fd60008473ffffffffffffffffffffffffffffffffffffffff1673ffffffffffffffffffffffffffffffffffffffff16815260200190815260200160002060009054906101000a900473ffffffffffffffffffffffffffffffffffffffff16925050808061284b90614d6b565b915050612709565b505050565b600073ffffffffffffffffffffffffffffffffffffffff163373ffffffffffffffffffffffffffffffffffffffff1614156128c8576040517f08c379a00000000000000000000000000000000000000000000000000000000081526004016128bf90614411565b60405180910390fd5b6000811161290b576040517f08c379a000000000000000000000000000000000000000000000000000000000815260040161290290614551565b60405180910390fd5b612915338261226d565b600060fd60003373ffffffffffffffffffffffffffffffffffffffff1673ffffffffffffffffffffffffffffffffffffffff16815260200190815260200160002060009054906101000a900473ffffffffffffffffffffffffffffffffffffffff16905060005b610100805490508160ff161015612ac357600073ffffffffffffffffffffffffffffffffffffffff168273ffffffffffffffffffffffffffffffffffffffff1614156129c757612ac3565b600060646101008360ff1681548110612a09577f4e487b7100000000000000000000000000000000000000000000000000000000600052603260045260246000fd5b90600052602060002090602091828204019190069054906101000a900460ff1660ff1685612a379190614b01565b612a41919061495f565b9050612a4d838261226d565b60fd60008473ffffffffffffffffffffffffffffffffffffffff1673ffffffffffffffffffffffffffffffffffffffff16815260200190815260200160002060009054906101000a900473ffffffffffffffffffffffffffffffffffffffff169250508080612abb90614d6b565b91505061297c565b505050565b600060ca60009054906101000a900473ffffffffffffffffffffffffffffffffffffffff1690508160ca60006101000a81548173ffffffffffffffffffffffffffffffffffffffff021916908373ffffffffffffffffffffffffffffffffffffffff1602179055508173ffffffffffffffffffffffffffffffffffffffff168173ffffffffffffffffffffffffffffffffffffffff167f8be0079c531659141344cd1fd0a4f28419497f9722a3daafe3b4186f6b6457e060405160405180910390a35050565b612b96610bd9565b15612bd6576040517f08c379a0000000000000000000000000000000000000000000000000000000008152600401612bcd906144d1565b60405180910390fd5b6001609860006101000a81548160ff0219169083151502179055507f62e78cea01bee320cd4e420270b5ea74000d11b0c9f74754ebdbfc544b05a258612c1a611ab5565b604051612c27919061423f565b60405180910390a1565b60008060019054906101000a900460ff1615612ca85760018260ff16148015612c605750612c5e30611a92565b155b612c9f576040517f08c379a0000000000000000000000000000000000000000000000000000000008152600401612c96906144f1565b60405180910390fd5b60009050612d1c565b8160ff1660008054906101000a900460ff1660ff1610612cfd576040517f08c379a0000000000000000000000000000000000000000000000000000000008152600401612cf4906144f1565b60405180910390fd5b816000806101000a81548160ff021916908360ff160217905550600190505b919050565b600060019054906101000a900460ff16612d70576040517f08c379a0000000000000000000000000000000000000000000000000000000008152600401612d67906145d1565b60405180910390fd5b612d7a8282613049565b5050565b600060019054906101000a900460ff16612dcd576040517f08c379a0000000000000000000000000000000000000000000000000000000008152600401612dc4906145d1565b60405180910390fd5b612dd6816130ca565b50565b600060019054906101000a900460ff16612e28576040517f08c379a0000000000000000000000000000000000000000000000000000000008152600401612e1f906145d1565b60405180910390fd5b612e30613166565b565b600060019054906101000a900460ff16612e81576040517f08c379a0000000000000000000000000000000000000000000000000000000008152600401612e78906145d1565b60405180910390fd5b612e896131d2565b565b612e93610bd9565b15612ed3576040517f08c379a0000000000000000000000000000000000000000000000000000000008152600401612eca906144d1565b60405180910390fd5b612ede838383613233565b505050565b505050565b600073ffffffffffffffffffffffffffffffffffffffff168273ffffffffffffffffffffffffffffffffffffffff161415612f58576040517f08c379a0000000000000000000000000000000000000000000000000000000008152600401612f4f90614631565b60405180910390fd5b612f6460008383612e8b565b8060356000828254612f7691906148d2565b9250508190555080603360008473ffffffffffffffffffffffffffffffffffffffff1673ffffffffffffffffffffffffffffffffffffffff1681526020019081526020016000206000828254612fcc91906148d2565b925050819055508173ffffffffffffffffffffffffffffffffffffffff16600073ffffffffffffffffffffffffffffffffffffffff167fddf252ad1be2c89b69c2b068fc378daa952ba7f163c4a11628f55a4df523b3ef83604051613031919061468e565b60405180910390a361304560008383612ee3565b5050565b600060019054906101000a900460ff16613098576040517f08c379a000000000000000000000000000000000000000000000000000000000815260040161308f906145d1565b60405180910390fd5b81603690805190602001906130ae9291906133ab565b5080603790805190602001906130c59291906133ab565b505050565b600060019054906101000a900460ff16613119576040517f08c379a0000000000000000000000000000000000000000000000000000000008152600401613110906145d1565b60405180910390fd5b6000811161315c576040517f08c379a0000000000000000000000000000000000000000000000000000000008152600401613153906143b1565b60405180910390fd5b8060658190555050565b600060019054906101000a900460ff166131b5576040517f08c379a00000000000000000000000000000000000000000000000000000000081526004016131ac906145d1565b60405180910390fd5b6000609860006101000a81548160ff021916908315150217905550565b600060019054906101000a900460ff16613221576040517f08c379a0000000000000000000000000000000000000000000000000000000008152600401613218906145d1565b60405180910390fd5b61323161322c611ab5565b612ac8565b565b505050565b6040518060a00160405280600590602082028036833780820191505090505090565b82805482825590600052602060002090600f016010900481019282156132f35791602002820160005b838211156132c357835183826101000a81548161ffff021916908361ffff1602179055509260200192600201602081600101049283019260010302613283565b80156132f15782816101000a81549061ffff02191690556002016020816001010492830192600103026132c3565b505b5090506133009190613431565b5090565b82805482825590600052602060002090601f0160209004810192821561339a5791602002820160005b8382111561336b57835183826101000a81548160ff021916908360ff160217905550926020019260010160208160000104928301926001030261332d565b80156133985782816101000a81549060ff021916905560010160208160000104928301926001030261336b565b505b5090506133a79190613431565b5090565b8280546133b790614c94565b90600052602060002090601f0160209004810192826133d95760008555613420565b82601f106133f257805160ff1916838001178555613420565b82800160010185558215613420579182015b8281111561341f578251825591602001919060010190613404565b5b50905061342d9190613431565b5090565b5b8082111561344a576000816000905550600101613432565b5090565b600061346161345c846146e9565b6146c4565b9050808382526020820190508285602086028201111561348057600080fd5b60005b858110156134ca57813567ffffffffffffffff8111156134a257600080fd5b8086016134af89826137ac565b85526020850194506020840193505050600181019050613483565b5050509392505050565b60006134e76134e284614715565b6146c4565b905080828560208602820111156134fd57600080fd5b60005b8581101561352d57816135138882613828565b845260208401935060208301925050600181019050613500565b5050509392505050565b600061354a6135458461473b565b6146c4565b9050808285602086028201111561356057600080fd5b60005b8581101561359057816135768882613867565b845260208401935060208301925050600181019050613563565b5050509392505050565b60006135ad6135a884614761565b6146c4565b9050828152602081018484840111156135c557600080fd5b6135d0848285614c52565b509392505050565b60006135eb6135e684614792565b6146c4565b90508281526020810184848401111561360357600080fd5b61360e848285614c52565b509392505050565b6000813590506136258161543f565b92915050565b600082601f83011261363c57600080fd5b813561364c84826020860161344e565b91505092915050565b600082601f83011261366657600080fd5b60056136738482856134d4565b91505092915050565b600082601f83011261368d57600080fd5b600561369a848285613537565b91505092915050565b6000813590506136b281615456565b92915050565b600082601f8301126136c957600080fd5b81356136d984826020860161359a565b91505092915050565b600082601f8301126136f357600080fd5b81356137038482602086016135d8565b91505092915050565b600060a0828403121561371e57600080fd5b61372860a06146c4565b9050600082013567ffffffffffffffff81111561374457600080fd5b613750848285016136e2565b600083015250602061376484828501613616565b602083015250604061377884828501613852565b604083015250606061378c8482850161383d565b60608301525060806137a084828501613828565b60808301525092915050565b6000604082840312156137be57600080fd5b6137c860406146c4565b9050600082013567ffffffffffffffff8111156137e457600080fd5b6137f08482850161370c565b600083015250602082013567ffffffffffffffff81111561381057600080fd5b61381c848285016136b8565b60208301525092915050565b6000813590506138378161546d565b92915050565b60008135905061384c81615484565b92915050565b6000813590506138618161549b565b92915050565b600081359050613876816154b2565b92915050565b60006020828403121561388e57600080fd5b600061389c84828501613616565b91505092915050565b600080604083850312156138b857600080fd5b60006138c685828601613616565b92505060206138d785828601613616565b9150509250929050565b6000806000606084860312156138f657600080fd5b600061390486828701613616565b935050602061391586828701613616565b92505060406139268682870161383d565b9150509250925092565b6000806040838503121561394357600080fd5b600061395185828601613616565b92505060206139628582860161383d565b9150509250929050565b60006020828403121561397e57600080fd5b600082013567ffffffffffffffff81111561399857600080fd5b6139a48482850161362b565b91505092915050565b600060a082840312156139bf57600080fd5b60006139cd84828501613655565b91505092915050565b600060a082840312156139e857600080fd5b60006139f68482850161367c565b91505092915050565b600060208284031215613a1157600080fd5b6000613a1f848285016136a3565b91505092915050565b60008060408385031215613a3b57600080fd5b6000613a49858286016136a3565b925050602083013567ffffffffffffffff811115613a6657600080fd5b613a72858286016136b8565b9150509250929050565b600060208284031215613a8e57600080fd5b600082013567ffffffffffffffff811115613aa857600080fd5b613ab4848285016136e2565b91505092915050565b600060208284031215613acf57600080fd5b600082013567ffffffffffffffff811115613ae957600080fd5b613af58482850161370c565b91505092915050565b60008060408385031215613b1157600080fd5b600083013567ffffffffffffffff811115613b2b57600080fd5b613b378582860161370c565b925050602083013567ffffffffffffffff811115613b5457600080fd5b613b60858286016136b8565b9150509250929050565b600060208284031215613b7c57600080fd5b6000613b8a8482850161383d565b91505092915050565b6000613b9f8383614199565b60208301905092915050565b6000613bb783836141e4565b60208301905092915050565b613bcc81614bc3565b82525050565b613bdb81614bc3565b82525050565b6000613bec826147ed565b613bf68185614840565b9350613c01836147c3565b8060005b83811015613c32578151613c198882613b93565b9750613c2483614819565b925050600181019050613c05565b5085935050505092915050565b613c48816147f8565b613c528184614851565b9250613c5d826147d3565b8060005b83811015613c8e578151613c758782613bab565b9650613c8083614826565b925050600181019050613c61565b505050505050565b6000613ca182614803565b613cab818561485c565b9350613cb6836147dd565b8060005b83811015613ce7578151613cce8882613bab565b9750613cd983614833565b925050600181019050613cba565b5085935050505092915050565b613cfd81614bd5565b82525050565b613d0c81614be1565b82525050565b613d23613d1e82614be1565b614d95565b82525050565b613d3281614c40565b82525050565b6000613d438261480e565b613d4d818561486d565b9350613d5d818560208601614c61565b613d6681614e5b565b840191505092915050565b6000613d7c8261480e565b613d86818561487e565b9350613d96818560208601614c61565b613d9f81614e5b565b840191505092915050565b6000613db58261480e565b613dbf818561488f565b9350613dcf818560208601614c61565b80840191505092915050565b6000613de860128361487e565b9150613df382614e79565b602082019050919050565b6000613e0b60238361487e565b9150613e1682614ea2565b604082019050919050565b6000613e2e60158361487e565b9150613e3982614ef1565b602082019050919050565b6000613e5160148361487e565b9150613e5c82614f1a565b602082019050919050565b6000613e7460228361487e565b9150613e7f82614f43565b604082019050919050565b6000613e97601c8361488f565b9150613ea282614f92565b601c82019050919050565b6000613eba60218361487e565b9150613ec582614fbb565b604082019050919050565b6000613edd60268361487e565b9150613ee88261500a565b604082019050919050565b6000613f0060228361487e565b9150613f0b82615059565b604082019050919050565b6000613f23601d8361487e565b9150613f2e826150a8565b602082019050919050565b6000613f4660268361487e565b9150613f51826150d1565b604082019050919050565b6000613f6960208361487e565b9150613f7482615120565b602082019050919050565b6000613f8c60108361487e565b9150613f9782615149565b602082019050919050565b6000613faf602e8361487e565b9150613fba82615172565b604082019050919050565b6000613fd260208361487e565b9150613fdd826151c1565b602082019050919050565b6000613ff560218361487e565b9150614000826151ea565b604082019050919050565b600061401860268361487e565b915061402382615239565b604082019050919050565b600061403b60258361487e565b915061404682615288565b604082019050919050565b600061405e60198361487e565b9150614069826152d7565b602082019050919050565b600061408160248361487e565b915061408c82615300565b604082019050919050565b60006140a4602b8361487e565b91506140af8261534f565b604082019050919050565b60006140c760188361487e565b91506140d28261539e565b602082019050919050565b60006140ea60258361487e565b91506140f5826153c7565b604082019050919050565b600061410d601f8361487e565b915061411882615416565b602082019050919050565b600060a08301600083015184820360008601526141408282613d38565b91505060208301516141556020860182613bc3565b50604083015161416860408601826141d5565b50606083015161417b60608601826141b7565b50608083015161418e6080860182614199565b508091505092915050565b6141a281614beb565b82525050565b6141b181614beb565b82525050565b6141c081614c19565b82525050565b6141cf81614c19565b82525050565b6141de81614c23565b82525050565b6141ed81614c33565b82525050565b6141fc81614c33565b82525050565b600061420e8284613daa565b915081905092915050565b600061422482613e8a565b91506142308284613d12565b60208201915081905092915050565b60006020820190506142546000830184613bd2565b92915050565b600060208201905081810360008301526142748184613be1565b905092915050565b600060a0820190506142916000830184613c3f565b92915050565b600060208201905081810360008301526142b18184613c96565b905092915050565b60006020820190506142ce6000830184613cf4565b92915050565b60006020820190506142e96000830184613d03565b92915050565b60006080820190506143046000830187613d03565b61431160208301866141f3565b61431e6040830185613d03565b61432b6060830184613d03565b95945050505050565b60006020820190506143496000830184613d29565b92915050565b600060208201905081810360008301526143698184613d71565b905092915050565b6000602082019050818103600083015261438a81613ddb565b9050919050565b600060208201905081810360008301526143aa81613dfe565b9050919050565b600060208201905081810360008301526143ca81613e21565b9050919050565b600060208201905081810360008301526143ea81613e44565b9050919050565b6000602082019050818103600083015261440a81613e67565b9050919050565b6000602082019050818103600083015261442a81613ead565b9050919050565b6000602082019050818103600083015261444a81613ed0565b9050919050565b6000602082019050818103600083015261446a81613ef3565b9050919050565b6000602082019050818103600083015261448a81613f16565b9050919050565b600060208201905081810360008301526144aa81613f39565b9050919050565b600060208201905081810360008301526144ca81613f5c565b9050919050565b600060208201905081810360008301526144ea81613f7f565b9050919050565b6000602082019050818103600083015261450a81613fa2565b9050919050565b6000602082019050818103600083015261452a81613fc5565b9050919050565b6000602082019050818103600083015261454a81613fe8565b9050919050565b6000602082019050818103600083015261456a8161400b565b9050919050565b6000602082019050818103600083015261458a8161402e565b9050919050565b600060208201905081810360008301526145aa81614051565b9050919050565b600060208201905081810360008301526145ca81614074565b9050919050565b600060208201905081810360008301526145ea81614097565b9050919050565b6000602082019050818103600083015261460a816140ba565b9050919050565b6000602082019050818103600083015261462a816140dd565b9050919050565b6000602082019050818103600083015261464a81614100565b9050919050565b6000602082019050818103600083015261466b8184614123565b905092915050565b600060208201905061468860008301846141a8565b92915050565b60006020820190506146a360008301846141c6565b92915050565b60006020820190506146be60008301846141f3565b92915050565b60006146ce6146df565b90506146da8282614cc6565b919050565b6000604051905090565b600067ffffffffffffffff82111561470457614703614e2c565b5b602082029050602081019050919050565b600067ffffffffffffffff8211156147305761472f614e2c565b5b602082029050919050565b600067ffffffffffffffff82111561475657614755614e2c565b5b602082029050919050565b600067ffffffffffffffff82111561477c5761477b614e2c565b5b61478582614e5b565b9050602081019050919050565b600067ffffffffffffffff8211156147ad576147ac614e2c565b5b6147b682614e5b565b9050602081019050919050565b6000819050602082019050919050565b6000819050919050565b6000819050602082019050919050565b600081519050919050565b600060059050919050565b600081519050919050565b600081519050919050565b6000602082019050919050565b6000602082019050919050565b6000602082019050919050565b600082825260208201905092915050565b600081905092915050565b600082825260208201905092915050565b600082825260208201905092915050565b600082825260208201905092915050565b600081905092915050565b60006148a582614beb565b91506148b083614beb565b92508261ffff038211156148c7576148c6614d9f565b5b828201905092915050565b60006148dd82614c19565b91506148e883614c19565b9250827fffffffffffffffffffffffffffffffffffffffffffffffffffffffffffffffff0382111561491d5761491c614d9f565b5b828201905092915050565b600061493382614c33565b915061493e83614c33565b92508260ff0382111561495457614953614d9f565b5b828201905092915050565b600061496a82614c19565b915061497583614c19565b92508261498557614984614dce565b5b828204905092915050565b6000808291508390505b60018511156149da578086048111156149b6576149b5614d9f565b5b60018516156149c55780820291505b80810290506149d385614e6c565b945061499a565b94509492505050565b60006149ee82614c19565b91506149f983614c33565b9250614a267fffffffffffffffffffffffffffffffffffffffffffffffffffffffffffffffff8484614a2e565b905092915050565b600082614a3e5760019050614afa565b81614a4c5760009050614afa565b8160018114614a625760028114614a6c57614a9b565b6001915050614afa565b60ff841115614a7e57614a7d614d9f565b5b8360020a915084821115614a9557614a94614d9f565b5b50614afa565b5060208310610133831016604e8410600b8410161715614ad05782820a905083811115614acb57614aca614d9f565b5b614afa565b614add8484846001614990565b92509050818404811115614af457614af3614d9f565b5b81810290505b9392505050565b6000614b0c82614c19565b9150614b1783614c19565b9250817fffffffffffffffffffffffffffffffffffffffffffffffffffffffffffffffff0483118215151615614b5057614b4f614d9f565b5b828202905092915050565b6000614b6682614beb565b9150614b7183614beb565b925082821015614b8457614b83614d9f565b5b828203905092915050565b6000614b9a82614c19565b9150614ba583614c19565b925082821015614bb857614bb7614d9f565b5b828203905092915050565b6000614bce82614bf9565b9050919050565b60008115159050919050565b6000819050919050565b600061ffff82169050919050565b600073ffffffffffffffffffffffffffffffffffffffff82169050919050565b6000819050919050565b600063ffffffff82169050919050565b600060ff82169050919050565b6000614c4b82614c33565b9050919050565b82818337600083830152505050565b60005b83811015614c7f578082015181840152602081019050614c64565b83811115614c8e576000848401525b50505050565b60006002820490506001821680614cac57607f821691505b60208210811415614cc057614cbf614dfd565b5b50919050565b614ccf82614e5b565b810181811067ffffffffffffffff82111715614cee57614ced614e2c565b5b80604052505050565b6000614d0282614beb565b915061ffff821415614d1757614d16614d9f565b5b600182019050919050565b6000614d2d82614c19565b91507fffffffffffffffffffffffffffffffffffffffffffffffffffffffffffffffff821415614d6057614d5f614d9f565b5b600182019050919050565b6000614d7682614c33565b915060ff821415614d8a57614d89614d9f565b5b600182019050919050565b6000819050919050565b7f4e487b7100000000000000000000000000000000000000000000000000000000600052601160045260246000fd5b7f4e487b7100000000000000000000000000000000000000000000000000000000600052601260045260246000fd5b7f4e487b7100000000000000000000000000000000000000000000000000000000600052602260045260246000fd5b7f4e487b7100000000000000000000000000000000000000000000000000000000600052604160045260246000fd5b6000601f19601f8301169050919050565b60008160011c9050919050565b7f4d65737361676520697320657870697265640000000000000000000000000000600082015250565b7f45524332303a207472616e7366657220746f20746865207a65726f206164647260008201527f6573730000000000000000000000000000000000000000000000000000000000602082015250565b7f45524332304361707065643a2063617020697320300000000000000000000000600082015250565b7f5061757361626c653a206e6f7420706175736564000000000000000000000000600082015250565b7f45524332303a206275726e20616d6f756e7420657863656564732062616c616e60008201527f6365000000000000000000000000000000000000000000000000000000000000602082015250565b7f19457468657265756d205369676e6564204d6573736167653a0a333200000000600082015250565b7f45524332303a2072657761726420746f20746865207a65726f2061646472657360008201527f7300000000000000000000000000000000000000000000000000000000000000602082015250565b7f4f776e61626c653a206e6577206f776e657220697320746865207a65726f206160008201527f6464726573730000000000000000000000000000000000000000000000000000602082015250565b7f45524332303a20617070726f766520746f20746865207a65726f20616464726560008201527f7373000000000000000000000000000000000000000000000000000000000000602082015250565b7f45524332303a20696e73756666696369656e7420616c6c6f77616e6365000000600082015250565b7f45524332303a207472616e7366657220616d6f756e742065786365656473206260008201527f616c616e63650000000000000000000000000000000000000000000000000000602082015250565b7f4c696d6974206f66207468697320626f756e7479206973206578636565646564600082015250565b7f5061757361626c653a2070617573656400000000000000000000000000000000600082015250565b7f496e697469616c697a61626c653a20636f6e747261637420697320616c72656160008201527f647920696e697469616c697a6564000000000000000000000000000000000000602082015250565b7f4f776e61626c653a2063616c6c6572206973206e6f7420746865206f776e6572600082015250565b7f45524332303a206275726e2066726f6d20746865207a65726f2061646472657360008201527f7300000000000000000000000000000000000000000000000000000000000000602082015250565b7f45524332303a20616d6f756e74206d757374206265206869676865722074686160008201527f6e207a65726f0000000000000000000000000000000000000000000000000000602082015250565b7f45524332303a207472616e736665722066726f6d20746865207a65726f20616460008201527f6472657373000000000000000000000000000000000000000000000000000000602082015250565b7f45524332304361707065643a2063617020657863656564656400000000000000600082015250565b7f45524332303a20617070726f76652066726f6d20746865207a65726f2061646460008201527f7265737300000000000000000000000000000000000000000000000000000000602082015250565b7f496e697469616c697a61626c653a20636f6e7472616374206973206e6f74206960008201527f6e697469616c697a696e67000000000000000000000000000000000000000000602082015250565b7f696e76616c6964207369676e6174757265206c656e6774680000000000000000600082015250565b7f45524332303a2064656372656173656420616c6c6f77616e63652062656c6f7760008201527f207a65726f000000000000000000000000000000000000000000000000000000602082015250565b7f45524332303a206d696e7420746f20746865207a65726f206164647265737300600082015250565b61544881614bc3565b811461545357600080fd5b50565b61545f81614be1565b811461546a57600080fd5b50565b61547681614beb565b811461548157600080fd5b50565b61548d81614c19565b811461549857600080fd5b50565b6154a481614c23565b81146154af57600080fd5b50565b6154bb81614c33565b81146154c657600080fd5b5056fea2646970667358221220e82518fb61f9a555f1474d0974d548dc932d66fe9a52702537acd0f58525c0ea64736f6c63430008040033",
  "linkReferences": {},
  "deployedLinkReferences": {}
}