{
  "_format": "hh-sol-artifact-1",
  "contractName": "Duckies",
  "sourceName": "contracts/Duckies.sol",
  "abi": [
    {
      "inputs": [],
      "stateMutability": "nonpayable",
      "type": "constructor"
    },
    {
      "anonymous": false,
      "inputs": [
        {
          "indexed": true,
          "internalType": "address",
          "name": "owner",
          "type": "address"
        },
        {
          "indexed": true,
          "internalType": "address",
          "name": "spender",
          "type": "address"
        },
        {
          "indexed": false,
          "internalType": "uint256",
          "name": "value",
          "type": "uint256"
        }
      ],
      "name": "Approval",
      "type": "event"
    },
    {
      "anonymous": false,
      "inputs": [
        {
          "indexed": false,
          "internalType": "uint8",
          "name": "version",
          "type": "uint8"
        }
      ],
      "name": "Initialized",
      "type": "event"
    },
    {
      "anonymous": false,
      "inputs": [
        {
          "indexed": true,
          "internalType": "address",
          "name": "previousOwner",
          "type": "address"
        },
        {
          "indexed": true,
          "internalType": "address",
          "name": "newOwner",
          "type": "address"
        }
      ],
      "name": "OwnershipTransferred",
      "type": "event"
    },
    {
      "anonymous": false,
      "inputs": [
        {
          "indexed": false,
          "internalType": "address",
          "name": "account",
          "type": "address"
        }
      ],
      "name": "Paused",
      "type": "event"
    },
    {
      "anonymous": false,
      "inputs": [
        {
          "indexed": true,
          "internalType": "address",
          "name": "from",
          "type": "address"
        },
        {
          "indexed": true,
          "internalType": "address",
          "name": "to",
          "type": "address"
        },
        {
          "indexed": false,
          "internalType": "uint256",
          "name": "value",
          "type": "uint256"
        }
      ],
      "name": "Transfer",
      "type": "event"
    },
    {
      "anonymous": false,
      "inputs": [
        {
          "indexed": false,
          "internalType": "address",
          "name": "account",
          "type": "address"
        }
      ],
      "name": "Unpaused",
      "type": "event"
    },
    {
      "inputs": [
        {
          "internalType": "uint256",
          "name": "",
          "type": "uint256"
        }
      ],
      "name": "_payouts",
      "outputs": [
        {
          "internalType": "uint16",
          "name": "",
          "type": "uint16"
        }
      ],
      "stateMutability": "view",
      "type": "function"
    },
    {
      "inputs": [
        {
          "internalType": "address",
          "name": "owner",
          "type": "address"
        },
        {
          "internalType": "address",
          "name": "spender",
          "type": "address"
        }
      ],
      "name": "allowance",
      "outputs": [
        {
          "internalType": "uint256",
          "name": "",
          "type": "uint256"
        }
      ],
      "stateMutability": "view",
      "type": "function"
    },
    {
      "inputs": [
        {
          "internalType": "address",
          "name": "spender",
          "type": "address"
        },
        {
          "internalType": "uint256",
          "name": "amount",
          "type": "uint256"
        }
      ],
      "name": "approve",
      "outputs": [
        {
          "internalType": "bool",
          "name": "",
          "type": "bool"
        }
      ],
      "stateMutability": "nonpayable",
      "type": "function"
    },
    {
      "inputs": [
        {
          "internalType": "address",
          "name": "account",
          "type": "address"
        }
      ],
      "name": "balanceOf",
      "outputs": [
        {
          "internalType": "uint256",
          "name": "",
          "type": "uint256"
        }
      ],
      "stateMutability": "view",
      "type": "function"
    },
    {
      "inputs": [
        {
          "internalType": "uint256",
          "name": "amount",
          "type": "uint256"
        }
      ],
      "name": "burn",
      "outputs": [],
      "stateMutability": "nonpayable",
      "type": "function"
    },
    {
      "inputs": [
        {
          "internalType": "address",
          "name": "account",
          "type": "address"
        },
        {
          "internalType": "uint256",
          "name": "amount",
          "type": "uint256"
        }
      ],
      "name": "burnFrom",
      "outputs": [],
      "stateMutability": "nonpayable",
      "type": "function"
    },
    {
      "inputs": [],
      "name": "cap",
      "outputs": [
        {
          "internalType": "uint256",
          "name": "",
          "type": "uint256"
        }
      ],
      "stateMutability": "view",
      "type": "function"
    },
    {
      "inputs": [
        {
          "components": [
            {
              "components": [
                {
                  "internalType": "string",
                  "name": "id",
                  "type": "string"
                },
                {
                  "internalType": "address",
                  "name": "ref",
                  "type": "address"
                },
                {
                  "internalType": "uint32",
                  "name": "amt",
                  "type": "uint32"
                },
                {
                  "internalType": "uint256",
                  "name": "blockExpiration",
                  "type": "uint256"
                },
                {
                  "internalType": "uint16",
                  "name": "limit",
                  "type": "uint16"
                }
              ],
              "internalType": "struct Duckies.Message",
              "name": "message",
              "type": "tuple"
            },
            {
              "internalType": "bytes",
              "name": "signature",
              "type": "bytes"
            }
          ],
          "internalType": "struct Duckies.Reward[]",
          "name": "rewards",
          "type": "tuple[]"
        }
      ],
      "name": "claimRewards",
      "outputs": [],
      "stateMutability": "nonpayable",
      "type": "function"
    },
    {
      "inputs": [],
      "name": "decimals",
      "outputs": [
        {
          "internalType": "uint8",
          "name": "",
          "type": "uint8"
        }
      ],
      "stateMutability": "view",
      "type": "function"
    },
    {
      "inputs": [
        {
          "internalType": "address",
          "name": "spender",
          "type": "address"
        },
        {
          "internalType": "uint256",
          "name": "subtractedValue",
          "type": "uint256"
        }
      ],
      "name": "decreaseAllowance",
      "outputs": [
        {
          "internalType": "bool",
          "name": "",
          "type": "bool"
        }
      ],
      "stateMutability": "nonpayable",
      "type": "function"
    },
    {
      "inputs": [
        {
          "internalType": "string",
          "name": "bountyID",
          "type": "string"
        }
      ],
      "name": "getAccountBountyLimit",
      "outputs": [
        {
          "internalType": "uint16",
          "name": "",
          "type": "uint16"
        }
      ],
      "stateMutability": "view",
      "type": "function"
    },
    {
      "inputs": [],
      "name": "getAffiliatesCount",
      "outputs": [
        {
          "internalType": "uint8[5]",
          "name": "",
          "type": "uint8[5]"
        }
      ],
      "stateMutability": "view",
      "type": "function"
    },
    {
      "inputs": [
        {
          "internalType": "bytes32",
          "name": "_messageHash",
          "type": "bytes32"
        }
      ],
      "name": "getEthSignedMessageHash",
      "outputs": [
        {
          "internalType": "bytes32",
          "name": "",
          "type": "bytes32"
        }
      ],
      "stateMutability": "pure",
      "type": "function"
    },
    {
      "inputs": [
        {
          "components": [
            {
              "internalType": "string",
              "name": "id",
              "type": "string"
            },
            {
              "internalType": "address",
              "name": "ref",
              "type": "address"
            },
            {
              "internalType": "uint32",
              "name": "amt",
              "type": "uint32"
            },
            {
              "internalType": "uint256",
              "name": "blockExpiration",
              "type": "uint256"
            },
            {
              "internalType": "uint16",
              "name": "limit",
              "type": "uint16"
            }
          ],
          "internalType": "struct Duckies.Message",
          "name": "_message",
          "type": "tuple"
        }
      ],
      "name": "getMessageHash",
      "outputs": [
        {
          "internalType": "bytes32",
          "name": "",
          "type": "bytes32"
        }
      ],
      "stateMutability": "pure",
      "type": "function"
    },
    {
      "inputs": [],
      "name": "getPayouts",
      "outputs": [
        {
          "internalType": "uint16[]",
          "name": "",
          "type": "uint16[]"
        }
      ],
      "stateMutability": "view",
      "type": "function"
    },
    {
      "inputs": [
        {
          "internalType": "address",
          "name": "spender",
          "type": "address"
        },
        {
          "internalType": "uint256",
          "name": "addedValue",
          "type": "uint256"
        }
      ],
      "name": "increaseAllowance",
      "outputs": [
        {
          "internalType": "bool",
          "name": "",
          "type": "bool"
        }
      ],
      "stateMutability": "nonpayable",
      "type": "function"
    },
    {
      "inputs": [
        {
          "internalType": "address",
          "name": "issuer",
          "type": "address"
        }
      ],
      "name": "initialize",
      "outputs": [],
      "stateMutability": "nonpayable",
      "type": "function"
    },
    {
      "inputs": [
        {
          "internalType": "address",
          "name": "to",
          "type": "address"
        },
        {
          "internalType": "uint256",
          "name": "amount",
          "type": "uint256"
        }
      ],
      "name": "mint",
      "outputs": [],
      "stateMutability": "nonpayable",
      "type": "function"
    },
    {
      "inputs": [],
      "name": "name",
      "outputs": [
        {
          "internalType": "string",
          "name": "",
          "type": "string"
        }
      ],
      "stateMutability": "view",
      "type": "function"
    },
    {
      "inputs": [],
      "name": "owner",
      "outputs": [
        {
          "internalType": "address",
          "name": "",
          "type": "address"
        }
      ],
      "stateMutability": "view",
      "type": "function"
    },
    {
      "inputs": [],
      "name": "pause",
      "outputs": [],
      "stateMutability": "nonpayable",
      "type": "function"
    },
    {
      "inputs": [],
      "name": "paused",
      "outputs": [
        {
          "internalType": "bool",
          "name": "",
          "type": "bool"
        }
      ],
      "stateMutability": "view",
      "type": "function"
    },
    {
      "inputs": [
        {
          "internalType": "bytes32",
          "name": "_ethSignedMessageHash",
          "type": "bytes32"
        },
        {
          "internalType": "bytes",
          "name": "_sig",
          "type": "bytes"
        }
      ],
      "name": "recover",
      "outputs": [
        {
          "internalType": "address",
          "name": "",
          "type": "address"
        }
      ],
      "stateMutability": "pure",
      "type": "function"
    },
    {
      "inputs": [],
      "name": "renounceOwnership",
      "outputs": [],
      "stateMutability": "nonpayable",
      "type": "function"
    },
    {
      "inputs": [
        {
          "components": [
            {
              "internalType": "string",
              "name": "id",
              "type": "string"
            },
            {
              "internalType": "address",
              "name": "ref",
              "type": "address"
            },
            {
              "internalType": "uint32",
              "name": "amt",
              "type": "uint32"
            },
            {
              "internalType": "uint256",
              "name": "blockExpiration",
              "type": "uint256"
            },
            {
              "internalType": "uint16",
              "name": "limit",
              "type": "uint16"
            }
          ],
          "internalType": "struct Duckies.Message",
          "name": "_message",
          "type": "tuple"
        },
        {
          "internalType": "bytes",
          "name": "_sig",
          "type": "bytes"
        }
      ],
      "name": "reward",
      "outputs": [],
      "stateMutability": "nonpayable",
      "type": "function"
    },
    {
      "inputs": [
        {
          "internalType": "uint16[5]",
          "name": "payouts",
          "type": "uint16[5]"
        }
      ],
      "name": "setPayouts",
      "outputs": [],
      "stateMutability": "nonpayable",
      "type": "function"
    },
    {
      "inputs": [],
      "name": "symbol",
      "outputs": [
        {
          "internalType": "string",
          "name": "",
          "type": "string"
        }
      ],
      "stateMutability": "view",
      "type": "function"
    },
    {
      "inputs": [],
      "name": "totalSupply",
      "outputs": [
        {
          "internalType": "uint256",
          "name": "",
          "type": "uint256"
        }
      ],
      "stateMutability": "view",
      "type": "function"
    },
    {
      "inputs": [
        {
          "internalType": "address",
          "name": "to",
          "type": "address"
        },
        {
          "internalType": "uint256",
          "name": "amount",
          "type": "uint256"
        }
      ],
      "name": "transfer",
      "outputs": [
        {
          "internalType": "bool",
          "name": "",
          "type": "bool"
        }
      ],
      "stateMutability": "nonpayable",
      "type": "function"
    },
    {
      "inputs": [
        {
          "internalType": "address",
          "name": "from",
          "type": "address"
        },
        {
          "internalType": "address",
          "name": "to",
          "type": "address"
        },
        {
          "internalType": "uint256",
          "name": "amount",
          "type": "uint256"
        }
      ],
      "name": "transferFrom",
      "outputs": [
        {
          "internalType": "bool",
          "name": "",
          "type": "bool"
        }
      ],
      "stateMutability": "nonpayable",
      "type": "function"
    },
    {
      "inputs": [
        {
          "internalType": "address",
          "name": "newOwner",
          "type": "address"
        }
      ],
      "name": "transferOwnership",
      "outputs": [],
      "stateMutability": "nonpayable",
      "type": "function"
    },
    {
      "inputs": [],
      "name": "unpause",
      "outputs": [],
      "stateMutability": "nonpayable",
      "type": "function"
    }
  ],
  "bytecode": "0x60806040523480156200001157600080fd5b50620000226200002860201b60201c565b6200020f565b6200003a60ff6200003d60201b60201c565b50565b60008060019054906101000a900460ff1615620000c75760018260ff161480156200007b575062000079306200014360201b6200186b1760201c565b155b620000bd576040517f08c379a0000000000000000000000000000000000000000000000000000000008152600401620000b4906200018d565b60405180910390fd5b600090506200013e565b8160ff1660008054906101000a900460ff1660ff16106200011f576040517f08c379a000000000000000000000000000000000000000000000000000000000815260040162000116906200018d565b60405180910390fd5b816000806101000a81548160ff021916908360ff160217905550600190505b919050565b6000808273ffffffffffffffffffffffffffffffffffffffff163b119050919050565b600062000175602e83620001af565b91506200018282620001c0565b604082019050919050565b60006020820190508181036000830152620001a88162000166565b9050919050565b600082825260208201905092915050565b7f496e697469616c697a61626c653a20636f6e747261637420697320616c72656160008201527f647920696e697469616c697a6564000000000000000000000000000000000000602082015250565b614e03806200021f6000396000f3fe608060405234801561001057600080fd5b50600436106101f05760003560e01c80636bf90c841161010f578063a9059cbb116100a2578063f2fde38b11610071578063f2fde38b14610595578063f6a1100d146105b1578063fa540801146105e1578063fd7452fc14610611576101f0565b8063a9059cbb146104fd578063c4d66de81461052d578063cb1c9c2114610549578063dd62ed3e14610565576101f0565b80638456cb59116100de5780638456cb59146104875780638da5cb5b1461049157806395d89b41146104af578063a457c2d7146104cd576101f0565b80636bf90c841461041357806370a0823114610431578063715018a61461046157806379cc67901461046b576101f0565b806334c4b14b1161018757806340c10f191161015657806340c10f19146103a157806342966c68146103bd5780635c975abb146103d95780635ddd8711146103f7576101f0565b806334c4b14b1461032b578063355274ea1461034957806339509351146103675780633f4ba83a14610397576101f0565b806319045a25116101c357806319045a251461029157806323b872dd146102c1578063313ce567146102f157806332751ee61461030f576101f0565b806306fdde03146101f5578063095ea7b3146102135780631626bb351461024357806318160ddd14610273575b600080fd5b6101fd610641565b60405161020a9190613cc9565b60405180910390f35b61022d60048036038101906102289190613353565b6106d3565b60405161023a9190613c33565b60405180910390f35b61025d60048036038101906102589190613564565b6106f6565b60405161026a9190613fed565b60405180910390f35b61027b61072e565b6040516102889190614008565b60405180910390f35b6102ab60048036038101906102a69190613422565b610738565b6040516102b89190613bdb565b60405180910390f35b6102db60048036038101906102d69190613304565b6107a7565b6040516102e89190613c33565b60405180910390f35b6102f96107d6565b6040516103069190614023565b60405180910390f35b6103296004803603810190610324919061338f565b6107df565b005b61033361089d565b6040516103409190613c18565b60405180910390f35b6103516108f0565b60405161035e9190614008565b60405180910390f35b610381600480360381019061037c9190613353565b6108fa565b60405161038e9190613c33565b60405180910390f35b61039f610931565b005b6103bb60048036038101906103b69190613353565b6109b7565b005b6103d760048036038101906103d29190613564565b610a41565b005b6103e1610ad1565b6040516103ee9190613c33565b60405180910390f35b610411600480360381019061040c91906134f8565b610ae8565b005b61041b610fca565b6040516104289190613bf6565b60405180910390f35b61044b6004803603810190610446919061329f565b61104a565b6040516104589190614008565b60405180910390f35b610469611093565b005b61048560048036038101906104809190613353565b61111b565b005b61048f6111b7565b005b61049961123d565b6040516104a69190613bdb565b60405180910390f35b6104b7611267565b6040516104c49190613cc9565b60405180910390f35b6104e760048036038101906104e29190613353565b6112f9565b6040516104f49190613c33565b60405180910390f35b61051760048036038101906105129190613353565b611370565b6040516105249190613c33565b60405180910390f35b6105476004803603810190610542919061329f565b611393565b005b610563600480360381019061055e91906133d0565b611587565b005b61057f600480360381019061057a91906132c8565b611618565b60405161058c9190614008565b60405180910390f35b6105af60048036038101906105aa919061329f565b61169f565b005b6105cb60048036038101906105c69190613476565b611797565b6040516105d89190613fed565b60405180910390f35b6105fb60048036038101906105f691906133f9565b61180b565b6040516106089190613c4e565b60405180910390f35b61062b600480360381019061062691906134b7565b61183b565b6040516106389190613c4e565b60405180910390f35b606060368054610650906145af565b80601f016020809104026020016040519081016040528092919081815260200182805461067c906145af565b80156106c95780601f1061069e576101008083540402835291602001916106c9565b820191906000526020600020905b8154815290600101906020018083116106ac57829003601f168201915b5050505050905090565b6000806106de61188e565b90506106eb818585611896565b600191505092915050565b60ff818154811061070657600080fd5b9060005260206000209060109182820401919006600202915054906101000a900461ffff1681565b6000603554905090565b60008060008061074785611a61565b925092509250600186828585604051600081526020016040526040516107709493929190613c69565b6020604051602081039080840390855afa158015610792573d6000803e3d6000fd5b50505060206040510351935050505092915050565b6000806107b261188e565b90506107bf858285611ac9565b6107ca858585611b55565b60019150509392505050565b60006002905090565b60005b81518160ff16101561089957610886828260ff168151811061082d577f4e487b7100000000000000000000000000000000000000000000000000000000600052603260045260246000fd5b602002602001015160000151838360ff1681518110610875577f4e487b7100000000000000000000000000000000000000000000000000000000600052603260045260246000fd5b602002602001015160200151610ae8565b808061089190614686565b9150506107e2565b5050565b6108a5612da1565b6108eb3360016040518060a00160405280600060ff168152602001600060ff168152602001600060ff168152602001600060ff168152602001600060ff16815250611dd9565b905090565b6000606554905090565b60008061090561188e565b90506109268185856109178589611618565b61092191906141ed565b611896565b600191505092915050565b61093961188e565b73ffffffffffffffffffffffffffffffffffffffff1661095761123d565b73ffffffffffffffffffffffffffffffffffffffff16146109ad576040517f08c379a00000000000000000000000000000000000000000000000000000000081526004016109a490613e8b565b60405180910390fd5b6109b5611fa4565b565b6109bf61188e565b73ffffffffffffffffffffffffffffffffffffffff166109dd61123d565b73ffffffffffffffffffffffffffffffffffffffff1614610a33576040517f08c379a0000000000000000000000000000000000000000000000000000000008152600401610a2a90613e8b565b60405180910390fd5b610a3d8282612046565b5050565b610a4961188e565b73ffffffffffffffffffffffffffffffffffffffff16610a6761123d565b73ffffffffffffffffffffffffffffffffffffffff1614610abd576040517f08c379a0000000000000000000000000000000000000000000000000000000008152600401610ab490613e8b565b60405180910390fd5b610ace610ac861188e565b826120b0565b50565b6000609860009054906101000a900460ff16905090565b6000610af38361183b565b90506000610b008261180b565b90508360600151431115610b49576040517f08c379a0000000000000000000000000000000000000000000000000000000008152600401610b4090613ceb565b60405180910390fd5b60fc60009054906101000a900473ffffffffffffffffffffffffffffffffffffffff1673ffffffffffffffffffffffffffffffffffffffff16610b8c8285610738565b73ffffffffffffffffffffffffffffffffffffffff1614610bac57600080fd5b600073ffffffffffffffffffffffffffffffffffffffff16846020015173ffffffffffffffffffffffffffffffffffffffff1614610e4a57600073ffffffffffffffffffffffffffffffffffffffff1660fd60003373ffffffffffffffffffffffffffffffffffffffff1673ffffffffffffffffffffffffffffffffffffffff16815260200190815260200160002060009054906101000a900473ffffffffffffffffffffffffffffffffffffffff1673ffffffffffffffffffffffffffffffffffffffff1614610c7c57600080fd5b836020015173ffffffffffffffffffffffffffffffffffffffff163373ffffffffffffffffffffffffffffffffffffffff161415610cb957600080fd5b610cc7338560200151612289565b610cd057600080fd5b600060fe60003373ffffffffffffffffffffffffffffffffffffffff1673ffffffffffffffffffffffffffffffffffffffff1681526020019081526020016000208054905014610d1f57600080fd5b836020015160fd60003373ffffffffffffffffffffffffffffffffffffffff1673ffffffffffffffffffffffffffffffffffffffff16815260200190815260200160002060006101000a81548173ffffffffffffffffffffffffffffffffffffffff021916908373ffffffffffffffffffffffffffffffffffffffff16021790555060fe6000856020015173ffffffffffffffffffffffffffffffffffffffff1673ffffffffffffffffffffffffffffffffffffffff168152602001908152602001600020339080600181540180825580915050600190039060005260206000200160009091909190916101000a81548173ffffffffffffffffffffffffffffffffffffffff021916908373ffffffffffffffffffffffffffffffffffffffff160217905550610f18565b6000846080015161ffff1614610f1757836080015161ffff1661010060003373ffffffffffffffffffffffffffffffffffffffff1673ffffffffffffffffffffffffffffffffffffffff1681526020019081526020016000208560000151604051610eb59190613b9e565b908152602001604051809103902060009054906101000a900461ffff1661ffff1610610f16576040517f08c379a0000000000000000000000000000000000000000000000000000000008152600401610f0d90613e2b565b60405180910390fd5b5b5b610f2b846040015163ffffffff166123be565b61010060003373ffffffffffffffffffffffffffffffffffffffff1673ffffffffffffffffffffffffffffffffffffffff1681526020019081526020016000208460000151604051610f7d9190613b9e565b9081526020016040518091039020600081819054906101000a900461ffff1680929190610fa990614612565b91906101000a81548161ffff021916908361ffff1602179055505050505050565b606060ff80548060200260200160405190810160405280929190818152602001828054801561104057602002820191906000526020600020906000905b82829054906101000a900461ffff1661ffff16815260200190600201906020826001010492830192600103820291508084116110075790505b5050505050905090565b6000603360008373ffffffffffffffffffffffffffffffffffffffff1673ffffffffffffffffffffffffffffffffffffffff168152602001908152602001600020549050919050565b61109b61188e565b73ffffffffffffffffffffffffffffffffffffffff166110b961123d565b73ffffffffffffffffffffffffffffffffffffffff161461110f576040517f08c379a000000000000000000000000000000000000000000000000000000000815260040161110690613e8b565b60405180910390fd5b6111196000612631565b565b61112361188e565b73ffffffffffffffffffffffffffffffffffffffff1661114161123d565b73ffffffffffffffffffffffffffffffffffffffff1614611197576040517f08c379a000000000000000000000000000000000000000000000000000000000815260040161118e90613e8b565b60405180910390fd5b6111a9826111a361188e565b83611ac9565b6111b382826120b0565b5050565b6111bf61188e565b73ffffffffffffffffffffffffffffffffffffffff166111dd61123d565b73ffffffffffffffffffffffffffffffffffffffff1614611233576040517f08c379a000000000000000000000000000000000000000000000000000000000815260040161122a90613e8b565b60405180910390fd5b61123b6126f7565b565b600060ca60009054906101000a900473ffffffffffffffffffffffffffffffffffffffff16905090565b606060378054611276906145af565b80601f01602080910402602001604051908101604052809291908181526020018280546112a2906145af565b80156112ef5780601f106112c4576101008083540402835291602001916112ef565b820191906000526020600020905b8154815290600101906020018083116112d257829003601f168201915b5050505050905090565b60008061130461188e565b905060006113128286611618565b905083811015611357576040517f08c379a000000000000000000000000000000000000000000000000000000000815260040161134e90613f8b565b60405180910390fd5b6113648286868403611896565b60019250505092915050565b60008061137b61188e565b9050611388818585611b55565b600191505092915050565b600061139f600161279a565b905080156113c3576001600060016101000a81548160ff0219169083151502179055505b6114376040518060400160405280600e81526020017f59656c6c6f77204475636b6965730000000000000000000000000000000000008152506040518060400160405280600781526020017f4455434b4945530000000000000000000000000000000000000000000000000081525061288a565b6114636114426107d6565b600a61144e91906142fe565b64cec0ecb00061145e919061441c565b6128e7565b61146b612942565b61147361299b565b8160fc60006101000a81548173ffffffffffffffffffffffffffffffffffffffff021916908373ffffffffffffffffffffffffffffffffffffffff1602179055506114fd6040518060a001604052806101f461ffff168152602001607d61ffff168152602001605061ffff168152602001603261ffff168152602001601461ffff16815250611587565b61152a336115096107d6565b600a61151591906142fe565b642959c8f000611525919061441c565b612046565b80156115835760008060016101000a81548160ff0219169083151502179055507f7f26b83ff96e1f2b6a682f133852f6798a09c465da95921460cefb3847402498600160405161157a9190613cae565b60405180910390a15b5050565b61158f61188e565b73ffffffffffffffffffffffffffffffffffffffff166115ad61123d565b73ffffffffffffffffffffffffffffffffffffffff1614611603576040517f08c379a00000000000000000000000000000000000000000000000000000000081526004016115fa90613e8b565b60405180910390fd5b8060ff906005611614929190612dc3565b5050565b6000603460008473ffffffffffffffffffffffffffffffffffffffff1673ffffffffffffffffffffffffffffffffffffffff16815260200190815260200160002060008373ffffffffffffffffffffffffffffffffffffffff1673ffffffffffffffffffffffffffffffffffffffff16815260200190815260200160002054905092915050565b6116a761188e565b73ffffffffffffffffffffffffffffffffffffffff166116c561123d565b73ffffffffffffffffffffffffffffffffffffffff161461171b576040517f08c379a000000000000000000000000000000000000000000000000000000000815260040161171290613e8b565b60405180910390fd5b600073ffffffffffffffffffffffffffffffffffffffff168173ffffffffffffffffffffffffffffffffffffffff16141561178b576040517f08c379a000000000000000000000000000000000000000000000000000000000815260040161178290613dab565b60405180910390fd5b61179481612631565b50565b600061010060003373ffffffffffffffffffffffffffffffffffffffff1673ffffffffffffffffffffffffffffffffffffffff168152602001908152602001600020826040516117e79190613b9e565b908152602001604051809103902060009054906101000a900461ffff169050919050565b60008160405160200161181e9190613bb5565b604051602081830303815290604052805190602001209050919050565b60008160405160200161184e9190613fcb565b604051602081830303815290604052805190602001209050919050565b6000808273ffffffffffffffffffffffffffffffffffffffff163b119050919050565b600033905090565b600073ffffffffffffffffffffffffffffffffffffffff168373ffffffffffffffffffffffffffffffffffffffff161415611906576040517f08c379a00000000000000000000000000000000000000000000000000000000081526004016118fd90613f2b565b60405180910390fd5b600073ffffffffffffffffffffffffffffffffffffffff168273ffffffffffffffffffffffffffffffffffffffff161415611976576040517f08c379a000000000000000000000000000000000000000000000000000000000815260040161196d90613dcb565b60405180910390fd5b80603460008573ffffffffffffffffffffffffffffffffffffffff1673ffffffffffffffffffffffffffffffffffffffff16815260200190815260200160002060008473ffffffffffffffffffffffffffffffffffffffff1673ffffffffffffffffffffffffffffffffffffffff168152602001908152602001600020819055508173ffffffffffffffffffffffffffffffffffffffff168373ffffffffffffffffffffffffffffffffffffffff167f8c5be1e5ebec7d5bd14f71427d1e84f3dd0314c0f7b2291e5b200ac8c7c3b92583604051611a549190614008565b60405180910390a3505050565b60008060006041845114611aaa576040517f08c379a0000000000000000000000000000000000000000000000000000000008152600401611aa190613f6b565b60405180910390fd5b6020840151925060408401519150606084015160001a90509193909250565b6000611ad58484611618565b90507fffffffffffffffffffffffffffffffffffffffffffffffffffffffffffffffff8114611b4f5781811015611b41576040517f08c379a0000000000000000000000000000000000000000000000000000000008152600401611b3890613deb565b60405180910390fd5b611b4e8484848403611896565b5b50505050565b600073ffffffffffffffffffffffffffffffffffffffff168373ffffffffffffffffffffffffffffffffffffffff161415611bc5576040517f08c379a0000000000000000000000000000000000000000000000000000000008152600401611bbc90613eeb565b60405180910390fd5b600073ffffffffffffffffffffffffffffffffffffffff168273ffffffffffffffffffffffffffffffffffffffff161415611c35576040517f08c379a0000000000000000000000000000000000000000000000000000000008152600401611c2c90613d0b565b60405180910390fd5b611c408383836129f4565b6000603360008573ffffffffffffffffffffffffffffffffffffffff1673ffffffffffffffffffffffffffffffffffffffff16815260200190815260200160002054905081811015611cc7576040517f08c379a0000000000000000000000000000000000000000000000000000000008152600401611cbe90613e0b565b60405180910390fd5b818103603360008673ffffffffffffffffffffffffffffffffffffffff1673ffffffffffffffffffffffffffffffffffffffff1681526020019081526020016000208190555081603360008573ffffffffffffffffffffffffffffffffffffffff1673ffffffffffffffffffffffffffffffffffffffff1681526020019081526020016000206000828254611d5c91906141ed565b925050819055508273ffffffffffffffffffffffffffffffffffffffff168473ffffffffffffffffffffffffffffffffffffffff167fddf252ad1be2c89b69c2b068fc378daa952ba7f163c4a11628f55a4df523b3ef84604051611dc09190614008565b60405180910390a3611dd3848484612a4c565b50505050565b611de1612da1565b60058361ffff1611611f9a57600060fe60008673ffffffffffffffffffffffffffffffffffffffff1673ffffffffffffffffffffffffffffffffffffffff168152602001908152602001600020805480602002602001604051908101604052809291908181526020018280548015611eae57602002820191906000526020600020905b8160009054906101000a900473ffffffffffffffffffffffffffffffffffffffff1673ffffffffffffffffffffffffffffffffffffffff1681526020019060010190808311611e64575b50505050509050805183600186611ec59190614476565b61ffff1660058110611f00577f4e487b7100000000000000000000000000000000000000000000000000000000600052603260045260246000fd5b60200201818151611f119190614243565b91509060ff16908160ff168152505060005b8151811015611f9757611f83828281518110611f68577f4e487b7100000000000000000000000000000000000000000000000000000000600052603260045260246000fd5b6020026020010151600187611f7d91906141b5565b86611dd9565b508080611f8f9061463d565b915050611f23565b50505b8190509392505050565b611fac610ad1565b611feb576040517f08c379a0000000000000000000000000000000000000000000000000000000008152600401611fe290613d4b565b60405180910390fd5b6000609860006101000a81548160ff0219169083151502179055507f5db9ee0a495bf2e6ff9c91a7834c1ba4fdd244a5e8aa4e537bd38aeae4b073aa61202f61188e565b60405161203c9190613bdb565b60405180910390a1565b61204e6108f0565b8161205761072e565b61206191906141ed565b11156120a2576040517f08c379a000000000000000000000000000000000000000000000000000000000815260040161209990613f0b565b60405180910390fd5b6120ac8282612a51565b5050565b600073ffffffffffffffffffffffffffffffffffffffff168273ffffffffffffffffffffffffffffffffffffffff161415612120576040517f08c379a000000000000000000000000000000000000000000000000000000000815260040161211790613eab565b60405180910390fd5b61212c826000836129f4565b6000603360008473ffffffffffffffffffffffffffffffffffffffff1673ffffffffffffffffffffffffffffffffffffffff168152602001908152602001600020549050818110156121b3576040517f08c379a00000000000000000000000000000000000000000000000000000000081526004016121aa90613d6b565b60405180910390fd5b818103603360008573ffffffffffffffffffffffffffffffffffffffff1673ffffffffffffffffffffffffffffffffffffffff16815260200190815260200160002081905550816035600082825461220b91906144aa565b92505081905550600073ffffffffffffffffffffffffffffffffffffffff168373ffffffffffffffffffffffffffffffffffffffff167fddf252ad1be2c89b69c2b068fc378daa952ba7f163c4a11628f55a4df523b3ef846040516122709190614008565b60405180910390a361228483600084612a4c565b505050565b60008082905060005b60058160ff1610156123b1578473ffffffffffffffffffffffffffffffffffffffff1660fd60008473ffffffffffffffffffffffffffffffffffffffff1673ffffffffffffffffffffffffffffffffffffffff16815260200190815260200160002060009054906101000a900473ffffffffffffffffffffffffffffffffffffffff1673ffffffffffffffffffffffffffffffffffffffff16141561233c576000925050506123b8565b60fd60008373ffffffffffffffffffffffffffffffffffffffff1673ffffffffffffffffffffffffffffffffffffffff16815260200190815260200160002060009054906101000a900473ffffffffffffffffffffffffffffffffffffffff16915080806123a990614686565b915050612292565b5060019150505b92915050565b600073ffffffffffffffffffffffffffffffffffffffff163373ffffffffffffffffffffffffffffffffffffffff16141561242e576040517f08c379a000000000000000000000000000000000000000000000000000000000815260040161242590613d8b565b60405180910390fd5b60008111612471576040517f08c379a000000000000000000000000000000000000000000000000000000000815260040161246890613ecb565b60405180910390fd5b61247b3382612046565b600060fd60003373ffffffffffffffffffffffffffffffffffffffff1673ffffffffffffffffffffffffffffffffffffffff16815260200190815260200160002060009054906101000a900473ffffffffffffffffffffffffffffffffffffffff16905060005b60ff805490508160ff16101561262c57600073ffffffffffffffffffffffffffffffffffffffff168273ffffffffffffffffffffffffffffffffffffffff16141561252c5761262c565b6000606460ff8360ff168154811061256d577f4e487b7100000000000000000000000000000000000000000000000000000000600052603260045260246000fd5b90600052602060002090601091828204019190066002029054906101000a900461ffff1661ffff16856125a0919061441c565b6125aa919061427a565b90506125b68382612046565b60fd60008473ffffffffffffffffffffffffffffffffffffffff1673ffffffffffffffffffffffffffffffffffffffff16815260200190815260200160002060009054906101000a900473ffffffffffffffffffffffffffffffffffffffff16925050808061262490614686565b9150506124e2565b505050565b600060ca60009054906101000a900473ffffffffffffffffffffffffffffffffffffffff1690508160ca60006101000a81548173ffffffffffffffffffffffffffffffffffffffff021916908373ffffffffffffffffffffffffffffffffffffffff1602179055508173ffffffffffffffffffffffffffffffffffffffff168173ffffffffffffffffffffffffffffffffffffffff167f8be0079c531659141344cd1fd0a4f28419497f9722a3daafe3b4186f6b6457e060405160405180910390a35050565b6126ff610ad1565b1561273f576040517f08c379a000000000000000000000000000000000000000000000000000000000815260040161273690613e4b565b60405180910390fd5b6001609860006101000a81548160ff0219169083151502179055507f62e78cea01bee320cd4e420270b5ea74000d11b0c9f74754ebdbfc544b05a25861278361188e565b6040516127909190613bdb565b60405180910390a1565b60008060019054906101000a900460ff16156128115760018260ff161480156127c957506127c73061186b565b155b612808576040517f08c379a00000000000000000000000000000000000000000000000000000000081526004016127ff90613e6b565b60405180910390fd5b60009050612885565b8160ff1660008054906101000a900460ff1660ff1610612866576040517f08c379a000000000000000000000000000000000000000000000000000000000815260040161285d90613e6b565b60405180910390fd5b816000806101000a81548160ff021916908360ff160217905550600190505b919050565b600060019054906101000a900460ff166128d9576040517f08c379a00000000000000000000000000000000000000000000000000000000081526004016128d090613f4b565b60405180910390fd5b6128e38282612bb2565b5050565b600060019054906101000a900460ff16612936576040517f08c379a000000000000000000000000000000000000000000000000000000000815260040161292d90613f4b565b60405180910390fd5b61293f81612c33565b50565b600060019054906101000a900460ff16612991576040517f08c379a000000000000000000000000000000000000000000000000000000000815260040161298890613f4b565b60405180910390fd5b612999612ccf565b565b600060019054906101000a900460ff166129ea576040517f08c379a00000000000000000000000000000000000000000000000000000000081526004016129e190613f4b565b60405180910390fd5b6129f2612d3b565b565b6129fc610ad1565b15612a3c576040517f08c379a0000000000000000000000000000000000000000000000000000000008152600401612a3390613e4b565b60405180910390fd5b612a47838383612d9c565b505050565b505050565b600073ffffffffffffffffffffffffffffffffffffffff168273ffffffffffffffffffffffffffffffffffffffff161415612ac1576040517f08c379a0000000000000000000000000000000000000000000000000000000008152600401612ab890613fab565b60405180910390fd5b612acd600083836129f4565b8060356000828254612adf91906141ed565b9250508190555080603360008473ffffffffffffffffffffffffffffffffffffffff1673ffffffffffffffffffffffffffffffffffffffff1681526020019081526020016000206000828254612b3591906141ed565b925050819055508173ffffffffffffffffffffffffffffffffffffffff16600073ffffffffffffffffffffffffffffffffffffffff167fddf252ad1be2c89b69c2b068fc378daa952ba7f163c4a11628f55a4df523b3ef83604051612b9a9190614008565b60405180910390a3612bae60008383612a4c565b5050565b600060019054906101000a900460ff16612c01576040517f08c379a0000000000000000000000000000000000000000000000000000000008152600401612bf890613f4b565b60405180910390fd5b8160369080519060200190612c17929190612e6d565b508060379080519060200190612c2e929190612e6d565b505050565b600060019054906101000a900460ff16612c82576040517f08c379a0000000000000000000000000000000000000000000000000000000008152600401612c7990613f4b565b60405180910390fd5b60008111612cc5576040517f08c379a0000000000000000000000000000000000000000000000000000000008152600401612cbc90613d2b565b60405180910390fd5b8060658190555050565b600060019054906101000a900460ff16612d1e576040517f08c379a0000000000000000000000000000000000000000000000000000000008152600401612d1590613f4b565b60405180910390fd5b6000609860006101000a81548160ff021916908315150217905550565b600060019054906101000a900460ff16612d8a576040517f08c379a0000000000000000000000000000000000000000000000000000000008152600401612d8190613f4b565b60405180910390fd5b612d9a612d9561188e565b612631565b565b505050565b6040518060a00160405280600590602082028036833780820191505090505090565b82805482825590600052602060002090600f01601090048101928215612e5c5791602002820160005b83821115612e2c57835183826101000a81548161ffff021916908361ffff1602179055509260200192600201602081600101049283019260010302612dec565b8015612e5a5782816101000a81549061ffff0219169055600201602081600101049283019260010302612e2c565b505b509050612e699190612ef3565b5090565b828054612e79906145af565b90600052602060002090601f016020900481019282612e9b5760008555612ee2565b82601f10612eb457805160ff1916838001178555612ee2565b82800160010185558215612ee2579182015b82811115612ee1578251825591602001919060010190612ec6565b5b509050612eef9190612ef3565b5090565b5b80821115612f0c576000816000905550600101612ef4565b5090565b6000612f23612f1e84614063565b61403e565b90508083825260208201905082856020860282011115612f4257600080fd5b60005b85811015612f8c57813567ffffffffffffffff811115612f6457600080fd5b808601612f7189826131e4565b85526020850194506020840193505050600181019050612f45565b5050509392505050565b6000612fa9612fa48461408f565b61403e565b90508082856020860282011115612fbf57600080fd5b60005b85811015612fef5781612fd58882613260565b845260208401935060208301925050600181019050612fc2565b5050509392505050565b600061300c613007846140b5565b61403e565b90508281526020810184848401111561302457600080fd5b61302f84828561456d565b509392505050565b600061304a613045846140e6565b61403e565b90508281526020810184848401111561306257600080fd5b61306d84828561456d565b509392505050565b60008135905061308481614d5a565b92915050565b600082601f83011261309b57600080fd5b81356130ab848260208601612f10565b91505092915050565b600082601f8301126130c557600080fd5b60056130d2848285612f96565b91505092915050565b6000813590506130ea81614d71565b92915050565b600082601f83011261310157600080fd5b8135613111848260208601612ff9565b91505092915050565b600082601f83011261312b57600080fd5b813561313b848260208601613037565b91505092915050565b600060a0828403121561315657600080fd5b61316060a061403e565b9050600082013567ffffffffffffffff81111561317c57600080fd5b6131888482850161311a565b600083015250602061319c84828501613075565b60208301525060406131b08482850161328a565b60408301525060606131c484828501613275565b60608301525060806131d884828501613260565b60808301525092915050565b6000604082840312156131f657600080fd5b613200604061403e565b9050600082013567ffffffffffffffff81111561321c57600080fd5b61322884828501613144565b600083015250602082013567ffffffffffffffff81111561324857600080fd5b613254848285016130f0565b60208301525092915050565b60008135905061326f81614d88565b92915050565b60008135905061328481614d9f565b92915050565b60008135905061329981614db6565b92915050565b6000602082840312156132b157600080fd5b60006132bf84828501613075565b91505092915050565b600080604083850312156132db57600080fd5b60006132e985828601613075565b92505060206132fa85828601613075565b9150509250929050565b60008060006060848603121561331957600080fd5b600061332786828701613075565b935050602061333886828701613075565b925050604061334986828701613275565b9150509250925092565b6000806040838503121561336657600080fd5b600061337485828601613075565b925050602061338585828601613275565b9150509250929050565b6000602082840312156133a157600080fd5b600082013567ffffffffffffffff8111156133bb57600080fd5b6133c78482850161308a565b91505092915050565b600060a082840312156133e257600080fd5b60006133f0848285016130b4565b91505092915050565b60006020828403121561340b57600080fd5b6000613419848285016130db565b91505092915050565b6000806040838503121561343557600080fd5b6000613443858286016130db565b925050602083013567ffffffffffffffff81111561346057600080fd5b61346c858286016130f0565b9150509250929050565b60006020828403121561348857600080fd5b600082013567ffffffffffffffff8111156134a257600080fd5b6134ae8482850161311a565b91505092915050565b6000602082840312156134c957600080fd5b600082013567ffffffffffffffff8111156134e357600080fd5b6134ef84828501613144565b91505092915050565b6000806040838503121561350b57600080fd5b600083013567ffffffffffffffff81111561352557600080fd5b61353185828601613144565b925050602083013567ffffffffffffffff81111561354e57600080fd5b61355a858286016130f0565b9150509250929050565b60006020828403121561357657600080fd5b600061358484828501613275565b91505092915050565b60006135998383613b35565b60208301905092915050565b60006135b18383613b80565b60208301905092915050565b6135c6816144de565b82525050565b6135d5816144de565b82525050565b60006135e682614131565b6135f0818561416c565b93506135fb83614117565b8060005b8381101561362c578151613613888261358d565b975061361e83614152565b9250506001810190506135ff565b5085935050505092915050565b6136428161413c565b61364c818461417d565b925061365782614127565b8060005b8381101561368857815161366f87826135a5565b965061367a8361415f565b92505060018101905061365b565b505050505050565b613699816144f0565b82525050565b6136a8816144fc565b82525050565b6136bf6136ba826144fc565b6146b0565b82525050565b6136ce8161455b565b82525050565b60006136df82614147565b6136e98185614188565b93506136f981856020860161457c565b61370281614776565b840191505092915050565b600061371882614147565b6137228185614199565b935061373281856020860161457c565b61373b81614776565b840191505092915050565b600061375182614147565b61375b81856141aa565b935061376b81856020860161457c565b80840191505092915050565b6000613784601283614199565b915061378f82614794565b602082019050919050565b60006137a7602383614199565b91506137b2826147bd565b604082019050919050565b60006137ca601583614199565b91506137d58261480c565b602082019050919050565b60006137ed601483614199565b91506137f882614835565b602082019050919050565b6000613810602283614199565b915061381b8261485e565b604082019050919050565b6000613833601c836141aa565b915061383e826148ad565b601c82019050919050565b6000613856602183614199565b9150613861826148d6565b604082019050919050565b6000613879602683614199565b915061388482614925565b604082019050919050565b600061389c602283614199565b91506138a782614974565b604082019050919050565b60006138bf601d83614199565b91506138ca826149c3565b602082019050919050565b60006138e2602683614199565b91506138ed826149ec565b604082019050919050565b6000613905602083614199565b915061391082614a3b565b602082019050919050565b6000613928601083614199565b915061393382614a64565b602082019050919050565b600061394b602e83614199565b915061395682614a8d565b604082019050919050565b600061396e602083614199565b915061397982614adc565b602082019050919050565b6000613991602183614199565b915061399c82614b05565b604082019050919050565b60006139b4602683614199565b91506139bf82614b54565b604082019050919050565b60006139d7602583614199565b91506139e282614ba3565b604082019050919050565b60006139fa601983614199565b9150613a0582614bf2565b602082019050919050565b6000613a1d602483614199565b9150613a2882614c1b565b604082019050919050565b6000613a40602b83614199565b9150613a4b82614c6a565b604082019050919050565b6000613a63601883614199565b9150613a6e82614cb9565b602082019050919050565b6000613a86602583614199565b9150613a9182614ce2565b604082019050919050565b6000613aa9601f83614199565b9150613ab482614d31565b602082019050919050565b600060a0830160008301518482036000860152613adc82826136d4565b9150506020830151613af160208601826135bd565b506040830151613b046040860182613b71565b506060830151613b176060860182613b53565b506080830151613b2a6080860182613b35565b508091505092915050565b613b3e81614506565b82525050565b613b4d81614506565b82525050565b613b5c81614534565b82525050565b613b6b81614534565b82525050565b613b7a8161453e565b82525050565b613b898161454e565b82525050565b613b988161454e565b82525050565b6000613baa8284613746565b915081905092915050565b6000613bc082613826565b9150613bcc82846136ae565b60208201915081905092915050565b6000602082019050613bf060008301846135cc565b92915050565b60006020820190508181036000830152613c1081846135db565b905092915050565b600060a082019050613c2d6000830184613639565b92915050565b6000602082019050613c486000830184613690565b92915050565b6000602082019050613c63600083018461369f565b92915050565b6000608082019050613c7e600083018761369f565b613c8b6020830186613b8f565b613c98604083018561369f565b613ca5606083018461369f565b95945050505050565b6000602082019050613cc360008301846136c5565b92915050565b60006020820190508181036000830152613ce3818461370d565b905092915050565b60006020820190508181036000830152613d0481613777565b9050919050565b60006020820190508181036000830152613d248161379a565b9050919050565b60006020820190508181036000830152613d44816137bd565b9050919050565b60006020820190508181036000830152613d64816137e0565b9050919050565b60006020820190508181036000830152613d8481613803565b9050919050565b60006020820190508181036000830152613da481613849565b9050919050565b60006020820190508181036000830152613dc48161386c565b9050919050565b60006020820190508181036000830152613de48161388f565b9050919050565b60006020820190508181036000830152613e04816138b2565b9050919050565b60006020820190508181036000830152613e24816138d5565b9050919050565b60006020820190508181036000830152613e44816138f8565b9050919050565b60006020820190508181036000830152613e648161391b565b9050919050565b60006020820190508181036000830152613e848161393e565b9050919050565b60006020820190508181036000830152613ea481613961565b9050919050565b60006020820190508181036000830152613ec481613984565b9050919050565b60006020820190508181036000830152613ee4816139a7565b9050919050565b60006020820190508181036000830152613f04816139ca565b9050919050565b60006020820190508181036000830152613f24816139ed565b9050919050565b60006020820190508181036000830152613f4481613a10565b9050919050565b60006020820190508181036000830152613f6481613a33565b9050919050565b60006020820190508181036000830152613f8481613a56565b9050919050565b60006020820190508181036000830152613fa481613a79565b9050919050565b60006020820190508181036000830152613fc481613a9c565b9050919050565b60006020820190508181036000830152613fe58184613abf565b905092915050565b60006020820190506140026000830184613b44565b92915050565b600060208201905061401d6000830184613b62565b92915050565b60006020820190506140386000830184613b8f565b92915050565b6000614048614059565b905061405482826145e1565b919050565b6000604051905090565b600067ffffffffffffffff82111561407e5761407d614747565b5b602082029050602081019050919050565b600067ffffffffffffffff8211156140aa576140a9614747565b5b602082029050919050565b600067ffffffffffffffff8211156140d0576140cf614747565b5b6140d982614776565b9050602081019050919050565b600067ffffffffffffffff82111561410157614100614747565b5b61410a82614776565b9050602081019050919050565b6000819050602082019050919050565b6000819050919050565b600081519050919050565b600060059050919050565b600081519050919050565b6000602082019050919050565b6000602082019050919050565b600082825260208201905092915050565b600081905092915050565b600082825260208201905092915050565b600082825260208201905092915050565b600081905092915050565b60006141c082614506565b91506141cb83614506565b92508261ffff038211156141e2576141e16146ba565b5b828201905092915050565b60006141f882614534565b915061420383614534565b9250827fffffffffffffffffffffffffffffffffffffffffffffffffffffffffffffffff03821115614238576142376146ba565b5b828201905092915050565b600061424e8261454e565b91506142598361454e565b92508260ff0382111561426f5761426e6146ba565b5b828201905092915050565b600061428582614534565b915061429083614534565b9250826142a05761429f6146e9565b5b828204905092915050565b6000808291508390505b60018511156142f5578086048111156142d1576142d06146ba565b5b60018516156142e05780820291505b80810290506142ee85614787565b94506142b5565b94509492505050565b600061430982614534565b91506143148361454e565b92506143417fffffffffffffffffffffffffffffffffffffffffffffffffffffffffffffffff8484614349565b905092915050565b6000826143595760019050614415565b816143675760009050614415565b816001811461437d5760028114614387576143b6565b6001915050614415565b60ff841115614399576143986146ba565b5b8360020a9150848211156143b0576143af6146ba565b5b50614415565b5060208310610133831016604e8410600b84101617156143eb5782820a9050838111156143e6576143e56146ba565b5b614415565b6143f884848460016142ab565b9250905081840481111561440f5761440e6146ba565b5b81810290505b9392505050565b600061442782614534565b915061443283614534565b9250817fffffffffffffffffffffffffffffffffffffffffffffffffffffffffffffffff048311821515161561446b5761446a6146ba565b5b828202905092915050565b600061448182614506565b915061448c83614506565b92508282101561449f5761449e6146ba565b5b828203905092915050565b60006144b582614534565b91506144c083614534565b9250828210156144d3576144d26146ba565b5b828203905092915050565b60006144e982614514565b9050919050565b60008115159050919050565b6000819050919050565b600061ffff82169050919050565b600073ffffffffffffffffffffffffffffffffffffffff82169050919050565b6000819050919050565b600063ffffffff82169050919050565b600060ff82169050919050565b60006145668261454e565b9050919050565b82818337600083830152505050565b60005b8381101561459a57808201518184015260208101905061457f565b838111156145a9576000848401525b50505050565b600060028204905060018216806145c757607f821691505b602082108114156145db576145da614718565b5b50919050565b6145ea82614776565b810181811067ffffffffffffffff8211171561460957614608614747565b5b80604052505050565b600061461d82614506565b915061ffff821415614632576146316146ba565b5b600182019050919050565b600061464882614534565b91507fffffffffffffffffffffffffffffffffffffffffffffffffffffffffffffffff82141561467b5761467a6146ba565b5b600182019050919050565b60006146918261454e565b915060ff8214156146a5576146a46146ba565b5b600182019050919050565b6000819050919050565b7f4e487b7100000000000000000000000000000000000000000000000000000000600052601160045260246000fd5b7f4e487b7100000000000000000000000000000000000000000000000000000000600052601260045260246000fd5b7f4e487b7100000000000000000000000000000000000000000000000000000000600052602260045260246000fd5b7f4e487b7100000000000000000000000000000000000000000000000000000000600052604160045260246000fd5b6000601f19601f8301169050919050565b60008160011c9050919050565b7f4d65737361676520697320657870697265640000000000000000000000000000600082015250565b7f45524332303a207472616e7366657220746f20746865207a65726f206164647260008201527f6573730000000000000000000000000000000000000000000000000000000000602082015250565b7f45524332304361707065643a2063617020697320300000000000000000000000600082015250565b7f5061757361626c653a206e6f7420706175736564000000000000000000000000600082015250565b7f45524332303a206275726e20616d6f756e7420657863656564732062616c616e60008201527f6365000000000000000000000000000000000000000000000000000000000000602082015250565b7f19457468657265756d205369676e6564204d6573736167653a0a333200000000600082015250565b7f45524332303a2072657761726420746f20746865207a65726f2061646472657360008201527f7300000000000000000000000000000000000000000000000000000000000000602082015250565b7f4f776e61626c653a206e6577206f776e657220697320746865207a65726f206160008201527f6464726573730000000000000000000000000000000000000000000000000000602082015250565b7f45524332303a20617070726f766520746f20746865207a65726f20616464726560008201527f7373000000000000000000000000000000000000000000000000000000000000602082015250565b7f45524332303a20696e73756666696369656e7420616c6c6f77616e6365000000600082015250565b7f45524332303a207472616e7366657220616d6f756e742065786365656473206260008201527f616c616e63650000000000000000000000000000000000000000000000000000602082015250565b7f4c696d6974206f66207468697320626f756e7479206973206578636565646564600082015250565b7f5061757361626c653a2070617573656400000000000000000000000000000000600082015250565b7f496e697469616c697a61626c653a20636f6e747261637420697320616c72656160008201527f647920696e697469616c697a6564000000000000000000000000000000000000602082015250565b7f4f776e61626c653a2063616c6c6572206973206e6f7420746865206f776e6572600082015250565b7f45524332303a206275726e2066726f6d20746865207a65726f2061646472657360008201527f7300000000000000000000000000000000000000000000000000000000000000602082015250565b7f45524332303a20616d6f756e74206d757374206265206869676865722074686160008201527f6e207a65726f0000000000000000000000000000000000000000000000000000602082015250565b7f45524332303a207472616e736665722066726f6d20746865207a65726f20616460008201527f6472657373000000000000000000000000000000000000000000000000000000602082015250565b7f45524332304361707065643a2063617020657863656564656400000000000000600082015250565b7f45524332303a20617070726f76652066726f6d20746865207a65726f2061646460008201527f7265737300000000000000000000000000000000000000000000000000000000602082015250565b7f496e697469616c697a61626c653a20636f6e7472616374206973206e6f74206960008201527f6e697469616c697a696e67000000000000000000000000000000000000000000602082015250565b7f696e76616c6964207369676e6174757265206c656e6774680000000000000000600082015250565b7f45524332303a2064656372656173656420616c6c6f77616e63652062656c6f7760008201527f207a65726f000000000000000000000000000000000000000000000000000000602082015250565b7f45524332303a206d696e7420746f20746865207a65726f206164647265737300600082015250565b614d63816144de565b8114614d6e57600080fd5b50565b614d7a816144fc565b8114614d8557600080fd5b50565b614d9181614506565b8114614d9c57600080fd5b50565b614da881614534565b8114614db357600080fd5b50565b614dbf8161453e565b8114614dca57600080fd5b5056fea264697066735822122089e2117e2b01da7cd100fcc00dee8597514a3b2255d3c650c8ddf2ceecb2ee6764736f6c63430008040033",
  "linkReferences": {},
  "deployedLinkReferences": {}
}