{
  "_format": "hh-sol-artifact-1",
  "contractName": "Duckies",
  "sourceName": "contracts/Duckies.sol",
  "abi": [
    {
      "inputs": [],
      "stateMutability": "nonpayable",
      "type": "constructor"
    },
    {
      "anonymous": false,
      "inputs": [
        {
          "indexed": true,
          "internalType": "address",
          "name": "owner",
          "type": "address"
        },
        {
          "indexed": true,
          "internalType": "address",
          "name": "spender",
          "type": "address"
        },
        {
          "indexed": false,
          "internalType": "uint256",
          "name": "value",
          "type": "uint256"
        }
      ],
      "name": "Approval",
      "type": "event"
    },
    {
      "anonymous": false,
      "inputs": [
        {
          "indexed": false,
          "internalType": "uint8",
          "name": "version",
          "type": "uint8"
        }
      ],
      "name": "Initialized",
      "type": "event"
    },
    {
      "anonymous": false,
      "inputs": [
        {
          "indexed": true,
          "internalType": "address",
          "name": "previousOwner",
          "type": "address"
        },
        {
          "indexed": true,
          "internalType": "address",
          "name": "newOwner",
          "type": "address"
        }
      ],
      "name": "OwnershipTransferred",
      "type": "event"
    },
    {
      "anonymous": false,
      "inputs": [
        {
          "indexed": false,
          "internalType": "address",
          "name": "account",
          "type": "address"
        }
      ],
      "name": "Paused",
      "type": "event"
    },
    {
      "anonymous": false,
      "inputs": [
        {
          "indexed": true,
          "internalType": "address",
          "name": "from",
          "type": "address"
        },
        {
          "indexed": true,
          "internalType": "address",
          "name": "to",
          "type": "address"
        },
        {
          "indexed": false,
          "internalType": "uint256",
          "name": "value",
          "type": "uint256"
        }
      ],
      "name": "Transfer",
      "type": "event"
    },
    {
      "anonymous": false,
      "inputs": [
        {
          "indexed": false,
          "internalType": "address",
          "name": "account",
          "type": "address"
        }
      ],
      "name": "Unpaused",
      "type": "event"
    },
    {
      "inputs": [
        {
          "internalType": "uint256",
          "name": "",
          "type": "uint256"
        }
      ],
      "name": "_payouts",
      "outputs": [
        {
          "internalType": "uint16",
          "name": "",
          "type": "uint16"
        }
      ],
      "stateMutability": "view",
      "type": "function"
    },
    {
      "inputs": [
        {
          "internalType": "address",
          "name": "owner",
          "type": "address"
        },
        {
          "internalType": "address",
          "name": "spender",
          "type": "address"
        }
      ],
      "name": "allowance",
      "outputs": [
        {
          "internalType": "uint256",
          "name": "",
          "type": "uint256"
        }
      ],
      "stateMutability": "view",
      "type": "function"
    },
    {
      "inputs": [
        {
          "internalType": "address",
          "name": "spender",
          "type": "address"
        },
        {
          "internalType": "uint256",
          "name": "amount",
          "type": "uint256"
        }
      ],
      "name": "approve",
      "outputs": [
        {
          "internalType": "bool",
          "name": "",
          "type": "bool"
        }
      ],
      "stateMutability": "nonpayable",
      "type": "function"
    },
    {
      "inputs": [
        {
          "internalType": "address",
          "name": "account",
          "type": "address"
        }
      ],
      "name": "balanceOf",
      "outputs": [
        {
          "internalType": "uint256",
          "name": "",
          "type": "uint256"
        }
      ],
      "stateMutability": "view",
      "type": "function"
    },
    {
      "inputs": [
        {
          "internalType": "uint256",
          "name": "amount",
          "type": "uint256"
        }
      ],
      "name": "burn",
      "outputs": [],
      "stateMutability": "nonpayable",
      "type": "function"
    },
    {
      "inputs": [
        {
          "internalType": "address",
          "name": "account",
          "type": "address"
        },
        {
          "internalType": "uint256",
          "name": "amount",
          "type": "uint256"
        }
      ],
      "name": "burnFrom",
      "outputs": [],
      "stateMutability": "nonpayable",
      "type": "function"
    },
    {
      "inputs": [],
      "name": "cap",
      "outputs": [
        {
          "internalType": "uint256",
          "name": "",
          "type": "uint256"
        }
      ],
      "stateMutability": "view",
      "type": "function"
    },
    {
      "inputs": [
        {
          "components": [
            {
              "components": [
                {
                  "internalType": "string",
                  "name": "id",
                  "type": "string"
                },
                {
                  "internalType": "address",
                  "name": "ref",
                  "type": "address"
                },
                {
                  "internalType": "uint32",
                  "name": "amt",
                  "type": "uint32"
                },
                {
                  "internalType": "uint256",
                  "name": "blockExpiration",
                  "type": "uint256"
                },
                {
                  "internalType": "uint16",
                  "name": "limit",
                  "type": "uint16"
                }
              ],
              "internalType": "struct Duckies.Message",
              "name": "message",
              "type": "tuple"
            },
            {
              "internalType": "bytes",
              "name": "signature",
              "type": "bytes"
            }
          ],
          "internalType": "struct Duckies.Reward[]",
          "name": "rewards",
          "type": "tuple[]"
        }
      ],
      "name": "claimRewards",
      "outputs": [],
      "stateMutability": "nonpayable",
      "type": "function"
    },
    {
      "inputs": [],
      "name": "decimals",
      "outputs": [
        {
          "internalType": "uint8",
          "name": "",
          "type": "uint8"
        }
      ],
      "stateMutability": "view",
      "type": "function"
    },
    {
      "inputs": [
        {
          "internalType": "address",
          "name": "spender",
          "type": "address"
        },
        {
          "internalType": "uint256",
          "name": "subtractedValue",
          "type": "uint256"
        }
      ],
      "name": "decreaseAllowance",
      "outputs": [
        {
          "internalType": "bool",
          "name": "",
          "type": "bool"
        }
      ],
      "stateMutability": "nonpayable",
      "type": "function"
    },
    {
      "inputs": [
        {
          "internalType": "string",
          "name": "bountyID",
          "type": "string"
        }
      ],
      "name": "getAccountBountyLimit",
      "outputs": [
        {
          "internalType": "uint16",
          "name": "",
          "type": "uint16"
        }
      ],
      "stateMutability": "view",
      "type": "function"
    },
    {
      "inputs": [],
      "name": "getAffiliatesCount",
      "outputs": [
        {
          "internalType": "uint8[5]",
          "name": "",
          "type": "uint8[5]"
        }
      ],
      "stateMutability": "view",
      "type": "function"
    },
    {
      "inputs": [
        {
          "internalType": "bytes32",
          "name": "_messageHash",
          "type": "bytes32"
        }
      ],
      "name": "getEthSignedMessageHash",
      "outputs": [
        {
          "internalType": "bytes32",
          "name": "",
          "type": "bytes32"
        }
      ],
      "stateMutability": "pure",
      "type": "function"
    },
    {
      "inputs": [
        {
          "components": [
            {
              "internalType": "string",
              "name": "id",
              "type": "string"
            },
            {
              "internalType": "address",
              "name": "ref",
              "type": "address"
            },
            {
              "internalType": "uint32",
              "name": "amt",
              "type": "uint32"
            },
            {
              "internalType": "uint256",
              "name": "blockExpiration",
              "type": "uint256"
            },
            {
              "internalType": "uint16",
              "name": "limit",
              "type": "uint16"
            }
          ],
          "internalType": "struct Duckies.Message",
          "name": "_message",
          "type": "tuple"
        }
      ],
      "name": "getMessageHash",
      "outputs": [
        {
          "internalType": "bytes32",
          "name": "",
          "type": "bytes32"
        }
      ],
      "stateMutability": "pure",
      "type": "function"
    },
    {
      "inputs": [],
      "name": "getPayouts",
      "outputs": [
        {
          "internalType": "uint16[]",
          "name": "",
          "type": "uint16[]"
        }
      ],
      "stateMutability": "view",
      "type": "function"
    },
    {
      "inputs": [
        {
          "internalType": "address",
          "name": "spender",
          "type": "address"
        },
        {
          "internalType": "uint256",
          "name": "addedValue",
          "type": "uint256"
        }
      ],
      "name": "increaseAllowance",
      "outputs": [
        {
          "internalType": "bool",
          "name": "",
          "type": "bool"
        }
      ],
      "stateMutability": "nonpayable",
      "type": "function"
    },
    {
      "inputs": [
        {
          "internalType": "address",
          "name": "issuer",
          "type": "address"
        }
      ],
      "name": "initialize",
      "outputs": [],
      "stateMutability": "nonpayable",
      "type": "function"
    },
    {
      "inputs": [
        {
          "internalType": "address",
          "name": "to",
          "type": "address"
        },
        {
          "internalType": "uint256",
          "name": "amount",
          "type": "uint256"
        }
      ],
      "name": "mint",
      "outputs": [],
      "stateMutability": "nonpayable",
      "type": "function"
    },
    {
      "inputs": [],
      "name": "name",
      "outputs": [
        {
          "internalType": "string",
          "name": "",
          "type": "string"
        }
      ],
      "stateMutability": "view",
      "type": "function"
    },
    {
      "inputs": [],
      "name": "owner",
      "outputs": [
        {
          "internalType": "address",
          "name": "",
          "type": "address"
        }
      ],
      "stateMutability": "view",
      "type": "function"
    },
    {
      "inputs": [],
      "name": "pause",
      "outputs": [],
      "stateMutability": "nonpayable",
      "type": "function"
    },
    {
      "inputs": [],
      "name": "paused",
      "outputs": [
        {
          "internalType": "bool",
          "name": "",
          "type": "bool"
        }
      ],
      "stateMutability": "view",
      "type": "function"
    },
    {
      "inputs": [
        {
          "internalType": "bytes32",
          "name": "_ethSignedMessageHash",
          "type": "bytes32"
        },
        {
          "internalType": "bytes",
          "name": "_sig",
          "type": "bytes"
        }
      ],
      "name": "recover",
      "outputs": [
        {
          "internalType": "address",
          "name": "",
          "type": "address"
        }
      ],
      "stateMutability": "pure",
      "type": "function"
    },
    {
      "inputs": [],
      "name": "renounceOwnership",
      "outputs": [],
      "stateMutability": "nonpayable",
      "type": "function"
    },
    {
      "inputs": [
        {
          "components": [
            {
              "internalType": "string",
              "name": "id",
              "type": "string"
            },
            {
              "internalType": "address",
              "name": "ref",
              "type": "address"
            },
            {
              "internalType": "uint32",
              "name": "amt",
              "type": "uint32"
            },
            {
              "internalType": "uint256",
              "name": "blockExpiration",
              "type": "uint256"
            },
            {
              "internalType": "uint16",
              "name": "limit",
              "type": "uint16"
            }
          ],
          "internalType": "struct Duckies.Message",
          "name": "_message",
          "type": "tuple"
        },
        {
          "internalType": "bytes",
          "name": "_sig",
          "type": "bytes"
        }
      ],
      "name": "reward",
      "outputs": [],
      "stateMutability": "nonpayable",
      "type": "function"
    },
    {
      "inputs": [
        {
          "internalType": "uint16[5]",
          "name": "payouts",
          "type": "uint16[5]"
        }
      ],
      "name": "setPayouts",
      "outputs": [],
      "stateMutability": "nonpayable",
      "type": "function"
    },
    {
      "inputs": [],
      "name": "symbol",
      "outputs": [
        {
          "internalType": "string",
          "name": "",
          "type": "string"
        }
      ],
      "stateMutability": "view",
      "type": "function"
    },
    {
      "inputs": [],
      "name": "totalSupply",
      "outputs": [
        {
          "internalType": "uint256",
          "name": "",
          "type": "uint256"
        }
      ],
      "stateMutability": "view",
      "type": "function"
    },
    {
      "inputs": [
        {
          "internalType": "address",
          "name": "to",
          "type": "address"
        },
        {
          "internalType": "uint256",
          "name": "amount",
          "type": "uint256"
        }
      ],
      "name": "transfer",
      "outputs": [
        {
          "internalType": "bool",
          "name": "",
          "type": "bool"
        }
      ],
      "stateMutability": "nonpayable",
      "type": "function"
    },
    {
      "inputs": [
        {
          "internalType": "address",
          "name": "from",
          "type": "address"
        },
        {
          "internalType": "address",
          "name": "to",
          "type": "address"
        },
        {
          "internalType": "uint256",
          "name": "amount",
          "type": "uint256"
        }
      ],
      "name": "transferFrom",
      "outputs": [
        {
          "internalType": "bool",
          "name": "",
          "type": "bool"
        }
      ],
      "stateMutability": "nonpayable",
      "type": "function"
    },
    {
      "inputs": [
        {
          "internalType": "address",
          "name": "newOwner",
          "type": "address"
        }
      ],
      "name": "transferOwnership",
      "outputs": [],
      "stateMutability": "nonpayable",
      "type": "function"
    },
    {
      "inputs": [],
      "name": "unpause",
      "outputs": [],
      "stateMutability": "nonpayable",
      "type": "function"
    }
  ],
  "bytecode": "0x60806040523480156200001157600080fd5b50620000226200002860201b60201c565b6200020f565b6200003a60ff6200003d60201b60201c565b50565b60008060019054906101000a900460ff1615620000c75760018260ff161480156200007b575062000079306200014360201b620018831760201c565b155b620000bd576040517f08c379a0000000000000000000000000000000000000000000000000000000008152600401620000b4906200018d565b60405180910390fd5b600090506200013e565b8160ff1660008054906101000a900460ff1660ff16106200011f576040517f08c379a000000000000000000000000000000000000000000000000000000000815260040162000116906200018d565b60405180910390fd5b816000806101000a81548160ff021916908360ff160217905550600190505b919050565b6000808273ffffffffffffffffffffffffffffffffffffffff163b119050919050565b600062000175602e83620001af565b91506200018282620001c0565b604082019050919050565b60006020820190508181036000830152620001a88162000166565b9050919050565b600082825260208201905092915050565b7f496e697469616c697a61626c653a20636f6e747261637420697320616c72656160008201527f647920696e697469616c697a6564000000000000000000000000000000000000602082015250565b614e1b806200021f6000396000f3fe608060405234801561001057600080fd5b50600436106101f05760003560e01c80636bf90c841161010f578063a9059cbb116100a2578063f2fde38b11610071578063f2fde38b14610595578063f6a1100d146105b1578063fa540801146105e1578063fd7452fc14610611576101f0565b8063a9059cbb146104fd578063c4d66de81461052d578063cb1c9c2114610549578063dd62ed3e14610565576101f0565b80638456cb59116100de5780638456cb59146104875780638da5cb5b1461049157806395d89b41146104af578063a457c2d7146104cd576101f0565b80636bf90c841461041357806370a0823114610431578063715018a61461046157806379cc67901461046b576101f0565b806334c4b14b1161018757806340c10f191161015657806340c10f19146103a157806342966c68146103bd5780635c975abb146103d95780635ddd8711146103f7576101f0565b806334c4b14b1461032b578063355274ea1461034957806339509351146103675780633f4ba83a14610397576101f0565b806319045a25116101c357806319045a251461029157806323b872dd146102c1578063313ce567146102f157806332751ee61461030f576101f0565b806306fdde03146101f5578063095ea7b3146102135780631626bb351461024357806318160ddd14610273575b600080fd5b6101fd610641565b60405161020a9190613ce1565b60405180910390f35b61022d6004803603810190610228919061336b565b6106d3565b60405161023a9190613c4b565b60405180910390f35b61025d6004803603810190610258919061357c565b6106f6565b60405161026a9190614005565b60405180910390f35b61027b61072e565b6040516102889190614020565b60405180910390f35b6102ab60048036038101906102a6919061343a565b610738565b6040516102b89190613bf3565b60405180910390f35b6102db60048036038101906102d6919061331c565b6107a7565b6040516102e89190613c4b565b60405180910390f35b6102f96107d6565b604051610306919061403b565b60405180910390f35b610329600480360381019061032491906133a7565b6107df565b005b61033361089d565b6040516103409190613c30565b60405180910390f35b6103516108f0565b60405161035e9190614020565b60405180910390f35b610381600480360381019061037c919061336b565b6108fa565b60405161038e9190613c4b565b60405180910390f35b61039f610931565b005b6103bb60048036038101906103b6919061336b565b6109b7565b005b6103d760048036038101906103d2919061357c565b610a41565b005b6103e1610ad1565b6040516103ee9190613c4b565b60405180910390f35b610411600480360381019061040c9190613510565b610ae8565b005b61041b610fca565b6040516104289190613c0e565b60405180910390f35b61044b600480360381019061044691906132b7565b61104a565b6040516104589190614020565b60405180910390f35b610469611093565b005b6104856004803603810190610480919061336b565b61111b565b005b61048f6111b7565b005b61049961123d565b6040516104a69190613bf3565b60405180910390f35b6104b7611267565b6040516104c49190613ce1565b60405180910390f35b6104e760048036038101906104e2919061336b565b6112f9565b6040516104f49190613c4b565b60405180910390f35b6105176004803603810190610512919061336b565b611370565b6040516105249190613c4b565b60405180910390f35b610547600480360381019061054291906132b7565b611393565b005b610563600480360381019061055e91906133e8565b61159f565b005b61057f600480360381019061057a91906132e0565b611630565b60405161058c9190614020565b60405180910390f35b6105af60048036038101906105aa91906132b7565b6116b7565b005b6105cb60048036038101906105c6919061348e565b6117af565b6040516105d89190614005565b60405180910390f35b6105fb60048036038101906105f69190613411565b611823565b6040516106089190613c66565b60405180910390f35b61062b600480360381019061062691906134cf565b611853565b6040516106389190613c66565b60405180910390f35b606060368054610650906145c7565b80601f016020809104026020016040519081016040528092919081815260200182805461067c906145c7565b80156106c95780601f1061069e576101008083540402835291602001916106c9565b820191906000526020600020905b8154815290600101906020018083116106ac57829003601f168201915b5050505050905090565b6000806106de6118a6565b90506106eb8185856118ae565b600191505092915050565b60ff818154811061070657600080fd5b9060005260206000209060109182820401919006600202915054906101000a900461ffff1681565b6000603554905090565b60008060008061074785611a79565b925092509250600186828585604051600081526020016040526040516107709493929190613c81565b6020604051602081039080840390855afa158015610792573d6000803e3d6000fd5b50505060206040510351935050505092915050565b6000806107b26118a6565b90506107bf858285611ae1565b6107ca858585611b6d565b60019150509392505050565b60006002905090565b60005b81518160ff16101561089957610886828260ff168151811061082d577f4e487b7100000000000000000000000000000000000000000000000000000000600052603260045260246000fd5b602002602001015160000151838360ff1681518110610875577f4e487b7100000000000000000000000000000000000000000000000000000000600052603260045260246000fd5b602002602001015160200151610ae8565b80806108919061469e565b9150506107e2565b5050565b6108a5612db9565b6108eb3360016040518060a00160405280600060ff168152602001600060ff168152602001600060ff168152602001600060ff168152602001600060ff16815250611df1565b905090565b6000606554905090565b6000806109056118a6565b90506109268185856109178589611630565b6109219190614205565b6118ae565b600191505092915050565b6109396118a6565b73ffffffffffffffffffffffffffffffffffffffff1661095761123d565b73ffffffffffffffffffffffffffffffffffffffff16146109ad576040517f08c379a00000000000000000000000000000000000000000000000000000000081526004016109a490613ea3565b60405180910390fd5b6109b5611fbc565b565b6109bf6118a6565b73ffffffffffffffffffffffffffffffffffffffff166109dd61123d565b73ffffffffffffffffffffffffffffffffffffffff1614610a33576040517f08c379a0000000000000000000000000000000000000000000000000000000008152600401610a2a90613ea3565b60405180910390fd5b610a3d828261205e565b5050565b610a496118a6565b73ffffffffffffffffffffffffffffffffffffffff16610a6761123d565b73ffffffffffffffffffffffffffffffffffffffff1614610abd576040517f08c379a0000000000000000000000000000000000000000000000000000000008152600401610ab490613ea3565b60405180910390fd5b610ace610ac86118a6565b826120c8565b50565b6000609860009054906101000a900460ff16905090565b6000610af383611853565b90506000610b0082611823565b90508360600151431115610b49576040517f08c379a0000000000000000000000000000000000000000000000000000000008152600401610b4090613d03565b60405180910390fd5b60fc60009054906101000a900473ffffffffffffffffffffffffffffffffffffffff1673ffffffffffffffffffffffffffffffffffffffff16610b8c8285610738565b73ffffffffffffffffffffffffffffffffffffffff1614610bac57600080fd5b600073ffffffffffffffffffffffffffffffffffffffff16846020015173ffffffffffffffffffffffffffffffffffffffff1614610e4a57600073ffffffffffffffffffffffffffffffffffffffff1660fd60003373ffffffffffffffffffffffffffffffffffffffff1673ffffffffffffffffffffffffffffffffffffffff16815260200190815260200160002060009054906101000a900473ffffffffffffffffffffffffffffffffffffffff1673ffffffffffffffffffffffffffffffffffffffff1614610c7c57600080fd5b836020015173ffffffffffffffffffffffffffffffffffffffff163373ffffffffffffffffffffffffffffffffffffffff161415610cb957600080fd5b610cc73385602001516122a1565b610cd057600080fd5b600060fe60003373ffffffffffffffffffffffffffffffffffffffff1673ffffffffffffffffffffffffffffffffffffffff1681526020019081526020016000208054905014610d1f57600080fd5b836020015160fd60003373ffffffffffffffffffffffffffffffffffffffff1673ffffffffffffffffffffffffffffffffffffffff16815260200190815260200160002060006101000a81548173ffffffffffffffffffffffffffffffffffffffff021916908373ffffffffffffffffffffffffffffffffffffffff16021790555060fe6000856020015173ffffffffffffffffffffffffffffffffffffffff1673ffffffffffffffffffffffffffffffffffffffff168152602001908152602001600020339080600181540180825580915050600190039060005260206000200160009091909190916101000a81548173ffffffffffffffffffffffffffffffffffffffff021916908373ffffffffffffffffffffffffffffffffffffffff160217905550610f18565b6000846080015161ffff1614610f1757836080015161ffff1661010060003373ffffffffffffffffffffffffffffffffffffffff1673ffffffffffffffffffffffffffffffffffffffff1681526020019081526020016000208560000151604051610eb59190613bb6565b908152602001604051809103902060009054906101000a900461ffff1661ffff1610610f16576040517f08c379a0000000000000000000000000000000000000000000000000000000008152600401610f0d90613e43565b60405180910390fd5b5b5b610f2b846040015163ffffffff166123d6565b61010060003373ffffffffffffffffffffffffffffffffffffffff1673ffffffffffffffffffffffffffffffffffffffff1681526020019081526020016000208460000151604051610f7d9190613bb6565b9081526020016040518091039020600081819054906101000a900461ffff1680929190610fa99061462a565b91906101000a81548161ffff021916908361ffff1602179055505050505050565b606060ff80548060200260200160405190810160405280929190818152602001828054801561104057602002820191906000526020600020906000905b82829054906101000a900461ffff1661ffff16815260200190600201906020826001010492830192600103820291508084116110075790505b5050505050905090565b6000603360008373ffffffffffffffffffffffffffffffffffffffff1673ffffffffffffffffffffffffffffffffffffffff168152602001908152602001600020549050919050565b61109b6118a6565b73ffffffffffffffffffffffffffffffffffffffff166110b961123d565b73ffffffffffffffffffffffffffffffffffffffff161461110f576040517f08c379a000000000000000000000000000000000000000000000000000000000815260040161110690613ea3565b60405180910390fd5b6111196000612649565b565b6111236118a6565b73ffffffffffffffffffffffffffffffffffffffff1661114161123d565b73ffffffffffffffffffffffffffffffffffffffff1614611197576040517f08c379a000000000000000000000000000000000000000000000000000000000815260040161118e90613ea3565b60405180910390fd5b6111a9826111a36118a6565b83611ae1565b6111b382826120c8565b5050565b6111bf6118a6565b73ffffffffffffffffffffffffffffffffffffffff166111dd61123d565b73ffffffffffffffffffffffffffffffffffffffff1614611233576040517f08c379a000000000000000000000000000000000000000000000000000000000815260040161122a90613ea3565b60405180910390fd5b61123b61270f565b565b600060ca60009054906101000a900473ffffffffffffffffffffffffffffffffffffffff16905090565b606060378054611276906145c7565b80601f01602080910402602001604051908101604052809291908181526020018280546112a2906145c7565b80156112ef5780601f106112c4576101008083540402835291602001916112ef565b820191906000526020600020905b8154815290600101906020018083116112d257829003601f168201915b5050505050905090565b6000806113046118a6565b905060006113128286611630565b905083811015611357576040517f08c379a000000000000000000000000000000000000000000000000000000000815260040161134e90613fa3565b60405180910390fd5b61136482868684036118ae565b60019250505092915050565b60008061137b6118a6565b9050611388818585611b6d565b600191505092915050565b600061139f60016127b2565b905080156113c3576001600060016101000a81548160ff0219169083151502179055505b6114376040518060400160405280600e81526020017f59656c6c6f77204475636b6965730000000000000000000000000000000000008152506040518060400160405280600781526020017f4455434b494553000000000000000000000000000000000000000000000000008152506128a2565b6114636114426107d6565b600a61144e9190614316565b64cec0ecb00061145e9190614434565b6128ff565b61146b61295a565b6114736129b3565b8160fc60006101000a81548173ffffffffffffffffffffffffffffffffffffffff021916908373ffffffffffffffffffffffffffffffffffffffff1602179055506114fd6040518060a001604052806101f461ffff168152602001607d61ffff168152602001605061ffff168152602001603261ffff168152602001601461ffff1681525061159f565b611542336115096107d6565b600a6115159190614316565b6064601464cec0ecb0006115299190614434565b6115339190614292565b61153d9190614434565b61205e565b801561159b5760008060016101000a81548160ff0219169083151502179055507f7f26b83ff96e1f2b6a682f133852f6798a09c465da95921460cefb384740249860016040516115929190613cc6565b60405180910390a15b5050565b6115a76118a6565b73ffffffffffffffffffffffffffffffffffffffff166115c561123d565b73ffffffffffffffffffffffffffffffffffffffff161461161b576040517f08c379a000000000000000000000000000000000000000000000000000000000815260040161161290613ea3565b60405180910390fd5b8060ff90600561162c929190612ddb565b5050565b6000603460008473ffffffffffffffffffffffffffffffffffffffff1673ffffffffffffffffffffffffffffffffffffffff16815260200190815260200160002060008373ffffffffffffffffffffffffffffffffffffffff1673ffffffffffffffffffffffffffffffffffffffff16815260200190815260200160002054905092915050565b6116bf6118a6565b73ffffffffffffffffffffffffffffffffffffffff166116dd61123d565b73ffffffffffffffffffffffffffffffffffffffff1614611733576040517f08c379a000000000000000000000000000000000000000000000000000000000815260040161172a90613ea3565b60405180910390fd5b600073ffffffffffffffffffffffffffffffffffffffff168173ffffffffffffffffffffffffffffffffffffffff1614156117a3576040517f08c379a000000000000000000000000000000000000000000000000000000000815260040161179a90613dc3565b60405180910390fd5b6117ac81612649565b50565b600061010060003373ffffffffffffffffffffffffffffffffffffffff1673ffffffffffffffffffffffffffffffffffffffff168152602001908152602001600020826040516117ff9190613bb6565b908152602001604051809103902060009054906101000a900461ffff169050919050565b6000816040516020016118369190613bcd565b604051602081830303815290604052805190602001209050919050565b6000816040516020016118669190613fe3565b604051602081830303815290604052805190602001209050919050565b6000808273ffffffffffffffffffffffffffffffffffffffff163b119050919050565b600033905090565b600073ffffffffffffffffffffffffffffffffffffffff168373ffffffffffffffffffffffffffffffffffffffff16141561191e576040517f08c379a000000000000000000000000000000000000000000000000000000000815260040161191590613f43565b60405180910390fd5b600073ffffffffffffffffffffffffffffffffffffffff168273ffffffffffffffffffffffffffffffffffffffff16141561198e576040517f08c379a000000000000000000000000000000000000000000000000000000000815260040161198590613de3565b60405180910390fd5b80603460008573ffffffffffffffffffffffffffffffffffffffff1673ffffffffffffffffffffffffffffffffffffffff16815260200190815260200160002060008473ffffffffffffffffffffffffffffffffffffffff1673ffffffffffffffffffffffffffffffffffffffff168152602001908152602001600020819055508173ffffffffffffffffffffffffffffffffffffffff168373ffffffffffffffffffffffffffffffffffffffff167f8c5be1e5ebec7d5bd14f71427d1e84f3dd0314c0f7b2291e5b200ac8c7c3b92583604051611a6c9190614020565b60405180910390a3505050565b60008060006041845114611ac2576040517f08c379a0000000000000000000000000000000000000000000000000000000008152600401611ab990613f83565b60405180910390fd5b6020840151925060408401519150606084015160001a90509193909250565b6000611aed8484611630565b90507fffffffffffffffffffffffffffffffffffffffffffffffffffffffffffffffff8114611b675781811015611b59576040517f08c379a0000000000000000000000000000000000000000000000000000000008152600401611b5090613e03565b60405180910390fd5b611b6684848484036118ae565b5b50505050565b600073ffffffffffffffffffffffffffffffffffffffff168373ffffffffffffffffffffffffffffffffffffffff161415611bdd576040517f08c379a0000000000000000000000000000000000000000000000000000000008152600401611bd490613f03565b60405180910390fd5b600073ffffffffffffffffffffffffffffffffffffffff168273ffffffffffffffffffffffffffffffffffffffff161415611c4d576040517f08c379a0000000000000000000000000000000000000000000000000000000008152600401611c4490613d23565b60405180910390fd5b611c58838383612a0c565b6000603360008573ffffffffffffffffffffffffffffffffffffffff1673ffffffffffffffffffffffffffffffffffffffff16815260200190815260200160002054905081811015611cdf576040517f08c379a0000000000000000000000000000000000000000000000000000000008152600401611cd690613e23565b60405180910390fd5b818103603360008673ffffffffffffffffffffffffffffffffffffffff1673ffffffffffffffffffffffffffffffffffffffff1681526020019081526020016000208190555081603360008573ffffffffffffffffffffffffffffffffffffffff1673ffffffffffffffffffffffffffffffffffffffff1681526020019081526020016000206000828254611d749190614205565b925050819055508273ffffffffffffffffffffffffffffffffffffffff168473ffffffffffffffffffffffffffffffffffffffff167fddf252ad1be2c89b69c2b068fc378daa952ba7f163c4a11628f55a4df523b3ef84604051611dd89190614020565b60405180910390a3611deb848484612a64565b50505050565b611df9612db9565b60058361ffff1611611fb257600060fe60008673ffffffffffffffffffffffffffffffffffffffff1673ffffffffffffffffffffffffffffffffffffffff168152602001908152602001600020805480602002602001604051908101604052809291908181526020018280548015611ec657602002820191906000526020600020905b8160009054906101000a900473ffffffffffffffffffffffffffffffffffffffff1673ffffffffffffffffffffffffffffffffffffffff1681526020019060010190808311611e7c575b50505050509050805183600186611edd919061448e565b61ffff1660058110611f18577f4e487b7100000000000000000000000000000000000000000000000000000000600052603260045260246000fd5b60200201818151611f29919061425b565b91509060ff16908160ff168152505060005b8151811015611faf57611f9b828281518110611f80577f4e487b7100000000000000000000000000000000000000000000000000000000600052603260045260246000fd5b6020026020010151600187611f9591906141cd565b86611df1565b508080611fa790614655565b915050611f3b565b50505b8190509392505050565b611fc4610ad1565b612003576040517f08c379a0000000000000000000000000000000000000000000000000000000008152600401611ffa90613d63565b60405180910390fd5b6000609860006101000a81548160ff0219169083151502179055507f5db9ee0a495bf2e6ff9c91a7834c1ba4fdd244a5e8aa4e537bd38aeae4b073aa6120476118a6565b6040516120549190613bf3565b60405180910390a1565b6120666108f0565b8161206f61072e565b6120799190614205565b11156120ba576040517f08c379a00000000000000000000000000000000000000000000000000000000081526004016120b190613f23565b60405180910390fd5b6120c48282612a69565b5050565b600073ffffffffffffffffffffffffffffffffffffffff168273ffffffffffffffffffffffffffffffffffffffff161415612138576040517f08c379a000000000000000000000000000000000000000000000000000000000815260040161212f90613ec3565b60405180910390fd5b61214482600083612a0c565b6000603360008473ffffffffffffffffffffffffffffffffffffffff1673ffffffffffffffffffffffffffffffffffffffff168152602001908152602001600020549050818110156121cb576040517f08c379a00000000000000000000000000000000000000000000000000000000081526004016121c290613d83565b60405180910390fd5b818103603360008573ffffffffffffffffffffffffffffffffffffffff1673ffffffffffffffffffffffffffffffffffffffff16815260200190815260200160002081905550816035600082825461222391906144c2565b92505081905550600073ffffffffffffffffffffffffffffffffffffffff168373ffffffffffffffffffffffffffffffffffffffff167fddf252ad1be2c89b69c2b068fc378daa952ba7f163c4a11628f55a4df523b3ef846040516122889190614020565b60405180910390a361229c83600084612a64565b505050565b60008082905060005b60058160ff1610156123c9578473ffffffffffffffffffffffffffffffffffffffff1660fd60008473ffffffffffffffffffffffffffffffffffffffff1673ffffffffffffffffffffffffffffffffffffffff16815260200190815260200160002060009054906101000a900473ffffffffffffffffffffffffffffffffffffffff1673ffffffffffffffffffffffffffffffffffffffff161415612354576000925050506123d0565b60fd60008373ffffffffffffffffffffffffffffffffffffffff1673ffffffffffffffffffffffffffffffffffffffff16815260200190815260200160002060009054906101000a900473ffffffffffffffffffffffffffffffffffffffff16915080806123c19061469e565b9150506122aa565b5060019150505b92915050565b600073ffffffffffffffffffffffffffffffffffffffff163373ffffffffffffffffffffffffffffffffffffffff161415612446576040517f08c379a000000000000000000000000000000000000000000000000000000000815260040161243d90613da3565b60405180910390fd5b60008111612489576040517f08c379a000000000000000000000000000000000000000000000000000000000815260040161248090613ee3565b60405180910390fd5b612493338261205e565b600060fd60003373ffffffffffffffffffffffffffffffffffffffff1673ffffffffffffffffffffffffffffffffffffffff16815260200190815260200160002060009054906101000a900473ffffffffffffffffffffffffffffffffffffffff16905060005b60ff805490508160ff16101561264457600073ffffffffffffffffffffffffffffffffffffffff168273ffffffffffffffffffffffffffffffffffffffff16141561254457612644565b6000606460ff8360ff1681548110612585577f4e487b7100000000000000000000000000000000000000000000000000000000600052603260045260246000fd5b90600052602060002090601091828204019190066002029054906101000a900461ffff1661ffff16856125b89190614434565b6125c29190614292565b90506125ce838261205e565b60fd60008473ffffffffffffffffffffffffffffffffffffffff1673ffffffffffffffffffffffffffffffffffffffff16815260200190815260200160002060009054906101000a900473ffffffffffffffffffffffffffffffffffffffff16925050808061263c9061469e565b9150506124fa565b505050565b600060ca60009054906101000a900473ffffffffffffffffffffffffffffffffffffffff1690508160ca60006101000a81548173ffffffffffffffffffffffffffffffffffffffff021916908373ffffffffffffffffffffffffffffffffffffffff1602179055508173ffffffffffffffffffffffffffffffffffffffff168173ffffffffffffffffffffffffffffffffffffffff167f8be0079c531659141344cd1fd0a4f28419497f9722a3daafe3b4186f6b6457e060405160405180910390a35050565b612717610ad1565b15612757576040517f08c379a000000000000000000000000000000000000000000000000000000000815260040161274e90613e63565b60405180910390fd5b6001609860006101000a81548160ff0219169083151502179055507f62e78cea01bee320cd4e420270b5ea74000d11b0c9f74754ebdbfc544b05a25861279b6118a6565b6040516127a89190613bf3565b60405180910390a1565b60008060019054906101000a900460ff16156128295760018260ff161480156127e157506127df30611883565b155b612820576040517f08c379a000000000000000000000000000000000000000000000000000000000815260040161281790613e83565b60405180910390fd5b6000905061289d565b8160ff1660008054906101000a900460ff1660ff161061287e576040517f08c379a000000000000000000000000000000000000000000000000000000000815260040161287590613e83565b60405180910390fd5b816000806101000a81548160ff021916908360ff160217905550600190505b919050565b600060019054906101000a900460ff166128f1576040517f08c379a00000000000000000000000000000000000000000000000000000000081526004016128e890613f63565b60405180910390fd5b6128fb8282612bca565b5050565b600060019054906101000a900460ff1661294e576040517f08c379a000000000000000000000000000000000000000000000000000000000815260040161294590613f63565b60405180910390fd5b61295781612c4b565b50565b600060019054906101000a900460ff166129a9576040517f08c379a00000000000000000000000000000000000000000000000000000000081526004016129a090613f63565b60405180910390fd5b6129b1612ce7565b565b600060019054906101000a900460ff16612a02576040517f08c379a00000000000000000000000000000000000000000000000000000000081526004016129f990613f63565b60405180910390fd5b612a0a612d53565b565b612a14610ad1565b15612a54576040517f08c379a0000000000000000000000000000000000000000000000000000000008152600401612a4b90613e63565b60405180910390fd5b612a5f838383612db4565b505050565b505050565b600073ffffffffffffffffffffffffffffffffffffffff168273ffffffffffffffffffffffffffffffffffffffff161415612ad9576040517f08c379a0000000000000000000000000000000000000000000000000000000008152600401612ad090613fc3565b60405180910390fd5b612ae560008383612a0c565b8060356000828254612af79190614205565b9250508190555080603360008473ffffffffffffffffffffffffffffffffffffffff1673ffffffffffffffffffffffffffffffffffffffff1681526020019081526020016000206000828254612b4d9190614205565b925050819055508173ffffffffffffffffffffffffffffffffffffffff16600073ffffffffffffffffffffffffffffffffffffffff167fddf252ad1be2c89b69c2b068fc378daa952ba7f163c4a11628f55a4df523b3ef83604051612bb29190614020565b60405180910390a3612bc660008383612a64565b5050565b600060019054906101000a900460ff16612c19576040517f08c379a0000000000000000000000000000000000000000000000000000000008152600401612c1090613f63565b60405180910390fd5b8160369080519060200190612c2f929190612e85565b508060379080519060200190612c46929190612e85565b505050565b600060019054906101000a900460ff16612c9a576040517f08c379a0000000000000000000000000000000000000000000000000000000008152600401612c9190613f63565b60405180910390fd5b60008111612cdd576040517f08c379a0000000000000000000000000000000000000000000000000000000008152600401612cd490613d43565b60405180910390fd5b8060658190555050565b600060019054906101000a900460ff16612d36576040517f08c379a0000000000000000000000000000000000000000000000000000000008152600401612d2d90613f63565b60405180910390fd5b6000609860006101000a81548160ff021916908315150217905550565b600060019054906101000a900460ff16612da2576040517f08c379a0000000000000000000000000000000000000000000000000000000008152600401612d9990613f63565b60405180910390fd5b612db2612dad6118a6565b612649565b565b505050565b6040518060a00160405280600590602082028036833780820191505090505090565b82805482825590600052602060002090600f01601090048101928215612e745791602002820160005b83821115612e4457835183826101000a81548161ffff021916908361ffff1602179055509260200192600201602081600101049283019260010302612e04565b8015612e725782816101000a81549061ffff0219169055600201602081600101049283019260010302612e44565b505b509050612e819190612f0b565b5090565b828054612e91906145c7565b90600052602060002090601f016020900481019282612eb35760008555612efa565b82601f10612ecc57805160ff1916838001178555612efa565b82800160010185558215612efa579182015b82811115612ef9578251825591602001919060010190612ede565b5b509050612f079190612f0b565b5090565b5b80821115612f24576000816000905550600101612f0c565b5090565b6000612f3b612f368461407b565b614056565b90508083825260208201905082856020860282011115612f5a57600080fd5b60005b85811015612fa457813567ffffffffffffffff811115612f7c57600080fd5b808601612f8989826131fc565b85526020850194506020840193505050600181019050612f5d565b5050509392505050565b6000612fc1612fbc846140a7565b614056565b90508082856020860282011115612fd757600080fd5b60005b858110156130075781612fed8882613278565b845260208401935060208301925050600181019050612fda565b5050509392505050565b600061302461301f846140cd565b614056565b90508281526020810184848401111561303c57600080fd5b613047848285614585565b509392505050565b600061306261305d846140fe565b614056565b90508281526020810184848401111561307a57600080fd5b613085848285614585565b509392505050565b60008135905061309c81614d72565b92915050565b600082601f8301126130b357600080fd5b81356130c3848260208601612f28565b91505092915050565b600082601f8301126130dd57600080fd5b60056130ea848285612fae565b91505092915050565b60008135905061310281614d89565b92915050565b600082601f83011261311957600080fd5b8135613129848260208601613011565b91505092915050565b600082601f83011261314357600080fd5b813561315384826020860161304f565b91505092915050565b600060a0828403121561316e57600080fd5b61317860a0614056565b9050600082013567ffffffffffffffff81111561319457600080fd5b6131a084828501613132565b60008301525060206131b48482850161308d565b60208301525060406131c8848285016132a2565b60408301525060606131dc8482850161328d565b60608301525060806131f084828501613278565b60808301525092915050565b60006040828403121561320e57600080fd5b6132186040614056565b9050600082013567ffffffffffffffff81111561323457600080fd5b6132408482850161315c565b600083015250602082013567ffffffffffffffff81111561326057600080fd5b61326c84828501613108565b60208301525092915050565b60008135905061328781614da0565b92915050565b60008135905061329c81614db7565b92915050565b6000813590506132b181614dce565b92915050565b6000602082840312156132c957600080fd5b60006132d78482850161308d565b91505092915050565b600080604083850312156132f357600080fd5b60006133018582860161308d565b92505060206133128582860161308d565b9150509250929050565b60008060006060848603121561333157600080fd5b600061333f8682870161308d565b93505060206133508682870161308d565b92505060406133618682870161328d565b9150509250925092565b6000806040838503121561337e57600080fd5b600061338c8582860161308d565b925050602061339d8582860161328d565b9150509250929050565b6000602082840312156133b957600080fd5b600082013567ffffffffffffffff8111156133d357600080fd5b6133df848285016130a2565b91505092915050565b600060a082840312156133fa57600080fd5b6000613408848285016130cc565b91505092915050565b60006020828403121561342357600080fd5b6000613431848285016130f3565b91505092915050565b6000806040838503121561344d57600080fd5b600061345b858286016130f3565b925050602083013567ffffffffffffffff81111561347857600080fd5b61348485828601613108565b9150509250929050565b6000602082840312156134a057600080fd5b600082013567ffffffffffffffff8111156134ba57600080fd5b6134c684828501613132565b91505092915050565b6000602082840312156134e157600080fd5b600082013567ffffffffffffffff8111156134fb57600080fd5b6135078482850161315c565b91505092915050565b6000806040838503121561352357600080fd5b600083013567ffffffffffffffff81111561353d57600080fd5b6135498582860161315c565b925050602083013567ffffffffffffffff81111561356657600080fd5b61357285828601613108565b9150509250929050565b60006020828403121561358e57600080fd5b600061359c8482850161328d565b91505092915050565b60006135b18383613b4d565b60208301905092915050565b60006135c98383613b98565b60208301905092915050565b6135de816144f6565b82525050565b6135ed816144f6565b82525050565b60006135fe82614149565b6136088185614184565b93506136138361412f565b8060005b8381101561364457815161362b88826135a5565b97506136368361416a565b925050600181019050613617565b5085935050505092915050565b61365a81614154565b6136648184614195565b925061366f8261413f565b8060005b838110156136a057815161368787826135bd565b965061369283614177565b925050600181019050613673565b505050505050565b6136b181614508565b82525050565b6136c081614514565b82525050565b6136d76136d282614514565b6146c8565b82525050565b6136e681614573565b82525050565b60006136f78261415f565b61370181856141a0565b9350613711818560208601614594565b61371a8161478e565b840191505092915050565b60006137308261415f565b61373a81856141b1565b935061374a818560208601614594565b6137538161478e565b840191505092915050565b60006137698261415f565b61377381856141c2565b9350613783818560208601614594565b80840191505092915050565b600061379c6012836141b1565b91506137a7826147ac565b602082019050919050565b60006137bf6023836141b1565b91506137ca826147d5565b604082019050919050565b60006137e26015836141b1565b91506137ed82614824565b602082019050919050565b60006138056014836141b1565b91506138108261484d565b602082019050919050565b60006138286022836141b1565b915061383382614876565b604082019050919050565b600061384b601c836141c2565b9150613856826148c5565b601c82019050919050565b600061386e6021836141b1565b9150613879826148ee565b604082019050919050565b60006138916026836141b1565b915061389c8261493d565b604082019050919050565b60006138b46022836141b1565b91506138bf8261498c565b604082019050919050565b60006138d7601d836141b1565b91506138e2826149db565b602082019050919050565b60006138fa6026836141b1565b915061390582614a04565b604082019050919050565b600061391d6020836141b1565b915061392882614a53565b602082019050919050565b60006139406010836141b1565b915061394b82614a7c565b602082019050919050565b6000613963602e836141b1565b915061396e82614aa5565b604082019050919050565b60006139866020836141b1565b915061399182614af4565b602082019050919050565b60006139a96021836141b1565b91506139b482614b1d565b604082019050919050565b60006139cc6026836141b1565b91506139d782614b6c565b604082019050919050565b60006139ef6025836141b1565b91506139fa82614bbb565b604082019050919050565b6000613a126019836141b1565b9150613a1d82614c0a565b602082019050919050565b6000613a356024836141b1565b9150613a4082614c33565b604082019050919050565b6000613a58602b836141b1565b9150613a6382614c82565b604082019050919050565b6000613a7b6018836141b1565b9150613a8682614cd1565b602082019050919050565b6000613a9e6025836141b1565b9150613aa982614cfa565b604082019050919050565b6000613ac1601f836141b1565b9150613acc82614d49565b602082019050919050565b600060a0830160008301518482036000860152613af482826136ec565b9150506020830151613b0960208601826135d5565b506040830151613b1c6040860182613b89565b506060830151613b2f6060860182613b6b565b506080830151613b426080860182613b4d565b508091505092915050565b613b568161451e565b82525050565b613b658161451e565b82525050565b613b748161454c565b82525050565b613b838161454c565b82525050565b613b9281614556565b82525050565b613ba181614566565b82525050565b613bb081614566565b82525050565b6000613bc2828461375e565b915081905092915050565b6000613bd88261383e565b9150613be482846136c6565b60208201915081905092915050565b6000602082019050613c0860008301846135e4565b92915050565b60006020820190508181036000830152613c2881846135f3565b905092915050565b600060a082019050613c456000830184613651565b92915050565b6000602082019050613c6060008301846136a8565b92915050565b6000602082019050613c7b60008301846136b7565b92915050565b6000608082019050613c9660008301876136b7565b613ca36020830186613ba7565b613cb060408301856136b7565b613cbd60608301846136b7565b95945050505050565b6000602082019050613cdb60008301846136dd565b92915050565b60006020820190508181036000830152613cfb8184613725565b905092915050565b60006020820190508181036000830152613d1c8161378f565b9050919050565b60006020820190508181036000830152613d3c816137b2565b9050919050565b60006020820190508181036000830152613d5c816137d5565b9050919050565b60006020820190508181036000830152613d7c816137f8565b9050919050565b60006020820190508181036000830152613d9c8161381b565b9050919050565b60006020820190508181036000830152613dbc81613861565b9050919050565b60006020820190508181036000830152613ddc81613884565b9050919050565b60006020820190508181036000830152613dfc816138a7565b9050919050565b60006020820190508181036000830152613e1c816138ca565b9050919050565b60006020820190508181036000830152613e3c816138ed565b9050919050565b60006020820190508181036000830152613e5c81613910565b9050919050565b60006020820190508181036000830152613e7c81613933565b9050919050565b60006020820190508181036000830152613e9c81613956565b9050919050565b60006020820190508181036000830152613ebc81613979565b9050919050565b60006020820190508181036000830152613edc8161399c565b9050919050565b60006020820190508181036000830152613efc816139bf565b9050919050565b60006020820190508181036000830152613f1c816139e2565b9050919050565b60006020820190508181036000830152613f3c81613a05565b9050919050565b60006020820190508181036000830152613f5c81613a28565b9050919050565b60006020820190508181036000830152613f7c81613a4b565b9050919050565b60006020820190508181036000830152613f9c81613a6e565b9050919050565b60006020820190508181036000830152613fbc81613a91565b9050919050565b60006020820190508181036000830152613fdc81613ab4565b9050919050565b60006020820190508181036000830152613ffd8184613ad7565b905092915050565b600060208201905061401a6000830184613b5c565b92915050565b60006020820190506140356000830184613b7a565b92915050565b60006020820190506140506000830184613ba7565b92915050565b6000614060614071565b905061406c82826145f9565b919050565b6000604051905090565b600067ffffffffffffffff8211156140965761409561475f565b5b602082029050602081019050919050565b600067ffffffffffffffff8211156140c2576140c161475f565b5b602082029050919050565b600067ffffffffffffffff8211156140e8576140e761475f565b5b6140f18261478e565b9050602081019050919050565b600067ffffffffffffffff8211156141195761411861475f565b5b6141228261478e565b9050602081019050919050565b6000819050602082019050919050565b6000819050919050565b600081519050919050565b600060059050919050565b600081519050919050565b6000602082019050919050565b6000602082019050919050565b600082825260208201905092915050565b600081905092915050565b600082825260208201905092915050565b600082825260208201905092915050565b600081905092915050565b60006141d88261451e565b91506141e38361451e565b92508261ffff038211156141fa576141f96146d2565b5b828201905092915050565b60006142108261454c565b915061421b8361454c565b9250827fffffffffffffffffffffffffffffffffffffffffffffffffffffffffffffffff038211156142505761424f6146d2565b5b828201905092915050565b600061426682614566565b915061427183614566565b92508260ff03821115614287576142866146d2565b5b828201905092915050565b600061429d8261454c565b91506142a88361454c565b9250826142b8576142b7614701565b5b828204905092915050565b6000808291508390505b600185111561430d578086048111156142e9576142e86146d2565b5b60018516156142f85780820291505b80810290506143068561479f565b94506142cd565b94509492505050565b60006143218261454c565b915061432c83614566565b92506143597fffffffffffffffffffffffffffffffffffffffffffffffffffffffffffffffff8484614361565b905092915050565b600082614371576001905061442d565b8161437f576000905061442d565b8160018114614395576002811461439f576143ce565b600191505061442d565b60ff8411156143b1576143b06146d2565b5b8360020a9150848211156143c8576143c76146d2565b5b5061442d565b5060208310610133831016604e8410600b84101617156144035782820a9050838111156143fe576143fd6146d2565b5b61442d565b61441084848460016142c3565b92509050818404811115614427576144266146d2565b5b81810290505b9392505050565b600061443f8261454c565b915061444a8361454c565b9250817fffffffffffffffffffffffffffffffffffffffffffffffffffffffffffffffff0483118215151615614483576144826146d2565b5b828202905092915050565b60006144998261451e565b91506144a48361451e565b9250828210156144b7576144b66146d2565b5b828203905092915050565b60006144cd8261454c565b91506144d88361454c565b9250828210156144eb576144ea6146d2565b5b828203905092915050565b60006145018261452c565b9050919050565b60008115159050919050565b6000819050919050565b600061ffff82169050919050565b600073ffffffffffffffffffffffffffffffffffffffff82169050919050565b6000819050919050565b600063ffffffff82169050919050565b600060ff82169050919050565b600061457e82614566565b9050919050565b82818337600083830152505050565b60005b838110156145b2578082015181840152602081019050614597565b838111156145c1576000848401525b50505050565b600060028204905060018216806145df57607f821691505b602082108114156145f3576145f2614730565b5b50919050565b6146028261478e565b810181811067ffffffffffffffff821117156146215761462061475f565b5b80604052505050565b60006146358261451e565b915061ffff82141561464a576146496146d2565b5b600182019050919050565b60006146608261454c565b91507fffffffffffffffffffffffffffffffffffffffffffffffffffffffffffffffff821415614693576146926146d2565b5b600182019050919050565b60006146a982614566565b915060ff8214156146bd576146bc6146d2565b5b600182019050919050565b6000819050919050565b7f4e487b7100000000000000000000000000000000000000000000000000000000600052601160045260246000fd5b7f4e487b7100000000000000000000000000000000000000000000000000000000600052601260045260246000fd5b7f4e487b7100000000000000000000000000000000000000000000000000000000600052602260045260246000fd5b7f4e487b7100000000000000000000000000000000000000000000000000000000600052604160045260246000fd5b6000601f19601f8301169050919050565b60008160011c9050919050565b7f4d65737361676520697320657870697265640000000000000000000000000000600082015250565b7f45524332303a207472616e7366657220746f20746865207a65726f206164647260008201527f6573730000000000000000000000000000000000000000000000000000000000602082015250565b7f45524332304361707065643a2063617020697320300000000000000000000000600082015250565b7f5061757361626c653a206e6f7420706175736564000000000000000000000000600082015250565b7f45524332303a206275726e20616d6f756e7420657863656564732062616c616e60008201527f6365000000000000000000000000000000000000000000000000000000000000602082015250565b7f19457468657265756d205369676e6564204d6573736167653a0a333200000000600082015250565b7f45524332303a2072657761726420746f20746865207a65726f2061646472657360008201527f7300000000000000000000000000000000000000000000000000000000000000602082015250565b7f4f776e61626c653a206e6577206f776e657220697320746865207a65726f206160008201527f6464726573730000000000000000000000000000000000000000000000000000602082015250565b7f45524332303a20617070726f766520746f20746865207a65726f20616464726560008201527f7373000000000000000000000000000000000000000000000000000000000000602082015250565b7f45524332303a20696e73756666696369656e7420616c6c6f77616e6365000000600082015250565b7f45524332303a207472616e7366657220616d6f756e742065786365656473206260008201527f616c616e63650000000000000000000000000000000000000000000000000000602082015250565b7f4c696d6974206f66207468697320626f756e7479206973206578636565646564600082015250565b7f5061757361626c653a2070617573656400000000000000000000000000000000600082015250565b7f496e697469616c697a61626c653a20636f6e747261637420697320616c72656160008201527f647920696e697469616c697a6564000000000000000000000000000000000000602082015250565b7f4f776e61626c653a2063616c6c6572206973206e6f7420746865206f776e6572600082015250565b7f45524332303a206275726e2066726f6d20746865207a65726f2061646472657360008201527f7300000000000000000000000000000000000000000000000000000000000000602082015250565b7f45524332303a20616d6f756e74206d757374206265206869676865722074686160008201527f6e207a65726f0000000000000000000000000000000000000000000000000000602082015250565b7f45524332303a207472616e736665722066726f6d20746865207a65726f20616460008201527f6472657373000000000000000000000000000000000000000000000000000000602082015250565b7f45524332304361707065643a2063617020657863656564656400000000000000600082015250565b7f45524332303a20617070726f76652066726f6d20746865207a65726f2061646460008201527f7265737300000000000000000000000000000000000000000000000000000000602082015250565b7f496e697469616c697a61626c653a20636f6e7472616374206973206e6f74206960008201527f6e697469616c697a696e67000000000000000000000000000000000000000000602082015250565b7f696e76616c6964207369676e6174757265206c656e6774680000000000000000600082015250565b7f45524332303a2064656372656173656420616c6c6f77616e63652062656c6f7760008201527f207a65726f000000000000000000000000000000000000000000000000000000602082015250565b7f45524332303a206d696e7420746f20746865207a65726f206164647265737300600082015250565b614d7b816144f6565b8114614d8657600080fd5b50565b614d9281614514565b8114614d9d57600080fd5b50565b614da98161451e565b8114614db457600080fd5b50565b614dc08161454c565b8114614dcb57600080fd5b50565b614dd781614556565b8114614de257600080fd5b5056fea26469706673582212203c93449ebf74f3bd3ab73d4eeda33c93412a54479b568f5f5dc2b650c91cffa864736f6c63430008040033",
  "linkReferences": {},
  "deployedLinkReferences": {}
}