{
  "_format": "hh-sol-artifact-1",
  "contractName": "Duckies",
  "sourceName": "contracts/Duckies.sol",
  "abi": [
    {
      "inputs": [],
      "stateMutability": "nonpayable",
      "type": "constructor"
    },
    {
      "anonymous": false,
      "inputs": [
        {
          "indexed": true,
          "internalType": "address",
          "name": "owner",
          "type": "address"
        },
        {
          "indexed": true,
          "internalType": "address",
          "name": "spender",
          "type": "address"
        },
        {
          "indexed": false,
          "internalType": "uint256",
          "name": "value",
          "type": "uint256"
        }
      ],
      "name": "Approval",
      "type": "event"
    },
    {
      "anonymous": false,
      "inputs": [
        {
          "indexed": false,
          "internalType": "uint8",
          "name": "version",
          "type": "uint8"
        }
      ],
      "name": "Initialized",
      "type": "event"
    },
    {
      "anonymous": false,
      "inputs": [
        {
          "indexed": true,
          "internalType": "address",
          "name": "previousOwner",
          "type": "address"
        },
        {
          "indexed": true,
          "internalType": "address",
          "name": "newOwner",
          "type": "address"
        }
      ],
      "name": "OwnershipTransferred",
      "type": "event"
    },
    {
      "anonymous": false,
      "inputs": [
        {
          "indexed": false,
          "internalType": "address",
          "name": "account",
          "type": "address"
        }
      ],
      "name": "Paused",
      "type": "event"
    },
    {
      "anonymous": false,
      "inputs": [
        {
          "indexed": true,
          "internalType": "address",
          "name": "from",
          "type": "address"
        },
        {
          "indexed": true,
          "internalType": "address",
          "name": "to",
          "type": "address"
        },
        {
          "indexed": false,
          "internalType": "uint256",
          "name": "value",
          "type": "uint256"
        }
      ],
      "name": "Transfer",
      "type": "event"
    },
    {
      "anonymous": false,
      "inputs": [
        {
          "indexed": false,
          "internalType": "address",
          "name": "account",
          "type": "address"
        }
      ],
      "name": "Unpaused",
      "type": "event"
    },
    {
      "inputs": [
        {
          "internalType": "uint256",
          "name": "",
          "type": "uint256"
        }
      ],
      "name": "_bountyPayouts",
      "outputs": [
        {
          "internalType": "uint8",
          "name": "",
          "type": "uint8"
        }
      ],
      "stateMutability": "view",
      "type": "function"
    },
    {
      "inputs": [
        {
          "internalType": "uint256",
          "name": "",
          "type": "uint256"
        }
      ],
      "name": "_referralPayouts",
      "outputs": [
        {
          "internalType": "uint16",
          "name": "",
          "type": "uint16"
        }
      ],
      "stateMutability": "view",
      "type": "function"
    },
    {
      "inputs": [
        {
          "internalType": "address",
          "name": "owner",
          "type": "address"
        },
        {
          "internalType": "address",
          "name": "spender",
          "type": "address"
        }
      ],
      "name": "allowance",
      "outputs": [
        {
          "internalType": "uint256",
          "name": "",
          "type": "uint256"
        }
      ],
      "stateMutability": "view",
      "type": "function"
    },
    {
      "inputs": [
        {
          "internalType": "address",
          "name": "spender",
          "type": "address"
        },
        {
          "internalType": "uint256",
          "name": "amount",
          "type": "uint256"
        }
      ],
      "name": "approve",
      "outputs": [
        {
          "internalType": "bool",
          "name": "",
          "type": "bool"
        }
      ],
      "stateMutability": "nonpayable",
      "type": "function"
    },
    {
      "inputs": [
        {
          "internalType": "address",
          "name": "account",
          "type": "address"
        }
      ],
      "name": "balanceOf",
      "outputs": [
        {
          "internalType": "uint256",
          "name": "",
          "type": "uint256"
        }
      ],
      "stateMutability": "view",
      "type": "function"
    },
    {
      "inputs": [
        {
          "internalType": "uint256",
          "name": "amount",
          "type": "uint256"
        }
      ],
      "name": "burn",
      "outputs": [],
      "stateMutability": "nonpayable",
      "type": "function"
    },
    {
      "inputs": [
        {
          "internalType": "address",
          "name": "account",
          "type": "address"
        },
        {
          "internalType": "uint256",
          "name": "amount",
          "type": "uint256"
        }
      ],
      "name": "burnFrom",
      "outputs": [],
      "stateMutability": "nonpayable",
      "type": "function"
    },
    {
      "inputs": [],
      "name": "cap",
      "outputs": [
        {
          "internalType": "uint256",
          "name": "",
          "type": "uint256"
        }
      ],
      "stateMutability": "view",
      "type": "function"
    },
    {
      "inputs": [],
      "name": "decimals",
      "outputs": [
        {
          "internalType": "uint8",
          "name": "",
          "type": "uint8"
        }
      ],
      "stateMutability": "view",
      "type": "function"
    },
    {
      "inputs": [
        {
          "internalType": "address",
          "name": "spender",
          "type": "address"
        },
        {
          "internalType": "uint256",
          "name": "subtractedValue",
          "type": "uint256"
        }
      ],
      "name": "decreaseAllowance",
      "outputs": [
        {
          "internalType": "bool",
          "name": "",
          "type": "bool"
        }
      ],
      "stateMutability": "nonpayable",
      "type": "function"
    },
    {
      "inputs": [
        {
          "internalType": "string",
          "name": "bountyID",
          "type": "string"
        }
      ],
      "name": "getAccountBountyLimit",
      "outputs": [
        {
          "internalType": "uint16",
          "name": "",
          "type": "uint16"
        }
      ],
      "stateMutability": "view",
      "type": "function"
    },
    {
      "inputs": [],
      "name": "getAffiliatesCount",
      "outputs": [
        {
          "internalType": "uint8[5]",
          "name": "",
          "type": "uint8[5]"
        }
      ],
      "stateMutability": "view",
      "type": "function"
    },
    {
      "inputs": [],
      "name": "getBountyPayouts",
      "outputs": [
        {
          "internalType": "uint8[]",
          "name": "",
          "type": "uint8[]"
        }
      ],
      "stateMutability": "view",
      "type": "function"
    },
    {
      "inputs": [
        {
          "internalType": "bytes32",
          "name": "_messageHash",
          "type": "bytes32"
        }
      ],
      "name": "getEthSignedMessageHash",
      "outputs": [
        {
          "internalType": "bytes32",
          "name": "",
          "type": "bytes32"
        }
      ],
      "stateMutability": "pure",
      "type": "function"
    },
    {
      "inputs": [
        {
          "components": [
            {
              "internalType": "string",
              "name": "id",
              "type": "string"
            },
            {
              "internalType": "address",
              "name": "ref",
              "type": "address"
            },
            {
              "internalType": "uint32",
              "name": "amt",
              "type": "uint32"
            },
            {
              "internalType": "uint256",
              "name": "blockExpiration",
              "type": "uint256"
            },
            {
              "internalType": "uint16",
              "name": "limit",
              "type": "uint16"
            }
          ],
          "internalType": "struct Duckies.Message",
          "name": "_message",
          "type": "tuple"
        }
      ],
      "name": "getMessageHash",
      "outputs": [
        {
          "internalType": "bytes32",
          "name": "",
          "type": "bytes32"
        }
      ],
      "stateMutability": "pure",
      "type": "function"
    },
    {
      "inputs": [],
      "name": "getRefferalPayouts",
      "outputs": [
        {
          "internalType": "uint16[]",
          "name": "",
          "type": "uint16[]"
        }
      ],
      "stateMutability": "view",
      "type": "function"
    },
    {
      "inputs": [
        {
          "internalType": "address",
          "name": "spender",
          "type": "address"
        },
        {
          "internalType": "uint256",
          "name": "addedValue",
          "type": "uint256"
        }
      ],
      "name": "increaseAllowance",
      "outputs": [
        {
          "internalType": "bool",
          "name": "",
          "type": "bool"
        }
      ],
      "stateMutability": "nonpayable",
      "type": "function"
    },
    {
      "inputs": [
        {
          "internalType": "address",
          "name": "issuer",
          "type": "address"
        }
      ],
      "name": "initialize",
      "outputs": [],
      "stateMutability": "nonpayable",
      "type": "function"
    },
    {
      "inputs": [
        {
          "internalType": "address",
          "name": "to",
          "type": "address"
        },
        {
          "internalType": "uint256",
          "name": "amount",
          "type": "uint256"
        }
      ],
      "name": "mint",
      "outputs": [],
      "stateMutability": "nonpayable",
      "type": "function"
    },
    {
      "inputs": [],
      "name": "name",
      "outputs": [
        {
          "internalType": "string",
          "name": "",
          "type": "string"
        }
      ],
      "stateMutability": "view",
      "type": "function"
    },
    {
      "inputs": [],
      "name": "owner",
      "outputs": [
        {
          "internalType": "address",
          "name": "",
          "type": "address"
        }
      ],
      "stateMutability": "view",
      "type": "function"
    },
    {
      "inputs": [],
      "name": "pause",
      "outputs": [],
      "stateMutability": "nonpayable",
      "type": "function"
    },
    {
      "inputs": [],
      "name": "paused",
      "outputs": [
        {
          "internalType": "bool",
          "name": "",
          "type": "bool"
        }
      ],
      "stateMutability": "view",
      "type": "function"
    },
    {
      "inputs": [
        {
          "internalType": "bytes32",
          "name": "_ethSignedMessageHash",
          "type": "bytes32"
        },
        {
          "internalType": "bytes",
          "name": "_sig",
          "type": "bytes"
        }
      ],
      "name": "recover",
      "outputs": [
        {
          "internalType": "address",
          "name": "",
          "type": "address"
        }
      ],
      "stateMutability": "pure",
      "type": "function"
    },
    {
      "inputs": [],
      "name": "renounceOwnership",
      "outputs": [],
      "stateMutability": "nonpayable",
      "type": "function"
    },
    {
      "inputs": [
        {
          "components": [
            {
              "internalType": "string",
              "name": "id",
              "type": "string"
            },
            {
              "internalType": "address",
              "name": "ref",
              "type": "address"
            },
            {
              "internalType": "uint32",
              "name": "amt",
              "type": "uint32"
            },
            {
              "internalType": "uint256",
              "name": "blockExpiration",
              "type": "uint256"
            },
            {
              "internalType": "uint16",
              "name": "limit",
              "type": "uint16"
            }
          ],
          "internalType": "struct Duckies.Message",
          "name": "_message",
          "type": "tuple"
        },
        {
          "internalType": "bytes",
          "name": "_sig",
          "type": "bytes"
        }
      ],
      "name": "reward",
      "outputs": [],
      "stateMutability": "nonpayable",
      "type": "function"
    },
    {
      "inputs": [
        {
          "internalType": "uint8[5]",
          "name": "payouts",
          "type": "uint8[5]"
        }
      ],
      "name": "setBountyPayouts",
      "outputs": [],
      "stateMutability": "nonpayable",
      "type": "function"
    },
    {
      "inputs": [
        {
          "internalType": "uint16[5]",
          "name": "payouts",
          "type": "uint16[5]"
        }
      ],
      "name": "setReferralPayouts",
      "outputs": [],
      "stateMutability": "nonpayable",
      "type": "function"
    },
    {
      "inputs": [],
      "name": "symbol",
      "outputs": [
        {
          "internalType": "string",
          "name": "",
          "type": "string"
        }
      ],
      "stateMutability": "view",
      "type": "function"
    },
    {
      "inputs": [],
      "name": "totalSupply",
      "outputs": [
        {
          "internalType": "uint256",
          "name": "",
          "type": "uint256"
        }
      ],
      "stateMutability": "view",
      "type": "function"
    },
    {
      "inputs": [
        {
          "internalType": "address",
          "name": "to",
          "type": "address"
        },
        {
          "internalType": "uint256",
          "name": "amount",
          "type": "uint256"
        }
      ],
      "name": "transfer",
      "outputs": [
        {
          "internalType": "bool",
          "name": "",
          "type": "bool"
        }
      ],
      "stateMutability": "nonpayable",
      "type": "function"
    },
    {
      "inputs": [
        {
          "internalType": "address",
          "name": "from",
          "type": "address"
        },
        {
          "internalType": "address",
          "name": "to",
          "type": "address"
        },
        {
          "internalType": "uint256",
          "name": "amount",
          "type": "uint256"
        }
      ],
      "name": "transferFrom",
      "outputs": [
        {
          "internalType": "bool",
          "name": "",
          "type": "bool"
        }
      ],
      "stateMutability": "nonpayable",
      "type": "function"
    },
    {
      "inputs": [
        {
          "internalType": "address",
          "name": "newOwner",
          "type": "address"
        }
      ],
      "name": "transferOwnership",
      "outputs": [],
      "stateMutability": "nonpayable",
      "type": "function"
    },
    {
      "inputs": [],
      "name": "unpause",
      "outputs": [],
      "stateMutability": "nonpayable",
      "type": "function"
    }
  ],
  "bytecode": "0x60806040523480156200001157600080fd5b50620000226200002860201b60201c565b6200020f565b6200003a60ff6200003d60201b60201c565b50565b60008060019054906101000a900460ff1615620000c75760018260ff161480156200007b575062000079306200014360201b6200195e1760201c565b155b620000bd576040517f08c379a0000000000000000000000000000000000000000000000000000000008152600401620000b4906200018d565b60405180910390fd5b600090506200013e565b8160ff1660008054906101000a900460ff1660ff16106200011f576040517f08c379a000000000000000000000000000000000000000000000000000000000815260040162000116906200018d565b60405180910390fd5b816000806101000a81548160ff021916908360ff160217905550600190505b919050565b6000808273ffffffffffffffffffffffffffffffffffffffff163b119050919050565b600062000175602e83620001af565b91506200018282620001c0565b604082019050919050565b60006020820190508181036000830152620001a88162000166565b9050919050565b600082825260208201905092915050565b7f496e697469616c697a61626c653a20636f6e747261637420697320616c72656160008201527f647920696e697469616c697a6564000000000000000000000000000000000000602082015250565b615235806200021f6000396000f3fe608060405234801561001057600080fd5b50600436106102065760003560e01c806379cc67901161011a578063c4d66de8116100ad578063f2fde38b1161007c578063f2fde38b146105c9578063f6a1100d146105e5578063fa54080114610615578063fd58511514610645578063fd7452fc1461067557610206565b8063c4d66de814610543578063dcb5f89f1461055f578063dd62ed3e1461057d578063ef55a69b146105ad57610206565b8063a457c2d7116100e9578063a457c2d7146104a9578063a9059cbb146104d9578063b642b43e14610509578063b8386e571461052757610206565b806379cc6790146104475780638456cb59146104635780638da5cb5b1461046d57806395d89b411461048b57610206565b8063355274ea1161019d57806342966c681161016c57806342966c68146103b75780635c975abb146103d35780635ddd8711146103f157806370a082311461040d578063715018a61461043d57610206565b8063355274ea1461034357806339509351146103615780633f4ba83a1461039157806340c10f191461039b57610206565b806319045a25116101d957806319045a25146102a757806323b872dd146102d7578063313ce5671461030757806334c4b14b1461032557610206565b806306fdde031461020b578063095ea7b314610229578063165c68fa1461025957806318160ddd14610289575b600080fd5b6102136106a5565b60405161022091906140b1565b60405180910390f35b610243600480360381019061023e91906136d3565b610737565b604051610250919061401b565b60405180910390f35b610273600480360381019061026e91906138cc565b61075a565b604051610280919061440b565b60405180910390f35b61029161078f565b60405161029e91906143f0565b60405180910390f35b6102c160048036038101906102bc919061378a565b610799565b6040516102ce9190613fa1565b60405180910390f35b6102f160048036038101906102ec9190613684565b610808565b6040516102fe919061401b565b60405180910390f35b61030f610837565b60405161031c919061440b565b60405180910390f35b61032d610840565b60405161033a9190613fde565b60405180910390f35b61034b610893565b60405161035891906143f0565b60405180910390f35b61037b600480360381019061037691906136d3565b61089d565b604051610388919061401b565b60405180910390f35b6103996108d4565b005b6103b560048036038101906103b091906136d3565b61095a565b005b6103d160048036038101906103cc91906138cc565b6109e4565b005b6103db610a74565b6040516103e8919061401b565b60405180910390f35b61040b60048036038101906104069190613860565b610a8b565b005b6104276004803603810190610422919061361f565b610f31565b60405161043491906143f0565b60405180910390f35b610445610f7a565b005b610461600480360381019061045c91906136d3565b611002565b005b61046b61109e565b005b610475611124565b6040516104829190613fa1565b60405180910390f35b61049361114e565b6040516104a091906140b1565b60405180910390f35b6104c360048036038101906104be91906136d3565b6111e0565b6040516104d0919061401b565b60405180910390f35b6104f360048036038101906104ee91906136d3565b611257565b604051610500919061401b565b60405180910390f35b61051161127a565b60405161051e9190613fbc565b60405180910390f35b610541600480360381019061053c919061370f565b6112fa565b005b61055d6004803603810190610558919061361f565b61138b565b005b6105676115c2565b6040516105749190613ff9565b60405180910390f35b61059760048036038101906105929190613648565b611641565b6040516105a491906143f0565b60405180910390f35b6105c760048036038101906105c29190613738565b6116c8565b005b6105e360048036038101906105de919061361f565b61175a565b005b6105ff60048036038101906105fa91906137de565b611852565b60405161060c91906143d5565b60405180910390f35b61062f600480360381019061062a9190613761565b6118c6565b60405161063c9190614036565b60405180910390f35b61065f600480360381019061065a91906138cc565b6118f6565b60405161066c91906143d5565b60405180910390f35b61068f600480360381019061068a919061381f565b61192e565b60405161069c9190614036565b60405180910390f35b6060603680546106b4906149ca565b80601f01602080910402602001604051908101604052809291908181526020018280546106e0906149ca565b801561072d5780601f106107025761010080835404028352916020019161072d565b820191906000526020600020905b81548152906001019060200180831161071057829003601f168201915b5050505050905090565b600080610742611981565b905061074f818585611989565b600191505092915050565b610100818154811061076b57600080fd5b9060005260206000209060209182820401919006915054906101000a900460ff1681565b6000603554905090565b6000806000806107a885611b54565b925092509250600186828585604051600081526020016040526040516107d19493929190614051565b6020604051602081039080840390855afa1580156107f3573d6000803e3d6000fd5b50505060206040510351935050505092915050565b600080610813611981565b9050610820858285611bbc565b61082b858585611c48565b60019150509392505050565b60006002905090565b610848613107565b61088e3360016040518060a00160405280600060ff168152602001600060ff168152602001600060ff168152602001600060ff168152602001600060ff16815250611ecc565b905090565b6000606554905090565b6000806108a8611981565b90506108c98185856108ba8589611641565b6108c49190614608565b611989565b600191505092915050565b6108dc611981565b73ffffffffffffffffffffffffffffffffffffffff166108fa611124565b73ffffffffffffffffffffffffffffffffffffffff1614610950576040517f08c379a000000000000000000000000000000000000000000000000000000000815260040161094790614273565b60405180910390fd5b610958612097565b565b610962611981565b73ffffffffffffffffffffffffffffffffffffffff16610980611124565b73ffffffffffffffffffffffffffffffffffffffff16146109d6576040517f08c379a00000000000000000000000000000000000000000000000000000000081526004016109cd90614273565b60405180910390fd5b6109e08282612139565b5050565b6109ec611981565b73ffffffffffffffffffffffffffffffffffffffff16610a0a611124565b73ffffffffffffffffffffffffffffffffffffffff1614610a60576040517f08c379a0000000000000000000000000000000000000000000000000000000008152600401610a5790614273565b60405180910390fd5b610a71610a6b611981565b826121a3565b50565b6000609860009054906101000a900460ff16905090565b6000610a968361192e565b90506000610aa3826118c6565b90508360600151431115610aec576040517f08c379a0000000000000000000000000000000000000000000000000000000008152600401610ae3906140d3565b60405180910390fd5b60fc60009054906101000a900473ffffffffffffffffffffffffffffffffffffffff1673ffffffffffffffffffffffffffffffffffffffff16610b2f8285610799565b73ffffffffffffffffffffffffffffffffffffffff1614610b4f57600080fd5b600073ffffffffffffffffffffffffffffffffffffffff16846020015173ffffffffffffffffffffffffffffffffffffffff1614610db157600073ffffffffffffffffffffffffffffffffffffffff1660fd60003373ffffffffffffffffffffffffffffffffffffffff1673ffffffffffffffffffffffffffffffffffffffff16815260200190815260200160002060009054906101000a900473ffffffffffffffffffffffffffffffffffffffff1673ffffffffffffffffffffffffffffffffffffffff1614610c1f57600080fd5b836020015173ffffffffffffffffffffffffffffffffffffffff163373ffffffffffffffffffffffffffffffffffffffff161415610c5c57600080fd5b610c6a33856020015161237c565b610c7357600080fd5b836020015160fd60003373ffffffffffffffffffffffffffffffffffffffff1673ffffffffffffffffffffffffffffffffffffffff16815260200190815260200160002060006101000a81548173ffffffffffffffffffffffffffffffffffffffff021916908373ffffffffffffffffffffffffffffffffffffffff16021790555060fe6000856020015173ffffffffffffffffffffffffffffffffffffffff1673ffffffffffffffffffffffffffffffffffffffff168152602001908152602001600020339080600181540180825580915050600190039060005260206000200160009091909190916101000a81548173ffffffffffffffffffffffffffffffffffffffff021916908373ffffffffffffffffffffffffffffffffffffffff160217905550610dac846040015163ffffffff166124b4565b610e92565b6000846080015161ffff1614610e7e57836080015161ffff1661010160003373ffffffffffffffffffffffffffffffffffffffff1673ffffffffffffffffffffffffffffffffffffffff1681526020019081526020016000208560000151604051610e1c9190613f64565b908152602001604051809103902060009054906101000a900461ffff1661ffff1610610e7d576040517f08c379a0000000000000000000000000000000000000000000000000000000008152600401610e7490614213565b60405180910390fd5b5b610e91846040015163ffffffff16612727565b5b61010160003373ffffffffffffffffffffffffffffffffffffffff1673ffffffffffffffffffffffffffffffffffffffff1681526020019081526020016000208460000151604051610ee49190613f64565b9081526020016040518091039020600081819054906101000a900461ffff1680929190610f1090614a2d565b91906101000a81548161ffff021916908361ffff1602179055505050505050565b6000603360008373ffffffffffffffffffffffffffffffffffffffff1673ffffffffffffffffffffffffffffffffffffffff168152602001908152602001600020549050919050565b610f82611981565b73ffffffffffffffffffffffffffffffffffffffff16610fa0611124565b73ffffffffffffffffffffffffffffffffffffffff1614610ff6576040517f08c379a0000000000000000000000000000000000000000000000000000000008152600401610fed90614273565b60405180910390fd5b6110006000612997565b565b61100a611981565b73ffffffffffffffffffffffffffffffffffffffff16611028611124565b73ffffffffffffffffffffffffffffffffffffffff161461107e576040517f08c379a000000000000000000000000000000000000000000000000000000000815260040161107590614273565b60405180910390fd5b6110908261108a611981565b83611bbc565b61109a82826121a3565b5050565b6110a6611981565b73ffffffffffffffffffffffffffffffffffffffff166110c4611124565b73ffffffffffffffffffffffffffffffffffffffff161461111a576040517f08c379a000000000000000000000000000000000000000000000000000000000815260040161111190614273565b60405180910390fd5b611122612a5d565b565b600060ca60009054906101000a900473ffffffffffffffffffffffffffffffffffffffff16905090565b60606037805461115d906149ca565b80601f0160208091040260200160405190810160405280929190818152602001828054611189906149ca565b80156111d65780601f106111ab576101008083540402835291602001916111d6565b820191906000526020600020905b8154815290600101906020018083116111b957829003601f168201915b5050505050905090565b6000806111eb611981565b905060006111f98286611641565b90508381101561123e576040517f08c379a000000000000000000000000000000000000000000000000000000000815260040161123590614373565b60405180910390fd5b61124b8286868403611989565b60019250505092915050565b600080611262611981565b905061126f818585611c48565b600191505092915050565b606060ff8054806020026020016040519081016040528092919081815260200182805480156112f057602002820191906000526020600020906000905b82829054906101000a900461ffff1661ffff16815260200190600201906020826001010492830192600103820291508084116112b75790505b5050505050905090565b611302611981565b73ffffffffffffffffffffffffffffffffffffffff16611320611124565b73ffffffffffffffffffffffffffffffffffffffff1614611376576040517f08c379a000000000000000000000000000000000000000000000000000000000815260040161136d90614273565b60405180910390fd5b8060ff906005611387929190613129565b5050565b60006113976001612b00565b905080156113bb576001600060016101000a81548160ff0219169083151502179055505b61142f6040518060400160405280600e81526020017f59656c6c6f77204475636b6965730000000000000000000000000000000000008152506040518060400160405280600581526020017f4455434b5a000000000000000000000000000000000000000000000000000000815250612bf0565b61145b61143a610837565b600a6114469190614719565b64cec0ecb0006114569190614837565b612c4d565b611463612ca8565b61146b612d01565b8160fc60006101000a81548173ffffffffffffffffffffffffffffffffffffffff021916908373ffffffffffffffffffffffffffffffffffffffff1602179055506114f56040518060a001604052806101f461ffff168152602001607d61ffff168152602001605061ffff168152602001603261ffff168152602001601461ffff168152506112fa565b6115386040518060a00160405280603260ff168152602001601960ff168152602001600f60ff168152602001600a60ff168152602001600560ff168152506116c8565b61156533611544610837565b600a6115509190614719565b6467607658006115609190614837565b612139565b80156115be5760008060016101000a81548160ff0219169083151502179055507f7f26b83ff96e1f2b6a682f133852f6798a09c465da95921460cefb384740249860016040516115b59190614096565b60405180910390a15b5050565b606061010080548060200260200160405190810160405280929190818152602001828054801561163757602002820191906000526020600020906000905b82829054906101000a900460ff1660ff16815260200190600101906020826000010492830192600103820291508084116116005790505b5050505050905090565b6000603460008473ffffffffffffffffffffffffffffffffffffffff1673ffffffffffffffffffffffffffffffffffffffff16815260200190815260200160002060008373ffffffffffffffffffffffffffffffffffffffff1673ffffffffffffffffffffffffffffffffffffffff16815260200190815260200160002054905092915050565b6116d0611981565b73ffffffffffffffffffffffffffffffffffffffff166116ee611124565b73ffffffffffffffffffffffffffffffffffffffff1614611744576040517f08c379a000000000000000000000000000000000000000000000000000000000815260040161173b90614273565b60405180910390fd5b806101009060056117569291906131d3565b5050565b611762611981565b73ffffffffffffffffffffffffffffffffffffffff16611780611124565b73ffffffffffffffffffffffffffffffffffffffff16146117d6576040517f08c379a00000000000000000000000000000000000000000000000000000000081526004016117cd90614273565b60405180910390fd5b600073ffffffffffffffffffffffffffffffffffffffff168173ffffffffffffffffffffffffffffffffffffffff161415611846576040517f08c379a000000000000000000000000000000000000000000000000000000000815260040161183d90614193565b60405180910390fd5b61184f81612997565b50565b600061010160003373ffffffffffffffffffffffffffffffffffffffff1673ffffffffffffffffffffffffffffffffffffffff168152602001908152602001600020826040516118a29190613f64565b908152602001604051809103902060009054906101000a900461ffff169050919050565b6000816040516020016118d99190613f7b565b604051602081830303815290604052805190602001209050919050565b60ff818154811061190657600080fd5b9060005260206000209060109182820401919006600202915054906101000a900461ffff1681565b60008160405160200161194191906143b3565b604051602081830303815290604052805190602001209050919050565b6000808273ffffffffffffffffffffffffffffffffffffffff163b119050919050565b600033905090565b600073ffffffffffffffffffffffffffffffffffffffff168373ffffffffffffffffffffffffffffffffffffffff1614156119f9576040517f08c379a00000000000000000000000000000000000000000000000000000000081526004016119f090614313565b60405180910390fd5b600073ffffffffffffffffffffffffffffffffffffffff168273ffffffffffffffffffffffffffffffffffffffff161415611a69576040517f08c379a0000000000000000000000000000000000000000000000000000000008152600401611a60906141b3565b60405180910390fd5b80603460008573ffffffffffffffffffffffffffffffffffffffff1673ffffffffffffffffffffffffffffffffffffffff16815260200190815260200160002060008473ffffffffffffffffffffffffffffffffffffffff1673ffffffffffffffffffffffffffffffffffffffff168152602001908152602001600020819055508173ffffffffffffffffffffffffffffffffffffffff168373ffffffffffffffffffffffffffffffffffffffff167f8c5be1e5ebec7d5bd14f71427d1e84f3dd0314c0f7b2291e5b200ac8c7c3b92583604051611b4791906143f0565b60405180910390a3505050565b60008060006041845114611b9d576040517f08c379a0000000000000000000000000000000000000000000000000000000008152600401611b9490614353565b60405180910390fd5b6020840151925060408401519150606084015160001a90509193909250565b6000611bc88484611641565b90507fffffffffffffffffffffffffffffffffffffffffffffffffffffffffffffffff8114611c425781811015611c34576040517f08c379a0000000000000000000000000000000000000000000000000000000008152600401611c2b906141d3565b60405180910390fd5b611c418484848403611989565b5b50505050565b600073ffffffffffffffffffffffffffffffffffffffff168373ffffffffffffffffffffffffffffffffffffffff161415611cb8576040517f08c379a0000000000000000000000000000000000000000000000000000000008152600401611caf906142d3565b60405180910390fd5b600073ffffffffffffffffffffffffffffffffffffffff168273ffffffffffffffffffffffffffffffffffffffff161415611d28576040517f08c379a0000000000000000000000000000000000000000000000000000000008152600401611d1f906140f3565b60405180910390fd5b611d33838383612d5a565b6000603360008573ffffffffffffffffffffffffffffffffffffffff1673ffffffffffffffffffffffffffffffffffffffff16815260200190815260200160002054905081811015611dba576040517f08c379a0000000000000000000000000000000000000000000000000000000008152600401611db1906141f3565b60405180910390fd5b818103603360008673ffffffffffffffffffffffffffffffffffffffff1673ffffffffffffffffffffffffffffffffffffffff1681526020019081526020016000208190555081603360008573ffffffffffffffffffffffffffffffffffffffff1673ffffffffffffffffffffffffffffffffffffffff1681526020019081526020016000206000828254611e4f9190614608565b925050819055508273ffffffffffffffffffffffffffffffffffffffff168473ffffffffffffffffffffffffffffffffffffffff167fddf252ad1be2c89b69c2b068fc378daa952ba7f163c4a11628f55a4df523b3ef84604051611eb391906143f0565b60405180910390a3611ec6848484612db2565b50505050565b611ed4613107565b60058361ffff161161208d57600060fe60008673ffffffffffffffffffffffffffffffffffffffff1673ffffffffffffffffffffffffffffffffffffffff168152602001908152602001600020805480602002602001604051908101604052809291908181526020018280548015611fa157602002820191906000526020600020905b8160009054906101000a900473ffffffffffffffffffffffffffffffffffffffff1673ffffffffffffffffffffffffffffffffffffffff1681526020019060010190808311611f57575b50505050509050805183600186611fb89190614891565b61ffff1660058110611ff3577f4e487b7100000000000000000000000000000000000000000000000000000000600052603260045260246000fd5b60200201818151612004919061465e565b91509060ff16908160ff168152505060005b815181101561208a5761207682828151811061205b577f4e487b7100000000000000000000000000000000000000000000000000000000600052603260045260246000fd5b602002602001015160018761207091906145d0565b86611ecc565b50808061208290614a58565b915050612016565b50505b8190509392505050565b61209f610a74565b6120de576040517f08c379a00000000000000000000000000000000000000000000000000000000081526004016120d590614133565b60405180910390fd5b6000609860006101000a81548160ff0219169083151502179055507f5db9ee0a495bf2e6ff9c91a7834c1ba4fdd244a5e8aa4e537bd38aeae4b073aa612122611981565b60405161212f9190613fa1565b60405180910390a1565b612141610893565b8161214a61078f565b6121549190614608565b1115612195576040517f08c379a000000000000000000000000000000000000000000000000000000000815260040161218c906142f3565b60405180910390fd5b61219f8282612db7565b5050565b600073ffffffffffffffffffffffffffffffffffffffff168273ffffffffffffffffffffffffffffffffffffffff161415612213576040517f08c379a000000000000000000000000000000000000000000000000000000000815260040161220a90614293565b60405180910390fd5b61221f82600083612d5a565b6000603360008473ffffffffffffffffffffffffffffffffffffffff1673ffffffffffffffffffffffffffffffffffffffff168152602001908152602001600020549050818110156122a6576040517f08c379a000000000000000000000000000000000000000000000000000000000815260040161229d90614153565b60405180910390fd5b818103603360008573ffffffffffffffffffffffffffffffffffffffff1673ffffffffffffffffffffffffffffffffffffffff1681526020019081526020016000208190555081603560008282546122fe91906148c5565b92505081905550600073ffffffffffffffffffffffffffffffffffffffff168373ffffffffffffffffffffffffffffffffffffffff167fddf252ad1be2c89b69c2b068fc378daa952ba7f163c4a11628f55a4df523b3ef8460405161236391906143f0565b60405180910390a361237783600084612db2565b505050565b60008060019050600083905060005b60058160ff1610156124a8578573ffffffffffffffffffffffffffffffffffffffff1660fd60008473ffffffffffffffffffffffffffffffffffffffff1673ffffffffffffffffffffffffffffffffffffffff16815260200190815260200160002060009054906101000a900473ffffffffffffffffffffffffffffffffffffffff1673ffffffffffffffffffffffffffffffffffffffff16141561243357600092506124a8565b60fd60008373ffffffffffffffffffffffffffffffffffffffff1673ffffffffffffffffffffffffffffffffffffffff16815260200190815260200160002060009054906101000a900473ffffffffffffffffffffffffffffffffffffffff16915080806124a090614aa1565b91505061238b565b50819250505092915050565b600073ffffffffffffffffffffffffffffffffffffffff163373ffffffffffffffffffffffffffffffffffffffff161415612524576040517f08c379a000000000000000000000000000000000000000000000000000000000815260040161251b90614173565b60405180910390fd5b60008111612567576040517f08c379a000000000000000000000000000000000000000000000000000000000815260040161255e906142b3565b60405180910390fd5b6125713382612139565b600060fd60003373ffffffffffffffffffffffffffffffffffffffff1673ffffffffffffffffffffffffffffffffffffffff16815260200190815260200160002060009054906101000a900473ffffffffffffffffffffffffffffffffffffffff16905060005b60ff805490508160ff16101561272257600073ffffffffffffffffffffffffffffffffffffffff168273ffffffffffffffffffffffffffffffffffffffff16141561262257612722565b6000606460ff8360ff1681548110612663577f4e487b7100000000000000000000000000000000000000000000000000000000600052603260045260246000fd5b90600052602060002090601091828204019190066002029054906101000a900461ffff1661ffff16856126969190614837565b6126a09190614695565b90506126ac8382612139565b60fd60008473ffffffffffffffffffffffffffffffffffffffff1673ffffffffffffffffffffffffffffffffffffffff16815260200190815260200160002060009054906101000a900473ffffffffffffffffffffffffffffffffffffffff16925050808061271a90614aa1565b9150506125d8565b505050565b600073ffffffffffffffffffffffffffffffffffffffff163373ffffffffffffffffffffffffffffffffffffffff161415612797576040517f08c379a000000000000000000000000000000000000000000000000000000000815260040161278e90614173565b60405180910390fd5b600081116127da576040517f08c379a00000000000000000000000000000000000000000000000000000000081526004016127d1906142b3565b60405180910390fd5b6127e43382612139565b600060fd60003373ffffffffffffffffffffffffffffffffffffffff1673ffffffffffffffffffffffffffffffffffffffff16815260200190815260200160002060009054906101000a900473ffffffffffffffffffffffffffffffffffffffff16905060005b610100805490508160ff16101561299257600073ffffffffffffffffffffffffffffffffffffffff168273ffffffffffffffffffffffffffffffffffffffff16141561289657612992565b600060646101008360ff16815481106128d8577f4e487b7100000000000000000000000000000000000000000000000000000000600052603260045260246000fd5b90600052602060002090602091828204019190069054906101000a900460ff1660ff16856129069190614837565b6129109190614695565b905061291c8382612139565b60fd60008473ffffffffffffffffffffffffffffffffffffffff1673ffffffffffffffffffffffffffffffffffffffff16815260200190815260200160002060009054906101000a900473ffffffffffffffffffffffffffffffffffffffff16925050808061298a90614aa1565b91505061284b565b505050565b600060ca60009054906101000a900473ffffffffffffffffffffffffffffffffffffffff1690508160ca60006101000a81548173ffffffffffffffffffffffffffffffffffffffff021916908373ffffffffffffffffffffffffffffffffffffffff1602179055508173ffffffffffffffffffffffffffffffffffffffff168173ffffffffffffffffffffffffffffffffffffffff167f8be0079c531659141344cd1fd0a4f28419497f9722a3daafe3b4186f6b6457e060405160405180910390a35050565b612a65610a74565b15612aa5576040517f08c379a0000000000000000000000000000000000000000000000000000000008152600401612a9c90614233565b60405180910390fd5b6001609860006101000a81548160ff0219169083151502179055507f62e78cea01bee320cd4e420270b5ea74000d11b0c9f74754ebdbfc544b05a258612ae9611981565b604051612af69190613fa1565b60405180910390a1565b60008060019054906101000a900460ff1615612b775760018260ff16148015612b2f5750612b2d3061195e565b155b612b6e576040517f08c379a0000000000000000000000000000000000000000000000000000000008152600401612b6590614253565b60405180910390fd5b60009050612beb565b8160ff1660008054906101000a900460ff1660ff1610612bcc576040517f08c379a0000000000000000000000000000000000000000000000000000000008152600401612bc390614253565b60405180910390fd5b816000806101000a81548160ff021916908360ff160217905550600190505b919050565b600060019054906101000a900460ff16612c3f576040517f08c379a0000000000000000000000000000000000000000000000000000000008152600401612c3690614333565b60405180910390fd5b612c498282612f18565b5050565b600060019054906101000a900460ff16612c9c576040517f08c379a0000000000000000000000000000000000000000000000000000000008152600401612c9390614333565b60405180910390fd5b612ca581612f99565b50565b600060019054906101000a900460ff16612cf7576040517f08c379a0000000000000000000000000000000000000000000000000000000008152600401612cee90614333565b60405180910390fd5b612cff613035565b565b600060019054906101000a900460ff16612d50576040517f08c379a0000000000000000000000000000000000000000000000000000000008152600401612d4790614333565b60405180910390fd5b612d586130a1565b565b612d62610a74565b15612da2576040517f08c379a0000000000000000000000000000000000000000000000000000000008152600401612d9990614233565b60405180910390fd5b612dad838383613102565b505050565b505050565b600073ffffffffffffffffffffffffffffffffffffffff168273ffffffffffffffffffffffffffffffffffffffff161415612e27576040517f08c379a0000000000000000000000000000000000000000000000000000000008152600401612e1e90614393565b60405180910390fd5b612e3360008383612d5a565b8060356000828254612e459190614608565b9250508190555080603360008473ffffffffffffffffffffffffffffffffffffffff1673ffffffffffffffffffffffffffffffffffffffff1681526020019081526020016000206000828254612e9b9190614608565b925050819055508173ffffffffffffffffffffffffffffffffffffffff16600073ffffffffffffffffffffffffffffffffffffffff167fddf252ad1be2c89b69c2b068fc378daa952ba7f163c4a11628f55a4df523b3ef83604051612f0091906143f0565b60405180910390a3612f1460008383612db2565b5050565b600060019054906101000a900460ff16612f67576040517f08c379a0000000000000000000000000000000000000000000000000000000008152600401612f5e90614333565b60405180910390fd5b8160369080519060200190612f7d92919061327a565b508060379080519060200190612f9492919061327a565b505050565b600060019054906101000a900460ff16612fe8576040517f08c379a0000000000000000000000000000000000000000000000000000000008152600401612fdf90614333565b60405180910390fd5b6000811161302b576040517f08c379a000000000000000000000000000000000000000000000000000000000815260040161302290614113565b60405180910390fd5b8060658190555050565b600060019054906101000a900460ff16613084576040517f08c379a000000000000000000000000000000000000000000000000000000000815260040161307b90614333565b60405180910390fd5b6000609860006101000a81548160ff021916908315150217905550565b600060019054906101000a900460ff166130f0576040517f08c379a00000000000000000000000000000000000000000000000000000000081526004016130e790614333565b60405180910390fd5b6131006130fb611981565b612997565b565b505050565b6040518060a00160405280600590602082028036833780820191505090505090565b82805482825590600052602060002090600f016010900481019282156131c25791602002820160005b8382111561319257835183826101000a81548161ffff021916908361ffff1602179055509260200192600201602081600101049283019260010302613152565b80156131c05782816101000a81549061ffff0219169055600201602081600101049283019260010302613192565b505b5090506131cf9190613300565b5090565b82805482825590600052602060002090601f016020900481019282156132695791602002820160005b8382111561323a57835183826101000a81548160ff021916908360ff16021790555092602001926001016020816000010492830192600103026131fc565b80156132675782816101000a81549060ff021916905560010160208160000104928301926001030261323a565b505b5090506132769190613300565b5090565b828054613286906149ca565b90600052602060002090601f0160209004810192826132a857600085556132ef565b82601f106132c157805160ff19168380011785556132ef565b828001600101855582156132ef579182015b828111156132ee5782518255916020019190600101906132d3565b5b5090506132fc9190613300565b5090565b5b80821115613319576000816000905550600101613301565b5090565b600061333061332b8461444b565b614426565b9050808285602086028201111561334657600080fd5b60005b85811015613376578161335c88826135cb565b845260208401935060208301925050600181019050613349565b5050509392505050565b600061339361338e84614471565b614426565b905080828560208602820111156133a957600080fd5b60005b858110156133d957816133bf888261360a565b8452602084019350602083019250506001810190506133ac565b5050509392505050565b60006133f66133f184614497565b614426565b90508281526020810184848401111561340e57600080fd5b613419848285614988565b509392505050565b600061343461342f846144c8565b614426565b90508281526020810184848401111561344c57600080fd5b613457848285614988565b509392505050565b60008135905061346e81615175565b92915050565b600082601f83011261348557600080fd5b600561349284828561331d565b91505092915050565b600082601f8301126134ac57600080fd5b60056134b9848285613380565b91505092915050565b6000813590506134d18161518c565b92915050565b600082601f8301126134e857600080fd5b81356134f88482602086016133e3565b91505092915050565b600082601f83011261351257600080fd5b8135613522848260208601613421565b91505092915050565b600060a0828403121561353d57600080fd5b61354760a0614426565b9050600082013567ffffffffffffffff81111561356357600080fd5b61356f84828501613501565b60008301525060206135838482850161345f565b6020830152506040613597848285016135f5565b60408301525060606135ab848285016135e0565b60608301525060806135bf848285016135cb565b60808301525092915050565b6000813590506135da816151a3565b92915050565b6000813590506135ef816151ba565b92915050565b600081359050613604816151d1565b92915050565b600081359050613619816151e8565b92915050565b60006020828403121561363157600080fd5b600061363f8482850161345f565b91505092915050565b6000806040838503121561365b57600080fd5b60006136698582860161345f565b925050602061367a8582860161345f565b9150509250929050565b60008060006060848603121561369957600080fd5b60006136a78682870161345f565b93505060206136b88682870161345f565b92505060406136c9868287016135e0565b9150509250925092565b600080604083850312156136e657600080fd5b60006136f48582860161345f565b9250506020613705858286016135e0565b9150509250929050565b600060a0828403121561372157600080fd5b600061372f84828501613474565b91505092915050565b600060a0828403121561374a57600080fd5b60006137588482850161349b565b91505092915050565b60006020828403121561377357600080fd5b6000613781848285016134c2565b91505092915050565b6000806040838503121561379d57600080fd5b60006137ab858286016134c2565b925050602083013567ffffffffffffffff8111156137c857600080fd5b6137d4858286016134d7565b9150509250929050565b6000602082840312156137f057600080fd5b600082013567ffffffffffffffff81111561380a57600080fd5b61381684828501613501565b91505092915050565b60006020828403121561383157600080fd5b600082013567ffffffffffffffff81111561384b57600080fd5b6138578482850161352b565b91505092915050565b6000806040838503121561387357600080fd5b600083013567ffffffffffffffff81111561388d57600080fd5b6138998582860161352b565b925050602083013567ffffffffffffffff8111156138b657600080fd5b6138c2858286016134d7565b9150509250929050565b6000602082840312156138de57600080fd5b60006138ec848285016135e0565b91505092915050565b60006139018383613efb565b60208301905092915050565b60006139198383613f46565b60208301905092915050565b61392e816148f9565b82525050565b61393d816148f9565b82525050565b600061394e82614523565b6139588185614576565b9350613963836144f9565b8060005b8381101561399457815161397b88826138f5565b97506139868361454f565b925050600181019050613967565b5085935050505092915050565b6139aa8161452e565b6139b48184614587565b92506139bf82614509565b8060005b838110156139f05781516139d7878261390d565b96506139e28361455c565b9250506001810190506139c3565b505050505050565b6000613a0382614539565b613a0d8185614592565b9350613a1883614513565b8060005b83811015613a49578151613a30888261390d565b9750613a3b83614569565b925050600181019050613a1c565b5085935050505092915050565b613a5f8161490b565b82525050565b613a6e81614917565b82525050565b613a85613a8082614917565b614acb565b82525050565b613a9481614976565b82525050565b6000613aa582614544565b613aaf81856145a3565b9350613abf818560208601614997565b613ac881614b91565b840191505092915050565b6000613ade82614544565b613ae881856145b4565b9350613af8818560208601614997565b613b0181614b91565b840191505092915050565b6000613b1782614544565b613b2181856145c5565b9350613b31818560208601614997565b80840191505092915050565b6000613b4a6012836145b4565b9150613b5582614baf565b602082019050919050565b6000613b6d6023836145b4565b9150613b7882614bd8565b604082019050919050565b6000613b906015836145b4565b9150613b9b82614c27565b602082019050919050565b6000613bb36014836145b4565b9150613bbe82614c50565b602082019050919050565b6000613bd66022836145b4565b9150613be182614c79565b604082019050919050565b6000613bf9601c836145c5565b9150613c0482614cc8565b601c82019050919050565b6000613c1c6021836145b4565b9150613c2782614cf1565b604082019050919050565b6000613c3f6026836145b4565b9150613c4a82614d40565b604082019050919050565b6000613c626022836145b4565b9150613c6d82614d8f565b604082019050919050565b6000613c85601d836145b4565b9150613c9082614dde565b602082019050919050565b6000613ca86026836145b4565b9150613cb382614e07565b604082019050919050565b6000613ccb6020836145b4565b9150613cd682614e56565b602082019050919050565b6000613cee6010836145b4565b9150613cf982614e7f565b602082019050919050565b6000613d11602e836145b4565b9150613d1c82614ea8565b604082019050919050565b6000613d346020836145b4565b9150613d3f82614ef7565b602082019050919050565b6000613d576021836145b4565b9150613d6282614f20565b604082019050919050565b6000613d7a6026836145b4565b9150613d8582614f6f565b604082019050919050565b6000613d9d6025836145b4565b9150613da882614fbe565b604082019050919050565b6000613dc06019836145b4565b9150613dcb8261500d565b602082019050919050565b6000613de36024836145b4565b9150613dee82615036565b604082019050919050565b6000613e06602b836145b4565b9150613e1182615085565b604082019050919050565b6000613e296018836145b4565b9150613e34826150d4565b602082019050919050565b6000613e4c6025836145b4565b9150613e57826150fd565b604082019050919050565b6000613e6f601f836145b4565b9150613e7a8261514c565b602082019050919050565b600060a0830160008301518482036000860152613ea28282613a9a565b9150506020830151613eb76020860182613925565b506040830151613eca6040860182613f37565b506060830151613edd6060860182613f19565b506080830151613ef06080860182613efb565b508091505092915050565b613f0481614921565b82525050565b613f1381614921565b82525050565b613f228161494f565b82525050565b613f318161494f565b82525050565b613f4081614959565b82525050565b613f4f81614969565b82525050565b613f5e81614969565b82525050565b6000613f708284613b0c565b915081905092915050565b6000613f8682613bec565b9150613f928284613a74565b60208201915081905092915050565b6000602082019050613fb66000830184613934565b92915050565b60006020820190508181036000830152613fd68184613943565b905092915050565b600060a082019050613ff360008301846139a1565b92915050565b6000602082019050818103600083015261401381846139f8565b905092915050565b60006020820190506140306000830184613a56565b92915050565b600060208201905061404b6000830184613a65565b92915050565b60006080820190506140666000830187613a65565b6140736020830186613f55565b6140806040830185613a65565b61408d6060830184613a65565b95945050505050565b60006020820190506140ab6000830184613a8b565b92915050565b600060208201905081810360008301526140cb8184613ad3565b905092915050565b600060208201905081810360008301526140ec81613b3d565b9050919050565b6000602082019050818103600083015261410c81613b60565b9050919050565b6000602082019050818103600083015261412c81613b83565b9050919050565b6000602082019050818103600083015261414c81613ba6565b9050919050565b6000602082019050818103600083015261416c81613bc9565b9050919050565b6000602082019050818103600083015261418c81613c0f565b9050919050565b600060208201905081810360008301526141ac81613c32565b9050919050565b600060208201905081810360008301526141cc81613c55565b9050919050565b600060208201905081810360008301526141ec81613c78565b9050919050565b6000602082019050818103600083015261420c81613c9b565b9050919050565b6000602082019050818103600083015261422c81613cbe565b9050919050565b6000602082019050818103600083015261424c81613ce1565b9050919050565b6000602082019050818103600083015261426c81613d04565b9050919050565b6000602082019050818103600083015261428c81613d27565b9050919050565b600060208201905081810360008301526142ac81613d4a565b9050919050565b600060208201905081810360008301526142cc81613d6d565b9050919050565b600060208201905081810360008301526142ec81613d90565b9050919050565b6000602082019050818103600083015261430c81613db3565b9050919050565b6000602082019050818103600083015261432c81613dd6565b9050919050565b6000602082019050818103600083015261434c81613df9565b9050919050565b6000602082019050818103600083015261436c81613e1c565b9050919050565b6000602082019050818103600083015261438c81613e3f565b9050919050565b600060208201905081810360008301526143ac81613e62565b9050919050565b600060208201905081810360008301526143cd8184613e85565b905092915050565b60006020820190506143ea6000830184613f0a565b92915050565b60006020820190506144056000830184613f28565b92915050565b60006020820190506144206000830184613f55565b92915050565b6000614430614441565b905061443c82826149fc565b919050565b6000604051905090565b600067ffffffffffffffff82111561446657614465614b62565b5b602082029050919050565b600067ffffffffffffffff82111561448c5761448b614b62565b5b602082029050919050565b600067ffffffffffffffff8211156144b2576144b1614b62565b5b6144bb82614b91565b9050602081019050919050565b600067ffffffffffffffff8211156144e3576144e2614b62565b5b6144ec82614b91565b9050602081019050919050565b6000819050602082019050919050565b6000819050919050565b6000819050602082019050919050565b600081519050919050565b600060059050919050565b600081519050919050565b600081519050919050565b6000602082019050919050565b6000602082019050919050565b6000602082019050919050565b600082825260208201905092915050565b600081905092915050565b600082825260208201905092915050565b600082825260208201905092915050565b600082825260208201905092915050565b600081905092915050565b60006145db82614921565b91506145e683614921565b92508261ffff038211156145fd576145fc614ad5565b5b828201905092915050565b60006146138261494f565b915061461e8361494f565b9250827fffffffffffffffffffffffffffffffffffffffffffffffffffffffffffffffff0382111561465357614652614ad5565b5b828201905092915050565b600061466982614969565b915061467483614969565b92508260ff0382111561468a57614689614ad5565b5b828201905092915050565b60006146a08261494f565b91506146ab8361494f565b9250826146bb576146ba614b04565b5b828204905092915050565b6000808291508390505b6001851115614710578086048111156146ec576146eb614ad5565b5b60018516156146fb5780820291505b808102905061470985614ba2565b94506146d0565b94509492505050565b60006147248261494f565b915061472f83614969565b925061475c7fffffffffffffffffffffffffffffffffffffffffffffffffffffffffffffffff8484614764565b905092915050565b6000826147745760019050614830565b816147825760009050614830565b816001811461479857600281146147a2576147d1565b6001915050614830565b60ff8411156147b4576147b3614ad5565b5b8360020a9150848211156147cb576147ca614ad5565b5b50614830565b5060208310610133831016604e8410600b84101617156148065782820a90508381111561480157614800614ad5565b5b614830565b61481384848460016146c6565b9250905081840481111561482a57614829614ad5565b5b81810290505b9392505050565b60006148428261494f565b915061484d8361494f565b9250817fffffffffffffffffffffffffffffffffffffffffffffffffffffffffffffffff048311821515161561488657614885614ad5565b5b828202905092915050565b600061489c82614921565b91506148a783614921565b9250828210156148ba576148b9614ad5565b5b828203905092915050565b60006148d08261494f565b91506148db8361494f565b9250828210156148ee576148ed614ad5565b5b828203905092915050565b60006149048261492f565b9050919050565b60008115159050919050565b6000819050919050565b600061ffff82169050919050565b600073ffffffffffffffffffffffffffffffffffffffff82169050919050565b6000819050919050565b600063ffffffff82169050919050565b600060ff82169050919050565b600061498182614969565b9050919050565b82818337600083830152505050565b60005b838110156149b557808201518184015260208101905061499a565b838111156149c4576000848401525b50505050565b600060028204905060018216806149e257607f821691505b602082108114156149f6576149f5614b33565b5b50919050565b614a0582614b91565b810181811067ffffffffffffffff82111715614a2457614a23614b62565b5b80604052505050565b6000614a3882614921565b915061ffff821415614a4d57614a4c614ad5565b5b600182019050919050565b6000614a638261494f565b91507fffffffffffffffffffffffffffffffffffffffffffffffffffffffffffffffff821415614a9657614a95614ad5565b5b600182019050919050565b6000614aac82614969565b915060ff821415614ac057614abf614ad5565b5b600182019050919050565b6000819050919050565b7f4e487b7100000000000000000000000000000000000000000000000000000000600052601160045260246000fd5b7f4e487b7100000000000000000000000000000000000000000000000000000000600052601260045260246000fd5b7f4e487b7100000000000000000000000000000000000000000000000000000000600052602260045260246000fd5b7f4e487b7100000000000000000000000000000000000000000000000000000000600052604160045260246000fd5b6000601f19601f8301169050919050565b60008160011c9050919050565b7f4d65737361676520697320657870697265640000000000000000000000000000600082015250565b7f45524332303a207472616e7366657220746f20746865207a65726f206164647260008201527f6573730000000000000000000000000000000000000000000000000000000000602082015250565b7f45524332304361707065643a2063617020697320300000000000000000000000600082015250565b7f5061757361626c653a206e6f7420706175736564000000000000000000000000600082015250565b7f45524332303a206275726e20616d6f756e7420657863656564732062616c616e60008201527f6365000000000000000000000000000000000000000000000000000000000000602082015250565b7f19457468657265756d205369676e6564204d6573736167653a0a333200000000600082015250565b7f45524332303a2072657761726420746f20746865207a65726f2061646472657360008201527f7300000000000000000000000000000000000000000000000000000000000000602082015250565b7f4f776e61626c653a206e6577206f776e657220697320746865207a65726f206160008201527f6464726573730000000000000000000000000000000000000000000000000000602082015250565b7f45524332303a20617070726f766520746f20746865207a65726f20616464726560008201527f7373000000000000000000000000000000000000000000000000000000000000602082015250565b7f45524332303a20696e73756666696369656e7420616c6c6f77616e6365000000600082015250565b7f45524332303a207472616e7366657220616d6f756e742065786365656473206260008201527f616c616e63650000000000000000000000000000000000000000000000000000602082015250565b7f4c696d6974206f66207468697320626f756e7479206973206578636565646564600082015250565b7f5061757361626c653a2070617573656400000000000000000000000000000000600082015250565b7f496e697469616c697a61626c653a20636f6e747261637420697320616c72656160008201527f647920696e697469616c697a6564000000000000000000000000000000000000602082015250565b7f4f776e61626c653a2063616c6c6572206973206e6f7420746865206f776e6572600082015250565b7f45524332303a206275726e2066726f6d20746865207a65726f2061646472657360008201527f7300000000000000000000000000000000000000000000000000000000000000602082015250565b7f45524332303a20616d6f756e74206d757374206265206869676865722074686160008201527f6e207a65726f0000000000000000000000000000000000000000000000000000602082015250565b7f45524332303a207472616e736665722066726f6d20746865207a65726f20616460008201527f6472657373000000000000000000000000000000000000000000000000000000602082015250565b7f45524332304361707065643a2063617020657863656564656400000000000000600082015250565b7f45524332303a20617070726f76652066726f6d20746865207a65726f2061646460008201527f7265737300000000000000000000000000000000000000000000000000000000602082015250565b7f496e697469616c697a61626c653a20636f6e7472616374206973206e6f74206960008201527f6e697469616c697a696e67000000000000000000000000000000000000000000602082015250565b7f696e76616c6964207369676e6174757265206c656e6774680000000000000000600082015250565b7f45524332303a2064656372656173656420616c6c6f77616e63652062656c6f7760008201527f207a65726f000000000000000000000000000000000000000000000000000000602082015250565b7f45524332303a206d696e7420746f20746865207a65726f206164647265737300600082015250565b61517e816148f9565b811461518957600080fd5b50565b61519581614917565b81146151a057600080fd5b50565b6151ac81614921565b81146151b757600080fd5b50565b6151c38161494f565b81146151ce57600080fd5b50565b6151da81614959565b81146151e557600080fd5b50565b6151f181614969565b81146151fc57600080fd5b5056fea26469706673582212203c674a77ca5e57d1274b39de59be0e2309c65efc7c4a20aee3e5f94c0665c85064736f6c63430008040033",
  "linkReferences": {},
  "deployedLinkReferences": {}
}