{
  "_format": "hh-sol-artifact-1",
  "contractName": "Duckies",
  "sourceName": "contracts/Duckies.sol",
  "abi": [
    {
      "inputs": [],
      "stateMutability": "nonpayable",
      "type": "constructor"
    },
    {
      "anonymous": false,
      "inputs": [
        {
          "indexed": true,
          "internalType": "address",
          "name": "owner",
          "type": "address"
        },
        {
          "indexed": true,
          "internalType": "address",
          "name": "spender",
          "type": "address"
        },
        {
          "indexed": false,
          "internalType": "uint256",
          "name": "value",
          "type": "uint256"
        }
      ],
      "name": "Approval",
      "type": "event"
    },
    {
      "anonymous": false,
      "inputs": [
        {
          "indexed": false,
          "internalType": "uint8",
          "name": "version",
          "type": "uint8"
        }
      ],
      "name": "Initialized",
      "type": "event"
    },
    {
      "anonymous": false,
      "inputs": [
        {
          "indexed": true,
          "internalType": "address",
          "name": "previousOwner",
          "type": "address"
        },
        {
          "indexed": true,
          "internalType": "address",
          "name": "newOwner",
          "type": "address"
        }
      ],
      "name": "OwnershipTransferred",
      "type": "event"
    },
    {
      "anonymous": false,
      "inputs": [
        {
          "indexed": false,
          "internalType": "address",
          "name": "account",
          "type": "address"
        }
      ],
      "name": "Paused",
      "type": "event"
    },
    {
      "anonymous": false,
      "inputs": [
        {
          "indexed": true,
          "internalType": "address",
          "name": "from",
          "type": "address"
        },
        {
          "indexed": true,
          "internalType": "address",
          "name": "to",
          "type": "address"
        },
        {
          "indexed": false,
          "internalType": "uint256",
          "name": "value",
          "type": "uint256"
        }
      ],
      "name": "Transfer",
      "type": "event"
    },
    {
      "anonymous": false,
      "inputs": [
        {
          "indexed": false,
          "internalType": "address",
          "name": "account",
          "type": "address"
        }
      ],
      "name": "Unpaused",
      "type": "event"
    },
    {
      "inputs": [
        {
          "internalType": "uint256",
          "name": "",
          "type": "uint256"
        }
      ],
      "name": "_payouts",
      "outputs": [
        {
          "internalType": "uint16",
          "name": "",
          "type": "uint16"
        }
      ],
      "stateMutability": "view",
      "type": "function"
    },
    {
      "inputs": [
        {
          "internalType": "address",
          "name": "owner",
          "type": "address"
        },
        {
          "internalType": "address",
          "name": "spender",
          "type": "address"
        }
      ],
      "name": "allowance",
      "outputs": [
        {
          "internalType": "uint256",
          "name": "",
          "type": "uint256"
        }
      ],
      "stateMutability": "view",
      "type": "function"
    },
    {
      "inputs": [
        {
          "internalType": "address",
          "name": "spender",
          "type": "address"
        },
        {
          "internalType": "uint256",
          "name": "amount",
          "type": "uint256"
        }
      ],
      "name": "approve",
      "outputs": [
        {
          "internalType": "bool",
          "name": "",
          "type": "bool"
        }
      ],
      "stateMutability": "nonpayable",
      "type": "function"
    },
    {
      "inputs": [
        {
          "internalType": "address",
          "name": "account",
          "type": "address"
        }
      ],
      "name": "balanceOf",
      "outputs": [
        {
          "internalType": "uint256",
          "name": "",
          "type": "uint256"
        }
      ],
      "stateMutability": "view",
      "type": "function"
    },
    {
      "inputs": [
        {
          "internalType": "uint256",
          "name": "amount",
          "type": "uint256"
        }
      ],
      "name": "burn",
      "outputs": [],
      "stateMutability": "nonpayable",
      "type": "function"
    },
    {
      "inputs": [
        {
          "internalType": "address",
          "name": "account",
          "type": "address"
        },
        {
          "internalType": "uint256",
          "name": "amount",
          "type": "uint256"
        }
      ],
      "name": "burnFrom",
      "outputs": [],
      "stateMutability": "nonpayable",
      "type": "function"
    },
    {
      "inputs": [],
      "name": "cap",
      "outputs": [
        {
          "internalType": "uint256",
          "name": "",
          "type": "uint256"
        }
      ],
      "stateMutability": "view",
      "type": "function"
    },
    {
      "inputs": [],
      "name": "decimals",
      "outputs": [
        {
          "internalType": "uint8",
          "name": "",
          "type": "uint8"
        }
      ],
      "stateMutability": "view",
      "type": "function"
    },
    {
      "inputs": [
        {
          "internalType": "address",
          "name": "spender",
          "type": "address"
        },
        {
          "internalType": "uint256",
          "name": "subtractedValue",
          "type": "uint256"
        }
      ],
      "name": "decreaseAllowance",
      "outputs": [
        {
          "internalType": "bool",
          "name": "",
          "type": "bool"
        }
      ],
      "stateMutability": "nonpayable",
      "type": "function"
    },
    {
      "inputs": [],
      "name": "getAffiliatesCount",
      "outputs": [
        {
          "internalType": "uint8[5]",
          "name": "",
          "type": "uint8[5]"
        }
      ],
      "stateMutability": "view",
      "type": "function"
    },
    {
      "inputs": [
        {
          "internalType": "bytes32",
          "name": "_messageHash",
          "type": "bytes32"
        }
      ],
      "name": "getEthSignedMessageHash",
      "outputs": [
        {
          "internalType": "bytes32",
          "name": "",
          "type": "bytes32"
        }
      ],
      "stateMutability": "pure",
      "type": "function"
    },
    {
      "inputs": [
        {
          "components": [
            {
              "internalType": "string",
              "name": "id",
              "type": "string"
            },
            {
              "internalType": "address",
              "name": "ref",
              "type": "address"
            },
            {
              "internalType": "uint32",
              "name": "amt",
              "type": "uint32"
            },
            {
              "internalType": "uint256",
              "name": "blockExpiration",
              "type": "uint256"
            },
            {
              "internalType": "uint16",
              "name": "limit",
              "type": "uint16"
            }
          ],
          "internalType": "struct Duckies.Message",
          "name": "_message",
          "type": "tuple"
        }
      ],
      "name": "getMessageHash",
      "outputs": [
        {
          "internalType": "bytes32",
          "name": "",
          "type": "bytes32"
        }
      ],
      "stateMutability": "pure",
      "type": "function"
    },
    {
      "inputs": [],
      "name": "getPayouts",
      "outputs": [
        {
          "internalType": "uint16[]",
          "name": "",
          "type": "uint16[]"
        }
      ],
      "stateMutability": "view",
      "type": "function"
    },
    {
      "inputs": [
        {
          "internalType": "address",
          "name": "spender",
          "type": "address"
        },
        {
          "internalType": "uint256",
          "name": "addedValue",
          "type": "uint256"
        }
      ],
      "name": "increaseAllowance",
      "outputs": [
        {
          "internalType": "bool",
          "name": "",
          "type": "bool"
        }
      ],
      "stateMutability": "nonpayable",
      "type": "function"
    },
    {
      "inputs": [
        {
          "internalType": "address",
          "name": "issuer",
          "type": "address"
        }
      ],
      "name": "initialize",
      "outputs": [],
      "stateMutability": "nonpayable",
      "type": "function"
    },
    {
      "inputs": [
        {
          "internalType": "address",
          "name": "to",
          "type": "address"
        },
        {
          "internalType": "uint256",
          "name": "amount",
          "type": "uint256"
        }
      ],
      "name": "mint",
      "outputs": [],
      "stateMutability": "nonpayable",
      "type": "function"
    },
    {
      "inputs": [],
      "name": "name",
      "outputs": [
        {
          "internalType": "string",
          "name": "",
          "type": "string"
        }
      ],
      "stateMutability": "view",
      "type": "function"
    },
    {
      "inputs": [],
      "name": "owner",
      "outputs": [
        {
          "internalType": "address",
          "name": "",
          "type": "address"
        }
      ],
      "stateMutability": "view",
      "type": "function"
    },
    {
      "inputs": [],
      "name": "pause",
      "outputs": [],
      "stateMutability": "nonpayable",
      "type": "function"
    },
    {
      "inputs": [],
      "name": "paused",
      "outputs": [
        {
          "internalType": "bool",
          "name": "",
          "type": "bool"
        }
      ],
      "stateMutability": "view",
      "type": "function"
    },
    {
      "inputs": [
        {
          "internalType": "bytes32",
          "name": "_ethSignedMessageHash",
          "type": "bytes32"
        },
        {
          "internalType": "bytes",
          "name": "_sig",
          "type": "bytes"
        }
      ],
      "name": "recover",
      "outputs": [
        {
          "internalType": "address",
          "name": "",
          "type": "address"
        }
      ],
      "stateMutability": "pure",
      "type": "function"
    },
    {
      "inputs": [],
      "name": "renounceOwnership",
      "outputs": [],
      "stateMutability": "nonpayable",
      "type": "function"
    },
    {
      "inputs": [
        {
          "components": [
            {
              "internalType": "string",
              "name": "id",
              "type": "string"
            },
            {
              "internalType": "address",
              "name": "ref",
              "type": "address"
            },
            {
              "internalType": "uint32",
              "name": "amt",
              "type": "uint32"
            },
            {
              "internalType": "uint256",
              "name": "blockExpiration",
              "type": "uint256"
            },
            {
              "internalType": "uint16",
              "name": "limit",
              "type": "uint16"
            }
          ],
          "internalType": "struct Duckies.Message",
          "name": "_message",
          "type": "tuple"
        },
        {
          "internalType": "bytes",
          "name": "_sig",
          "type": "bytes"
        }
      ],
      "name": "reward",
      "outputs": [],
      "stateMutability": "nonpayable",
      "type": "function"
    },
    {
      "inputs": [
        {
          "internalType": "uint16[5]",
          "name": "payouts",
          "type": "uint16[5]"
        }
      ],
      "name": "setPayouts",
      "outputs": [],
      "stateMutability": "nonpayable",
      "type": "function"
    },
    {
      "inputs": [],
      "name": "symbol",
      "outputs": [
        {
          "internalType": "string",
          "name": "",
          "type": "string"
        }
      ],
      "stateMutability": "view",
      "type": "function"
    },
    {
      "inputs": [],
      "name": "totalSupply",
      "outputs": [
        {
          "internalType": "uint256",
          "name": "",
          "type": "uint256"
        }
      ],
      "stateMutability": "view",
      "type": "function"
    },
    {
      "inputs": [
        {
          "internalType": "address",
          "name": "to",
          "type": "address"
        },
        {
          "internalType": "uint256",
          "name": "amount",
          "type": "uint256"
        }
      ],
      "name": "transfer",
      "outputs": [
        {
          "internalType": "bool",
          "name": "",
          "type": "bool"
        }
      ],
      "stateMutability": "nonpayable",
      "type": "function"
    },
    {
      "inputs": [
        {
          "internalType": "address",
          "name": "from",
          "type": "address"
        },
        {
          "internalType": "address",
          "name": "to",
          "type": "address"
        },
        {
          "internalType": "uint256",
          "name": "amount",
          "type": "uint256"
        }
      ],
      "name": "transferFrom",
      "outputs": [
        {
          "internalType": "bool",
          "name": "",
          "type": "bool"
        }
      ],
      "stateMutability": "nonpayable",
      "type": "function"
    },
    {
      "inputs": [
        {
          "internalType": "address",
          "name": "newOwner",
          "type": "address"
        }
      ],
      "name": "transferOwnership",
      "outputs": [],
      "stateMutability": "nonpayable",
      "type": "function"
    },
    {
      "inputs": [],
      "name": "unpause",
      "outputs": [],
      "stateMutability": "nonpayable",
      "type": "function"
    }
  ],
  "bytecode": "0x60806040523480156200001157600080fd5b50620000226200002860201b60201c565b6200020f565b6200003a60ff6200003d60201b60201c565b50565b60008060019054906101000a900460ff1615620000c75760018260ff161480156200007b575062000079306200014360201b620016881760201c565b155b620000bd576040517f08c379a0000000000000000000000000000000000000000000000000000000008152600401620000b4906200018d565b60405180910390fd5b600090506200013e565b8160ff1660008054906101000a900460ff1660ff16106200011f576040517f08c379a000000000000000000000000000000000000000000000000000000000815260040162000116906200018d565b60405180910390fd5b816000806101000a81548160ff021916908360ff160217905550600190505b919050565b6000808273ffffffffffffffffffffffffffffffffffffffff163b119050919050565b600062000175602e83620001af565b91506200018282620001c0565b604082019050919050565b60006020820190508181036000830152620001a88162000166565b9050919050565b600082825260208201905092915050565b7f496e697469616c697a61626c653a20636f6e747261637420697320616c72656160008201527f647920696e697469616c697a6564000000000000000000000000000000000000602082015250565b614a49806200021f6000396000f3fe608060405234801561001057600080fd5b50600436106101da5760003560e01c80636bf90c8411610104578063a457c2d7116100a2578063dd62ed3e11610071578063dd62ed3e14610533578063f2fde38b14610563578063fa5408011461057f578063fd7452fc146105af576101da565b8063a457c2d71461049b578063a9059cbb146104cb578063c4d66de8146104fb578063cb1c9c2114610517576101da565b806379cc6790116100de57806379cc6790146104395780638456cb59146104555780638da5cb5b1461045f57806395d89b411461047d576101da565b80636bf90c84146103e157806370a08231146103ff578063715018a61461042f576101da565b806334c4b14b1161017c57806340c10f191161014b57806340c10f191461036f57806342966c681461038b5780635c975abb146103a75780635ddd8711146103c5576101da565b806334c4b14b146102f9578063355274ea1461031757806339509351146103355780633f4ba83a14610365576101da565b806318160ddd116101b857806318160ddd1461025d57806319045a251461027b57806323b872dd146102ab578063313ce567146102db576101da565b806306fdde03146101df578063095ea7b3146101fd5780631626bb351461022d575b600080fd5b6101e76105df565b6040516101f4919061393b565b60405180910390f35b61021760048036038101906102129190613047565b610671565b60405161022491906138a5565b60405180910390f35b610247600480360381019061024291906131d6565b610694565b6040516102549190613c5f565b60405180910390f35b6102656106cc565b6040516102729190613c7a565b60405180910390f35b610295600480360381019061029091906130d5565b6106d6565b6040516102a2919061384d565b60405180910390f35b6102c560048036038101906102c09190612ff8565b610745565b6040516102d291906138a5565b60405180910390f35b6102e3610774565b6040516102f09190613c95565b60405180910390f35b61030161077d565b60405161030e919061388a565b60405180910390f35b61031f6107d0565b60405161032c9190613c7a565b60405180910390f35b61034f600480360381019061034a9190613047565b6107da565b60405161035c91906138a5565b60405180910390f35b61036d610811565b005b61038960048036038101906103849190613047565b610897565b005b6103a560048036038101906103a091906131d6565b610921565b005b6103af6109b1565b6040516103bc91906138a5565b60405180910390f35b6103df60048036038101906103da919061316a565b6109c8565b005b6103e9610e5b565b6040516103f69190613868565b60405180910390f35b61041960048036038101906104149190612f93565b610edb565b6040516104269190613c7a565b60405180910390f35b610437610f24565b005b610453600480360381019061044e9190613047565b610fac565b005b61045d611048565b005b6104676110ce565b604051610474919061384d565b60405180910390f35b6104856110f8565b604051610492919061393b565b60405180910390f35b6104b560048036038101906104b09190613047565b61118a565b6040516104c291906138a5565b60405180910390f35b6104e560048036038101906104e09190613047565b611201565b6040516104f291906138a5565b60405180910390f35b61051560048036038101906105109190612f93565b611224565b005b610531600480360381019061052c9190613083565b611418565b005b61054d60048036038101906105489190612fbc565b6114a9565b60405161055a9190613c7a565b60405180910390f35b61057d60048036038101906105789190612f93565b611530565b005b610599600480360381019061059491906130ac565b611628565b6040516105a691906138c0565b60405180910390f35b6105c960048036038101906105c49190613129565b611658565b6040516105d691906138c0565b60405180910390f35b6060603680546105ee906141f5565b80601f016020809104026020016040519081016040528092919081815260200182805461061a906141f5565b80156106675780601f1061063c57610100808354040283529160200191610667565b820191906000526020600020905b81548152906001019060200180831161064a57829003601f168201915b5050505050905090565b60008061067c6116ab565b90506106898185856116b3565b600191505092915050565b60ff81815481106106a457600080fd5b9060005260206000209060109182820401919006600202915054906101000a900461ffff1681565b6000603554905090565b6000806000806106e58561187e565b9250925092506001868285856040516000815260200160405260405161070e94939291906138db565b6020604051602081039080840390855afa158015610730573d6000803e3d6000fd5b50505060206040510351935050505092915050565b6000806107506116ab565b905061075d8582856118e6565b610768858585611972565b60019150509392505050565b60006002905090565b610785612bc1565b6107cb3360016040518060a00160405280600060ff168152602001600060ff168152602001600060ff168152602001600060ff168152602001600060ff16815250611bf6565b905090565b6000606554905090565b6000806107e56116ab565b90506108068185856107f785896114a9565b6108019190613e33565b6116b3565b600191505092915050565b6108196116ab565b73ffffffffffffffffffffffffffffffffffffffff166108376110ce565b73ffffffffffffffffffffffffffffffffffffffff161461088d576040517f08c379a000000000000000000000000000000000000000000000000000000000815260040161088490613afd565b60405180910390fd5b610895611dc1565b565b61089f6116ab565b73ffffffffffffffffffffffffffffffffffffffff166108bd6110ce565b73ffffffffffffffffffffffffffffffffffffffff1614610913576040517f08c379a000000000000000000000000000000000000000000000000000000000815260040161090a90613afd565b60405180910390fd5b61091d8282611e63565b5050565b6109296116ab565b73ffffffffffffffffffffffffffffffffffffffff166109476110ce565b73ffffffffffffffffffffffffffffffffffffffff161461099d576040517f08c379a000000000000000000000000000000000000000000000000000000000815260040161099490613afd565b60405180910390fd5b6109ae6109a86116ab565b82611ecd565b50565b6000609860009054906101000a900460ff16905090565b60006109d383611658565b905060006109e082611628565b90508360600151431115610a29576040517f08c379a0000000000000000000000000000000000000000000000000000000008152600401610a209061395d565b60405180910390fd5b60fc60009054906101000a900473ffffffffffffffffffffffffffffffffffffffff1673ffffffffffffffffffffffffffffffffffffffff16610a6c82856106d6565b73ffffffffffffffffffffffffffffffffffffffff1614610a8c57600080fd5b600073ffffffffffffffffffffffffffffffffffffffff16846020015173ffffffffffffffffffffffffffffffffffffffff1614610cdb57600073ffffffffffffffffffffffffffffffffffffffff1660fd60003373ffffffffffffffffffffffffffffffffffffffff1673ffffffffffffffffffffffffffffffffffffffff16815260200190815260200160002060009054906101000a900473ffffffffffffffffffffffffffffffffffffffff1673ffffffffffffffffffffffffffffffffffffffff1614610b5c57600080fd5b836020015173ffffffffffffffffffffffffffffffffffffffff163373ffffffffffffffffffffffffffffffffffffffff161415610b9957600080fd5b610ba73385602001516120a6565b610bb057600080fd5b836020015160fd60003373ffffffffffffffffffffffffffffffffffffffff1673ffffffffffffffffffffffffffffffffffffffff16815260200190815260200160002060006101000a81548173ffffffffffffffffffffffffffffffffffffffff021916908373ffffffffffffffffffffffffffffffffffffffff16021790555060fe6000856020015173ffffffffffffffffffffffffffffffffffffffff1673ffffffffffffffffffffffffffffffffffffffff168152602001908152602001600020339080600181540180825580915050600190039060005260206000200160009091909190916101000a81548173ffffffffffffffffffffffffffffffffffffffff021916908373ffffffffffffffffffffffffffffffffffffffff160217905550610e42565b6000846080015161ffff1614610da857836080015161ffff1661010060003373ffffffffffffffffffffffffffffffffffffffff1673ffffffffffffffffffffffffffffffffffffffff1681526020019081526020016000208560000151604051610d469190613810565b908152602001604051809103902060009054906101000a900461ffff1661ffff1610610da7576040517f08c379a0000000000000000000000000000000000000000000000000000000008152600401610d9e90613a9d565b60405180910390fd5b5b61010060003373ffffffffffffffffffffffffffffffffffffffff1673ffffffffffffffffffffffffffffffffffffffff1681526020019081526020016000208460000151604051610dfa9190613810565b9081526020016040518091039020600081819054906101000a900461ffff1680929190610e2690614258565b91906101000a81548161ffff021916908361ffff160217905550505b610e55846040015163ffffffff166121de565b50505050565b606060ff805480602002602001604051908101604052809291908181526020018280548015610ed157602002820191906000526020600020906000905b82829054906101000a900461ffff1661ffff1681526020019060020190602082600101049283019260010382029150808411610e985790505b5050505050905090565b6000603360008373ffffffffffffffffffffffffffffffffffffffff1673ffffffffffffffffffffffffffffffffffffffff168152602001908152602001600020549050919050565b610f2c6116ab565b73ffffffffffffffffffffffffffffffffffffffff16610f4a6110ce565b73ffffffffffffffffffffffffffffffffffffffff1614610fa0576040517f08c379a0000000000000000000000000000000000000000000000000000000008152600401610f9790613afd565b60405180910390fd5b610faa6000612451565b565b610fb46116ab565b73ffffffffffffffffffffffffffffffffffffffff16610fd26110ce565b73ffffffffffffffffffffffffffffffffffffffff1614611028576040517f08c379a000000000000000000000000000000000000000000000000000000000815260040161101f90613afd565b60405180910390fd5b61103a826110346116ab565b836118e6565b6110448282611ecd565b5050565b6110506116ab565b73ffffffffffffffffffffffffffffffffffffffff1661106e6110ce565b73ffffffffffffffffffffffffffffffffffffffff16146110c4576040517f08c379a00000000000000000000000000000000000000000000000000000000081526004016110bb90613afd565b60405180910390fd5b6110cc612517565b565b600060ca60009054906101000a900473ffffffffffffffffffffffffffffffffffffffff16905090565b606060378054611107906141f5565b80601f0160208091040260200160405190810160405280929190818152602001828054611133906141f5565b80156111805780601f1061115557610100808354040283529160200191611180565b820191906000526020600020905b81548152906001019060200180831161116357829003601f168201915b5050505050905090565b6000806111956116ab565b905060006111a382866114a9565b9050838110156111e8576040517f08c379a00000000000000000000000000000000000000000000000000000000081526004016111df90613bfd565b60405180910390fd5b6111f582868684036116b3565b60019250505092915050565b60008061120c6116ab565b9050611219818585611972565b600191505092915050565b600061123060016125ba565b90508015611254576001600060016101000a81548160ff0219169083151502179055505b6112c86040518060400160405280600e81526020017f59656c6c6f77204475636b6965730000000000000000000000000000000000008152506040518060400160405280600581526020017f4455434b5a0000000000000000000000000000000000000000000000000000008152506126aa565b6112f46112d3610774565b600a6112df9190613f44565b64cec0ecb0006112ef9190614062565b612707565b6112fc612762565b6113046127bb565b8160fc60006101000a81548173ffffffffffffffffffffffffffffffffffffffff021916908373ffffffffffffffffffffffffffffffffffffffff16021790555061138e6040518060a001604052806101f461ffff168152602001607d61ffff168152602001605061ffff168152602001603261ffff168152602001601461ffff16815250611418565b6113bb3361139a610774565b600a6113a69190613f44565b6467607658006113b69190614062565b611e63565b80156114145760008060016101000a81548160ff0219169083151502179055507f7f26b83ff96e1f2b6a682f133852f6798a09c465da95921460cefb3847402498600160405161140b9190613920565b60405180910390a15b5050565b6114206116ab565b73ffffffffffffffffffffffffffffffffffffffff1661143e6110ce565b73ffffffffffffffffffffffffffffffffffffffff1614611494576040517f08c379a000000000000000000000000000000000000000000000000000000000815260040161148b90613afd565b60405180910390fd5b8060ff9060056114a5929190612be3565b5050565b6000603460008473ffffffffffffffffffffffffffffffffffffffff1673ffffffffffffffffffffffffffffffffffffffff16815260200190815260200160002060008373ffffffffffffffffffffffffffffffffffffffff1673ffffffffffffffffffffffffffffffffffffffff16815260200190815260200160002054905092915050565b6115386116ab565b73ffffffffffffffffffffffffffffffffffffffff166115566110ce565b73ffffffffffffffffffffffffffffffffffffffff16146115ac576040517f08c379a00000000000000000000000000000000000000000000000000000000081526004016115a390613afd565b60405180910390fd5b600073ffffffffffffffffffffffffffffffffffffffff168173ffffffffffffffffffffffffffffffffffffffff16141561161c576040517f08c379a000000000000000000000000000000000000000000000000000000000815260040161161390613a1d565b60405180910390fd5b61162581612451565b50565b60008160405160200161163b9190613827565b604051602081830303815290604052805190602001209050919050565b60008160405160200161166b9190613c3d565b604051602081830303815290604052805190602001209050919050565b6000808273ffffffffffffffffffffffffffffffffffffffff163b119050919050565b600033905090565b600073ffffffffffffffffffffffffffffffffffffffff168373ffffffffffffffffffffffffffffffffffffffff161415611723576040517f08c379a000000000000000000000000000000000000000000000000000000000815260040161171a90613b9d565b60405180910390fd5b600073ffffffffffffffffffffffffffffffffffffffff168273ffffffffffffffffffffffffffffffffffffffff161415611793576040517f08c379a000000000000000000000000000000000000000000000000000000000815260040161178a90613a3d565b60405180910390fd5b80603460008573ffffffffffffffffffffffffffffffffffffffff1673ffffffffffffffffffffffffffffffffffffffff16815260200190815260200160002060008473ffffffffffffffffffffffffffffffffffffffff1673ffffffffffffffffffffffffffffffffffffffff168152602001908152602001600020819055508173ffffffffffffffffffffffffffffffffffffffff168373ffffffffffffffffffffffffffffffffffffffff167f8c5be1e5ebec7d5bd14f71427d1e84f3dd0314c0f7b2291e5b200ac8c7c3b925836040516118719190613c7a565b60405180910390a3505050565b600080600060418451146118c7576040517f08c379a00000000000000000000000000000000000000000000000000000000081526004016118be90613bdd565b60405180910390fd5b6020840151925060408401519150606084015160001a90509193909250565b60006118f284846114a9565b90507fffffffffffffffffffffffffffffffffffffffffffffffffffffffffffffffff811461196c578181101561195e576040517f08c379a000000000000000000000000000000000000000000000000000000000815260040161195590613a5d565b60405180910390fd5b61196b84848484036116b3565b5b50505050565b600073ffffffffffffffffffffffffffffffffffffffff168373ffffffffffffffffffffffffffffffffffffffff1614156119e2576040517f08c379a00000000000000000000000000000000000000000000000000000000081526004016119d990613b5d565b60405180910390fd5b600073ffffffffffffffffffffffffffffffffffffffff168273ffffffffffffffffffffffffffffffffffffffff161415611a52576040517f08c379a0000000000000000000000000000000000000000000000000000000008152600401611a499061397d565b60405180910390fd5b611a5d838383612814565b6000603360008573ffffffffffffffffffffffffffffffffffffffff1673ffffffffffffffffffffffffffffffffffffffff16815260200190815260200160002054905081811015611ae4576040517f08c379a0000000000000000000000000000000000000000000000000000000008152600401611adb90613a7d565b60405180910390fd5b818103603360008673ffffffffffffffffffffffffffffffffffffffff1673ffffffffffffffffffffffffffffffffffffffff1681526020019081526020016000208190555081603360008573ffffffffffffffffffffffffffffffffffffffff1673ffffffffffffffffffffffffffffffffffffffff1681526020019081526020016000206000828254611b799190613e33565b925050819055508273ffffffffffffffffffffffffffffffffffffffff168473ffffffffffffffffffffffffffffffffffffffff167fddf252ad1be2c89b69c2b068fc378daa952ba7f163c4a11628f55a4df523b3ef84604051611bdd9190613c7a565b60405180910390a3611bf084848461286c565b50505050565b611bfe612bc1565b60058361ffff1611611db757600060fe60008673ffffffffffffffffffffffffffffffffffffffff1673ffffffffffffffffffffffffffffffffffffffff168152602001908152602001600020805480602002602001604051908101604052809291908181526020018280548015611ccb57602002820191906000526020600020905b8160009054906101000a900473ffffffffffffffffffffffffffffffffffffffff1673ffffffffffffffffffffffffffffffffffffffff1681526020019060010190808311611c81575b50505050509050805183600186611ce291906140bc565b61ffff1660058110611d1d577f4e487b7100000000000000000000000000000000000000000000000000000000600052603260045260246000fd5b60200201818151611d2e9190613e89565b91509060ff16908160ff168152505060005b8151811015611db457611da0828281518110611d85577f4e487b7100000000000000000000000000000000000000000000000000000000600052603260045260246000fd5b6020026020010151600187611d9a9190613dfb565b86611bf6565b508080611dac90614283565b915050611d40565b50505b8190509392505050565b611dc96109b1565b611e08576040517f08c379a0000000000000000000000000000000000000000000000000000000008152600401611dff906139bd565b60405180910390fd5b6000609860006101000a81548160ff0219169083151502179055507f5db9ee0a495bf2e6ff9c91a7834c1ba4fdd244a5e8aa4e537bd38aeae4b073aa611e4c6116ab565b604051611e59919061384d565b60405180910390a1565b611e6b6107d0565b81611e746106cc565b611e7e9190613e33565b1115611ebf576040517f08c379a0000000000000000000000000000000000000000000000000000000008152600401611eb690613b7d565b60405180910390fd5b611ec98282612871565b5050565b600073ffffffffffffffffffffffffffffffffffffffff168273ffffffffffffffffffffffffffffffffffffffff161415611f3d576040517f08c379a0000000000000000000000000000000000000000000000000000000008152600401611f3490613b1d565b60405180910390fd5b611f4982600083612814565b6000603360008473ffffffffffffffffffffffffffffffffffffffff1673ffffffffffffffffffffffffffffffffffffffff16815260200190815260200160002054905081811015611fd0576040517f08c379a0000000000000000000000000000000000000000000000000000000008152600401611fc7906139dd565b60405180910390fd5b818103603360008573ffffffffffffffffffffffffffffffffffffffff1673ffffffffffffffffffffffffffffffffffffffff16815260200190815260200160002081905550816035600082825461202891906140f0565b92505081905550600073ffffffffffffffffffffffffffffffffffffffff168373ffffffffffffffffffffffffffffffffffffffff167fddf252ad1be2c89b69c2b068fc378daa952ba7f163c4a11628f55a4df523b3ef8460405161208d9190613c7a565b60405180910390a36120a18360008461286c565b505050565b60008060019050600083905060005b60058160ff1610156121d2578573ffffffffffffffffffffffffffffffffffffffff1660fd60008473ffffffffffffffffffffffffffffffffffffffff1673ffffffffffffffffffffffffffffffffffffffff16815260200190815260200160002060009054906101000a900473ffffffffffffffffffffffffffffffffffffffff1673ffffffffffffffffffffffffffffffffffffffff16141561215d57600092506121d2565b60fd60008373ffffffffffffffffffffffffffffffffffffffff1673ffffffffffffffffffffffffffffffffffffffff16815260200190815260200160002060009054906101000a900473ffffffffffffffffffffffffffffffffffffffff16915080806121ca906142cc565b9150506120b5565b50819250505092915050565b600073ffffffffffffffffffffffffffffffffffffffff163373ffffffffffffffffffffffffffffffffffffffff16141561224e576040517f08c379a0000000000000000000000000000000000000000000000000000000008152600401612245906139fd565b60405180910390fd5b60008111612291576040517f08c379a000000000000000000000000000000000000000000000000000000000815260040161228890613b3d565b60405180910390fd5b61229b3382611e63565b600060fd60003373ffffffffffffffffffffffffffffffffffffffff1673ffffffffffffffffffffffffffffffffffffffff16815260200190815260200160002060009054906101000a900473ffffffffffffffffffffffffffffffffffffffff16905060005b60ff805490508160ff16101561244c57600073ffffffffffffffffffffffffffffffffffffffff168273ffffffffffffffffffffffffffffffffffffffff16141561234c5761244c565b6000606460ff8360ff168154811061238d577f4e487b7100000000000000000000000000000000000000000000000000000000600052603260045260246000fd5b90600052602060002090601091828204019190066002029054906101000a900461ffff1661ffff16856123c09190614062565b6123ca9190613ec0565b90506123d68382611e63565b60fd60008473ffffffffffffffffffffffffffffffffffffffff1673ffffffffffffffffffffffffffffffffffffffff16815260200190815260200160002060009054906101000a900473ffffffffffffffffffffffffffffffffffffffff169250508080612444906142cc565b915050612302565b505050565b600060ca60009054906101000a900473ffffffffffffffffffffffffffffffffffffffff1690508160ca60006101000a81548173ffffffffffffffffffffffffffffffffffffffff021916908373ffffffffffffffffffffffffffffffffffffffff1602179055508173ffffffffffffffffffffffffffffffffffffffff168173ffffffffffffffffffffffffffffffffffffffff167f8be0079c531659141344cd1fd0a4f28419497f9722a3daafe3b4186f6b6457e060405160405180910390a35050565b61251f6109b1565b1561255f576040517f08c379a000000000000000000000000000000000000000000000000000000000815260040161255690613abd565b60405180910390fd5b6001609860006101000a81548160ff0219169083151502179055507f62e78cea01bee320cd4e420270b5ea74000d11b0c9f74754ebdbfc544b05a2586125a36116ab565b6040516125b0919061384d565b60405180910390a1565b60008060019054906101000a900460ff16156126315760018260ff161480156125e957506125e730611688565b155b612628576040517f08c379a000000000000000000000000000000000000000000000000000000000815260040161261f90613add565b60405180910390fd5b600090506126a5565b8160ff1660008054906101000a900460ff1660ff1610612686576040517f08c379a000000000000000000000000000000000000000000000000000000000815260040161267d90613add565b60405180910390fd5b816000806101000a81548160ff021916908360ff160217905550600190505b919050565b600060019054906101000a900460ff166126f9576040517f08c379a00000000000000000000000000000000000000000000000000000000081526004016126f090613bbd565b60405180910390fd5b61270382826129d2565b5050565b600060019054906101000a900460ff16612756576040517f08c379a000000000000000000000000000000000000000000000000000000000815260040161274d90613bbd565b60405180910390fd5b61275f81612a53565b50565b600060019054906101000a900460ff166127b1576040517f08c379a00000000000000000000000000000000000000000000000000000000081526004016127a890613bbd565b60405180910390fd5b6127b9612aef565b565b600060019054906101000a900460ff1661280a576040517f08c379a000000000000000000000000000000000000000000000000000000000815260040161280190613bbd565b60405180910390fd5b612812612b5b565b565b61281c6109b1565b1561285c576040517f08c379a000000000000000000000000000000000000000000000000000000000815260040161285390613abd565b60405180910390fd5b612867838383612bbc565b505050565b505050565b600073ffffffffffffffffffffffffffffffffffffffff168273ffffffffffffffffffffffffffffffffffffffff1614156128e1576040517f08c379a00000000000000000000000000000000000000000000000000000000081526004016128d890613c1d565b60405180910390fd5b6128ed60008383612814565b80603560008282546128ff9190613e33565b9250508190555080603360008473ffffffffffffffffffffffffffffffffffffffff1673ffffffffffffffffffffffffffffffffffffffff16815260200190815260200160002060008282546129559190613e33565b925050819055508173ffffffffffffffffffffffffffffffffffffffff16600073ffffffffffffffffffffffffffffffffffffffff167fddf252ad1be2c89b69c2b068fc378daa952ba7f163c4a11628f55a4df523b3ef836040516129ba9190613c7a565b60405180910390a36129ce6000838361286c565b5050565b600060019054906101000a900460ff16612a21576040517f08c379a0000000000000000000000000000000000000000000000000000000008152600401612a1890613bbd565b60405180910390fd5b8160369080519060200190612a37929190612c8d565b508060379080519060200190612a4e929190612c8d565b505050565b600060019054906101000a900460ff16612aa2576040517f08c379a0000000000000000000000000000000000000000000000000000000008152600401612a9990613bbd565b60405180910390fd5b60008111612ae5576040517f08c379a0000000000000000000000000000000000000000000000000000000008152600401612adc9061399d565b60405180910390fd5b8060658190555050565b600060019054906101000a900460ff16612b3e576040517f08c379a0000000000000000000000000000000000000000000000000000000008152600401612b3590613bbd565b60405180910390fd5b6000609860006101000a81548160ff021916908315150217905550565b600060019054906101000a900460ff16612baa576040517f08c379a0000000000000000000000000000000000000000000000000000000008152600401612ba190613bbd565b60405180910390fd5b612bba612bb56116ab565b612451565b565b505050565b6040518060a00160405280600590602082028036833780820191505090505090565b82805482825590600052602060002090600f01601090048101928215612c7c5791602002820160005b83821115612c4c57835183826101000a81548161ffff021916908361ffff1602179055509260200192600201602081600101049283019260010302612c0c565b8015612c7a5782816101000a81549061ffff0219169055600201602081600101049283019260010302612c4c565b505b509050612c899190612d13565b5090565b828054612c99906141f5565b90600052602060002090601f016020900481019282612cbb5760008555612d02565b82601f10612cd457805160ff1916838001178555612d02565b82800160010185558215612d02579182015b82811115612d01578251825591602001919060010190612ce6565b5b509050612d0f9190612d13565b5090565b5b80821115612d2c576000816000905550600101612d14565b5090565b6000612d43612d3e84613cd5565b613cb0565b90508082856020860282011115612d5957600080fd5b60005b85811015612d895781612d6f8882612f54565b845260208401935060208301925050600181019050612d5c565b5050509392505050565b6000612da6612da184613cfb565b613cb0565b905082815260208101848484011115612dbe57600080fd5b612dc98482856141b3565b509392505050565b6000612de4612ddf84613d2c565b613cb0565b905082815260208101848484011115612dfc57600080fd5b612e078482856141b3565b509392505050565b600081359050612e1e816149a0565b92915050565b600082601f830112612e3557600080fd5b6005612e42848285612d30565b91505092915050565b600081359050612e5a816149b7565b92915050565b600082601f830112612e7157600080fd5b8135612e81848260208601612d93565b91505092915050565b600082601f830112612e9b57600080fd5b8135612eab848260208601612dd1565b91505092915050565b600060a08284031215612ec657600080fd5b612ed060a0613cb0565b9050600082013567ffffffffffffffff811115612eec57600080fd5b612ef884828501612e8a565b6000830152506020612f0c84828501612e0f565b6020830152506040612f2084828501612f7e565b6040830152506060612f3484828501612f69565b6060830152506080612f4884828501612f54565b60808301525092915050565b600081359050612f63816149ce565b92915050565b600081359050612f78816149e5565b92915050565b600081359050612f8d816149fc565b92915050565b600060208284031215612fa557600080fd5b6000612fb384828501612e0f565b91505092915050565b60008060408385031215612fcf57600080fd5b6000612fdd85828601612e0f565b9250506020612fee85828601612e0f565b9150509250929050565b60008060006060848603121561300d57600080fd5b600061301b86828701612e0f565b935050602061302c86828701612e0f565b925050604061303d86828701612f69565b9150509250925092565b6000806040838503121561305a57600080fd5b600061306885828601612e0f565b925050602061307985828601612f69565b9150509250929050565b600060a0828403121561309557600080fd5b60006130a384828501612e24565b91505092915050565b6000602082840312156130be57600080fd5b60006130cc84828501612e4b565b91505092915050565b600080604083850312156130e857600080fd5b60006130f685828601612e4b565b925050602083013567ffffffffffffffff81111561311357600080fd5b61311f85828601612e60565b9150509250929050565b60006020828403121561313b57600080fd5b600082013567ffffffffffffffff81111561315557600080fd5b61316184828501612eb4565b91505092915050565b6000806040838503121561317d57600080fd5b600083013567ffffffffffffffff81111561319757600080fd5b6131a385828601612eb4565b925050602083013567ffffffffffffffff8111156131c057600080fd5b6131cc85828601612e60565b9150509250929050565b6000602082840312156131e857600080fd5b60006131f684828501612f69565b91505092915050565b600061320b83836137a7565b60208301905092915050565b600061322383836137f2565b60208301905092915050565b61323881614124565b82525050565b61324781614124565b82525050565b600061325882613d77565b6132628185613db2565b935061326d83613d5d565b8060005b8381101561329e57815161328588826131ff565b975061329083613d98565b925050600181019050613271565b5085935050505092915050565b6132b481613d82565b6132be8184613dc3565b92506132c982613d6d565b8060005b838110156132fa5781516132e18782613217565b96506132ec83613da5565b9250506001810190506132cd565b505050505050565b61330b81614136565b82525050565b61331a81614142565b82525050565b61333161332c82614142565b6142f6565b82525050565b613340816141a1565b82525050565b600061335182613d8d565b61335b8185613dce565b935061336b8185602086016141c2565b613374816143bc565b840191505092915050565b600061338a82613d8d565b6133948185613ddf565b93506133a48185602086016141c2565b6133ad816143bc565b840191505092915050565b60006133c382613d8d565b6133cd8185613df0565b93506133dd8185602086016141c2565b80840191505092915050565b60006133f6601283613ddf565b9150613401826143da565b602082019050919050565b6000613419602383613ddf565b915061342482614403565b604082019050919050565b600061343c601583613ddf565b915061344782614452565b602082019050919050565b600061345f601483613ddf565b915061346a8261447b565b602082019050919050565b6000613482602283613ddf565b915061348d826144a4565b604082019050919050565b60006134a5601c83613df0565b91506134b0826144f3565b601c82019050919050565b60006134c8602183613ddf565b91506134d38261451c565b604082019050919050565b60006134eb602683613ddf565b91506134f68261456b565b604082019050919050565b600061350e602283613ddf565b9150613519826145ba565b604082019050919050565b6000613531601d83613ddf565b915061353c82614609565b602082019050919050565b6000613554602683613ddf565b915061355f82614632565b604082019050919050565b6000613577602083613ddf565b915061358282614681565b602082019050919050565b600061359a601083613ddf565b91506135a5826146aa565b602082019050919050565b60006135bd602e83613ddf565b91506135c8826146d3565b604082019050919050565b60006135e0602083613ddf565b91506135eb82614722565b602082019050919050565b6000613603602183613ddf565b915061360e8261474b565b604082019050919050565b6000613626602683613ddf565b91506136318261479a565b604082019050919050565b6000613649602583613ddf565b9150613654826147e9565b604082019050919050565b600061366c601983613ddf565b915061367782614838565b602082019050919050565b600061368f602483613ddf565b915061369a82614861565b604082019050919050565b60006136b2602b83613ddf565b91506136bd826148b0565b604082019050919050565b60006136d5601883613ddf565b91506136e0826148ff565b602082019050919050565b60006136f8602583613ddf565b915061370382614928565b604082019050919050565b600061371b601f83613ddf565b915061372682614977565b602082019050919050565b600060a083016000830151848203600086015261374e8282613346565b9150506020830151613763602086018261322f565b50604083015161377660408601826137e3565b50606083015161378960608601826137c5565b50608083015161379c60808601826137a7565b508091505092915050565b6137b08161414c565b82525050565b6137bf8161414c565b82525050565b6137ce8161417a565b82525050565b6137dd8161417a565b82525050565b6137ec81614184565b82525050565b6137fb81614194565b82525050565b61380a81614194565b82525050565b600061381c82846133b8565b915081905092915050565b600061383282613498565b915061383e8284613320565b60208201915081905092915050565b6000602082019050613862600083018461323e565b92915050565b60006020820190508181036000830152613882818461324d565b905092915050565b600060a08201905061389f60008301846132ab565b92915050565b60006020820190506138ba6000830184613302565b92915050565b60006020820190506138d56000830184613311565b92915050565b60006080820190506138f06000830187613311565b6138fd6020830186613801565b61390a6040830185613311565b6139176060830184613311565b95945050505050565b60006020820190506139356000830184613337565b92915050565b60006020820190508181036000830152613955818461337f565b905092915050565b60006020820190508181036000830152613976816133e9565b9050919050565b600060208201905081810360008301526139968161340c565b9050919050565b600060208201905081810360008301526139b68161342f565b9050919050565b600060208201905081810360008301526139d681613452565b9050919050565b600060208201905081810360008301526139f681613475565b9050919050565b60006020820190508181036000830152613a16816134bb565b9050919050565b60006020820190508181036000830152613a36816134de565b9050919050565b60006020820190508181036000830152613a5681613501565b9050919050565b60006020820190508181036000830152613a7681613524565b9050919050565b60006020820190508181036000830152613a9681613547565b9050919050565b60006020820190508181036000830152613ab68161356a565b9050919050565b60006020820190508181036000830152613ad68161358d565b9050919050565b60006020820190508181036000830152613af6816135b0565b9050919050565b60006020820190508181036000830152613b16816135d3565b9050919050565b60006020820190508181036000830152613b36816135f6565b9050919050565b60006020820190508181036000830152613b5681613619565b9050919050565b60006020820190508181036000830152613b768161363c565b9050919050565b60006020820190508181036000830152613b968161365f565b9050919050565b60006020820190508181036000830152613bb681613682565b9050919050565b60006020820190508181036000830152613bd6816136a5565b9050919050565b60006020820190508181036000830152613bf6816136c8565b9050919050565b60006020820190508181036000830152613c16816136eb565b9050919050565b60006020820190508181036000830152613c368161370e565b9050919050565b60006020820190508181036000830152613c578184613731565b905092915050565b6000602082019050613c7460008301846137b6565b92915050565b6000602082019050613c8f60008301846137d4565b92915050565b6000602082019050613caa6000830184613801565b92915050565b6000613cba613ccb565b9050613cc68282614227565b919050565b6000604051905090565b600067ffffffffffffffff821115613cf057613cef61438d565b5b602082029050919050565b600067ffffffffffffffff821115613d1657613d1561438d565b5b613d1f826143bc565b9050602081019050919050565b600067ffffffffffffffff821115613d4757613d4661438d565b5b613d50826143bc565b9050602081019050919050565b6000819050602082019050919050565b6000819050919050565b600081519050919050565b600060059050919050565b600081519050919050565b6000602082019050919050565b6000602082019050919050565b600082825260208201905092915050565b600081905092915050565b600082825260208201905092915050565b600082825260208201905092915050565b600081905092915050565b6000613e068261414c565b9150613e118361414c565b92508261ffff03821115613e2857613e27614300565b5b828201905092915050565b6000613e3e8261417a565b9150613e498361417a565b9250827fffffffffffffffffffffffffffffffffffffffffffffffffffffffffffffffff03821115613e7e57613e7d614300565b5b828201905092915050565b6000613e9482614194565b9150613e9f83614194565b92508260ff03821115613eb557613eb4614300565b5b828201905092915050565b6000613ecb8261417a565b9150613ed68361417a565b925082613ee657613ee561432f565b5b828204905092915050565b6000808291508390505b6001851115613f3b57808604811115613f1757613f16614300565b5b6001851615613f265780820291505b8081029050613f34856143cd565b9450613efb565b94509492505050565b6000613f4f8261417a565b9150613f5a83614194565b9250613f877fffffffffffffffffffffffffffffffffffffffffffffffffffffffffffffffff8484613f8f565b905092915050565b600082613f9f576001905061405b565b81613fad576000905061405b565b8160018114613fc35760028114613fcd57613ffc565b600191505061405b565b60ff841115613fdf57613fde614300565b5b8360020a915084821115613ff657613ff5614300565b5b5061405b565b5060208310610133831016604e8410600b84101617156140315782820a90508381111561402c5761402b614300565b5b61405b565b61403e8484846001613ef1565b9250905081840481111561405557614054614300565b5b81810290505b9392505050565b600061406d8261417a565b91506140788361417a565b9250817fffffffffffffffffffffffffffffffffffffffffffffffffffffffffffffffff04831182151516156140b1576140b0614300565b5b828202905092915050565b60006140c78261414c565b91506140d28361414c565b9250828210156140e5576140e4614300565b5b828203905092915050565b60006140fb8261417a565b91506141068361417a565b92508282101561411957614118614300565b5b828203905092915050565b600061412f8261415a565b9050919050565b60008115159050919050565b6000819050919050565b600061ffff82169050919050565b600073ffffffffffffffffffffffffffffffffffffffff82169050919050565b6000819050919050565b600063ffffffff82169050919050565b600060ff82169050919050565b60006141ac82614194565b9050919050565b82818337600083830152505050565b60005b838110156141e05780820151818401526020810190506141c5565b838111156141ef576000848401525b50505050565b6000600282049050600182168061420d57607f821691505b602082108114156142215761422061435e565b5b50919050565b614230826143bc565b810181811067ffffffffffffffff8211171561424f5761424e61438d565b5b80604052505050565b60006142638261414c565b915061ffff82141561427857614277614300565b5b600182019050919050565b600061428e8261417a565b91507fffffffffffffffffffffffffffffffffffffffffffffffffffffffffffffffff8214156142c1576142c0614300565b5b600182019050919050565b60006142d782614194565b915060ff8214156142eb576142ea614300565b5b600182019050919050565b6000819050919050565b7f4e487b7100000000000000000000000000000000000000000000000000000000600052601160045260246000fd5b7f4e487b7100000000000000000000000000000000000000000000000000000000600052601260045260246000fd5b7f4e487b7100000000000000000000000000000000000000000000000000000000600052602260045260246000fd5b7f4e487b7100000000000000000000000000000000000000000000000000000000600052604160045260246000fd5b6000601f19601f8301169050919050565b60008160011c9050919050565b7f4d65737361676520697320657870697265640000000000000000000000000000600082015250565b7f45524332303a207472616e7366657220746f20746865207a65726f206164647260008201527f6573730000000000000000000000000000000000000000000000000000000000602082015250565b7f45524332304361707065643a2063617020697320300000000000000000000000600082015250565b7f5061757361626c653a206e6f7420706175736564000000000000000000000000600082015250565b7f45524332303a206275726e20616d6f756e7420657863656564732062616c616e60008201527f6365000000000000000000000000000000000000000000000000000000000000602082015250565b7f19457468657265756d205369676e6564204d6573736167653a0a333200000000600082015250565b7f45524332303a2072657761726420746f20746865207a65726f2061646472657360008201527f7300000000000000000000000000000000000000000000000000000000000000602082015250565b7f4f776e61626c653a206e6577206f776e657220697320746865207a65726f206160008201527f6464726573730000000000000000000000000000000000000000000000000000602082015250565b7f45524332303a20617070726f766520746f20746865207a65726f20616464726560008201527f7373000000000000000000000000000000000000000000000000000000000000602082015250565b7f45524332303a20696e73756666696369656e7420616c6c6f77616e6365000000600082015250565b7f45524332303a207472616e7366657220616d6f756e742065786365656473206260008201527f616c616e63650000000000000000000000000000000000000000000000000000602082015250565b7f4c696d6974206f66207468697320626f756e7479206973206578636565646564600082015250565b7f5061757361626c653a2070617573656400000000000000000000000000000000600082015250565b7f496e697469616c697a61626c653a20636f6e747261637420697320616c72656160008201527f647920696e697469616c697a6564000000000000000000000000000000000000602082015250565b7f4f776e61626c653a2063616c6c6572206973206e6f7420746865206f776e6572600082015250565b7f45524332303a206275726e2066726f6d20746865207a65726f2061646472657360008201527f7300000000000000000000000000000000000000000000000000000000000000602082015250565b7f45524332303a20616d6f756e74206d757374206265206869676865722074686160008201527f6e207a65726f0000000000000000000000000000000000000000000000000000602082015250565b7f45524332303a207472616e736665722066726f6d20746865207a65726f20616460008201527f6472657373000000000000000000000000000000000000000000000000000000602082015250565b7f45524332304361707065643a2063617020657863656564656400000000000000600082015250565b7f45524332303a20617070726f76652066726f6d20746865207a65726f2061646460008201527f7265737300000000000000000000000000000000000000000000000000000000602082015250565b7f496e697469616c697a61626c653a20636f6e7472616374206973206e6f74206960008201527f6e697469616c697a696e67000000000000000000000000000000000000000000602082015250565b7f696e76616c6964207369676e6174757265206c656e6774680000000000000000600082015250565b7f45524332303a2064656372656173656420616c6c6f77616e63652062656c6f7760008201527f207a65726f000000000000000000000000000000000000000000000000000000602082015250565b7f45524332303a206d696e7420746f20746865207a65726f206164647265737300600082015250565b6149a981614124565b81146149b457600080fd5b50565b6149c081614142565b81146149cb57600080fd5b50565b6149d78161414c565b81146149e257600080fd5b50565b6149ee8161417a565b81146149f957600080fd5b50565b614a0581614184565b8114614a1057600080fd5b5056fea2646970667358221220062b50ab728355e3dd80924156874c5d5585df36655a092fa42d63fad542fe3964736f6c63430008040033",
  "linkReferences": {},
  "deployedLinkReferences": {}
}