{
  "_format": "hh-sol-artifact-1",
  "contractName": "Duckies",
  "sourceName": "contracts/Duckies.sol",
  "abi": [
    {
      "inputs": [],
      "stateMutability": "nonpayable",
      "type": "constructor"
    },
    {
      "anonymous": false,
      "inputs": [
        {
          "indexed": true,
          "internalType": "address",
          "name": "owner",
          "type": "address"
        },
        {
          "indexed": true,
          "internalType": "address",
          "name": "spender",
          "type": "address"
        },
        {
          "indexed": false,
          "internalType": "uint256",
          "name": "value",
          "type": "uint256"
        }
      ],
      "name": "Approval",
      "type": "event"
    },
    {
      "anonymous": false,
      "inputs": [
        {
          "indexed": false,
          "internalType": "uint8",
          "name": "version",
          "type": "uint8"
        }
      ],
      "name": "Initialized",
      "type": "event"
    },
    {
      "anonymous": false,
      "inputs": [
        {
          "indexed": true,
          "internalType": "address",
          "name": "previousOwner",
          "type": "address"
        },
        {
          "indexed": true,
          "internalType": "address",
          "name": "newOwner",
          "type": "address"
        }
      ],
      "name": "OwnershipTransferred",
      "type": "event"
    },
    {
      "anonymous": false,
      "inputs": [
        {
          "indexed": false,
          "internalType": "address",
          "name": "account",
          "type": "address"
        }
      ],
      "name": "Paused",
      "type": "event"
    },
    {
      "anonymous": false,
      "inputs": [
        {
          "indexed": true,
          "internalType": "address",
          "name": "from",
          "type": "address"
        },
        {
          "indexed": true,
          "internalType": "address",
          "name": "to",
          "type": "address"
        },
        {
          "indexed": false,
          "internalType": "uint256",
          "name": "value",
          "type": "uint256"
        }
      ],
      "name": "Transfer",
      "type": "event"
    },
    {
      "anonymous": false,
      "inputs": [
        {
          "indexed": false,
          "internalType": "address",
          "name": "account",
          "type": "address"
        }
      ],
      "name": "Unpaused",
      "type": "event"
    },
    {
      "inputs": [
        {
          "internalType": "uint256",
          "name": "",
          "type": "uint256"
        }
      ],
      "name": "_bountyPayouts",
      "outputs": [
        {
          "internalType": "uint8",
          "name": "",
          "type": "uint8"
        }
      ],
      "stateMutability": "view",
      "type": "function"
    },
    {
      "inputs": [
        {
          "internalType": "uint256",
          "name": "",
          "type": "uint256"
        }
      ],
      "name": "_referralPayouts",
      "outputs": [
        {
          "internalType": "uint16",
          "name": "",
          "type": "uint16"
        }
      ],
      "stateMutability": "view",
      "type": "function"
    },
    {
      "inputs": [
        {
          "internalType": "address",
          "name": "owner",
          "type": "address"
        },
        {
          "internalType": "address",
          "name": "spender",
          "type": "address"
        }
      ],
      "name": "allowance",
      "outputs": [
        {
          "internalType": "uint256",
          "name": "",
          "type": "uint256"
        }
      ],
      "stateMutability": "view",
      "type": "function"
    },
    {
      "inputs": [
        {
          "internalType": "address",
          "name": "spender",
          "type": "address"
        },
        {
          "internalType": "uint256",
          "name": "amount",
          "type": "uint256"
        }
      ],
      "name": "approve",
      "outputs": [
        {
          "internalType": "bool",
          "name": "",
          "type": "bool"
        }
      ],
      "stateMutability": "nonpayable",
      "type": "function"
    },
    {
      "inputs": [
        {
          "internalType": "address",
          "name": "account",
          "type": "address"
        }
      ],
      "name": "balanceOf",
      "outputs": [
        {
          "internalType": "uint256",
          "name": "",
          "type": "uint256"
        }
      ],
      "stateMutability": "view",
      "type": "function"
    },
    {
      "inputs": [
        {
          "internalType": "uint256",
          "name": "amount",
          "type": "uint256"
        }
      ],
      "name": "burn",
      "outputs": [],
      "stateMutability": "nonpayable",
      "type": "function"
    },
    {
      "inputs": [
        {
          "internalType": "address",
          "name": "account",
          "type": "address"
        },
        {
          "internalType": "uint256",
          "name": "amount",
          "type": "uint256"
        }
      ],
      "name": "burnFrom",
      "outputs": [],
      "stateMutability": "nonpayable",
      "type": "function"
    },
    {
      "inputs": [],
      "name": "cap",
      "outputs": [
        {
          "internalType": "uint256",
          "name": "",
          "type": "uint256"
        }
      ],
      "stateMutability": "view",
      "type": "function"
    },
    {
      "inputs": [
        {
          "components": [
            {
              "components": [
                {
                  "internalType": "string",
                  "name": "id",
                  "type": "string"
                },
                {
                  "internalType": "address",
                  "name": "ref",
                  "type": "address"
                },
                {
                  "internalType": "uint32",
                  "name": "amt",
                  "type": "uint32"
                },
                {
                  "internalType": "uint256",
                  "name": "blockExpiration",
                  "type": "uint256"
                },
                {
                  "internalType": "uint16",
                  "name": "limit",
                  "type": "uint16"
                }
              ],
              "internalType": "struct Duckies.Message",
              "name": "message",
              "type": "tuple"
            },
            {
              "internalType": "bytes",
              "name": "signature",
              "type": "bytes"
            }
          ],
          "internalType": "struct Duckies.Reward[]",
          "name": "rewards",
          "type": "tuple[]"
        }
      ],
      "name": "claimRewards",
      "outputs": [],
      "stateMutability": "nonpayable",
      "type": "function"
    },
    {
      "inputs": [],
      "name": "decimals",
      "outputs": [
        {
          "internalType": "uint8",
          "name": "",
          "type": "uint8"
        }
      ],
      "stateMutability": "view",
      "type": "function"
    },
    {
      "inputs": [
        {
          "internalType": "address",
          "name": "spender",
          "type": "address"
        },
        {
          "internalType": "uint256",
          "name": "subtractedValue",
          "type": "uint256"
        }
      ],
      "name": "decreaseAllowance",
      "outputs": [
        {
          "internalType": "bool",
          "name": "",
          "type": "bool"
        }
      ],
      "stateMutability": "nonpayable",
      "type": "function"
    },
    {
      "inputs": [
        {
          "internalType": "string",
          "name": "bountyID",
          "type": "string"
        }
      ],
      "name": "getAccountBountyLimit",
      "outputs": [
        {
          "internalType": "uint16",
          "name": "",
          "type": "uint16"
        }
      ],
      "stateMutability": "view",
      "type": "function"
    },
    {
      "inputs": [],
      "name": "getAffiliatesCount",
      "outputs": [
        {
          "internalType": "uint8[5]",
          "name": "",
          "type": "uint8[5]"
        }
      ],
      "stateMutability": "view",
      "type": "function"
    },
    {
      "inputs": [],
      "name": "getBountyPayouts",
      "outputs": [
        {
          "internalType": "uint8[]",
          "name": "",
          "type": "uint8[]"
        }
      ],
      "stateMutability": "view",
      "type": "function"
    },
    {
      "inputs": [
        {
          "internalType": "bytes32",
          "name": "_messageHash",
          "type": "bytes32"
        }
      ],
      "name": "getEthSignedMessageHash",
      "outputs": [
        {
          "internalType": "bytes32",
          "name": "",
          "type": "bytes32"
        }
      ],
      "stateMutability": "pure",
      "type": "function"
    },
    {
      "inputs": [
        {
          "components": [
            {
              "internalType": "string",
              "name": "id",
              "type": "string"
            },
            {
              "internalType": "address",
              "name": "ref",
              "type": "address"
            },
            {
              "internalType": "uint32",
              "name": "amt",
              "type": "uint32"
            },
            {
              "internalType": "uint256",
              "name": "blockExpiration",
              "type": "uint256"
            },
            {
              "internalType": "uint16",
              "name": "limit",
              "type": "uint16"
            }
          ],
          "internalType": "struct Duckies.Message",
          "name": "_message",
          "type": "tuple"
        }
      ],
      "name": "getMessageHash",
      "outputs": [
        {
          "internalType": "bytes32",
          "name": "",
          "type": "bytes32"
        }
      ],
      "stateMutability": "pure",
      "type": "function"
    },
    {
      "inputs": [],
      "name": "getReferralPayouts",
      "outputs": [
        {
          "internalType": "uint16[]",
          "name": "",
          "type": "uint16[]"
        }
      ],
      "stateMutability": "view",
      "type": "function"
    },
    {
      "inputs": [
        {
          "internalType": "address",
          "name": "spender",
          "type": "address"
        },
        {
          "internalType": "uint256",
          "name": "addedValue",
          "type": "uint256"
        }
      ],
      "name": "increaseAllowance",
      "outputs": [
        {
          "internalType": "bool",
          "name": "",
          "type": "bool"
        }
      ],
      "stateMutability": "nonpayable",
      "type": "function"
    },
    {
      "inputs": [
        {
          "internalType": "address",
          "name": "issuer",
          "type": "address"
        }
      ],
      "name": "initialize",
      "outputs": [],
      "stateMutability": "nonpayable",
      "type": "function"
    },
    {
      "inputs": [
        {
          "internalType": "address",
          "name": "to",
          "type": "address"
        },
        {
          "internalType": "uint256",
          "name": "amount",
          "type": "uint256"
        }
      ],
      "name": "mint",
      "outputs": [],
      "stateMutability": "nonpayable",
      "type": "function"
    },
    {
      "inputs": [],
      "name": "name",
      "outputs": [
        {
          "internalType": "string",
          "name": "",
          "type": "string"
        }
      ],
      "stateMutability": "view",
      "type": "function"
    },
    {
      "inputs": [],
      "name": "owner",
      "outputs": [
        {
          "internalType": "address",
          "name": "",
          "type": "address"
        }
      ],
      "stateMutability": "view",
      "type": "function"
    },
    {
      "inputs": [],
      "name": "pause",
      "outputs": [],
      "stateMutability": "nonpayable",
      "type": "function"
    },
    {
      "inputs": [],
      "name": "paused",
      "outputs": [
        {
          "internalType": "bool",
          "name": "",
          "type": "bool"
        }
      ],
      "stateMutability": "view",
      "type": "function"
    },
    {
      "inputs": [
        {
          "internalType": "bytes32",
          "name": "_ethSignedMessageHash",
          "type": "bytes32"
        },
        {
          "internalType": "bytes",
          "name": "_sig",
          "type": "bytes"
        }
      ],
      "name": "recover",
      "outputs": [
        {
          "internalType": "address",
          "name": "",
          "type": "address"
        }
      ],
      "stateMutability": "pure",
      "type": "function"
    },
    {
      "inputs": [],
      "name": "renounceOwnership",
      "outputs": [],
      "stateMutability": "nonpayable",
      "type": "function"
    },
    {
      "inputs": [
        {
          "components": [
            {
              "internalType": "string",
              "name": "id",
              "type": "string"
            },
            {
              "internalType": "address",
              "name": "ref",
              "type": "address"
            },
            {
              "internalType": "uint32",
              "name": "amt",
              "type": "uint32"
            },
            {
              "internalType": "uint256",
              "name": "blockExpiration",
              "type": "uint256"
            },
            {
              "internalType": "uint16",
              "name": "limit",
              "type": "uint16"
            }
          ],
          "internalType": "struct Duckies.Message",
          "name": "_message",
          "type": "tuple"
        },
        {
          "internalType": "bytes",
          "name": "_sig",
          "type": "bytes"
        }
      ],
      "name": "reward",
      "outputs": [
        {
          "internalType": "bool",
          "name": "",
          "type": "bool"
        }
      ],
      "stateMutability": "nonpayable",
      "type": "function"
    },
    {
      "inputs": [
        {
          "internalType": "uint8[5]",
          "name": "payouts",
          "type": "uint8[5]"
        }
      ],
      "name": "setBountyPayouts",
      "outputs": [],
      "stateMutability": "nonpayable",
      "type": "function"
    },
    {
      "inputs": [
        {
          "internalType": "uint16[5]",
          "name": "payouts",
          "type": "uint16[5]"
        }
      ],
      "name": "setReferralPayouts",
      "outputs": [],
      "stateMutability": "nonpayable",
      "type": "function"
    },
    {
      "inputs": [],
      "name": "symbol",
      "outputs": [
        {
          "internalType": "string",
          "name": "",
          "type": "string"
        }
      ],
      "stateMutability": "view",
      "type": "function"
    },
    {
      "inputs": [],
      "name": "totalSupply",
      "outputs": [
        {
          "internalType": "uint256",
          "name": "",
          "type": "uint256"
        }
      ],
      "stateMutability": "view",
      "type": "function"
    },
    {
      "inputs": [
        {
          "internalType": "address",
          "name": "to",
          "type": "address"
        },
        {
          "internalType": "uint256",
          "name": "amount",
          "type": "uint256"
        }
      ],
      "name": "transfer",
      "outputs": [
        {
          "internalType": "bool",
          "name": "",
          "type": "bool"
        }
      ],
      "stateMutability": "nonpayable",
      "type": "function"
    },
    {
      "inputs": [
        {
          "internalType": "address",
          "name": "from",
          "type": "address"
        },
        {
          "internalType": "address",
          "name": "to",
          "type": "address"
        },
        {
          "internalType": "uint256",
          "name": "amount",
          "type": "uint256"
        }
      ],
      "name": "transferFrom",
      "outputs": [
        {
          "internalType": "bool",
          "name": "",
          "type": "bool"
        }
      ],
      "stateMutability": "nonpayable",
      "type": "function"
    },
    {
      "inputs": [
        {
          "internalType": "address",
          "name": "newOwner",
          "type": "address"
        }
      ],
      "name": "transferOwnership",
      "outputs": [],
      "stateMutability": "nonpayable",
      "type": "function"
    },
    {
      "inputs": [],
      "name": "unpause",
      "outputs": [],
      "stateMutability": "nonpayable",
      "type": "function"
    }
  ],
  "bytecode": "0x60806040523480156200001157600080fd5b50620000226200002860201b60201c565b6200020f565b6200003a60ff6200003d60201b60201c565b50565b60008060019054906101000a900460ff1615620000c75760018260ff161480156200007b575062000079306200014360201b62001a5f1760201c565b155b620000bd576040517f08c379a0000000000000000000000000000000000000000000000000000000008152600401620000b4906200018d565b60405180910390fd5b600090506200013e565b8160ff1660008054906101000a900460ff1660ff16106200011f576040517f08c379a000000000000000000000000000000000000000000000000000000000815260040162000116906200018d565b60405180910390fd5b816000806101000a81548160ff021916908360ff160217905550600190505b919050565b6000808273ffffffffffffffffffffffffffffffffffffffff163b119050919050565b600062000175602e83620001af565b91506200018282620001c0565b604082019050919050565b60006020820190508181036000830152620001a88162000166565b9050919050565b600082825260208201905092915050565b7f496e697469616c697a61626c653a20636f6e747261637420697320616c72656160008201527f647920696e697469616c697a6564000000000000000000000000000000000000602082015250565b6154cc806200021f6000396000f3fe608060405234801561001057600080fd5b50600436106102115760003560e01c806370a0823111610125578063c4d66de8116100ad578063f2fde38b1161007c578063f2fde38b14610604578063f6a1100d14610620578063fa54080114610650578063fd58511514610680578063fd7452fc146106b057610211565b8063c4d66de81461057e578063dcb5f89f1461059a578063dd62ed3e146105b8578063ef55a69b146105e857610211565b80638da5cb5b116100f45780638da5cb5b146104c657806395d89b41146104e4578063a457c2d714610502578063a9059cbb14610532578063b8386e571461056257610211565b806370a0823114610466578063715018a61461049657806379cc6790146104a05780638456cb59146104bc57610211565b806332751ee6116101a85780633f4ba83a116101775780633f4ba83a146103d657806340c10f19146103e057806342966c68146103fc5780635c975abb146104185780635ddd87111461043657610211565b806332751ee61461034e57806334c4b14b1461036a578063355274ea1461038857806339509351146103a657610211565b806318160ddd116101e457806318160ddd146102b257806319045a25146102d057806323b872dd14610300578063313ce5671461033057610211565b806306fdde0314610216578063095ea7b3146102345780630d924b4614610264578063165c68fa14610282575b600080fd5b61021e6106e0565b60405161022b919061431c565b60405180910390f35b61024e600480360381019061024991906138fd565b610772565b60405161025b9190614286565b60405180910390f35b61026c610795565b6040516102799190614227565b60405180910390f35b61029c60048036038101906102979190613b37565b610815565b6040516102a99190614676565b60405180910390f35b6102ba61084a565b6040516102c7919061465b565b60405180910390f35b6102ea60048036038101906102e591906139f5565b610854565b6040516102f7919061420c565b60405180910390f35b61031a600480360381019061031591906138ae565b6108c3565b6040516103279190614286565b60405180910390f35b6103386108f2565b6040516103459190614676565b60405180910390f35b61036860048036038101906103639190613939565b6108fb565b005b6103726109ba565b60405161037f9190614249565b60405180910390f35b610390610a0d565b60405161039d919061465b565b60405180910390f35b6103c060048036038101906103bb91906138fd565b610a17565b6040516103cd9190614286565b60405180910390f35b6103de610a4e565b005b6103fa60048036038101906103f591906138fd565b610ad4565b005b61041660048036038101906104119190613b37565b610b5e565b005b610420610bee565b60405161042d9190614286565b60405180910390f35b610450600480360381019061044b9190613acb565b610c05565b60405161045d9190614286565b60405180910390f35b610480600480360381019061047b9190613849565b6110b2565b60405161048d919061465b565b60405180910390f35b61049e6110fb565b005b6104ba60048036038101906104b591906138fd565b611183565b005b6104c461121f565b005b6104ce6112a5565b6040516104db919061420c565b60405180910390f35b6104ec6112cf565b6040516104f9919061431c565b60405180910390f35b61051c600480360381019061051791906138fd565b611361565b6040516105299190614286565b60405180910390f35b61054c600480360381019061054791906138fd565b6113d8565b6040516105599190614286565b60405180910390f35b61057c6004803603810190610577919061397a565b6113fb565b005b61059860048036038101906105939190613849565b61148c565b005b6105a26116c3565b6040516105af9190614264565b60405180910390f35b6105d260048036038101906105cd9190613872565b611742565b6040516105df919061465b565b60405180910390f35b61060260048036038101906105fd91906139a3565b6117c9565b005b61061e60048036038101906106199190613849565b61185b565b005b61063a60048036038101906106359190613a49565b611953565b6040516106479190614640565b60405180910390f35b61066a600480360381019061066591906139cc565b6119c7565b60405161067791906142a1565b60405180910390f35b61069a60048036038101906106959190613b37565b6119f7565b6040516106a79190614640565b60405180910390f35b6106ca60048036038101906106c59190613a8a565b611a2f565b6040516106d791906142a1565b60405180910390f35b6060603680546106ef90614c61565b80601f016020809104026020016040519081016040528092919081815260200182805461071b90614c61565b80156107685780601f1061073d57610100808354040283529160200191610768565b820191906000526020600020905b81548152906001019060200180831161074b57829003601f168201915b5050505050905090565b60008061077d611a82565b905061078a818585611a8a565b600191505092915050565b606060ff80548060200260200160405190810160405280929190818152602001828054801561080b57602002820191906000526020600020906000905b82829054906101000a900461ffff1661ffff16815260200190600201906020826001010492830192600103820291508084116107d25790505b5050505050905090565b610100818154811061082657600080fd5b9060005260206000209060209182820401919006915054906101000a900460ff1681565b6000603554905090565b60008060008061086385611c55565b9250925092506001868285856040516000815260200160405260405161088c94939291906142bc565b6020604051602081039080840390855afa1580156108ae573d6000803e3d6000fd5b50505060206040510351935050505092915050565b6000806108ce611a82565b90506108db858285611cbd565b6108e6858585611d49565b60019150509392505050565b60006002905090565b60005b81518160ff1610156109b6576109a2828260ff1681518110610949577f4e487b7100000000000000000000000000000000000000000000000000000000600052603260045260246000fd5b602002602001015160000151838360ff1681518110610991577f4e487b7100000000000000000000000000000000000000000000000000000000600052603260045260246000fd5b602002602001015160200151610c05565b5080806109ae90614d38565b9150506108fe565b5050565b6109c2613205565b610a083360016040518060a00160405280600060ff168152602001600060ff168152602001600060ff168152602001600060ff168152602001600060ff16815250611fcd565b905090565b6000606554905090565b600080610a22611a82565b9050610a43818585610a348589611742565b610a3e919061489f565b611a8a565b600191505092915050565b610a56611a82565b73ffffffffffffffffffffffffffffffffffffffff16610a746112a5565b73ffffffffffffffffffffffffffffffffffffffff1614610aca576040517f08c379a0000000000000000000000000000000000000000000000000000000008152600401610ac1906144de565b60405180910390fd5b610ad2612198565b565b610adc611a82565b73ffffffffffffffffffffffffffffffffffffffff16610afa6112a5565b73ffffffffffffffffffffffffffffffffffffffff1614610b50576040517f08c379a0000000000000000000000000000000000000000000000000000000008152600401610b47906144de565b60405180910390fd5b610b5a828261223a565b5050565b610b66611a82565b73ffffffffffffffffffffffffffffffffffffffff16610b846112a5565b73ffffffffffffffffffffffffffffffffffffffff1614610bda576040517f08c379a0000000000000000000000000000000000000000000000000000000008152600401610bd1906144de565b60405180910390fd5b610beb610be5611a82565b826122a4565b50565b6000609860009054906101000a900460ff16905090565b600080610c1184611a2f565b90506000610c1e826119c7565b90508460600151431115610c67576040517f08c379a0000000000000000000000000000000000000000000000000000000008152600401610c5e9061433e565b60405180910390fd5b60fc60009054906101000a900473ffffffffffffffffffffffffffffffffffffffff1673ffffffffffffffffffffffffffffffffffffffff16610caa8286610854565b73ffffffffffffffffffffffffffffffffffffffff1614610cca57600080fd5b600073ffffffffffffffffffffffffffffffffffffffff16856020015173ffffffffffffffffffffffffffffffffffffffff1614610f2c57600073ffffffffffffffffffffffffffffffffffffffff1660fd60003373ffffffffffffffffffffffffffffffffffffffff1673ffffffffffffffffffffffffffffffffffffffff16815260200190815260200160002060009054906101000a900473ffffffffffffffffffffffffffffffffffffffff1673ffffffffffffffffffffffffffffffffffffffff1614610d9a57600080fd5b846020015173ffffffffffffffffffffffffffffffffffffffff163373ffffffffffffffffffffffffffffffffffffffff161415610dd757600080fd5b610de533866020015161247d565b610dee57600080fd5b846020015160fd60003373ffffffffffffffffffffffffffffffffffffffff1673ffffffffffffffffffffffffffffffffffffffff16815260200190815260200160002060006101000a81548173ffffffffffffffffffffffffffffffffffffffff021916908373ffffffffffffffffffffffffffffffffffffffff16021790555060fe6000866020015173ffffffffffffffffffffffffffffffffffffffff1673ffffffffffffffffffffffffffffffffffffffff168152602001908152602001600020339080600181540180825580915050600190039060005260206000200160009091909190916101000a81548173ffffffffffffffffffffffffffffffffffffffff021916908373ffffffffffffffffffffffffffffffffffffffff160217905550610f27856040015163ffffffff166125b2565b61100d565b6000856080015161ffff1614610ff957846080015161ffff1661010160003373ffffffffffffffffffffffffffffffffffffffff1673ffffffffffffffffffffffffffffffffffffffff1681526020019081526020016000208660000151604051610f9791906141cf565b908152602001604051809103902060009054906101000a900461ffff1661ffff1610610ff8576040517f08c379a0000000000000000000000000000000000000000000000000000000008152600401610fef9061447e565b60405180910390fd5b5b61100c856040015163ffffffff16612825565b5b61010160003373ffffffffffffffffffffffffffffffffffffffff1673ffffffffffffffffffffffffffffffffffffffff168152602001908152602001600020856000015160405161105f91906141cf565b9081526020016040518091039020600081819054906101000a900461ffff168092919061108b90614cc4565b91906101000a81548161ffff021916908361ffff1602179055505060019250505092915050565b6000603360008373ffffffffffffffffffffffffffffffffffffffff1673ffffffffffffffffffffffffffffffffffffffff168152602001908152602001600020549050919050565b611103611a82565b73ffffffffffffffffffffffffffffffffffffffff166111216112a5565b73ffffffffffffffffffffffffffffffffffffffff1614611177576040517f08c379a000000000000000000000000000000000000000000000000000000000815260040161116e906144de565b60405180910390fd5b6111816000612a95565b565b61118b611a82565b73ffffffffffffffffffffffffffffffffffffffff166111a96112a5565b73ffffffffffffffffffffffffffffffffffffffff16146111ff576040517f08c379a00000000000000000000000000000000000000000000000000000000081526004016111f6906144de565b60405180910390fd5b6112118261120b611a82565b83611cbd565b61121b82826122a4565b5050565b611227611a82565b73ffffffffffffffffffffffffffffffffffffffff166112456112a5565b73ffffffffffffffffffffffffffffffffffffffff161461129b576040517f08c379a0000000000000000000000000000000000000000000000000000000008152600401611292906144de565b60405180910390fd5b6112a3612b5b565b565b600060ca60009054906101000a900473ffffffffffffffffffffffffffffffffffffffff16905090565b6060603780546112de90614c61565b80601f016020809104026020016040519081016040528092919081815260200182805461130a90614c61565b80156113575780601f1061132c57610100808354040283529160200191611357565b820191906000526020600020905b81548152906001019060200180831161133a57829003601f168201915b5050505050905090565b60008061136c611a82565b9050600061137a8286611742565b9050838110156113bf576040517f08c379a00000000000000000000000000000000000000000000000000000000081526004016113b6906145de565b60405180910390fd5b6113cc8286868403611a8a565b60019250505092915050565b6000806113e3611a82565b90506113f0818585611d49565b600191505092915050565b611403611a82565b73ffffffffffffffffffffffffffffffffffffffff166114216112a5565b73ffffffffffffffffffffffffffffffffffffffff1614611477576040517f08c379a000000000000000000000000000000000000000000000000000000000815260040161146e906144de565b60405180910390fd5b8060ff906005611488929190613227565b5050565b60006114986001612bfe565b905080156114bc576001600060016101000a81548160ff0219169083151502179055505b6115306040518060400160405280600e81526020017f59656c6c6f77204475636b6965730000000000000000000000000000000000008152506040518060400160405280600581526020017f4455434b5a000000000000000000000000000000000000000000000000000000815250612cee565b61155c61153b6108f2565b600a61154791906149b0565b64cec0ecb0006115579190614ace565b612d4b565b611564612da6565b61156c612dff565b8160fc60006101000a81548173ffffffffffffffffffffffffffffffffffffffff021916908373ffffffffffffffffffffffffffffffffffffffff1602179055506115f66040518060a001604052806101f461ffff168152602001607d61ffff168152602001605061ffff168152602001603261ffff168152602001601461ffff168152506113fb565b6116396040518060a00160405280603260ff168152602001601960ff168152602001600f60ff168152602001600a60ff168152602001600560ff168152506117c9565b611666336116456108f2565b600a61165191906149b0565b6467607658006116619190614ace565b61223a565b80156116bf5760008060016101000a81548160ff0219169083151502179055507f7f26b83ff96e1f2b6a682f133852f6798a09c465da95921460cefb384740249860016040516116b69190614301565b60405180910390a15b5050565b606061010080548060200260200160405190810160405280929190818152602001828054801561173857602002820191906000526020600020906000905b82829054906101000a900460ff1660ff16815260200190600101906020826000010492830192600103820291508084116117015790505b5050505050905090565b6000603460008473ffffffffffffffffffffffffffffffffffffffff1673ffffffffffffffffffffffffffffffffffffffff16815260200190815260200160002060008373ffffffffffffffffffffffffffffffffffffffff1673ffffffffffffffffffffffffffffffffffffffff16815260200190815260200160002054905092915050565b6117d1611a82565b73ffffffffffffffffffffffffffffffffffffffff166117ef6112a5565b73ffffffffffffffffffffffffffffffffffffffff1614611845576040517f08c379a000000000000000000000000000000000000000000000000000000000815260040161183c906144de565b60405180910390fd5b806101009060056118579291906132d1565b5050565b611863611a82565b73ffffffffffffffffffffffffffffffffffffffff166118816112a5565b73ffffffffffffffffffffffffffffffffffffffff16146118d7576040517f08c379a00000000000000000000000000000000000000000000000000000000081526004016118ce906144de565b60405180910390fd5b600073ffffffffffffffffffffffffffffffffffffffff168173ffffffffffffffffffffffffffffffffffffffff161415611947576040517f08c379a000000000000000000000000000000000000000000000000000000000815260040161193e906143fe565b60405180910390fd5b61195081612a95565b50565b600061010160003373ffffffffffffffffffffffffffffffffffffffff1673ffffffffffffffffffffffffffffffffffffffff168152602001908152602001600020826040516119a391906141cf565b908152602001604051809103902060009054906101000a900461ffff169050919050565b6000816040516020016119da91906141e6565b604051602081830303815290604052805190602001209050919050565b60ff8181548110611a0757600080fd5b9060005260206000209060109182820401919006600202915054906101000a900461ffff1681565b600081604051602001611a42919061461e565b604051602081830303815290604052805190602001209050919050565b6000808273ffffffffffffffffffffffffffffffffffffffff163b119050919050565b600033905090565b600073ffffffffffffffffffffffffffffffffffffffff168373ffffffffffffffffffffffffffffffffffffffff161415611afa576040517f08c379a0000000000000000000000000000000000000000000000000000000008152600401611af19061457e565b60405180910390fd5b600073ffffffffffffffffffffffffffffffffffffffff168273ffffffffffffffffffffffffffffffffffffffff161415611b6a576040517f08c379a0000000000000000000000000000000000000000000000000000000008152600401611b619061441e565b60405180910390fd5b80603460008573ffffffffffffffffffffffffffffffffffffffff1673ffffffffffffffffffffffffffffffffffffffff16815260200190815260200160002060008473ffffffffffffffffffffffffffffffffffffffff1673ffffffffffffffffffffffffffffffffffffffff168152602001908152602001600020819055508173ffffffffffffffffffffffffffffffffffffffff168373ffffffffffffffffffffffffffffffffffffffff167f8c5be1e5ebec7d5bd14f71427d1e84f3dd0314c0f7b2291e5b200ac8c7c3b92583604051611c48919061465b565b60405180910390a3505050565b60008060006041845114611c9e576040517f08c379a0000000000000000000000000000000000000000000000000000000008152600401611c95906145be565b60405180910390fd5b6020840151925060408401519150606084015160001a90509193909250565b6000611cc98484611742565b90507fffffffffffffffffffffffffffffffffffffffffffffffffffffffffffffffff8114611d435781811015611d35576040517f08c379a0000000000000000000000000000000000000000000000000000000008152600401611d2c9061443e565b60405180910390fd5b611d428484848403611a8a565b5b50505050565b600073ffffffffffffffffffffffffffffffffffffffff168373ffffffffffffffffffffffffffffffffffffffff161415611db9576040517f08c379a0000000000000000000000000000000000000000000000000000000008152600401611db09061453e565b60405180910390fd5b600073ffffffffffffffffffffffffffffffffffffffff168273ffffffffffffffffffffffffffffffffffffffff161415611e29576040517f08c379a0000000000000000000000000000000000000000000000000000000008152600401611e209061435e565b60405180910390fd5b611e34838383612e58565b6000603360008573ffffffffffffffffffffffffffffffffffffffff1673ffffffffffffffffffffffffffffffffffffffff16815260200190815260200160002054905081811015611ebb576040517f08c379a0000000000000000000000000000000000000000000000000000000008152600401611eb29061445e565b60405180910390fd5b818103603360008673ffffffffffffffffffffffffffffffffffffffff1673ffffffffffffffffffffffffffffffffffffffff1681526020019081526020016000208190555081603360008573ffffffffffffffffffffffffffffffffffffffff1673ffffffffffffffffffffffffffffffffffffffff1681526020019081526020016000206000828254611f50919061489f565b925050819055508273ffffffffffffffffffffffffffffffffffffffff168473ffffffffffffffffffffffffffffffffffffffff167fddf252ad1be2c89b69c2b068fc378daa952ba7f163c4a11628f55a4df523b3ef84604051611fb4919061465b565b60405180910390a3611fc7848484612eb0565b50505050565b611fd5613205565b60058361ffff161161218e57600060fe60008673ffffffffffffffffffffffffffffffffffffffff1673ffffffffffffffffffffffffffffffffffffffff1681526020019081526020016000208054806020026020016040519081016040528092919081815260200182805480156120a257602002820191906000526020600020905b8160009054906101000a900473ffffffffffffffffffffffffffffffffffffffff1673ffffffffffffffffffffffffffffffffffffffff1681526020019060010190808311612058575b505050505090508051836001866120b99190614b28565b61ffff16600581106120f4577f4e487b7100000000000000000000000000000000000000000000000000000000600052603260045260246000fd5b6020020181815161210591906148f5565b91509060ff16908160ff168152505060005b815181101561218b5761217782828151811061215c577f4e487b7100000000000000000000000000000000000000000000000000000000600052603260045260246000fd5b60200260200101516001876121719190614867565b86611fcd565b50808061218390614cef565b915050612117565b50505b8190509392505050565b6121a0610bee565b6121df576040517f08c379a00000000000000000000000000000000000000000000000000000000081526004016121d69061439e565b60405180910390fd5b6000609860006101000a81548160ff0219169083151502179055507f5db9ee0a495bf2e6ff9c91a7834c1ba4fdd244a5e8aa4e537bd38aeae4b073aa612223611a82565b604051612230919061420c565b60405180910390a1565b612242610a0d565b8161224b61084a565b612255919061489f565b1115612296576040517f08c379a000000000000000000000000000000000000000000000000000000000815260040161228d9061455e565b60405180910390fd5b6122a08282612eb5565b5050565b600073ffffffffffffffffffffffffffffffffffffffff168273ffffffffffffffffffffffffffffffffffffffff161415612314576040517f08c379a000000000000000000000000000000000000000000000000000000000815260040161230b906144fe565b60405180910390fd5b61232082600083612e58565b6000603360008473ffffffffffffffffffffffffffffffffffffffff1673ffffffffffffffffffffffffffffffffffffffff168152602001908152602001600020549050818110156123a7576040517f08c379a000000000000000000000000000000000000000000000000000000000815260040161239e906143be565b60405180910390fd5b818103603360008573ffffffffffffffffffffffffffffffffffffffff1673ffffffffffffffffffffffffffffffffffffffff1681526020019081526020016000208190555081603560008282546123ff9190614b5c565b92505081905550600073ffffffffffffffffffffffffffffffffffffffff168373ffffffffffffffffffffffffffffffffffffffff167fddf252ad1be2c89b69c2b068fc378daa952ba7f163c4a11628f55a4df523b3ef84604051612464919061465b565b60405180910390a361247883600084612eb0565b505050565b60008082905060005b60058160ff1610156125a5578473ffffffffffffffffffffffffffffffffffffffff1660fd60008473ffffffffffffffffffffffffffffffffffffffff1673ffffffffffffffffffffffffffffffffffffffff16815260200190815260200160002060009054906101000a900473ffffffffffffffffffffffffffffffffffffffff1673ffffffffffffffffffffffffffffffffffffffff161415612530576000925050506125ac565b60fd60008373ffffffffffffffffffffffffffffffffffffffff1673ffffffffffffffffffffffffffffffffffffffff16815260200190815260200160002060009054906101000a900473ffffffffffffffffffffffffffffffffffffffff169150808061259d90614d38565b915050612486565b5060019150505b92915050565b600073ffffffffffffffffffffffffffffffffffffffff163373ffffffffffffffffffffffffffffffffffffffff161415612622576040517f08c379a0000000000000000000000000000000000000000000000000000000008152600401612619906143de565b60405180910390fd5b60008111612665576040517f08c379a000000000000000000000000000000000000000000000000000000000815260040161265c9061451e565b60405180910390fd5b61266f338261223a565b600060fd60003373ffffffffffffffffffffffffffffffffffffffff1673ffffffffffffffffffffffffffffffffffffffff16815260200190815260200160002060009054906101000a900473ffffffffffffffffffffffffffffffffffffffff16905060005b60ff805490508160ff16101561282057600073ffffffffffffffffffffffffffffffffffffffff168273ffffffffffffffffffffffffffffffffffffffff16141561272057612820565b6000606460ff8360ff1681548110612761577f4e487b7100000000000000000000000000000000000000000000000000000000600052603260045260246000fd5b90600052602060002090601091828204019190066002029054906101000a900461ffff1661ffff16856127949190614ace565b61279e919061492c565b90506127aa838261223a565b60fd60008473ffffffffffffffffffffffffffffffffffffffff1673ffffffffffffffffffffffffffffffffffffffff16815260200190815260200160002060009054906101000a900473ffffffffffffffffffffffffffffffffffffffff16925050808061281890614d38565b9150506126d6565b505050565b600073ffffffffffffffffffffffffffffffffffffffff163373ffffffffffffffffffffffffffffffffffffffff161415612895576040517f08c379a000000000000000000000000000000000000000000000000000000000815260040161288c906143de565b60405180910390fd5b600081116128d8576040517f08c379a00000000000000000000000000000000000000000000000000000000081526004016128cf9061451e565b60405180910390fd5b6128e2338261223a565b600060fd60003373ffffffffffffffffffffffffffffffffffffffff1673ffffffffffffffffffffffffffffffffffffffff16815260200190815260200160002060009054906101000a900473ffffffffffffffffffffffffffffffffffffffff16905060005b610100805490508160ff161015612a9057600073ffffffffffffffffffffffffffffffffffffffff168273ffffffffffffffffffffffffffffffffffffffff16141561299457612a90565b600060646101008360ff16815481106129d6577f4e487b7100000000000000000000000000000000000000000000000000000000600052603260045260246000fd5b90600052602060002090602091828204019190069054906101000a900460ff1660ff1685612a049190614ace565b612a0e919061492c565b9050612a1a838261223a565b60fd60008473ffffffffffffffffffffffffffffffffffffffff1673ffffffffffffffffffffffffffffffffffffffff16815260200190815260200160002060009054906101000a900473ffffffffffffffffffffffffffffffffffffffff169250508080612a8890614d38565b915050612949565b505050565b600060ca60009054906101000a900473ffffffffffffffffffffffffffffffffffffffff1690508160ca60006101000a81548173ffffffffffffffffffffffffffffffffffffffff021916908373ffffffffffffffffffffffffffffffffffffffff1602179055508173ffffffffffffffffffffffffffffffffffffffff168173ffffffffffffffffffffffffffffffffffffffff167f8be0079c531659141344cd1fd0a4f28419497f9722a3daafe3b4186f6b6457e060405160405180910390a35050565b612b63610bee565b15612ba3576040517f08c379a0000000000000000000000000000000000000000000000000000000008152600401612b9a9061449e565b60405180910390fd5b6001609860006101000a81548160ff0219169083151502179055507f62e78cea01bee320cd4e420270b5ea74000d11b0c9f74754ebdbfc544b05a258612be7611a82565b604051612bf4919061420c565b60405180910390a1565b60008060019054906101000a900460ff1615612c755760018260ff16148015612c2d5750612c2b30611a5f565b155b612c6c576040517f08c379a0000000000000000000000000000000000000000000000000000000008152600401612c63906144be565b60405180910390fd5b60009050612ce9565b8160ff1660008054906101000a900460ff1660ff1610612cca576040517f08c379a0000000000000000000000000000000000000000000000000000000008152600401612cc1906144be565b60405180910390fd5b816000806101000a81548160ff021916908360ff160217905550600190505b919050565b600060019054906101000a900460ff16612d3d576040517f08c379a0000000000000000000000000000000000000000000000000000000008152600401612d349061459e565b60405180910390fd5b612d478282613016565b5050565b600060019054906101000a900460ff16612d9a576040517f08c379a0000000000000000000000000000000000000000000000000000000008152600401612d919061459e565b60405180910390fd5b612da381613097565b50565b600060019054906101000a900460ff16612df5576040517f08c379a0000000000000000000000000000000000000000000000000000000008152600401612dec9061459e565b60405180910390fd5b612dfd613133565b565b600060019054906101000a900460ff16612e4e576040517f08c379a0000000000000000000000000000000000000000000000000000000008152600401612e459061459e565b60405180910390fd5b612e5661319f565b565b612e60610bee565b15612ea0576040517f08c379a0000000000000000000000000000000000000000000000000000000008152600401612e979061449e565b60405180910390fd5b612eab838383613200565b505050565b505050565b600073ffffffffffffffffffffffffffffffffffffffff168273ffffffffffffffffffffffffffffffffffffffff161415612f25576040517f08c379a0000000000000000000000000000000000000000000000000000000008152600401612f1c906145fe565b60405180910390fd5b612f3160008383612e58565b8060356000828254612f43919061489f565b9250508190555080603360008473ffffffffffffffffffffffffffffffffffffffff1673ffffffffffffffffffffffffffffffffffffffff1681526020019081526020016000206000828254612f99919061489f565b925050819055508173ffffffffffffffffffffffffffffffffffffffff16600073ffffffffffffffffffffffffffffffffffffffff167fddf252ad1be2c89b69c2b068fc378daa952ba7f163c4a11628f55a4df523b3ef83604051612ffe919061465b565b60405180910390a361301260008383612eb0565b5050565b600060019054906101000a900460ff16613065576040517f08c379a000000000000000000000000000000000000000000000000000000000815260040161305c9061459e565b60405180910390fd5b816036908051906020019061307b929190613378565b508060379080519060200190613092929190613378565b505050565b600060019054906101000a900460ff166130e6576040517f08c379a00000000000000000000000000000000000000000000000000000000081526004016130dd9061459e565b60405180910390fd5b60008111613129576040517f08c379a00000000000000000000000000000000000000000000000000000000081526004016131209061437e565b60405180910390fd5b8060658190555050565b600060019054906101000a900460ff16613182576040517f08c379a00000000000000000000000000000000000000000000000000000000081526004016131799061459e565b60405180910390fd5b6000609860006101000a81548160ff021916908315150217905550565b600060019054906101000a900460ff166131ee576040517f08c379a00000000000000000000000000000000000000000000000000000000081526004016131e59061459e565b60405180910390fd5b6131fe6131f9611a82565b612a95565b565b505050565b6040518060a00160405280600590602082028036833780820191505090505090565b82805482825590600052602060002090600f016010900481019282156132c05791602002820160005b8382111561329057835183826101000a81548161ffff021916908361ffff1602179055509260200192600201602081600101049283019260010302613250565b80156132be5782816101000a81549061ffff0219169055600201602081600101049283019260010302613290565b505b5090506132cd91906133fe565b5090565b82805482825590600052602060002090601f016020900481019282156133675791602002820160005b8382111561333857835183826101000a81548160ff021916908360ff16021790555092602001926001016020816000010492830192600103026132fa565b80156133655782816101000a81549060ff0219169055600101602081600001049283019260010302613338565b505b50905061337491906133fe565b5090565b82805461338490614c61565b90600052602060002090601f0160209004810192826133a657600085556133ed565b82601f106133bf57805160ff19168380011785556133ed565b828001600101855582156133ed579182015b828111156133ec5782518255916020019190600101906133d1565b5b5090506133fa91906133fe565b5090565b5b808211156134175760008160009055506001016133ff565b5090565b600061342e613429846146b6565b614691565b9050808382526020820190508285602086028201111561344d57600080fd5b60005b8581101561349757813567ffffffffffffffff81111561346f57600080fd5b80860161347c8982613779565b85526020850194506020840193505050600181019050613450565b5050509392505050565b60006134b46134af846146e2565b614691565b905080828560208602820111156134ca57600080fd5b60005b858110156134fa57816134e088826137f5565b8452602084019350602083019250506001810190506134cd565b5050509392505050565b600061351761351284614708565b614691565b9050808285602086028201111561352d57600080fd5b60005b8581101561355d57816135438882613834565b845260208401935060208301925050600181019050613530565b5050509392505050565b600061357a6135758461472e565b614691565b90508281526020810184848401111561359257600080fd5b61359d848285614c1f565b509392505050565b60006135b86135b38461475f565b614691565b9050828152602081018484840111156135d057600080fd5b6135db848285614c1f565b509392505050565b6000813590506135f28161540c565b92915050565b600082601f83011261360957600080fd5b813561361984826020860161341b565b91505092915050565b600082601f83011261363357600080fd5b60056136408482856134a1565b91505092915050565b600082601f83011261365a57600080fd5b6005613667848285613504565b91505092915050565b60008135905061367f81615423565b92915050565b600082601f83011261369657600080fd5b81356136a6848260208601613567565b91505092915050565b600082601f8301126136c057600080fd5b81356136d08482602086016135a5565b91505092915050565b600060a082840312156136eb57600080fd5b6136f560a0614691565b9050600082013567ffffffffffffffff81111561371157600080fd5b61371d848285016136af565b6000830152506020613731848285016135e3565b60208301525060406137458482850161381f565b60408301525060606137598482850161380a565b606083015250608061376d848285016137f5565b60808301525092915050565b60006040828403121561378b57600080fd5b6137956040614691565b9050600082013567ffffffffffffffff8111156137b157600080fd5b6137bd848285016136d9565b600083015250602082013567ffffffffffffffff8111156137dd57600080fd5b6137e984828501613685565b60208301525092915050565b6000813590506138048161543a565b92915050565b60008135905061381981615451565b92915050565b60008135905061382e81615468565b92915050565b6000813590506138438161547f565b92915050565b60006020828403121561385b57600080fd5b6000613869848285016135e3565b91505092915050565b6000806040838503121561388557600080fd5b6000613893858286016135e3565b92505060206138a4858286016135e3565b9150509250929050565b6000806000606084860312156138c357600080fd5b60006138d1868287016135e3565b93505060206138e2868287016135e3565b92505060406138f38682870161380a565b9150509250925092565b6000806040838503121561391057600080fd5b600061391e858286016135e3565b925050602061392f8582860161380a565b9150509250929050565b60006020828403121561394b57600080fd5b600082013567ffffffffffffffff81111561396557600080fd5b613971848285016135f8565b91505092915050565b600060a0828403121561398c57600080fd5b600061399a84828501613622565b91505092915050565b600060a082840312156139b557600080fd5b60006139c384828501613649565b91505092915050565b6000602082840312156139de57600080fd5b60006139ec84828501613670565b91505092915050565b60008060408385031215613a0857600080fd5b6000613a1685828601613670565b925050602083013567ffffffffffffffff811115613a3357600080fd5b613a3f85828601613685565b9150509250929050565b600060208284031215613a5b57600080fd5b600082013567ffffffffffffffff811115613a7557600080fd5b613a81848285016136af565b91505092915050565b600060208284031215613a9c57600080fd5b600082013567ffffffffffffffff811115613ab657600080fd5b613ac2848285016136d9565b91505092915050565b60008060408385031215613ade57600080fd5b600083013567ffffffffffffffff811115613af857600080fd5b613b04858286016136d9565b925050602083013567ffffffffffffffff811115613b2157600080fd5b613b2d85828601613685565b9150509250929050565b600060208284031215613b4957600080fd5b6000613b578482850161380a565b91505092915050565b6000613b6c8383614166565b60208301905092915050565b6000613b8483836141b1565b60208301905092915050565b613b9981614b90565b82525050565b613ba881614b90565b82525050565b6000613bb9826147ba565b613bc3818561480d565b9350613bce83614790565b8060005b83811015613bff578151613be68882613b60565b9750613bf1836147e6565b925050600181019050613bd2565b5085935050505092915050565b613c15816147c5565b613c1f818461481e565b9250613c2a826147a0565b8060005b83811015613c5b578151613c428782613b78565b9650613c4d836147f3565b925050600181019050613c2e565b505050505050565b6000613c6e826147d0565b613c788185614829565b9350613c83836147aa565b8060005b83811015613cb4578151613c9b8882613b78565b9750613ca683614800565b925050600181019050613c87565b5085935050505092915050565b613cca81614ba2565b82525050565b613cd981614bae565b82525050565b613cf0613ceb82614bae565b614d62565b82525050565b613cff81614c0d565b82525050565b6000613d10826147db565b613d1a818561483a565b9350613d2a818560208601614c2e565b613d3381614e28565b840191505092915050565b6000613d49826147db565b613d53818561484b565b9350613d63818560208601614c2e565b613d6c81614e28565b840191505092915050565b6000613d82826147db565b613d8c818561485c565b9350613d9c818560208601614c2e565b80840191505092915050565b6000613db560128361484b565b9150613dc082614e46565b602082019050919050565b6000613dd860238361484b565b9150613de382614e6f565b604082019050919050565b6000613dfb60158361484b565b9150613e0682614ebe565b602082019050919050565b6000613e1e60148361484b565b9150613e2982614ee7565b602082019050919050565b6000613e4160228361484b565b9150613e4c82614f10565b604082019050919050565b6000613e64601c8361485c565b9150613e6f82614f5f565b601c82019050919050565b6000613e8760218361484b565b9150613e9282614f88565b604082019050919050565b6000613eaa60268361484b565b9150613eb582614fd7565b604082019050919050565b6000613ecd60228361484b565b9150613ed882615026565b604082019050919050565b6000613ef0601d8361484b565b9150613efb82615075565b602082019050919050565b6000613f1360268361484b565b9150613f1e8261509e565b604082019050919050565b6000613f3660208361484b565b9150613f41826150ed565b602082019050919050565b6000613f5960108361484b565b9150613f6482615116565b602082019050919050565b6000613f7c602e8361484b565b9150613f878261513f565b604082019050919050565b6000613f9f60208361484b565b9150613faa8261518e565b602082019050919050565b6000613fc260218361484b565b9150613fcd826151b7565b604082019050919050565b6000613fe560268361484b565b9150613ff082615206565b604082019050919050565b600061400860258361484b565b915061401382615255565b604082019050919050565b600061402b60198361484b565b9150614036826152a4565b602082019050919050565b600061404e60248361484b565b9150614059826152cd565b604082019050919050565b6000614071602b8361484b565b915061407c8261531c565b604082019050919050565b600061409460188361484b565b915061409f8261536b565b602082019050919050565b60006140b760258361484b565b91506140c282615394565b604082019050919050565b60006140da601f8361484b565b91506140e5826153e3565b602082019050919050565b600060a083016000830151848203600086015261410d8282613d05565b91505060208301516141226020860182613b90565b50604083015161413560408601826141a2565b5060608301516141486060860182614184565b50608083015161415b6080860182614166565b508091505092915050565b61416f81614bb8565b82525050565b61417e81614bb8565b82525050565b61418d81614be6565b82525050565b61419c81614be6565b82525050565b6141ab81614bf0565b82525050565b6141ba81614c00565b82525050565b6141c981614c00565b82525050565b60006141db8284613d77565b915081905092915050565b60006141f182613e57565b91506141fd8284613cdf565b60208201915081905092915050565b60006020820190506142216000830184613b9f565b92915050565b600060208201905081810360008301526142418184613bae565b905092915050565b600060a08201905061425e6000830184613c0c565b92915050565b6000602082019050818103600083015261427e8184613c63565b905092915050565b600060208201905061429b6000830184613cc1565b92915050565b60006020820190506142b66000830184613cd0565b92915050565b60006080820190506142d16000830187613cd0565b6142de60208301866141c0565b6142eb6040830185613cd0565b6142f86060830184613cd0565b95945050505050565b60006020820190506143166000830184613cf6565b92915050565b600060208201905081810360008301526143368184613d3e565b905092915050565b6000602082019050818103600083015261435781613da8565b9050919050565b6000602082019050818103600083015261437781613dcb565b9050919050565b6000602082019050818103600083015261439781613dee565b9050919050565b600060208201905081810360008301526143b781613e11565b9050919050565b600060208201905081810360008301526143d781613e34565b9050919050565b600060208201905081810360008301526143f781613e7a565b9050919050565b6000602082019050818103600083015261441781613e9d565b9050919050565b6000602082019050818103600083015261443781613ec0565b9050919050565b6000602082019050818103600083015261445781613ee3565b9050919050565b6000602082019050818103600083015261447781613f06565b9050919050565b6000602082019050818103600083015261449781613f29565b9050919050565b600060208201905081810360008301526144b781613f4c565b9050919050565b600060208201905081810360008301526144d781613f6f565b9050919050565b600060208201905081810360008301526144f781613f92565b9050919050565b6000602082019050818103600083015261451781613fb5565b9050919050565b6000602082019050818103600083015261453781613fd8565b9050919050565b6000602082019050818103600083015261455781613ffb565b9050919050565b600060208201905081810360008301526145778161401e565b9050919050565b6000602082019050818103600083015261459781614041565b9050919050565b600060208201905081810360008301526145b781614064565b9050919050565b600060208201905081810360008301526145d781614087565b9050919050565b600060208201905081810360008301526145f7816140aa565b9050919050565b60006020820190508181036000830152614617816140cd565b9050919050565b6000602082019050818103600083015261463881846140f0565b905092915050565b60006020820190506146556000830184614175565b92915050565b60006020820190506146706000830184614193565b92915050565b600060208201905061468b60008301846141c0565b92915050565b600061469b6146ac565b90506146a78282614c93565b919050565b6000604051905090565b600067ffffffffffffffff8211156146d1576146d0614df9565b5b602082029050602081019050919050565b600067ffffffffffffffff8211156146fd576146fc614df9565b5b602082029050919050565b600067ffffffffffffffff82111561472357614722614df9565b5b602082029050919050565b600067ffffffffffffffff82111561474957614748614df9565b5b61475282614e28565b9050602081019050919050565b600067ffffffffffffffff82111561477a57614779614df9565b5b61478382614e28565b9050602081019050919050565b6000819050602082019050919050565b6000819050919050565b6000819050602082019050919050565b600081519050919050565b600060059050919050565b600081519050919050565b600081519050919050565b6000602082019050919050565b6000602082019050919050565b6000602082019050919050565b600082825260208201905092915050565b600081905092915050565b600082825260208201905092915050565b600082825260208201905092915050565b600082825260208201905092915050565b600081905092915050565b600061487282614bb8565b915061487d83614bb8565b92508261ffff0382111561489457614893614d6c565b5b828201905092915050565b60006148aa82614be6565b91506148b583614be6565b9250827fffffffffffffffffffffffffffffffffffffffffffffffffffffffffffffffff038211156148ea576148e9614d6c565b5b828201905092915050565b600061490082614c00565b915061490b83614c00565b92508260ff0382111561492157614920614d6c565b5b828201905092915050565b600061493782614be6565b915061494283614be6565b92508261495257614951614d9b565b5b828204905092915050565b6000808291508390505b60018511156149a75780860481111561498357614982614d6c565b5b60018516156149925780820291505b80810290506149a085614e39565b9450614967565b94509492505050565b60006149bb82614be6565b91506149c683614c00565b92506149f37fffffffffffffffffffffffffffffffffffffffffffffffffffffffffffffffff84846149fb565b905092915050565b600082614a0b5760019050614ac7565b81614a195760009050614ac7565b8160018114614a2f5760028114614a3957614a68565b6001915050614ac7565b60ff841115614a4b57614a4a614d6c565b5b8360020a915084821115614a6257614a61614d6c565b5b50614ac7565b5060208310610133831016604e8410600b8410161715614a9d5782820a905083811115614a9857614a97614d6c565b5b614ac7565b614aaa848484600161495d565b92509050818404811115614ac157614ac0614d6c565b5b81810290505b9392505050565b6000614ad982614be6565b9150614ae483614be6565b9250817fffffffffffffffffffffffffffffffffffffffffffffffffffffffffffffffff0483118215151615614b1d57614b1c614d6c565b5b828202905092915050565b6000614b3382614bb8565b9150614b3e83614bb8565b925082821015614b5157614b50614d6c565b5b828203905092915050565b6000614b6782614be6565b9150614b7283614be6565b925082821015614b8557614b84614d6c565b5b828203905092915050565b6000614b9b82614bc6565b9050919050565b60008115159050919050565b6000819050919050565b600061ffff82169050919050565b600073ffffffffffffffffffffffffffffffffffffffff82169050919050565b6000819050919050565b600063ffffffff82169050919050565b600060ff82169050919050565b6000614c1882614c00565b9050919050565b82818337600083830152505050565b60005b83811015614c4c578082015181840152602081019050614c31565b83811115614c5b576000848401525b50505050565b60006002820490506001821680614c7957607f821691505b60208210811415614c8d57614c8c614dca565b5b50919050565b614c9c82614e28565b810181811067ffffffffffffffff82111715614cbb57614cba614df9565b5b80604052505050565b6000614ccf82614bb8565b915061ffff821415614ce457614ce3614d6c565b5b600182019050919050565b6000614cfa82614be6565b91507fffffffffffffffffffffffffffffffffffffffffffffffffffffffffffffffff821415614d2d57614d2c614d6c565b5b600182019050919050565b6000614d4382614c00565b915060ff821415614d5757614d56614d6c565b5b600182019050919050565b6000819050919050565b7f4e487b7100000000000000000000000000000000000000000000000000000000600052601160045260246000fd5b7f4e487b7100000000000000000000000000000000000000000000000000000000600052601260045260246000fd5b7f4e487b7100000000000000000000000000000000000000000000000000000000600052602260045260246000fd5b7f4e487b7100000000000000000000000000000000000000000000000000000000600052604160045260246000fd5b6000601f19601f8301169050919050565b60008160011c9050919050565b7f4d65737361676520697320657870697265640000000000000000000000000000600082015250565b7f45524332303a207472616e7366657220746f20746865207a65726f206164647260008201527f6573730000000000000000000000000000000000000000000000000000000000602082015250565b7f45524332304361707065643a2063617020697320300000000000000000000000600082015250565b7f5061757361626c653a206e6f7420706175736564000000000000000000000000600082015250565b7f45524332303a206275726e20616d6f756e7420657863656564732062616c616e60008201527f6365000000000000000000000000000000000000000000000000000000000000602082015250565b7f19457468657265756d205369676e6564204d6573736167653a0a333200000000600082015250565b7f45524332303a2072657761726420746f20746865207a65726f2061646472657360008201527f7300000000000000000000000000000000000000000000000000000000000000602082015250565b7f4f776e61626c653a206e6577206f776e657220697320746865207a65726f206160008201527f6464726573730000000000000000000000000000000000000000000000000000602082015250565b7f45524332303a20617070726f766520746f20746865207a65726f20616464726560008201527f7373000000000000000000000000000000000000000000000000000000000000602082015250565b7f45524332303a20696e73756666696369656e7420616c6c6f77616e6365000000600082015250565b7f45524332303a207472616e7366657220616d6f756e742065786365656473206260008201527f616c616e63650000000000000000000000000000000000000000000000000000602082015250565b7f4c696d6974206f66207468697320626f756e7479206973206578636565646564600082015250565b7f5061757361626c653a2070617573656400000000000000000000000000000000600082015250565b7f496e697469616c697a61626c653a20636f6e747261637420697320616c72656160008201527f647920696e697469616c697a6564000000000000000000000000000000000000602082015250565b7f4f776e61626c653a2063616c6c6572206973206e6f7420746865206f776e6572600082015250565b7f45524332303a206275726e2066726f6d20746865207a65726f2061646472657360008201527f7300000000000000000000000000000000000000000000000000000000000000602082015250565b7f45524332303a20616d6f756e74206d757374206265206869676865722074686160008201527f6e207a65726f0000000000000000000000000000000000000000000000000000602082015250565b7f45524332303a207472616e736665722066726f6d20746865207a65726f20616460008201527f6472657373000000000000000000000000000000000000000000000000000000602082015250565b7f45524332304361707065643a2063617020657863656564656400000000000000600082015250565b7f45524332303a20617070726f76652066726f6d20746865207a65726f2061646460008201527f7265737300000000000000000000000000000000000000000000000000000000602082015250565b7f496e697469616c697a61626c653a20636f6e7472616374206973206e6f74206960008201527f6e697469616c697a696e67000000000000000000000000000000000000000000602082015250565b7f696e76616c6964207369676e6174757265206c656e6774680000000000000000600082015250565b7f45524332303a2064656372656173656420616c6c6f77616e63652062656c6f7760008201527f207a65726f000000000000000000000000000000000000000000000000000000602082015250565b7f45524332303a206d696e7420746f20746865207a65726f206164647265737300600082015250565b61541581614b90565b811461542057600080fd5b50565b61542c81614bae565b811461543757600080fd5b50565b61544381614bb8565b811461544e57600080fd5b50565b61545a81614be6565b811461546557600080fd5b50565b61547181614bf0565b811461547c57600080fd5b50565b61548881614c00565b811461549357600080fd5b5056fea264697066735822122049a7aea9f6e485a2e06451697b2e6d2e547b3cd3d5f05a94108d96f02a9618ec64736f6c63430008040033",
  "linkReferences": {},
  "deployedLinkReferences": {}
}